{
	"verifier.sol": {
		"BN256G2": {
			"abi": [
				{
					"inputs": [
						{
							"internalType": "uint256",
							"name": "pt1xx",
							"type": "uint256"
						},
						{
							"internalType": "uint256",
							"name": "pt1xy",
							"type": "uint256"
						},
						{
							"internalType": "uint256",
							"name": "pt1yx",
							"type": "uint256"
						},
						{
							"internalType": "uint256",
							"name": "pt1yy",
							"type": "uint256"
						},
						{
							"internalType": "uint256",
							"name": "pt2xx",
							"type": "uint256"
						},
						{
							"internalType": "uint256",
							"name": "pt2xy",
							"type": "uint256"
						},
						{
							"internalType": "uint256",
							"name": "pt2yx",
							"type": "uint256"
						},
						{
							"internalType": "uint256",
							"name": "pt2yy",
							"type": "uint256"
						}
					],
					"name": "ECTwistAdd",
					"outputs": [
						{
							"internalType": "uint256",
							"name": "",
							"type": "uint256"
						},
						{
							"internalType": "uint256",
							"name": "",
							"type": "uint256"
						},
						{
							"internalType": "uint256",
							"name": "",
							"type": "uint256"
						},
						{
							"internalType": "uint256",
							"name": "",
							"type": "uint256"
						}
					],
					"stateMutability": "view",
					"type": "function"
				},
				{
					"inputs": [
						{
							"internalType": "uint256",
							"name": "s",
							"type": "uint256"
						},
						{
							"internalType": "uint256",
							"name": "pt1xx",
							"type": "uint256"
						},
						{
							"internalType": "uint256",
							"name": "pt1xy",
							"type": "uint256"
						},
						{
							"internalType": "uint256",
							"name": "pt1yx",
							"type": "uint256"
						},
						{
							"internalType": "uint256",
							"name": "pt1yy",
							"type": "uint256"
						}
					],
					"name": "ECTwistMul",
					"outputs": [
						{
							"internalType": "uint256",
							"name": "",
							"type": "uint256"
						},
						{
							"internalType": "uint256",
							"name": "",
							"type": "uint256"
						},
						{
							"internalType": "uint256",
							"name": "",
							"type": "uint256"
						},
						{
							"internalType": "uint256",
							"name": "",
							"type": "uint256"
						}
					],
					"stateMutability": "view",
					"type": "function"
				},
				{
					"inputs": [],
					"name": "GetFieldModulus",
					"outputs": [
						{
							"internalType": "uint256",
							"name": "",
							"type": "uint256"
						}
					],
					"stateMutability": "pure",
					"type": "function"
				}
			],
			"devdoc": {
				"author": "Mustafa Al-Bassam (mus@musalbas.com)",
				"details": "Homepage: https://github.com/musalbas/solidity-BN256G2",
				"kind": "dev",
				"methods": {
					"ECTwistAdd(uint256,uint256,uint256,uint256,uint256,uint256,uint256,uint256)": {
						"params": {
							"pt1xx": "Coefficient 1 of x on point 1",
							"pt1xy": "Coefficient 2 of x on point 1",
							"pt1yx": "Coefficient 1 of y on point 1",
							"pt1yy": "Coefficient 2 of y on point 1",
							"pt2xx": "Coefficient 1 of x on point 2",
							"pt2xy": "Coefficient 2 of x on point 2",
							"pt2yx": "Coefficient 1 of y on point 2",
							"pt2yy": "Coefficient 2 of y on point 2"
						},
						"returns": {
							"_0": "(pt3xx, pt3xy, pt3yx, pt3yy)"
						}
					},
					"ECTwistMul(uint256,uint256,uint256,uint256,uint256)": {
						"params": {
							"pt1xx": "Coefficient 1 of x",
							"pt1xy": "Coefficient 2 of x",
							"pt1yx": "Coefficient 1 of y",
							"pt1yy": "Coefficient 2 of y",
							"s": "Scalar to multiply by"
						},
						"returns": {
							"_0": "(pt2xx, pt2xy, pt2yx, pt2yy)"
						}
					},
					"GetFieldModulus()": {
						"returns": {
							"_0": "The field modulus"
						}
					}
				},
				"title": "Elliptic curve operations on twist points for alt_bn128",
				"version": 1
			},
			"evm": {
				"assembly": "    /* \"verifier.sol\":284:14338  library BN256G2 {... */\n  dataSize(sub_0)\n  dataOffset(sub_0)\n  0x0b\n  dup3\n  dup3\n  dup3\n  codecopy\n  dup1\n  mload\n  0x00\n  byte\n  0x73\n  eq\n  tag_1\n  jumpi\n  mstore(0x00, 0x4e487b7100000000000000000000000000000000000000000000000000000000)\n  mstore(0x04, 0x00)\n  revert(0x00, 0x24)\ntag_1:\n  mstore(0x00, address)\n  0x73\n  dup2\n  mstore8\n  dup3\n  dup2\n  return\nstop\n\nsub_0: assembly {\n        /* \"verifier.sol\":284:14338  library BN256G2 {... */\n      eq(address, deployTimeAddress())\n      mstore(0x40, 0x80)\n      jumpi(tag_1, lt(calldatasize, 0x04))\n      shr(0xe0, calldataload(0x00))\n      dup1\n      0x55a3e90f\n      eq\n      tag_2\n      jumpi\n      dup1\n      0x61a931ec\n      eq\n      tag_3\n      jumpi\n      dup1\n      0xb73ab75d\n      eq\n      tag_4\n      jumpi\n    tag_1:\n      0x00\n      dup1\n      revert\n        /* \"verifier.sol\":4167:4261  function GetFieldModulus() public pure returns (uint256) {... */\n    tag_2:\n      tag_5\n      tag_6\n      jump\t// in\n    tag_5:\n      mload(0x40)\n      tag_7\n      swap2\n      swap1\n      tag_8\n      jump\t// in\n    tag_7:\n      mload(0x40)\n      dup1\n      swap2\n      sub\n      swap1\n      return\n        /* \"verifier.sol\":1353:2927  function ECTwistAdd(... */\n    tag_3:\n      tag_9\n      0x04\n      dup1\n      calldatasize\n      sub\n      dup2\n      add\n      swap1\n      tag_10\n      swap2\n      swap1\n      tag_11\n      jump\t// in\n    tag_10:\n      tag_12\n      jump\t// in\n    tag_9:\n      mload(0x40)\n      tag_13\n      swap5\n      swap4\n      swap3\n      swap2\n      swap1\n      tag_14\n      jump\t// in\n    tag_13:\n      mload(0x40)\n      dup1\n      swap2\n      sub\n      swap1\n      return\n        /* \"verifier.sol\":3241:4075  function ECTwistMul(... */\n    tag_4:\n      tag_15\n      0x04\n      dup1\n      calldatasize\n      sub\n      dup2\n      add\n      swap1\n      tag_16\n      swap2\n      swap1\n      tag_17\n      jump\t// in\n    tag_16:\n      tag_18\n      jump\t// in\n    tag_15:\n      mload(0x40)\n      tag_19\n      swap5\n      swap4\n      swap3\n      swap2\n      swap1\n      tag_14\n      jump\t// in\n    tag_19:\n      mload(0x40)\n      dup1\n      swap2\n      sub\n      swap1\n      return\n        /* \"verifier.sol\":4167:4261  function GetFieldModulus() public pure returns (uint256) {... */\n    tag_6:\n        /* \"verifier.sol\":4215:4222  uint256 */\n      0x00\n        /* \"verifier.sol\":348:414  0x30644e72e131a029b85045b68181585d97816a916871ca8d3c208c16d87cfd47 */\n      0x30644e72e131a029b85045b68181585d97816a916871ca8d3c208c16d87cfd47\n        /* \"verifier.sol\":4234:4254  return FIELD_MODULUS */\n      swap1\n      pop\n        /* \"verifier.sol\":4167:4261  function GetFieldModulus() public pure returns (uint256) {... */\n      swap1\n      jump\t// out\n        /* \"verifier.sol\":1353:2927  function ECTwistAdd(... */\n    tag_12:\n        /* \"verifier.sol\":1561:1568  uint256 */\n      0x00\n        /* \"verifier.sol\":1570:1577  uint256 */\n      dup1\n        /* \"verifier.sol\":1587:1594  uint256 */\n      0x00\n        /* \"verifier.sol\":1596:1603  uint256 */\n      dup1\n        /* \"verifier.sol\":1646:1647  0 */\n      0x00\n        /* \"verifier.sol\":1637:1642  pt1xx */\n      dup13\n        /* \"verifier.sol\":1637:1647  pt1xx == 0 */\n      eq\n        /* \"verifier.sol\":1637:1661  pt1xx == 0 && pt1xy == 0 */\n      dup1\n      iszero\n      tag_22\n      jumpi\n      pop\n        /* \"verifier.sol\":1660:1661  0 */\n      0x00\n        /* \"verifier.sol\":1651:1656  pt1xy */\n      dup12\n        /* \"verifier.sol\":1651:1661  pt1xy == 0 */\n      eq\n        /* \"verifier.sol\":1637:1661  pt1xx == 0 && pt1xy == 0 */\n    tag_22:\n        /* \"verifier.sol\":1637:1687  pt1xx == 0 && pt1xy == 0 &&... */\n      dup1\n      iszero\n      tag_23\n      jumpi\n      pop\n        /* \"verifier.sol\":1686:1687  0 */\n      0x00\n        /* \"verifier.sol\":1677:1682  pt1yx */\n      dup11\n        /* \"verifier.sol\":1677:1687  pt1yx == 0 */\n      eq\n        /* \"verifier.sol\":1637:1687  pt1xx == 0 && pt1xy == 0 &&... */\n    tag_23:\n        /* \"verifier.sol\":1637:1701  pt1xx == 0 && pt1xy == 0 &&... */\n      dup1\n      iszero\n      tag_24\n      jumpi\n      pop\n        /* \"verifier.sol\":1700:1701  0 */\n      0x00\n        /* \"verifier.sol\":1691:1696  pt1yy */\n      dup10\n        /* \"verifier.sol\":1691:1701  pt1yy == 0 */\n      eq\n        /* \"verifier.sol\":1637:1701  pt1xx == 0 && pt1xy == 0 &&... */\n    tag_24:\n        /* \"verifier.sol\":1620:2385  if (... */\n      iszero\n      tag_25\n      jumpi\n        /* \"verifier.sol\":1758:1759  0 */\n      0x00\n        /* \"verifier.sol\":1749:1754  pt2xx */\n      dup9\n        /* \"verifier.sol\":1749:1759  pt2xx == 0 */\n      eq\n        /* \"verifier.sol\":1749:1773  pt2xx == 0 && pt2xy == 0 */\n      dup1\n      iszero\n      tag_26\n      jumpi\n      pop\n        /* \"verifier.sol\":1772:1773  0 */\n      0x00\n        /* \"verifier.sol\":1763:1768  pt2xy */\n      dup8\n        /* \"verifier.sol\":1763:1773  pt2xy == 0 */\n      eq\n        /* \"verifier.sol\":1749:1773  pt2xx == 0 && pt2xy == 0 */\n    tag_26:\n        /* \"verifier.sol\":1749:1803  pt2xx == 0 && pt2xy == 0 &&... */\n      dup1\n      iszero\n      tag_27\n      jumpi\n      pop\n        /* \"verifier.sol\":1802:1803  0 */\n      0x00\n        /* \"verifier.sol\":1793:1798  pt2yx */\n      dup7\n        /* \"verifier.sol\":1793:1803  pt2yx == 0 */\n      eq\n        /* \"verifier.sol\":1749:1803  pt2xx == 0 && pt2xy == 0 &&... */\n    tag_27:\n        /* \"verifier.sol\":1749:1817  pt2xx == 0 && pt2xy == 0 &&... */\n      dup1\n      iszero\n      tag_28\n      jumpi\n      pop\n        /* \"verifier.sol\":1816:1817  0 */\n      0x00\n        /* \"verifier.sol\":1807:1812  pt2yy */\n      dup6\n        /* \"verifier.sol\":1807:1817  pt2yy == 0 */\n      eq\n        /* \"verifier.sol\":1749:1817  pt2xx == 0 && pt2xy == 0 &&... */\n    tag_28:\n        /* \"verifier.sol\":1726:1970  if (!(... */\n      tag_29\n      jumpi\n        /* \"verifier.sol\":1858:1954  _isOnCurve(... */\n      tag_30\n        /* \"verifier.sol\":1890:1895  pt2xx */\n      dup9\n        /* \"verifier.sol\":1897:1902  pt2xy */\n      dup9\n        /* \"verifier.sol\":1924:1929  pt2yx */\n      dup9\n        /* \"verifier.sol\":1931:1936  pt2yy */\n      dup9\n        /* \"verifier.sol\":1858:1868  _isOnCurve */\n      tag_31\n        /* \"verifier.sol\":1858:1954  _isOnCurve(... */\n      jump\t// in\n    tag_30:\n        /* \"verifier.sol\":1851:1955  assert(_isOnCurve(... */\n      tag_32\n      jumpi\n      tag_33\n      tag_34\n      jump\t// in\n    tag_33:\n    tag_32:\n        /* \"verifier.sol\":1726:1970  if (!(... */\n    tag_29:\n        /* \"verifier.sol\":2008:2013  pt2xx */\n      dup8\n        /* \"verifier.sol\":2015:2020  pt2xy */\n      dup8\n        /* \"verifier.sol\":2038:2043  pt2yx */\n      dup8\n        /* \"verifier.sol\":2045:2050  pt2yy */\n      dup8\n        /* \"verifier.sol\":1983:2064  return (... */\n      swap4\n      pop\n      swap4\n      pop\n      swap4\n      pop\n      swap4\n      pop\n      jump(tag_21)\n        /* \"verifier.sol\":1620:2385  if (... */\n    tag_25:\n        /* \"verifier.sol\":2107:2108  0 */\n      0x00\n        /* \"verifier.sol\":2098:2103  pt2xx */\n      dup9\n        /* \"verifier.sol\":2098:2108  pt2xx == 0 */\n      eq\n        /* \"verifier.sol\":2098:2122  pt2xx == 0 && pt2xy == 0 */\n      dup1\n      iszero\n      tag_36\n      jumpi\n      pop\n        /* \"verifier.sol\":2121:2122  0 */\n      0x00\n        /* \"verifier.sol\":2112:2117  pt2xy */\n      dup8\n        /* \"verifier.sol\":2112:2122  pt2xy == 0 */\n      eq\n        /* \"verifier.sol\":2098:2122  pt2xx == 0 && pt2xy == 0 */\n    tag_36:\n        /* \"verifier.sol\":2098:2148  pt2xx == 0 && pt2xy == 0 &&... */\n      dup1\n      iszero\n      tag_37\n      jumpi\n      pop\n        /* \"verifier.sol\":2147:2148  0 */\n      0x00\n        /* \"verifier.sol\":2138:2143  pt2yx */\n      dup7\n        /* \"verifier.sol\":2138:2148  pt2yx == 0 */\n      eq\n        /* \"verifier.sol\":2098:2148  pt2xx == 0 && pt2xy == 0 &&... */\n    tag_37:\n        /* \"verifier.sol\":2098:2162  pt2xx == 0 && pt2xy == 0 &&... */\n      dup1\n      iszero\n      tag_38\n      jumpi\n      pop\n        /* \"verifier.sol\":2161:2162  0 */\n      0x00\n        /* \"verifier.sol\":2152:2157  pt2yy */\n      dup6\n        /* \"verifier.sol\":2152:2162  pt2yy == 0 */\n      eq\n        /* \"verifier.sol\":2098:2162  pt2xx == 0 && pt2xy == 0 &&... */\n    tag_38:\n        /* \"verifier.sol\":2081:2385  if (... */\n      iszero\n      tag_39\n      jumpi\n        /* \"verifier.sol\":2194:2278  _isOnCurve(... */\n      tag_40\n        /* \"verifier.sol\":2222:2227  pt1xx */\n      dup13\n        /* \"verifier.sol\":2229:2234  pt1xy */\n      dup13\n        /* \"verifier.sol\":2252:2257  pt1yx */\n      dup13\n        /* \"verifier.sol\":2259:2264  pt1yy */\n      dup13\n        /* \"verifier.sol\":2194:2204  _isOnCurve */\n      tag_31\n        /* \"verifier.sol\":2194:2278  _isOnCurve(... */\n      jump\t// in\n    tag_40:\n        /* \"verifier.sol\":2187:2279  assert(_isOnCurve(... */\n      tag_41\n      jumpi\n      tag_42\n      tag_34\n      jump\t// in\n    tag_42:\n    tag_41:\n        /* \"verifier.sol\":2318:2323  pt1xx */\n      dup12\n        /* \"verifier.sol\":2325:2330  pt1xy */\n      dup12\n        /* \"verifier.sol\":2348:2353  pt1yx */\n      dup12\n        /* \"verifier.sol\":2355:2360  pt1yy */\n      dup12\n        /* \"verifier.sol\":2293:2374  return (... */\n      swap4\n      pop\n      swap4\n      pop\n      swap4\n      pop\n      swap4\n      pop\n      jump(tag_21)\n        /* \"verifier.sol\":2081:2385  if (... */\n    tag_39:\n        /* \"verifier.sol\":2402:2474  _isOnCurve(... */\n      tag_43\n        /* \"verifier.sol\":2426:2431  pt1xx */\n      dup13\n        /* \"verifier.sol\":2433:2438  pt1xy */\n      dup13\n        /* \"verifier.sol\":2452:2457  pt1yx */\n      dup13\n        /* \"verifier.sol\":2459:2464  pt1yy */\n      dup13\n        /* \"verifier.sol\":2402:2412  _isOnCurve */\n      tag_31\n        /* \"verifier.sol\":2402:2474  _isOnCurve(... */\n      jump\t// in\n    tag_43:\n        /* \"verifier.sol\":2395:2475  assert(_isOnCurve(... */\n      tag_44\n      jumpi\n      tag_45\n      tag_34\n      jump\t// in\n    tag_45:\n    tag_44:\n        /* \"verifier.sol\":2492:2564  _isOnCurve(... */\n      tag_46\n        /* \"verifier.sol\":2516:2521  pt2xx */\n      dup9\n        /* \"verifier.sol\":2523:2528  pt2xy */\n      dup9\n        /* \"verifier.sol\":2542:2547  pt2yx */\n      dup9\n        /* \"verifier.sol\":2549:2554  pt2yy */\n      dup9\n        /* \"verifier.sol\":2492:2502  _isOnCurve */\n      tag_31\n        /* \"verifier.sol\":2492:2564  _isOnCurve(... */\n      jump\t// in\n    tag_46:\n        /* \"verifier.sol\":2485:2565  assert(_isOnCurve(... */\n      tag_47\n      jumpi\n      tag_48\n      tag_34\n      jump\t// in\n    tag_48:\n    tag_47:\n        /* \"verifier.sol\":2576:2597  uint256[6] memory pt3 */\n      0x00\n        /* \"verifier.sol\":2600:2777  _ECTwistAddJacobian(... */\n      tag_49\n        /* \"verifier.sol\":2633:2638  pt1xx */\n      dup14\n        /* \"verifier.sol\":2640:2645  pt1xy */\n      dup14\n        /* \"verifier.sol\":2659:2664  pt1yx */\n      dup14\n        /* \"verifier.sol\":2666:2671  pt1yy */\n      dup14\n        /* \"verifier.sol\":2685:2686  1 */\n      0x01\n        /* \"verifier.sol\":2692:2693  0 */\n      0x00\n        /* \"verifier.sol\":2707:2712  pt2xx */\n      dup16\n        /* \"verifier.sol\":2714:2719  pt2xy */\n      dup16\n        /* \"verifier.sol\":2733:2738  pt2yx */\n      dup16\n        /* \"verifier.sol\":2740:2745  pt2yy */\n      dup16\n        /* \"verifier.sol\":2759:2760  1 */\n      0x01\n        /* \"verifier.sol\":2766:2767  0 */\n      0x00\n        /* \"verifier.sol\":2600:2619  _ECTwistAddJacobian */\n      tag_50\n        /* \"verifier.sol\":2600:2777  _ECTwistAddJacobian(... */\n      jump\t// in\n    tag_49:\n        /* \"verifier.sol\":2576:2777  uint256[6] memory pt3 = _ECTwistAddJacobian(... */\n      swap1\n      pop\n        /* \"verifier.sol\":2795:2920  _fromJacobian(... */\n      tag_51\n        /* \"verifier.sol\":2822:2825  pt3 */\n      dup2\n        /* \"verifier.sol\":664:665  0 */\n      0x00\n        /* \"verifier.sol\":2822:2831  pt3[PTXX] */\n      0x06\n      dup2\n      lt\n      tag_52\n      jumpi\n      tag_53\n      tag_54\n      jump\t// in\n    tag_53:\n    tag_52:\n      0x20\n      mul\n      add\n      mload\n        /* \"verifier.sol\":2833:2836  pt3 */\n      dup3\n        /* \"verifier.sol\":701:702  1 */\n      0x01\n        /* \"verifier.sol\":2833:2842  pt3[PTXY] */\n      0x06\n      dup2\n      lt\n      tag_55\n      jumpi\n      tag_56\n      tag_54\n      jump\t// in\n    tag_56:\n    tag_55:\n      0x20\n      mul\n      add\n      mload\n        /* \"verifier.sol\":2856:2859  pt3 */\n      dup4\n        /* \"verifier.sol\":738:739  2 */\n      0x02\n        /* \"verifier.sol\":2856:2865  pt3[PTYX] */\n      0x06\n      dup2\n      lt\n      tag_57\n      jumpi\n      tag_58\n      tag_54\n      jump\t// in\n    tag_58:\n    tag_57:\n      0x20\n      mul\n      add\n      mload\n        /* \"verifier.sol\":2867:2870  pt3 */\n      dup5\n        /* \"verifier.sol\":775:776  3 */\n      0x03\n        /* \"verifier.sol\":2867:2876  pt3[PTYY] */\n      0x06\n      dup2\n      lt\n      tag_59\n      jumpi\n      tag_60\n      tag_54\n      jump\t// in\n    tag_60:\n    tag_59:\n      0x20\n      mul\n      add\n      mload\n        /* \"verifier.sol\":2890:2893  pt3 */\n      dup6\n        /* \"verifier.sol\":812:813  4 */\n      0x04\n        /* \"verifier.sol\":2890:2899  pt3[PTZX] */\n      0x06\n      dup2\n      lt\n      tag_61\n      jumpi\n      tag_62\n      tag_54\n      jump\t// in\n    tag_62:\n    tag_61:\n      0x20\n      mul\n      add\n      mload\n        /* \"verifier.sol\":2901:2904  pt3 */\n      dup7\n        /* \"verifier.sol\":849:850  5 */\n      0x05\n        /* \"verifier.sol\":2901:2910  pt3[PTZY] */\n      0x06\n      dup2\n      lt\n      tag_63\n      jumpi\n      tag_64\n      tag_54\n      jump\t// in\n    tag_64:\n    tag_63:\n      0x20\n      mul\n      add\n      mload\n        /* \"verifier.sol\":2795:2808  _fromJacobian */\n      tag_65\n        /* \"verifier.sol\":2795:2920  _fromJacobian(... */\n      jump\t// in\n    tag_51:\n        /* \"verifier.sol\":2788:2920  return _fromJacobian(... */\n      swap5\n      pop\n      swap5\n      pop\n      swap5\n      pop\n      swap5\n      pop\n      pop\n        /* \"verifier.sol\":1353:2927  function ECTwistAdd(... */\n    tag_21:\n      swap9\n      pop\n      swap9\n      pop\n      swap9\n      pop\n      swap9\n      swap5\n      pop\n      pop\n      pop\n      pop\n      pop\n      jump\t// out\n        /* \"verifier.sol\":3241:4075  function ECTwistMul(... */\n    tag_18:\n        /* \"verifier.sol\":3392:3399  uint256 */\n      0x00\n        /* \"verifier.sol\":3401:3408  uint256 */\n      dup1\n        /* \"verifier.sol\":3418:3425  uint256 */\n      0x00\n        /* \"verifier.sol\":3427:3434  uint256 */\n      dup1\n        /* \"verifier.sol\":3451:3464  uint256 pt1zx */\n      0x00\n        /* \"verifier.sol\":3467:3468  1 */\n      0x01\n        /* \"verifier.sol\":3451:3468  uint256 pt1zx = 1 */\n      swap1\n      pop\n        /* \"verifier.sol\":3504:3505  0 */\n      0x00\n        /* \"verifier.sol\":3495:3500  pt1xx */\n      dup10\n        /* \"verifier.sol\":3495:3505  pt1xx == 0 */\n      eq\n        /* \"verifier.sol\":3495:3519  pt1xx == 0 && pt1xy == 0 */\n      dup1\n      iszero\n      tag_67\n      jumpi\n      pop\n        /* \"verifier.sol\":3518:3519  0 */\n      0x00\n        /* \"verifier.sol\":3509:3514  pt1xy */\n      dup9\n        /* \"verifier.sol\":3509:3519  pt1xy == 0 */\n      eq\n        /* \"verifier.sol\":3495:3519  pt1xx == 0 && pt1xy == 0 */\n    tag_67:\n        /* \"verifier.sol\":3495:3545  pt1xx == 0 && pt1xy == 0 &&... */\n      dup1\n      iszero\n      tag_68\n      jumpi\n      pop\n        /* \"verifier.sol\":3544:3545  0 */\n      0x00\n        /* \"verifier.sol\":3535:3540  pt1yx */\n      dup8\n        /* \"verifier.sol\":3535:3545  pt1yx == 0 */\n      eq\n        /* \"verifier.sol\":3495:3545  pt1xx == 0 && pt1xy == 0 &&... */\n    tag_68:\n        /* \"verifier.sol\":3495:3559  pt1xx == 0 && pt1xy == 0 &&... */\n      dup1\n      iszero\n      tag_69\n      jumpi\n      pop\n        /* \"verifier.sol\":3558:3559  0 */\n      0x00\n        /* \"verifier.sol\":3549:3554  pt1yy */\n      dup7\n        /* \"verifier.sol\":3549:3559  pt1yy == 0 */\n      eq\n        /* \"verifier.sol\":3495:3559  pt1xx == 0 && pt1xy == 0 &&... */\n    tag_69:\n        /* \"verifier.sol\":3478:3773  if (... */\n      iszero\n      tag_70\n      jumpi\n        /* \"verifier.sol\":3592:3593  1 */\n      0x01\n        /* \"verifier.sol\":3584:3593  pt1xx = 1 */\n      swap9\n      pop\n        /* \"verifier.sol\":3615:3616  1 */\n      0x01\n        /* \"verifier.sol\":3607:3616  pt1yx = 1 */\n      swap7\n      pop\n        /* \"verifier.sol\":3638:3639  0 */\n      0x00\n        /* \"verifier.sol\":3630:3639  pt1zx = 0 */\n      swap1\n      pop\n        /* \"verifier.sol\":3478:3773  if (... */\n      jump(tag_71)\n    tag_70:\n        /* \"verifier.sol\":3677:3761  _isOnCurve(... */\n      tag_72\n        /* \"verifier.sol\":3705:3710  pt1xx */\n      dup10\n        /* \"verifier.sol\":3712:3717  pt1xy */\n      dup10\n        /* \"verifier.sol\":3735:3740  pt1yx */\n      dup10\n        /* \"verifier.sol\":3742:3747  pt1yy */\n      dup10\n        /* \"verifier.sol\":3677:3687  _isOnCurve */\n      tag_31\n        /* \"verifier.sol\":3677:3761  _isOnCurve(... */\n      jump\t// in\n    tag_72:\n        /* \"verifier.sol\":3670:3762  assert(_isOnCurve(... */\n      tag_73\n      jumpi\n      tag_74\n      tag_34\n      jump\t// in\n    tag_74:\n    tag_73:\n        /* \"verifier.sol\":3478:3773  if (... */\n    tag_71:\n        /* \"verifier.sol\":3783:3804  uint256[6] memory pt2 */\n      0x00\n        /* \"verifier.sol\":3807:3925  _ECTwistMulJacobian(... */\n      tag_75\n        /* \"verifier.sol\":3840:3841  s */\n      dup12\n        /* \"verifier.sol\":3855:3860  pt1xx */\n      dup12\n        /* \"verifier.sol\":3862:3867  pt1xy */\n      dup12\n        /* \"verifier.sol\":3881:3886  pt1yx */\n      dup12\n        /* \"verifier.sol\":3888:3893  pt1yy */\n      dup12\n        /* \"verifier.sol\":3907:3912  pt1zx */\n      dup8\n        /* \"verifier.sol\":3914:3915  0 */\n      0x00\n        /* \"verifier.sol\":3807:3826  _ECTwistMulJacobian */\n      tag_76\n        /* \"verifier.sol\":3807:3925  _ECTwistMulJacobian(... */\n      jump\t// in\n    tag_75:\n        /* \"verifier.sol\":3783:3925  uint256[6] memory pt2 = _ECTwistMulJacobian(... */\n      swap1\n      pop\n        /* \"verifier.sol\":3943:4068  _fromJacobian(... */\n      tag_77\n        /* \"verifier.sol\":3970:3973  pt2 */\n      dup2\n        /* \"verifier.sol\":664:665  0 */\n      0x00\n        /* \"verifier.sol\":3970:3979  pt2[PTXX] */\n      0x06\n      dup2\n      lt\n      tag_78\n      jumpi\n      tag_79\n      tag_54\n      jump\t// in\n    tag_79:\n    tag_78:\n      0x20\n      mul\n      add\n      mload\n        /* \"verifier.sol\":3981:3984  pt2 */\n      dup3\n        /* \"verifier.sol\":701:702  1 */\n      0x01\n        /* \"verifier.sol\":3981:3990  pt2[PTXY] */\n      0x06\n      dup2\n      lt\n      tag_80\n      jumpi\n      tag_81\n      tag_54\n      jump\t// in\n    tag_81:\n    tag_80:\n      0x20\n      mul\n      add\n      mload\n        /* \"verifier.sol\":4004:4007  pt2 */\n      dup4\n        /* \"verifier.sol\":738:739  2 */\n      0x02\n        /* \"verifier.sol\":4004:4013  pt2[PTYX] */\n      0x06\n      dup2\n      lt\n      tag_82\n      jumpi\n      tag_83\n      tag_54\n      jump\t// in\n    tag_83:\n    tag_82:\n      0x20\n      mul\n      add\n      mload\n        /* \"verifier.sol\":4015:4018  pt2 */\n      dup5\n        /* \"verifier.sol\":775:776  3 */\n      0x03\n        /* \"verifier.sol\":4015:4024  pt2[PTYY] */\n      0x06\n      dup2\n      lt\n      tag_84\n      jumpi\n      tag_85\n      tag_54\n      jump\t// in\n    tag_85:\n    tag_84:\n      0x20\n      mul\n      add\n      mload\n        /* \"verifier.sol\":4038:4041  pt2 */\n      dup6\n        /* \"verifier.sol\":812:813  4 */\n      0x04\n        /* \"verifier.sol\":4038:4047  pt2[PTZX] */\n      0x06\n      dup2\n      lt\n      tag_86\n      jumpi\n      tag_87\n      tag_54\n      jump\t// in\n    tag_87:\n    tag_86:\n      0x20\n      mul\n      add\n      mload\n        /* \"verifier.sol\":4049:4052  pt2 */\n      dup7\n        /* \"verifier.sol\":849:850  5 */\n      0x05\n        /* \"verifier.sol\":4049:4058  pt2[PTZY] */\n      0x06\n      dup2\n      lt\n      tag_88\n      jumpi\n      tag_89\n      tag_54\n      jump\t// in\n    tag_89:\n    tag_88:\n      0x20\n      mul\n      add\n      mload\n        /* \"verifier.sol\":3943:3956  _fromJacobian */\n      tag_65\n        /* \"verifier.sol\":3943:4068  _fromJacobian(... */\n      jump\t// in\n    tag_77:\n        /* \"verifier.sol\":3936:4068  return _fromJacobian(... */\n      swap6\n      pop\n      swap6\n      pop\n      swap6\n      pop\n      swap6\n      pop\n      pop\n      pop\n        /* \"verifier.sol\":3241:4075  function ECTwistMul(... */\n      swap6\n      pop\n      swap6\n      pop\n      swap6\n      pop\n      swap6\n      swap2\n      pop\n      pop\n      jump\t// out\n        /* \"verifier.sol\":6078:6583  function _isOnCurve(... */\n    tag_31:\n        /* \"verifier.sol\":6191:6195  bool */\n      0x00\n        /* \"verifier.sol\":6207:6218  uint256 yyx */\n      dup1\n        /* \"verifier.sol\":6228:6239  uint256 yyy */\n      0x00\n        /* \"verifier.sol\":6249:6261  uint256 xxxx */\n      dup1\n        /* \"verifier.sol\":6271:6283  uint256 xxxy */\n      0x00\n        /* \"verifier.sol\":6306:6329  _FQ2Mul(yx, yy, yx, yy) */\n      tag_91\n        /* \"verifier.sol\":6314:6316  yx */\n      dup8\n        /* \"verifier.sol\":6318:6320  yy */\n      dup8\n        /* \"verifier.sol\":6322:6324  yx */\n      dup10\n        /* \"verifier.sol\":6326:6328  yy */\n      dup10\n        /* \"verifier.sol\":6306:6313  _FQ2Mul */\n      tag_92\n        /* \"verifier.sol\":6306:6329  _FQ2Mul(yx, yy, yx, yy) */\n      jump\t// in\n    tag_91:\n        /* \"verifier.sol\":6293:6329  (yyx, yyy) = _FQ2Mul(yx, yy, yx, yy) */\n      dup1\n      swap5\n      pop\n      dup2\n      swap6\n      pop\n      pop\n      pop\n        /* \"verifier.sol\":6354:6377  _FQ2Mul(xx, xy, xx, xy) */\n      tag_93\n        /* \"verifier.sol\":6362:6364  xx */\n      dup10\n        /* \"verifier.sol\":6366:6368  xy */\n      dup10\n        /* \"verifier.sol\":6370:6372  xx */\n      dup12\n        /* \"verifier.sol\":6374:6376  xy */\n      dup12\n        /* \"verifier.sol\":6354:6361  _FQ2Mul */\n      tag_92\n        /* \"verifier.sol\":6354:6377  _FQ2Mul(xx, xy, xx, xy) */\n      jump\t// in\n    tag_93:\n        /* \"verifier.sol\":6339:6377  (xxxx, xxxy) = _FQ2Mul(xx, xy, xx, xy) */\n      dup1\n      swap3\n      pop\n      dup2\n      swap4\n      pop\n      pop\n      pop\n        /* \"verifier.sol\":6402:6429  _FQ2Mul(xxxx, xxxy, xx, xy) */\n      tag_94\n        /* \"verifier.sol\":6410:6414  xxxx */\n      dup3\n        /* \"verifier.sol\":6416:6420  xxxy */\n      dup3\n        /* \"verifier.sol\":6422:6424  xx */\n      dup12\n        /* \"verifier.sol\":6426:6428  xy */\n      dup12\n        /* \"verifier.sol\":6402:6409  _FQ2Mul */\n      tag_92\n        /* \"verifier.sol\":6402:6429  _FQ2Mul(xxxx, xxxy, xx, xy) */\n      jump\t// in\n    tag_94:\n        /* \"verifier.sol\":6387:6429  (xxxx, xxxy) = _FQ2Mul(xxxx, xxxy, xx, xy) */\n      dup1\n      swap3\n      pop\n      dup2\n      swap4\n      pop\n      pop\n      pop\n        /* \"verifier.sol\":6452:6481  _FQ2Sub(yyx, yyy, xxxx, xxxy) */\n      tag_95\n        /* \"verifier.sol\":6460:6463  yyx */\n      dup5\n        /* \"verifier.sol\":6465:6468  yyy */\n      dup5\n        /* \"verifier.sol\":6470:6474  xxxx */\n      dup5\n        /* \"verifier.sol\":6476:6480  xxxy */\n      dup5\n        /* \"verifier.sol\":6452:6459  _FQ2Sub */\n      tag_96\n        /* \"verifier.sol\":6452:6481  _FQ2Sub(yyx, yyy, xxxx, xxxy) */\n      jump\t// in\n    tag_95:\n        /* \"verifier.sol\":6439:6481  (yyx, yyy) = _FQ2Sub(yyx, yyy, xxxx, xxxy) */\n      dup1\n      swap5\n      pop\n      dup2\n      swap6\n      pop\n      pop\n      pop\n        /* \"verifier.sol\":6504:6539  _FQ2Sub(yyx, yyy, TWISTBX, TWISTBY) */\n      tag_97\n        /* \"verifier.sol\":6512:6515  yyx */\n      dup5\n        /* \"verifier.sol\":6517:6520  yyy */\n      dup5\n        /* \"verifier.sol\":456:522  0x2b149d40ceb8aaae81be18991be06ac3b5b4c5e559dbefa33267e6dc24a138e5 */\n      0x2b149d40ceb8aaae81be18991be06ac3b5b4c5e559dbefa33267e6dc24a138e5\n        /* \"verifier.sol\":564:628  0x9713b03af0fed4cd2cafadeed8fdf4a74fa084e52d1852e4a2bd0685c315d2 */\n      0x9713b03af0fed4cd2cafadeed8fdf4a74fa084e52d1852e4a2bd0685c315d2\n        /* \"verifier.sol\":6504:6511  _FQ2Sub */\n      tag_96\n        /* \"verifier.sol\":6504:6539  _FQ2Sub(yyx, yyy, TWISTBX, TWISTBY) */\n      jump\t// in\n    tag_97:\n        /* \"verifier.sol\":6491:6539  (yyx, yyy) = _FQ2Sub(yyx, yyy, TWISTBX, TWISTBY) */\n      dup1\n      swap5\n      pop\n      dup2\n      swap6\n      pop\n      pop\n      pop\n        /* \"verifier.sol\":6563:6564  0 */\n      0x00\n        /* \"verifier.sol\":6556:6559  yyx */\n      dup5\n        /* \"verifier.sol\":6556:6564  yyx == 0 */\n      eq\n        /* \"verifier.sol\":6556:6576  yyx == 0 && yyy == 0 */\n      dup1\n      iszero\n      tag_98\n      jumpi\n      pop\n        /* \"verifier.sol\":6575:6576  0 */\n      0x00\n        /* \"verifier.sol\":6568:6571  yyy */\n      dup4\n        /* \"verifier.sol\":6568:6576  yyy == 0 */\n      eq\n        /* \"verifier.sol\":6556:6576  yyx == 0 && yyy == 0 */\n    tag_98:\n        /* \"verifier.sol\":6549:6576  return yyx == 0 && yyy == 0 */\n      swap5\n      pop\n      pop\n      pop\n      pop\n      pop\n        /* \"verifier.sol\":6078:6583  function _isOnCurve(... */\n      swap5\n      swap4\n      pop\n      pop\n      pop\n      pop\n      jump\t// out\n        /* \"verifier.sol\":7650:11600  function _ECTwistAddJacobian(... */\n    tag_50:\n        /* \"verifier.sol\":7931:7952  uint256[6] memory pt3 */\n      tag_99\n      tag_100\n      jump\t// in\n    tag_99:\n        /* \"verifier.sol\":7981:7982  0 */\n      0x00\n        /* \"verifier.sol\":7972:7977  pt1zx */\n      dup10\n        /* \"verifier.sol\":7972:7982  pt1zx == 0 */\n      eq\n        /* \"verifier.sol\":7972:7996  pt1zx == 0 && pt1zy == 0 */\n      dup1\n      iszero\n      tag_102\n      jumpi\n      pop\n        /* \"verifier.sol\":7995:7996  0 */\n      0x00\n        /* \"verifier.sol\":7986:7991  pt1zy */\n      dup9\n        /* \"verifier.sol\":7986:7996  pt1zy == 0 */\n      eq\n        /* \"verifier.sol\":7972:7996  pt1zx == 0 && pt1zy == 0 */\n    tag_102:\n        /* \"verifier.sol\":7968:8690  if (pt1zx == 0 && pt1zy == 0) {... */\n      iszero\n      tag_103\n      jumpi\n        /* \"verifier.sol\":8185:8190  pt2xx */\n      dup7\n        /* \"verifier.sol\":8192:8197  pt2xy */\n      dup7\n        /* \"verifier.sol\":8219:8224  pt2yx */\n      dup7\n        /* \"verifier.sol\":8226:8231  pt2yy */\n      dup7\n        /* \"verifier.sol\":8253:8258  pt2zx */\n      dup7\n        /* \"verifier.sol\":8260:8265  pt2zy */\n      dup7\n        /* \"verifier.sol\":8038:8041  pt3 */\n      dup7\n        /* \"verifier.sol\":664:665  0 */\n      0x00\n        /* \"verifier.sol\":8038:8047  pt3[PTXX] */\n      0x06\n      dup2\n      lt\n      tag_104\n      jumpi\n      tag_105\n      tag_54\n      jump\t// in\n    tag_105:\n    tag_104:\n      0x20\n      mul\n      add\n        /* \"verifier.sol\":8049:8052  pt3 */\n      dup8\n        /* \"verifier.sol\":701:702  1 */\n      0x01\n        /* \"verifier.sol\":8049:8058  pt3[PTXY] */\n      0x06\n      dup2\n      lt\n      tag_106\n      jumpi\n      tag_107\n      tag_54\n      jump\t// in\n    tag_107:\n    tag_106:\n      0x20\n      mul\n      add\n        /* \"verifier.sol\":8080:8083  pt3 */\n      dup9\n        /* \"verifier.sol\":738:739  2 */\n      0x02\n        /* \"verifier.sol\":8080:8089  pt3[PTYX] */\n      0x06\n      dup2\n      lt\n      tag_108\n      jumpi\n      tag_109\n      tag_54\n      jump\t// in\n    tag_109:\n    tag_108:\n      0x20\n      mul\n      add\n        /* \"verifier.sol\":8091:8094  pt3 */\n      dup10\n        /* \"verifier.sol\":775:776  3 */\n      0x03\n        /* \"verifier.sol\":8091:8100  pt3[PTYY] */\n      0x06\n      dup2\n      lt\n      tag_110\n      jumpi\n      tag_111\n      tag_54\n      jump\t// in\n    tag_111:\n    tag_110:\n      0x20\n      mul\n      add\n        /* \"verifier.sol\":8122:8125  pt3 */\n      dup11\n        /* \"verifier.sol\":812:813  4 */\n      0x04\n        /* \"verifier.sol\":8122:8131  pt3[PTZX] */\n      0x06\n      dup2\n      lt\n      tag_112\n      jumpi\n      tag_113\n      tag_54\n      jump\t// in\n    tag_113:\n    tag_112:\n      0x20\n      mul\n      add\n        /* \"verifier.sol\":8133:8136  pt3 */\n      dup12\n        /* \"verifier.sol\":849:850  5 */\n      0x05\n        /* \"verifier.sol\":8133:8142  pt3[PTZY] */\n      0x06\n      dup2\n      lt\n      tag_114\n      jumpi\n      tag_115\n      tag_54\n      jump\t// in\n    tag_115:\n    tag_114:\n      0x20\n      mul\n      add\n        /* \"verifier.sol\":8016:8283  (... */\n      dup7\n      dup2\n      mstore\n      pop\n      dup7\n      dup2\n      mstore\n      pop\n      dup7\n      dup2\n      mstore\n      pop\n      dup7\n      dup2\n      mstore\n      pop\n      dup7\n      dup2\n      mstore\n      pop\n      dup7\n      dup2\n      mstore\n      pop\n      pop\n      pop\n      pop\n      pop\n      pop\n      pop\n        /* \"verifier.sol\":8301:8311  return pt3 */\n      jump(tag_101)\n        /* \"verifier.sol\":7968:8690  if (pt1zx == 0 && pt1zy == 0) {... */\n    tag_103:\n        /* \"verifier.sol\":8345:8346  0 */\n      0x00\n        /* \"verifier.sol\":8336:8341  pt2zx */\n      dup4\n        /* \"verifier.sol\":8336:8346  pt2zx == 0 */\n      eq\n        /* \"verifier.sol\":8336:8360  pt2zx == 0 && pt2zy == 0 */\n      dup1\n      iszero\n      tag_117\n      jumpi\n      pop\n        /* \"verifier.sol\":8359:8360  0 */\n      0x00\n        /* \"verifier.sol\":8350:8355  pt2zy */\n      dup3\n        /* \"verifier.sol\":8350:8360  pt2zy == 0 */\n      eq\n        /* \"verifier.sol\":8336:8360  pt2zx == 0 && pt2zy == 0 */\n    tag_117:\n        /* \"verifier.sol\":8332:8690  if (pt2zx == 0 && pt2zy == 0) {... */\n      iszero\n      tag_118\n      jumpi\n        /* \"verifier.sol\":8549:8554  pt1xx */\n      dup13\n        /* \"verifier.sol\":8556:8561  pt1xy */\n      dup13\n        /* \"verifier.sol\":8583:8588  pt1yx */\n      dup13\n        /* \"verifier.sol\":8590:8595  pt1yy */\n      dup13\n        /* \"verifier.sol\":8617:8622  pt1zx */\n      dup13\n        /* \"verifier.sol\":8624:8629  pt1zy */\n      dup13\n        /* \"verifier.sol\":8402:8405  pt3 */\n      dup7\n        /* \"verifier.sol\":664:665  0 */\n      0x00\n        /* \"verifier.sol\":8402:8411  pt3[PTXX] */\n      0x06\n      dup2\n      lt\n      tag_119\n      jumpi\n      tag_120\n      tag_54\n      jump\t// in\n    tag_120:\n    tag_119:\n      0x20\n      mul\n      add\n        /* \"verifier.sol\":8413:8416  pt3 */\n      dup8\n        /* \"verifier.sol\":701:702  1 */\n      0x01\n        /* \"verifier.sol\":8413:8422  pt3[PTXY] */\n      0x06\n      dup2\n      lt\n      tag_121\n      jumpi\n      tag_122\n      tag_54\n      jump\t// in\n    tag_122:\n    tag_121:\n      0x20\n      mul\n      add\n        /* \"verifier.sol\":8444:8447  pt3 */\n      dup9\n        /* \"verifier.sol\":738:739  2 */\n      0x02\n        /* \"verifier.sol\":8444:8453  pt3[PTYX] */\n      0x06\n      dup2\n      lt\n      tag_123\n      jumpi\n      tag_124\n      tag_54\n      jump\t// in\n    tag_124:\n    tag_123:\n      0x20\n      mul\n      add\n        /* \"verifier.sol\":8455:8458  pt3 */\n      dup10\n        /* \"verifier.sol\":775:776  3 */\n      0x03\n        /* \"verifier.sol\":8455:8464  pt3[PTYY] */\n      0x06\n      dup2\n      lt\n      tag_125\n      jumpi\n      tag_126\n      tag_54\n      jump\t// in\n    tag_126:\n    tag_125:\n      0x20\n      mul\n      add\n        /* \"verifier.sol\":8486:8489  pt3 */\n      dup11\n        /* \"verifier.sol\":812:813  4 */\n      0x04\n        /* \"verifier.sol\":8486:8495  pt3[PTZX] */\n      0x06\n      dup2\n      lt\n      tag_127\n      jumpi\n      tag_128\n      tag_54\n      jump\t// in\n    tag_128:\n    tag_127:\n      0x20\n      mul\n      add\n        /* \"verifier.sol\":8497:8500  pt3 */\n      dup12\n        /* \"verifier.sol\":849:850  5 */\n      0x05\n        /* \"verifier.sol\":8497:8506  pt3[PTZY] */\n      0x06\n      dup2\n      lt\n      tag_129\n      jumpi\n      tag_130\n      tag_54\n      jump\t// in\n    tag_130:\n    tag_129:\n      0x20\n      mul\n      add\n        /* \"verifier.sol\":8380:8647  (... */\n      dup7\n      dup2\n      mstore\n      pop\n      dup7\n      dup2\n      mstore\n      pop\n      dup7\n      dup2\n      mstore\n      pop\n      dup7\n      dup2\n      mstore\n      pop\n      dup7\n      dup2\n      mstore\n      pop\n      dup7\n      dup2\n      mstore\n      pop\n      pop\n      pop\n      pop\n      pop\n      pop\n      pop\n        /* \"verifier.sol\":8665:8675  return pt3 */\n      jump(tag_101)\n        /* \"verifier.sol\":8332:8690  if (pt2zx == 0 && pt2zy == 0) {... */\n    tag_118:\n        /* \"verifier.sol\":8729:8764  _FQ2Mul(pt2yx, pt2yy, pt1zx, pt1zy) */\n      tag_131\n        /* \"verifier.sol\":8737:8742  pt2yx */\n      dup6\n        /* \"verifier.sol\":8744:8749  pt2yy */\n      dup6\n        /* \"verifier.sol\":8751:8756  pt1zx */\n      dup12\n        /* \"verifier.sol\":8758:8763  pt1zy */\n      dup12\n        /* \"verifier.sol\":8729:8736  _FQ2Mul */\n      tag_92\n        /* \"verifier.sol\":8729:8764  _FQ2Mul(pt2yx, pt2yy, pt1zx, pt1zy) */\n      jump\t// in\n    tag_131:\n        /* \"verifier.sol\":8704:8764  (pt2yx,     pt2yy)     = _FQ2Mul(pt2yx, pt2yy, pt1zx, pt1zy) */\n      dup1\n      swap6\n      pop\n      dup2\n      swap7\n      pop\n      pop\n      pop\n        /* \"verifier.sol\":8819:8854  _FQ2Mul(pt1yx, pt1yy, pt2zx, pt2zy) */\n      tag_132\n        /* \"verifier.sol\":8827:8832  pt1yx */\n      dup12\n        /* \"verifier.sol\":8834:8839  pt1yy */\n      dup12\n        /* \"verifier.sol\":8841:8846  pt2zx */\n      dup6\n        /* \"verifier.sol\":8848:8853  pt2zy */\n      dup6\n        /* \"verifier.sol\":8819:8826  _FQ2Mul */\n      tag_92\n        /* \"verifier.sol\":8819:8854  _FQ2Mul(pt1yx, pt1yy, pt2zx, pt2zy) */\n      jump\t// in\n    tag_132:\n        /* \"verifier.sol\":8795:8798  pt3 */\n      dup3\n        /* \"verifier.sol\":738:739  2 */\n      0x02\n        /* \"verifier.sol\":8795:8804  pt3[PTYX] */\n      0x06\n      dup2\n      lt\n      tag_133\n      jumpi\n      tag_134\n      tag_54\n      jump\t// in\n    tag_134:\n    tag_133:\n      0x20\n      mul\n      add\n        /* \"verifier.sol\":8806:8809  pt3 */\n      dup4\n        /* \"verifier.sol\":775:776  3 */\n      0x03\n        /* \"verifier.sol\":8806:8815  pt3[PTYY] */\n      0x06\n      dup2\n      lt\n      tag_135\n      jumpi\n      tag_136\n      tag_54\n      jump\t// in\n    tag_136:\n    tag_135:\n      0x20\n      mul\n      add\n        /* \"verifier.sol\":8794:8854  (pt3[PTYX], pt3[PTYY]) = _FQ2Mul(pt1yx, pt1yy, pt2zx, pt2zy) */\n      dup3\n      dup2\n      mstore\n      pop\n      dup3\n      dup2\n      mstore\n      pop\n      pop\n      pop\n        /* \"verifier.sol\":8909:8944  _FQ2Mul(pt2xx, pt2xy, pt1zx, pt1zy) */\n      tag_137\n        /* \"verifier.sol\":8917:8922  pt2xx */\n      dup8\n        /* \"verifier.sol\":8924:8929  pt2xy */\n      dup8\n        /* \"verifier.sol\":8931:8936  pt1zx */\n      dup12\n        /* \"verifier.sol\":8938:8943  pt1zy */\n      dup12\n        /* \"verifier.sol\":8909:8916  _FQ2Mul */\n      tag_92\n        /* \"verifier.sol\":8909:8944  _FQ2Mul(pt2xx, pt2xy, pt1zx, pt1zy) */\n      jump\t// in\n    tag_137:\n        /* \"verifier.sol\":8884:8944  (pt2xx,     pt2xy)     = _FQ2Mul(pt2xx, pt2xy, pt1zx, pt1zy) */\n      dup1\n      swap8\n      pop\n      dup2\n      swap9\n      pop\n      pop\n      pop\n        /* \"verifier.sol\":8999:9034  _FQ2Mul(pt1xx, pt1xy, pt2zx, pt2zy) */\n      tag_138\n        /* \"verifier.sol\":9007:9012  pt1xx */\n      dup14\n        /* \"verifier.sol\":9014:9019  pt1xy */\n      dup14\n        /* \"verifier.sol\":9021:9026  pt2zx */\n      dup6\n        /* \"verifier.sol\":9028:9033  pt2zy */\n      dup6\n        /* \"verifier.sol\":8999:9006  _FQ2Mul */\n      tag_92\n        /* \"verifier.sol\":8999:9034  _FQ2Mul(pt1xx, pt1xy, pt2zx, pt2zy) */\n      jump\t// in\n    tag_138:\n        /* \"verifier.sol\":8975:8978  pt3 */\n      dup3\n        /* \"verifier.sol\":812:813  4 */\n      0x04\n        /* \"verifier.sol\":8975:8984  pt3[PTZX] */\n      0x06\n      dup2\n      lt\n      tag_139\n      jumpi\n      tag_140\n      tag_54\n      jump\t// in\n    tag_140:\n    tag_139:\n      0x20\n      mul\n      add\n        /* \"verifier.sol\":8986:8989  pt3 */\n      dup4\n        /* \"verifier.sol\":849:850  5 */\n      0x05\n        /* \"verifier.sol\":8986:8995  pt3[PTZY] */\n      0x06\n      dup2\n      lt\n      tag_141\n      jumpi\n      tag_142\n      tag_54\n      jump\t// in\n    tag_142:\n    tag_141:\n      0x20\n      mul\n      add\n        /* \"verifier.sol\":8974:9034  (pt3[PTZX], pt3[PTZY]) = _FQ2Mul(pt1xx, pt1xy, pt2zx, pt2zy) */\n      dup3\n      dup2\n      mstore\n      pop\n      dup3\n      dup2\n      mstore\n      pop\n      pop\n      pop\n        /* \"verifier.sol\":9078:9081  pt3 */\n      dup1\n        /* \"verifier.sol\":812:813  4 */\n      0x04\n        /* \"verifier.sol\":9078:9087  pt3[PTZX] */\n      0x06\n      dup2\n      lt\n      tag_143\n      jumpi\n      tag_144\n      tag_54\n      jump\t// in\n    tag_144:\n    tag_143:\n      0x20\n      mul\n      add\n      mload\n        /* \"verifier.sol\":9069:9074  pt2xx */\n      dup8\n        /* \"verifier.sol\":9069:9087  pt2xx == pt3[PTZX] */\n      eq\n        /* \"verifier.sol\":9069:9109  pt2xx == pt3[PTZX] && pt2xy == pt3[PTZY] */\n      dup1\n      iszero\n      tag_145\n      jumpi\n      pop\n        /* \"verifier.sol\":9100:9103  pt3 */\n      dup1\n        /* \"verifier.sol\":849:850  5 */\n      0x05\n        /* \"verifier.sol\":9100:9109  pt3[PTZY] */\n      0x06\n      dup2\n      lt\n      tag_146\n      jumpi\n      tag_147\n      tag_54\n      jump\t// in\n    tag_147:\n    tag_146:\n      0x20\n      mul\n      add\n      mload\n        /* \"verifier.sol\":9091:9096  pt2xy */\n      dup7\n        /* \"verifier.sol\":9091:9109  pt2xy == pt3[PTZY] */\n      eq\n        /* \"verifier.sol\":9069:9109  pt2xx == pt3[PTZX] && pt2xy == pt3[PTZY] */\n    tag_145:\n        /* \"verifier.sol\":9065:9778  if (pt2xx == pt3[PTZX] && pt2xy == pt3[PTZY]) {... */\n      iszero\n      tag_148\n      jumpi\n        /* \"verifier.sol\":9142:9145  pt3 */\n      dup1\n        /* \"verifier.sol\":738:739  2 */\n      0x02\n        /* \"verifier.sol\":9142:9151  pt3[PTYX] */\n      0x06\n      dup2\n      lt\n      tag_149\n      jumpi\n      tag_150\n      tag_54\n      jump\t// in\n    tag_150:\n    tag_149:\n      0x20\n      mul\n      add\n      mload\n        /* \"verifier.sol\":9133:9138  pt2yx */\n      dup6\n        /* \"verifier.sol\":9133:9151  pt2yx == pt3[PTYX] */\n      eq\n        /* \"verifier.sol\":9133:9173  pt2yx == pt3[PTYX] && pt2yy == pt3[PTYY] */\n      dup1\n      iszero\n      tag_151\n      jumpi\n      pop\n        /* \"verifier.sol\":9164:9167  pt3 */\n      dup1\n        /* \"verifier.sol\":775:776  3 */\n      0x03\n        /* \"verifier.sol\":9164:9173  pt3[PTYY] */\n      0x06\n      dup2\n      lt\n      tag_152\n      jumpi\n      tag_153\n      tag_54\n      jump\t// in\n    tag_153:\n    tag_152:\n      0x20\n      mul\n      add\n      mload\n        /* \"verifier.sol\":9155:9160  pt2yy */\n      dup5\n        /* \"verifier.sol\":9155:9173  pt2yy == pt3[PTYY] */\n      eq\n        /* \"verifier.sol\":9133:9173  pt2yx == pt3[PTYX] && pt2yy == pt3[PTYY] */\n    tag_151:\n        /* \"verifier.sol\":9129:9475  if (pt2yx == pt3[PTYX] && pt2yy == pt3[PTYY]) {... */\n      iszero\n      tag_154\n      jumpi\n        /* \"verifier.sol\":9360:9424  _ECTwistDoubleJacobian(pt1xx, pt1xy, pt1yx, pt1yy, pt1zx, pt1zy) */\n      tag_155\n        /* \"verifier.sol\":9383:9388  pt1xx */\n      dup14\n        /* \"verifier.sol\":9390:9395  pt1xy */\n      dup14\n        /* \"verifier.sol\":9397:9402  pt1yx */\n      dup14\n        /* \"verifier.sol\":9404:9409  pt1yy */\n      dup14\n        /* \"verifier.sol\":9411:9416  pt1zx */\n      dup14\n        /* \"verifier.sol\":9418:9423  pt1zy */\n      dup14\n        /* \"verifier.sol\":9360:9382  _ECTwistDoubleJacobian */\n      tag_156\n        /* \"verifier.sol\":9360:9424  _ECTwistDoubleJacobian(pt1xx, pt1xy, pt1yx, pt1yy, pt1zx, pt1zy) */\n      jump\t// in\n    tag_155:\n        /* \"verifier.sol\":9223:9226  pt3 */\n      dup7\n        /* \"verifier.sol\":664:665  0 */\n      0x00\n        /* \"verifier.sol\":9223:9232  pt3[PTXX] */\n      0x06\n      dup2\n      lt\n      tag_157\n      jumpi\n      tag_158\n      tag_54\n      jump\t// in\n    tag_158:\n    tag_157:\n      0x20\n      mul\n      add\n        /* \"verifier.sol\":9234:9237  pt3 */\n      dup8\n        /* \"verifier.sol\":701:702  1 */\n      0x01\n        /* \"verifier.sol\":9234:9243  pt3[PTXY] */\n      0x06\n      dup2\n      lt\n      tag_159\n      jumpi\n      tag_160\n      tag_54\n      jump\t// in\n    tag_160:\n    tag_159:\n      0x20\n      mul\n      add\n        /* \"verifier.sol\":9269:9272  pt3 */\n      dup9\n        /* \"verifier.sol\":738:739  2 */\n      0x02\n        /* \"verifier.sol\":9269:9278  pt3[PTYX] */\n      0x06\n      dup2\n      lt\n      tag_161\n      jumpi\n      tag_162\n      tag_54\n      jump\t// in\n    tag_162:\n    tag_161:\n      0x20\n      mul\n      add\n        /* \"verifier.sol\":9280:9283  pt3 */\n      dup10\n        /* \"verifier.sol\":775:776  3 */\n      0x03\n        /* \"verifier.sol\":9280:9289  pt3[PTYY] */\n      0x06\n      dup2\n      lt\n      tag_163\n      jumpi\n      tag_164\n      tag_54\n      jump\t// in\n    tag_164:\n    tag_163:\n      0x20\n      mul\n      add\n        /* \"verifier.sol\":9315:9318  pt3 */\n      dup11\n        /* \"verifier.sol\":812:813  4 */\n      0x04\n        /* \"verifier.sol\":9315:9324  pt3[PTZX] */\n      0x06\n      dup2\n      lt\n      tag_165\n      jumpi\n      tag_166\n      tag_54\n      jump\t// in\n    tag_166:\n    tag_165:\n      0x20\n      mul\n      add\n        /* \"verifier.sol\":9326:9329  pt3 */\n      dup12\n        /* \"verifier.sol\":849:850  5 */\n      0x05\n        /* \"verifier.sol\":9326:9335  pt3[PTZY] */\n      0x06\n      dup2\n      lt\n      tag_167\n      jumpi\n      tag_168\n      tag_54\n      jump\t// in\n    tag_168:\n    tag_167:\n      0x20\n      mul\n      add\n        /* \"verifier.sol\":9197:9424  (... */\n      dup7\n      dup2\n      mstore\n      pop\n      dup7\n      dup2\n      mstore\n      pop\n      dup7\n      dup2\n      mstore\n      pop\n      dup7\n      dup2\n      mstore\n      pop\n      dup7\n      dup2\n      mstore\n      pop\n      dup7\n      dup2\n      mstore\n      pop\n      pop\n      pop\n      pop\n      pop\n      pop\n      pop\n        /* \"verifier.sol\":9446:9456  return pt3 */\n      jump(tag_101)\n        /* \"verifier.sol\":9129:9475  if (pt2yx == pt3[PTYX] && pt2yy == pt3[PTYY]) {... */\n    tag_154:\n        /* \"verifier.sol\":9661:9662  1 */\n      0x01\n        /* \"verifier.sol\":9664:9665  0 */\n      0x00\n        /* \"verifier.sol\":9687:9688  1 */\n      0x01\n        /* \"verifier.sol\":9690:9691  0 */\n      0x00\n        /* \"verifier.sol\":9713:9714  0 */\n      dup1\n        /* \"verifier.sol\":9716:9717  0 */\n      0x00\n        /* \"verifier.sol\":9514:9517  pt3 */\n      dup7\n        /* \"verifier.sol\":664:665  0 */\n      0x00\n        /* \"verifier.sol\":9514:9523  pt3[PTXX] */\n      0x06\n      dup2\n      lt\n      tag_169\n      jumpi\n      tag_170\n      tag_54\n      jump\t// in\n    tag_170:\n    tag_169:\n      0x20\n      mul\n      add\n        /* \"verifier.sol\":9525:9528  pt3 */\n      dup8\n        /* \"verifier.sol\":701:702  1 */\n      0x01\n        /* \"verifier.sol\":9525:9534  pt3[PTXY] */\n      0x06\n      dup2\n      lt\n      tag_171\n      jumpi\n      tag_172\n      tag_54\n      jump\t// in\n    tag_172:\n    tag_171:\n      0x20\n      mul\n      add\n        /* \"verifier.sol\":9556:9559  pt3 */\n      dup9\n        /* \"verifier.sol\":738:739  2 */\n      0x02\n        /* \"verifier.sol\":9556:9565  pt3[PTYX] */\n      0x06\n      dup2\n      lt\n      tag_173\n      jumpi\n      tag_174\n      tag_54\n      jump\t// in\n    tag_174:\n    tag_173:\n      0x20\n      mul\n      add\n        /* \"verifier.sol\":9567:9570  pt3 */\n      dup10\n        /* \"verifier.sol\":775:776  3 */\n      0x03\n        /* \"verifier.sol\":9567:9576  pt3[PTYY] */\n      0x06\n      dup2\n      lt\n      tag_175\n      jumpi\n      tag_176\n      tag_54\n      jump\t// in\n    tag_176:\n    tag_175:\n      0x20\n      mul\n      add\n        /* \"verifier.sol\":9598:9601  pt3 */\n      dup11\n        /* \"verifier.sol\":812:813  4 */\n      0x04\n        /* \"verifier.sol\":9598:9607  pt3[PTZX] */\n      0x06\n      dup2\n      lt\n      tag_177\n      jumpi\n      tag_178\n      tag_54\n      jump\t// in\n    tag_178:\n    tag_177:\n      0x20\n      mul\n      add\n        /* \"verifier.sol\":9609:9612  pt3 */\n      dup12\n        /* \"verifier.sol\":849:850  5 */\n      0x05\n        /* \"verifier.sol\":9609:9618  pt3[PTZY] */\n      0x06\n      dup2\n      lt\n      tag_179\n      jumpi\n      tag_180\n      tag_54\n      jump\t// in\n    tag_180:\n    tag_179:\n      0x20\n      mul\n      add\n        /* \"verifier.sol\":9492:9735  (... */\n      dup7\n      dup2\n      mstore\n      pop\n      dup7\n      dup2\n      mstore\n      pop\n      dup7\n      dup2\n      mstore\n      pop\n      dup7\n      dup2\n      mstore\n      pop\n      dup7\n      dup2\n      mstore\n      pop\n      dup7\n      dup2\n      mstore\n      pop\n      pop\n      pop\n      pop\n      pop\n      pop\n      pop\n        /* \"verifier.sol\":9753:9763  return pt3 */\n      jump(tag_101)\n        /* \"verifier.sol\":9065:9778  if (pt2xx == pt3[PTZX] && pt2xy == pt3[PTZY]) {... */\n    tag_148:\n        /* \"verifier.sol\":9817:9856  _FQ2Mul(pt1zx, pt1zy, pt2zx,     pt2zy) */\n      tag_181\n        /* \"verifier.sol\":9825:9830  pt1zx */\n      dup10\n        /* \"verifier.sol\":9832:9837  pt1zy */\n      dup10\n        /* \"verifier.sol\":9839:9844  pt2zx */\n      dup6\n        /* \"verifier.sol\":9850:9855  pt2zy */\n      dup6\n        /* \"verifier.sol\":9817:9824  _FQ2Mul */\n      tag_92\n        /* \"verifier.sol\":9817:9856  _FQ2Mul(pt1zx, pt1zy, pt2zx,     pt2zy) */\n      jump\t// in\n    tag_181:\n        /* \"verifier.sol\":9792:9856  (pt2zx,     pt2zy)     = _FQ2Mul(pt1zx, pt1zy, pt2zx,     pt2zy) */\n      dup1\n      swap4\n      pop\n      dup2\n      swap5\n      pop\n      pop\n      pop\n        /* \"verifier.sol\":9914:9957  _FQ2Sub(pt2yx, pt2yy, pt3[PTYX], pt3[PTYY]) */\n      tag_182\n        /* \"verifier.sol\":9922:9927  pt2yx */\n      dup6\n        /* \"verifier.sol\":9929:9934  pt2yy */\n      dup6\n        /* \"verifier.sol\":9936:9939  pt3 */\n      dup4\n        /* \"verifier.sol\":738:739  2 */\n      0x02\n        /* \"verifier.sol\":9936:9945  pt3[PTYX] */\n      0x06\n      dup2\n      lt\n      tag_183\n      jumpi\n      tag_184\n      tag_54\n      jump\t// in\n    tag_184:\n    tag_183:\n      0x20\n      mul\n      add\n      mload\n        /* \"verifier.sol\":9947:9950  pt3 */\n      dup5\n        /* \"verifier.sol\":775:776  3 */\n      0x03\n        /* \"verifier.sol\":9947:9956  pt3[PTYY] */\n      0x06\n      dup2\n      lt\n      tag_185\n      jumpi\n      tag_186\n      tag_54\n      jump\t// in\n    tag_186:\n    tag_185:\n      0x20\n      mul\n      add\n      mload\n        /* \"verifier.sol\":9914:9921  _FQ2Sub */\n      tag_96\n        /* \"verifier.sol\":9914:9957  _FQ2Sub(pt2yx, pt2yy, pt3[PTYX], pt3[PTYY]) */\n      jump\t// in\n    tag_182:\n        /* \"verifier.sol\":9889:9957  (pt1xx,     pt1xy)     = _FQ2Sub(pt2yx, pt2yy, pt3[PTYX], pt3[PTYY]) */\n      dup1\n      swap14\n      pop\n      dup2\n      swap15\n      pop\n      pop\n      pop\n        /* \"verifier.sol\":10011:10054  _FQ2Sub(pt2xx, pt2xy, pt3[PTZX], pt3[PTZY]) */\n      tag_187\n        /* \"verifier.sol\":10019:10024  pt2xx */\n      dup8\n        /* \"verifier.sol\":10026:10031  pt2xy */\n      dup8\n        /* \"verifier.sol\":10033:10036  pt3 */\n      dup4\n        /* \"verifier.sol\":812:813  4 */\n      0x04\n        /* \"verifier.sol\":10033:10042  pt3[PTZX] */\n      0x06\n      dup2\n      lt\n      tag_188\n      jumpi\n      tag_189\n      tag_54\n      jump\t// in\n    tag_189:\n    tag_188:\n      0x20\n      mul\n      add\n      mload\n        /* \"verifier.sol\":10044:10047  pt3 */\n      dup5\n        /* \"verifier.sol\":849:850  5 */\n      0x05\n        /* \"verifier.sol\":10044:10053  pt3[PTZY] */\n      0x06\n      dup2\n      lt\n      tag_190\n      jumpi\n      tag_191\n      tag_54\n      jump\t// in\n    tag_191:\n    tag_190:\n      0x20\n      mul\n      add\n      mload\n        /* \"verifier.sol\":10011:10018  _FQ2Sub */\n      tag_96\n        /* \"verifier.sol\":10011:10054  _FQ2Sub(pt2xx, pt2xy, pt3[PTZX], pt3[PTZY]) */\n      jump\t// in\n    tag_187:\n        /* \"verifier.sol\":9986:10054  (pt1yx,     pt1yy)     = _FQ2Sub(pt2xx, pt2xy, pt3[PTZX], pt3[PTZY]) */\n      dup1\n      swap12\n      pop\n      dup2\n      swap13\n      pop\n      pop\n      pop\n        /* \"verifier.sol\":10108:10147  _FQ2Mul(pt1yx, pt1yy, pt1yx,     pt1yy) */\n      tag_192\n        /* \"verifier.sol\":10116:10121  pt1yx */\n      dup12\n        /* \"verifier.sol\":10123:10128  pt1yy */\n      dup12\n        /* \"verifier.sol\":10130:10135  pt1yx */\n      dup14\n        /* \"verifier.sol\":10141:10146  pt1yy */\n      dup14\n        /* \"verifier.sol\":10108:10115  _FQ2Mul */\n      tag_92\n        /* \"verifier.sol\":10108:10147  _FQ2Mul(pt1yx, pt1yy, pt1yx,     pt1yy) */\n      jump\t// in\n    tag_192:\n        /* \"verifier.sol\":10083:10147  (pt1zx,     pt1zy)     = _FQ2Mul(pt1yx, pt1yy, pt1yx,     pt1yy) */\n      dup1\n      swap10\n      pop\n      dup2\n      swap11\n      pop\n      pop\n      pop\n        /* \"verifier.sol\":10211:10254  _FQ2Mul(pt1zx, pt1zy, pt3[PTZX], pt3[PTZY]) */\n      tag_193\n        /* \"verifier.sol\":10219:10224  pt1zx */\n      dup10\n        /* \"verifier.sol\":10226:10231  pt1zy */\n      dup10\n        /* \"verifier.sol\":10233:10236  pt3 */\n      dup4\n        /* \"verifier.sol\":812:813  4 */\n      0x04\n        /* \"verifier.sol\":10233:10242  pt3[PTZX] */\n      0x06\n      dup2\n      lt\n      tag_194\n      jumpi\n      tag_195\n      tag_54\n      jump\t// in\n    tag_195:\n    tag_194:\n      0x20\n      mul\n      add\n      mload\n        /* \"verifier.sol\":10244:10247  pt3 */\n      dup5\n        /* \"verifier.sol\":849:850  5 */\n      0x05\n        /* \"verifier.sol\":10244:10253  pt3[PTZY] */\n      0x06\n      dup2\n      lt\n      tag_196\n      jumpi\n      tag_197\n      tag_54\n      jump\t// in\n    tag_197:\n    tag_196:\n      0x20\n      mul\n      add\n      mload\n        /* \"verifier.sol\":10211:10218  _FQ2Mul */\n      tag_92\n        /* \"verifier.sol\":10211:10254  _FQ2Mul(pt1zx, pt1zy, pt3[PTZX], pt3[PTZY]) */\n      jump\t// in\n    tag_193:\n        /* \"verifier.sol\":10186:10254  (pt2yx,     pt2yy)     = _FQ2Mul(pt1zx, pt1zy, pt3[PTZX], pt3[PTZY]) */\n      dup1\n      swap6\n      pop\n      dup2\n      swap7\n      pop\n      pop\n      pop\n        /* \"verifier.sol\":10332:10371  _FQ2Mul(pt1zx, pt1zy, pt1yx,     pt1yy) */\n      tag_198\n        /* \"verifier.sol\":10340:10345  pt1zx */\n      dup10\n        /* \"verifier.sol\":10347:10352  pt1zy */\n      dup10\n        /* \"verifier.sol\":10354:10359  pt1yx */\n      dup14\n        /* \"verifier.sol\":10365:10370  pt1yy */\n      dup14\n        /* \"verifier.sol\":10332:10339  _FQ2Mul */\n      tag_92\n        /* \"verifier.sol\":10332:10371  _FQ2Mul(pt1zx, pt1zy, pt1yx,     pt1yy) */\n      jump\t// in\n    tag_198:\n        /* \"verifier.sol\":10307:10371  (pt1zx,     pt1zy)     = _FQ2Mul(pt1zx, pt1zy, pt1yx,     pt1yy) */\n      dup1\n      swap10\n      pop\n      dup2\n      swap11\n      pop\n      pop\n      pop\n        /* \"verifier.sol\":10441:10480  _FQ2Mul(pt1zx, pt1zy, pt2zx,     pt2zy) */\n      tag_199\n        /* \"verifier.sol\":10449:10454  pt1zx */\n      dup10\n        /* \"verifier.sol\":10456:10461  pt1zy */\n      dup10\n        /* \"verifier.sol\":10463:10468  pt2zx */\n      dup6\n        /* \"verifier.sol\":10474:10479  pt2zy */\n      dup6\n        /* \"verifier.sol\":10441:10448  _FQ2Mul */\n      tag_92\n        /* \"verifier.sol\":10441:10480  _FQ2Mul(pt1zx, pt1zy, pt2zx,     pt2zy) */\n      jump\t// in\n    tag_199:\n        /* \"verifier.sol\":10417:10420  pt3 */\n      dup3\n        /* \"verifier.sol\":812:813  4 */\n      0x04\n        /* \"verifier.sol\":10417:10426  pt3[PTZX] */\n      0x06\n      dup2\n      lt\n      tag_200\n      jumpi\n      tag_201\n      tag_54\n      jump\t// in\n    tag_201:\n    tag_200:\n      0x20\n      mul\n      add\n        /* \"verifier.sol\":10428:10431  pt3 */\n      dup4\n        /* \"verifier.sol\":849:850  5 */\n      0x05\n        /* \"verifier.sol\":10428:10437  pt3[PTZY] */\n      0x06\n      dup2\n      lt\n      tag_202\n      jumpi\n      tag_203\n      tag_54\n      jump\t// in\n    tag_203:\n    tag_202:\n      0x20\n      mul\n      add\n        /* \"verifier.sol\":10416:10480  (pt3[PTZX], pt3[PTZY]) = _FQ2Mul(pt1zx, pt1zy, pt2zx,     pt2zy) */\n      dup3\n      dup2\n      mstore\n      pop\n      dup3\n      dup2\n      mstore\n      pop\n      pop\n      pop\n        /* \"verifier.sol\":10545:10584  _FQ2Mul(pt1xx, pt1xy, pt1xx,     pt1xy) */\n      tag_204\n        /* \"verifier.sol\":10553:10558  pt1xx */\n      dup14\n        /* \"verifier.sol\":10560:10565  pt1xy */\n      dup14\n        /* \"verifier.sol\":10567:10572  pt1xx */\n      dup16\n        /* \"verifier.sol\":10578:10583  pt1xy */\n      dup16\n        /* \"verifier.sol\":10545:10552  _FQ2Mul */\n      tag_92\n        /* \"verifier.sol\":10545:10584  _FQ2Mul(pt1xx, pt1xy, pt1xx,     pt1xy) */\n      jump\t// in\n    tag_204:\n        /* \"verifier.sol\":10520:10584  (pt2xx,     pt2xy)     = _FQ2Mul(pt1xx, pt1xy, pt1xx,     pt1xy) */\n      dup1\n      swap8\n      pop\n      dup2\n      swap9\n      pop\n      pop\n      pop\n        /* \"verifier.sol\":10636:10675  _FQ2Mul(pt2xx, pt2xy, pt2zx,     pt2zy) */\n      tag_205\n        /* \"verifier.sol\":10644:10649  pt2xx */\n      dup8\n        /* \"verifier.sol\":10651:10656  pt2xy */\n      dup8\n        /* \"verifier.sol\":10658:10663  pt2zx */\n      dup6\n        /* \"verifier.sol\":10669:10674  pt2zy */\n      dup6\n        /* \"verifier.sol\":10636:10643  _FQ2Mul */\n      tag_92\n        /* \"verifier.sol\":10636:10675  _FQ2Mul(pt2xx, pt2xy, pt2zx,     pt2zy) */\n      jump\t// in\n    tag_205:\n        /* \"verifier.sol\":10611:10675  (pt2xx,     pt2xy)     = _FQ2Mul(pt2xx, pt2xy, pt2zx,     pt2zy) */\n      dup1\n      swap8\n      pop\n      dup2\n      swap9\n      pop\n      pop\n      pop\n        /* \"verifier.sol\":10731:10770  _FQ2Sub(pt2xx, pt2xy, pt1zx,     pt1zy) */\n      tag_206\n        /* \"verifier.sol\":10739:10744  pt2xx */\n      dup8\n        /* \"verifier.sol\":10746:10751  pt2xy */\n      dup8\n        /* \"verifier.sol\":10753:10758  pt1zx */\n      dup12\n        /* \"verifier.sol\":10764:10769  pt1zy */\n      dup12\n        /* \"verifier.sol\":10731:10738  _FQ2Sub */\n      tag_96\n        /* \"verifier.sol\":10731:10770  _FQ2Sub(pt2xx, pt2xy, pt1zx,     pt1zy) */\n      jump\t// in\n    tag_206:\n        /* \"verifier.sol\":10706:10770  (pt2xx,     pt2xy)     = _FQ2Sub(pt2xx, pt2xy, pt1zx,     pt1zy) */\n      dup1\n      swap8\n      pop\n      dup2\n      swap9\n      pop\n      pop\n      pop\n        /* \"verifier.sol\":10836:10860  _FQ2Muc(pt2yx, pt2yy, 2) */\n      tag_207\n        /* \"verifier.sol\":10844:10849  pt2yx */\n      dup6\n        /* \"verifier.sol\":10851:10856  pt2yy */\n      dup6\n        /* \"verifier.sol\":10858:10859  2 */\n      0x02\n        /* \"verifier.sol\":10836:10843  _FQ2Muc */\n      tag_208\n        /* \"verifier.sol\":10836:10860  _FQ2Muc(pt2yx, pt2yy, 2) */\n      jump\t// in\n    tag_207:\n        /* \"verifier.sol\":10811:10860  (pt2zx,     pt2zy)     = _FQ2Muc(pt2yx, pt2yy, 2) */\n      dup1\n      swap4\n      pop\n      dup2\n      swap5\n      pop\n      pop\n      pop\n        /* \"verifier.sol\":10944:10983  _FQ2Sub(pt2xx, pt2xy, pt2zx,     pt2zy) */\n      tag_209\n        /* \"verifier.sol\":10952:10957  pt2xx */\n      dup8\n        /* \"verifier.sol\":10959:10964  pt2xy */\n      dup8\n        /* \"verifier.sol\":10966:10971  pt2zx */\n      dup6\n        /* \"verifier.sol\":10977:10982  pt2zy */\n      dup6\n        /* \"verifier.sol\":10944:10951  _FQ2Sub */\n      tag_96\n        /* \"verifier.sol\":10944:10983  _FQ2Sub(pt2xx, pt2xy, pt2zx,     pt2zy) */\n      jump\t// in\n    tag_209:\n        /* \"verifier.sol\":10919:10983  (pt2xx,     pt2xy)     = _FQ2Sub(pt2xx, pt2xy, pt2zx,     pt2zy) */\n      dup1\n      swap8\n      pop\n      dup2\n      swap9\n      pop\n      pop\n      pop\n        /* \"verifier.sol\":11078:11117  _FQ2Mul(pt1yx, pt1yy, pt2xx,     pt2xy) */\n      tag_210\n        /* \"verifier.sol\":11086:11091  pt1yx */\n      dup12\n        /* \"verifier.sol\":11093:11098  pt1yy */\n      dup12\n        /* \"verifier.sol\":11100:11105  pt2xx */\n      dup10\n        /* \"verifier.sol\":11111:11116  pt2xy */\n      dup10\n        /* \"verifier.sol\":11078:11085  _FQ2Mul */\n      tag_92\n        /* \"verifier.sol\":11078:11117  _FQ2Mul(pt1yx, pt1yy, pt2xx,     pt2xy) */\n      jump\t// in\n    tag_210:\n        /* \"verifier.sol\":11054:11057  pt3 */\n      dup3\n        /* \"verifier.sol\":664:665  0 */\n      0x00\n        /* \"verifier.sol\":11054:11063  pt3[PTXX] */\n      0x06\n      dup2\n      lt\n      tag_211\n      jumpi\n      tag_212\n      tag_54\n      jump\t// in\n    tag_212:\n    tag_211:\n      0x20\n      mul\n      add\n        /* \"verifier.sol\":11065:11068  pt3 */\n      dup4\n        /* \"verifier.sol\":701:702  1 */\n      0x01\n        /* \"verifier.sol\":11065:11074  pt3[PTXY] */\n      0x06\n      dup2\n      lt\n      tag_213\n      jumpi\n      tag_214\n      tag_54\n      jump\t// in\n    tag_214:\n    tag_213:\n      0x20\n      mul\n      add\n        /* \"verifier.sol\":11053:11117  (pt3[PTXX], pt3[PTXY]) = _FQ2Mul(pt1yx, pt1yy, pt2xx,     pt2xy) */\n      dup3\n      dup2\n      mstore\n      pop\n      dup3\n      dup2\n      mstore\n      pop\n      pop\n      pop\n        /* \"verifier.sol\":11176:11215  _FQ2Sub(pt2yx, pt2yy, pt2xx,     pt2xy) */\n      tag_215\n        /* \"verifier.sol\":11184:11189  pt2yx */\n      dup6\n        /* \"verifier.sol\":11191:11196  pt2yy */\n      dup6\n        /* \"verifier.sol\":11198:11203  pt2xx */\n      dup10\n        /* \"verifier.sol\":11209:11214  pt2xy */\n      dup10\n        /* \"verifier.sol\":11176:11183  _FQ2Sub */\n      tag_96\n        /* \"verifier.sol\":11176:11215  _FQ2Sub(pt2yx, pt2yy, pt2xx,     pt2xy) */\n      jump\t// in\n    tag_215:\n        /* \"verifier.sol\":11151:11215  (pt1yx,     pt1yy)     = _FQ2Sub(pt2yx, pt2yy, pt2xx,     pt2xy) */\n      dup1\n      swap12\n      pop\n      dup2\n      swap13\n      pop\n      pop\n      pop\n        /* \"verifier.sol\":11284:11323  _FQ2Mul(pt1xx, pt1xy, pt1yx,     pt1yy) */\n      tag_216\n        /* \"verifier.sol\":11292:11297  pt1xx */\n      dup14\n        /* \"verifier.sol\":11299:11304  pt1xy */\n      dup14\n        /* \"verifier.sol\":11306:11311  pt1yx */\n      dup14\n        /* \"verifier.sol\":11317:11322  pt1yy */\n      dup14\n        /* \"verifier.sol\":11284:11291  _FQ2Mul */\n      tag_92\n        /* \"verifier.sol\":11284:11323  _FQ2Mul(pt1xx, pt1xy, pt1yx,     pt1yy) */\n      jump\t// in\n    tag_216:\n        /* \"verifier.sol\":11259:11323  (pt1yx,     pt1yy)     = _FQ2Mul(pt1xx, pt1xy, pt1yx,     pt1yy) */\n      dup1\n      swap12\n      pop\n      dup2\n      swap13\n      pop\n      pop\n      pop\n        /* \"verifier.sol\":11398:11441  _FQ2Mul(pt1zx, pt1zy, pt3[PTYX], pt3[PTYY]) */\n      tag_217\n        /* \"verifier.sol\":11406:11411  pt1zx */\n      dup10\n        /* \"verifier.sol\":11413:11418  pt1zy */\n      dup10\n        /* \"verifier.sol\":11420:11423  pt3 */\n      dup4\n        /* \"verifier.sol\":738:739  2 */\n      0x02\n        /* \"verifier.sol\":11420:11429  pt3[PTYX] */\n      0x06\n      dup2\n      lt\n      tag_218\n      jumpi\n      tag_219\n      tag_54\n      jump\t// in\n    tag_219:\n    tag_218:\n      0x20\n      mul\n      add\n      mload\n        /* \"verifier.sol\":11431:11434  pt3 */\n      dup5\n        /* \"verifier.sol\":775:776  3 */\n      0x03\n        /* \"verifier.sol\":11431:11440  pt3[PTYY] */\n      0x06\n      dup2\n      lt\n      tag_220\n      jumpi\n      tag_221\n      tag_54\n      jump\t// in\n    tag_221:\n    tag_220:\n      0x20\n      mul\n      add\n      mload\n        /* \"verifier.sol\":11398:11405  _FQ2Mul */\n      tag_92\n        /* \"verifier.sol\":11398:11441  _FQ2Mul(pt1zx, pt1zy, pt3[PTYX], pt3[PTYY]) */\n      jump\t// in\n    tag_217:\n        /* \"verifier.sol\":11373:11441  (pt1xx,     pt1xy)     = _FQ2Mul(pt1zx, pt1zy, pt3[PTYX], pt3[PTYY]) */\n      dup1\n      swap14\n      pop\n      dup2\n      swap15\n      pop\n      pop\n      pop\n        /* \"verifier.sol\":11496:11535  _FQ2Sub(pt1yx, pt1yy, pt1xx,     pt1xy) */\n      tag_222\n        /* \"verifier.sol\":11504:11509  pt1yx */\n      dup12\n        /* \"verifier.sol\":11511:11516  pt1yy */\n      dup12\n        /* \"verifier.sol\":11518:11523  pt1xx */\n      dup16\n        /* \"verifier.sol\":11529:11534  pt1xy */\n      dup16\n        /* \"verifier.sol\":11496:11503  _FQ2Sub */\n      tag_96\n        /* \"verifier.sol\":11496:11535  _FQ2Sub(pt1yx, pt1yy, pt1xx,     pt1xy) */\n      jump\t// in\n    tag_222:\n        /* \"verifier.sol\":11472:11475  pt3 */\n      dup3\n        /* \"verifier.sol\":738:739  2 */\n      0x02\n        /* \"verifier.sol\":11472:11481  pt3[PTYX] */\n      0x06\n      dup2\n      lt\n      tag_223\n      jumpi\n      tag_224\n      tag_54\n      jump\t// in\n    tag_224:\n    tag_223:\n      0x20\n      mul\n      add\n        /* \"verifier.sol\":11483:11486  pt3 */\n      dup4\n        /* \"verifier.sol\":775:776  3 */\n      0x03\n        /* \"verifier.sol\":11483:11492  pt3[PTYY] */\n      0x06\n      dup2\n      lt\n      tag_225\n      jumpi\n      tag_226\n      tag_54\n      jump\t// in\n    tag_226:\n    tag_225:\n      0x20\n      mul\n      add\n        /* \"verifier.sol\":11471:11535  (pt3[PTYX], pt3[PTYY]) = _FQ2Sub(pt1yx, pt1yy, pt1xx,     pt1xy) */\n      dup3\n      dup2\n      mstore\n      pop\n      dup3\n      dup2\n      mstore\n      pop\n      pop\n      pop\n        /* \"verifier.sol\":7650:11600  function _ECTwistAddJacobian(... */\n    tag_101:\n      swap13\n      swap12\n      pop\n      pop\n      pop\n      pop\n      pop\n      pop\n      pop\n      pop\n      pop\n      pop\n      pop\n      pop\n      jump\t// out\n        /* \"verifier.sol\":7171:7644  function _fromJacobian(... */\n    tag_65:\n        /* \"verifier.sol\":7346:7359  uint256 pt2xx */\n      0x00\n        /* \"verifier.sol\":7361:7374  uint256 pt2xy */\n      dup1\n        /* \"verifier.sol\":7384:7397  uint256 pt2yx */\n      0x00\n        /* \"verifier.sol\":7399:7412  uint256 pt2yy */\n      dup1\n        /* \"verifier.sol\":7429:7442  uint256 invzx */\n      0x00\n        /* \"verifier.sol\":7452:7465  uint256 invzy */\n      dup1\n        /* \"verifier.sol\":7492:7513  _FQ2Inv(pt1zx, pt1zy) */\n      tag_228\n        /* \"verifier.sol\":7500:7505  pt1zx */\n      dup9\n        /* \"verifier.sol\":7507:7512  pt1zy */\n      dup9\n        /* \"verifier.sol\":7492:7499  _FQ2Inv */\n      tag_229\n        /* \"verifier.sol\":7492:7513  _FQ2Inv(pt1zx, pt1zy) */\n      jump\t// in\n    tag_228:\n        /* \"verifier.sol\":7475:7513  (invzx, invzy) = _FQ2Inv(pt1zx, pt1zy) */\n      dup1\n      swap3\n      pop\n      dup2\n      swap4\n      pop\n      pop\n      pop\n        /* \"verifier.sol\":7540:7575  _FQ2Mul(pt1xx, pt1xy, invzx, invzy) */\n      tag_230\n        /* \"verifier.sol\":7548:7553  pt1xx */\n      dup13\n        /* \"verifier.sol\":7555:7560  pt1xy */\n      dup13\n        /* \"verifier.sol\":7562:7567  invzx */\n      dup5\n        /* \"verifier.sol\":7569:7574  invzy */\n      dup5\n        /* \"verifier.sol\":7540:7547  _FQ2Mul */\n      tag_92\n        /* \"verifier.sol\":7540:7575  _FQ2Mul(pt1xx, pt1xy, invzx, invzy) */\n      jump\t// in\n    tag_230:\n        /* \"verifier.sol\":7523:7575  (pt2xx, pt2xy) = _FQ2Mul(pt1xx, pt1xy, invzx, invzy) */\n      dup1\n      swap7\n      pop\n      dup2\n      swap8\n      pop\n      pop\n      pop\n        /* \"verifier.sol\":7602:7637  _FQ2Mul(pt1yx, pt1yy, invzx, invzy) */\n      tag_231\n        /* \"verifier.sol\":7610:7615  pt1yx */\n      dup11\n        /* \"verifier.sol\":7617:7622  pt1yy */\n      dup11\n        /* \"verifier.sol\":7624:7629  invzx */\n      dup5\n        /* \"verifier.sol\":7631:7636  invzy */\n      dup5\n        /* \"verifier.sol\":7602:7609  _FQ2Mul */\n      tag_92\n        /* \"verifier.sol\":7602:7637  _FQ2Mul(pt1yx, pt1yy, invzx, invzy) */\n      jump\t// in\n    tag_231:\n        /* \"verifier.sol\":7585:7637  (pt2yx, pt2yy) = _FQ2Mul(pt1yx, pt1yy, invzx, invzy) */\n      dup1\n      swap5\n      pop\n      dup2\n      swap6\n      pop\n      pop\n      pop\n        /* \"verifier.sol\":7419:7644  {... */\n      pop\n      pop\n        /* \"verifier.sol\":7171:7644  function _fromJacobian(... */\n      swap7\n      pop\n      swap7\n      pop\n      swap7\n      pop\n      swap7\n      swap3\n      pop\n      pop\n      pop\n      jump\t// out\n        /* \"verifier.sol\":13491:14336  function _ECTwistMulJacobian(... */\n    tag_76:\n        /* \"verifier.sol\":13682:13703  uint256[6] memory pt2 */\n      tag_232\n      tag_100\n      jump\t// in\n    tag_232:\n        /* \"verifier.sol\":13715:14330  while (d != 0) {... */\n    tag_234:\n        /* \"verifier.sol\":13727:13728  0 */\n      0x00\n        /* \"verifier.sol\":13722:13723  d */\n      dup9\n        /* \"verifier.sol\":13722:13728  d != 0 */\n      eq\n        /* \"verifier.sol\":13715:14330  while (d != 0) {... */\n      tag_235\n      jumpi\n        /* \"verifier.sol\":13759:13760  0 */\n      0x00\n        /* \"verifier.sol\":13753:13754  1 */\n      0x01\n        /* \"verifier.sol\":13749:13750  d */\n      dup10\n        /* \"verifier.sol\":13749:13754  d & 1 */\n      and\n        /* \"verifier.sol\":13748:13760  (d & 1) != 0 */\n      eq\n        /* \"verifier.sol\":13744:14049  if ((d & 1) != 0) {... */\n      tag_236\n      jumpi\n        /* \"verifier.sol\":13786:14034  _ECTwistAddJacobian(... */\n      tag_237\n        /* \"verifier.sol\":13827:13830  pt2 */\n      dup2\n        /* \"verifier.sol\":664:665  0 */\n      0x00\n        /* \"verifier.sol\":13827:13836  pt2[PTXX] */\n      0x06\n      dup2\n      lt\n      tag_238\n      jumpi\n      tag_239\n      tag_54\n      jump\t// in\n    tag_239:\n    tag_238:\n      0x20\n      mul\n      add\n      mload\n        /* \"verifier.sol\":13838:13841  pt2 */\n      dup3\n        /* \"verifier.sol\":701:702  1 */\n      0x01\n        /* \"verifier.sol\":13838:13847  pt2[PTXY] */\n      0x06\n      dup2\n      lt\n      tag_240\n      jumpi\n      tag_241\n      tag_54\n      jump\t// in\n    tag_241:\n    tag_240:\n      0x20\n      mul\n      add\n      mload\n        /* \"verifier.sol\":13869:13872  pt2 */\n      dup4\n        /* \"verifier.sol\":738:739  2 */\n      0x02\n        /* \"verifier.sol\":13869:13878  pt2[PTYX] */\n      0x06\n      dup2\n      lt\n      tag_242\n      jumpi\n      tag_243\n      tag_54\n      jump\t// in\n    tag_243:\n    tag_242:\n      0x20\n      mul\n      add\n      mload\n        /* \"verifier.sol\":13880:13883  pt2 */\n      dup5\n        /* \"verifier.sol\":775:776  3 */\n      0x03\n        /* \"verifier.sol\":13880:13889  pt2[PTYY] */\n      0x06\n      dup2\n      lt\n      tag_244\n      jumpi\n      tag_245\n      tag_54\n      jump\t// in\n    tag_245:\n    tag_244:\n      0x20\n      mul\n      add\n      mload\n        /* \"verifier.sol\":13911:13914  pt2 */\n      dup6\n        /* \"verifier.sol\":812:813  4 */\n      0x04\n        /* \"verifier.sol\":13911:13920  pt2[PTZX] */\n      0x06\n      dup2\n      lt\n      tag_246\n      jumpi\n      tag_247\n      tag_54\n      jump\t// in\n    tag_247:\n    tag_246:\n      0x20\n      mul\n      add\n      mload\n        /* \"verifier.sol\":13922:13925  pt2 */\n      dup7\n        /* \"verifier.sol\":849:850  5 */\n      0x05\n        /* \"verifier.sol\":13922:13931  pt2[PTZY] */\n      0x06\n      dup2\n      lt\n      tag_248\n      jumpi\n      tag_249\n      tag_54\n      jump\t// in\n    tag_249:\n    tag_248:\n      0x20\n      mul\n      add\n      mload\n        /* \"verifier.sol\":13953:13958  pt1xx */\n      dup14\n        /* \"verifier.sol\":13960:13965  pt1xy */\n      dup14\n        /* \"verifier.sol\":13987:13992  pt1yx */\n      dup14\n        /* \"verifier.sol\":13994:13999  pt1yy */\n      dup14\n        /* \"verifier.sol\":14021:14026  pt1zx */\n      dup14\n        /* \"verifier.sol\":14028:14033  pt1zy */\n      dup14\n        /* \"verifier.sol\":13786:13805  _ECTwistAddJacobian */\n      tag_50\n        /* \"verifier.sol\":13786:14034  _ECTwistAddJacobian(... */\n      jump\t// in\n    tag_237:\n        /* \"verifier.sol\":13780:14034  pt2 = _ECTwistAddJacobian(... */\n      swap1\n      pop\n        /* \"verifier.sol\":13744:14049  if ((d & 1) != 0) {... */\n    tag_236:\n        /* \"verifier.sol\":14169:14295  _ECTwistDoubleJacobian(... */\n      tag_250\n        /* \"verifier.sol\":14209:14214  pt1xx */\n      dup8\n        /* \"verifier.sol\":14216:14221  pt1xy */\n      dup8\n        /* \"verifier.sol\":14239:14244  pt1yx */\n      dup8\n        /* \"verifier.sol\":14246:14251  pt1yy */\n      dup8\n        /* \"verifier.sol\":14269:14274  pt1zx */\n      dup8\n        /* \"verifier.sol\":14276:14281  pt1zy */\n      dup8\n        /* \"verifier.sol\":14169:14191  _ECTwistDoubleJacobian */\n      tag_156\n        /* \"verifier.sol\":14169:14295  _ECTwistDoubleJacobian(... */\n      jump\t// in\n    tag_250:\n        /* \"verifier.sol\":14062:14295  (... */\n      dup1\n      swap8\n      pop\n      dup2\n      swap9\n      pop\n      dup3\n      swap10\n      pop\n      dup4\n      swap11\n      pop\n      dup5\n      swap12\n      pop\n      dup6\n      swap13\n      pop\n      pop\n      pop\n      pop\n      pop\n      pop\n      pop\n        /* \"verifier.sol\":14318:14319  2 */\n      0x02\n        /* \"verifier.sol\":14314:14315  d */\n      dup9\n        /* \"verifier.sol\":14314:14319  d / 2 */\n      tag_251\n      swap2\n      swap1\n      tag_252\n      jump\t// in\n    tag_251:\n        /* \"verifier.sol\":14310:14319  d = d / 2 */\n      swap8\n      pop\n        /* \"verifier.sol\":13715:14330  while (d != 0) {... */\n      jump(tag_234)\n    tag_235:\n        /* \"verifier.sol\":13491:14336  function _ECTwistMulJacobian(... */\n      swap8\n      swap7\n      pop\n      pop\n      pop\n      pop\n      pop\n      pop\n      pop\n      jump\t// out\n        /* \"verifier.sol\":4397:4753  function _FQ2Mul(... */\n    tag_92:\n        /* \"verifier.sol\":4507:4514  uint256 */\n      0x00\n        /* \"verifier.sol\":4516:4523  uint256 */\n      dup1\n        /* \"verifier.sol\":4556:4639  submod(mulmod(xx, yx, FIELD_MODULUS), mulmod(xy, yy, FIELD_MODULUS), FIELD_MODULUS) */\n      tag_254\n        /* \"verifier.sol\":348:414  0x30644e72e131a029b85045b68181585d97816a916871ca8d3c208c16d87cfd47 */\n      0x30644e72e131a029b85045b68181585d97816a916871ca8d3c208c16d87cfd47\n        /* \"verifier.sol\":4563:4592  mulmod(xx, yx, FIELD_MODULUS) */\n      dup1\n      tag_255\n      jumpi\n      tag_256\n      tag_257\n      jump\t// in\n    tag_256:\n    tag_255:\n        /* \"verifier.sol\":4574:4576  yx */\n      dup6\n        /* \"verifier.sol\":4570:4572  xx */\n      dup9\n        /* \"verifier.sol\":4563:4592  mulmod(xx, yx, FIELD_MODULUS) */\n      mulmod\n        /* \"verifier.sol\":348:414  0x30644e72e131a029b85045b68181585d97816a916871ca8d3c208c16d87cfd47 */\n      0x30644e72e131a029b85045b68181585d97816a916871ca8d3c208c16d87cfd47\n        /* \"verifier.sol\":4594:4623  mulmod(xy, yy, FIELD_MODULUS) */\n      dup1\n      tag_258\n      jumpi\n      tag_259\n      tag_257\n      jump\t// in\n    tag_259:\n    tag_258:\n        /* \"verifier.sol\":4605:4607  yy */\n      dup6\n        /* \"verifier.sol\":4601:4603  xy */\n      dup9\n        /* \"verifier.sol\":4594:4623  mulmod(xy, yy, FIELD_MODULUS) */\n      mulmod\n        /* \"verifier.sol\":348:414  0x30644e72e131a029b85045b68181585d97816a916871ca8d3c208c16d87cfd47 */\n      0x30644e72e131a029b85045b68181585d97816a916871ca8d3c208c16d87cfd47\n        /* \"verifier.sol\":4556:4562  submod */\n      tag_260\n        /* \"verifier.sol\":4556:4639  submod(mulmod(xx, yx, FIELD_MODULUS), mulmod(xy, yy, FIELD_MODULUS), FIELD_MODULUS) */\n      jump\t// in\n    tag_254:\n        /* \"verifier.sol\":348:414  0x30644e72e131a029b85045b68181585d97816a916871ca8d3c208c16d87cfd47 */\n      0x30644e72e131a029b85045b68181585d97816a916871ca8d3c208c16d87cfd47\n        /* \"verifier.sol\":4653:4736  addmod(mulmod(xx, yy, FIELD_MODULUS), mulmod(xy, yx, FIELD_MODULUS), FIELD_MODULUS) */\n      dup1\n      tag_261\n      jumpi\n      tag_262\n      tag_257\n      jump\t// in\n    tag_262:\n    tag_261:\n        /* \"verifier.sol\":348:414  0x30644e72e131a029b85045b68181585d97816a916871ca8d3c208c16d87cfd47 */\n      0x30644e72e131a029b85045b68181585d97816a916871ca8d3c208c16d87cfd47\n        /* \"verifier.sol\":4691:4720  mulmod(xy, yx, FIELD_MODULUS) */\n      dup1\n      tag_263\n      jumpi\n      tag_264\n      tag_257\n      jump\t// in\n    tag_264:\n    tag_263:\n        /* \"verifier.sol\":4702:4704  yx */\n      dup7\n        /* \"verifier.sol\":4698:4700  xy */\n      dup9\n        /* \"verifier.sol\":4691:4720  mulmod(xy, yx, FIELD_MODULUS) */\n      mulmod\n        /* \"verifier.sol\":348:414  0x30644e72e131a029b85045b68181585d97816a916871ca8d3c208c16d87cfd47 */\n      0x30644e72e131a029b85045b68181585d97816a916871ca8d3c208c16d87cfd47\n        /* \"verifier.sol\":4660:4689  mulmod(xx, yy, FIELD_MODULUS) */\n      dup1\n      tag_265\n      jumpi\n      tag_266\n      tag_257\n      jump\t// in\n    tag_266:\n    tag_265:\n        /* \"verifier.sol\":4671:4673  yy */\n      dup7\n        /* \"verifier.sol\":4667:4669  xx */\n      dup11\n        /* \"verifier.sol\":4660:4689  mulmod(xx, yy, FIELD_MODULUS) */\n      mulmod\n        /* \"verifier.sol\":4653:4736  addmod(mulmod(xx, yy, FIELD_MODULUS), mulmod(xy, yx, FIELD_MODULUS), FIELD_MODULUS) */\n      addmod\n        /* \"verifier.sol\":4535:4746  return (... */\n      swap2\n      pop\n      swap2\n      pop\n        /* \"verifier.sol\":4397:4753  function _FQ2Mul(... */\n      swap5\n      pop\n      swap5\n      swap3\n      pop\n      pop\n      pop\n      jump\t// out\n        /* \"verifier.sol\":5252:5506  function _FQ2Sub(... */\n    tag_96:\n        /* \"verifier.sol\":5362:5372  uint256 rx */\n      0x00\n        /* \"verifier.sol\":5374:5384  uint256 ry */\n      dup1\n        /* \"verifier.sol\":5417:5446  submod(xx, yx, FIELD_MODULUS) */\n      tag_268\n        /* \"verifier.sol\":5424:5426  xx */\n      dup7\n        /* \"verifier.sol\":5428:5430  yx */\n      dup6\n        /* \"verifier.sol\":348:414  0x30644e72e131a029b85045b68181585d97816a916871ca8d3c208c16d87cfd47 */\n      0x30644e72e131a029b85045b68181585d97816a916871ca8d3c208c16d87cfd47\n        /* \"verifier.sol\":5417:5423  submod */\n      tag_260\n        /* \"verifier.sol\":5417:5446  submod(xx, yx, FIELD_MODULUS) */\n      jump\t// in\n    tag_268:\n        /* \"verifier.sol\":5460:5489  submod(xy, yy, FIELD_MODULUS) */\n      tag_269\n        /* \"verifier.sol\":5467:5469  xy */\n      dup7\n        /* \"verifier.sol\":5471:5473  yy */\n      dup6\n        /* \"verifier.sol\":348:414  0x30644e72e131a029b85045b68181585d97816a916871ca8d3c208c16d87cfd47 */\n      0x30644e72e131a029b85045b68181585d97816a916871ca8d3c208c16d87cfd47\n        /* \"verifier.sol\":5460:5466  submod */\n      tag_260\n        /* \"verifier.sol\":5460:5489  submod(xy, yy, FIELD_MODULUS) */\n      jump\t// in\n    tag_269:\n        /* \"verifier.sol\":5396:5499  return (... */\n      swap2\n      pop\n      swap2\n      pop\n        /* \"verifier.sol\":5252:5506  function _FQ2Sub(... */\n      swap5\n      pop\n      swap5\n      swap3\n      pop\n      pop\n      pop\n      jump\t// out\n        /* \"verifier.sol\":11606:13485  function _ECTwistDoubleJacobian(... */\n    tag_156:\n        /* \"verifier.sol\":11790:11803  uint256 pt2xx */\n      0x00\n        /* \"verifier.sol\":11805:11818  uint256 pt2xy */\n      dup1\n        /* \"verifier.sol\":11828:11841  uint256 pt2yx */\n      0x00\n        /* \"verifier.sol\":11843:11856  uint256 pt2yy */\n      dup1\n        /* \"verifier.sol\":11866:11879  uint256 pt2zx */\n      0x00\n        /* \"verifier.sol\":11881:11894  uint256 pt2zy */\n      dup1\n        /* \"verifier.sol\":11928:11952  _FQ2Muc(pt1xx, pt1xy, 3) */\n      tag_271\n        /* \"verifier.sol\":11936:11941  pt1xx */\n      dup13\n        /* \"verifier.sol\":11943:11948  pt1xy */\n      dup13\n        /* \"verifier.sol\":11950:11951  3 */\n      0x03\n        /* \"verifier.sol\":11928:11935  _FQ2Muc */\n      tag_208\n        /* \"verifier.sol\":11928:11952  _FQ2Muc(pt1xx, pt1xy, 3) */\n      jump\t// in\n    tag_271:\n        /* \"verifier.sol\":11911:11952  (pt2xx, pt2xy) = _FQ2Muc(pt1xx, pt1xy, 3) */\n      dup1\n      swap7\n      pop\n      dup2\n      swap8\n      pop\n      pop\n      pop\n        /* \"verifier.sol\":11999:12034  _FQ2Mul(pt2xx, pt2xy, pt1xx, pt1xy) */\n      tag_272\n        /* \"verifier.sol\":12007:12012  pt2xx */\n      dup7\n        /* \"verifier.sol\":12014:12019  pt2xy */\n      dup7\n        /* \"verifier.sol\":12021:12026  pt1xx */\n      dup15\n        /* \"verifier.sol\":12028:12033  pt1xy */\n      dup15\n        /* \"verifier.sol\":11999:12006  _FQ2Mul */\n      tag_92\n        /* \"verifier.sol\":11999:12034  _FQ2Mul(pt2xx, pt2xy, pt1xx, pt1xy) */\n      jump\t// in\n    tag_272:\n        /* \"verifier.sol\":11982:12034  (pt2xx, pt2xy) = _FQ2Mul(pt2xx, pt2xy, pt1xx, pt1xy) */\n      dup1\n      swap7\n      pop\n      dup2\n      swap8\n      pop\n      pop\n      pop\n        /* \"verifier.sol\":12078:12113  _FQ2Mul(pt1yx, pt1yy, pt1zx, pt1zy) */\n      tag_273\n        /* \"verifier.sol\":12086:12091  pt1yx */\n      dup11\n        /* \"verifier.sol\":12093:12098  pt1yy */\n      dup11\n        /* \"verifier.sol\":12100:12105  pt1zx */\n      dup11\n        /* \"verifier.sol\":12107:12112  pt1zy */\n      dup11\n        /* \"verifier.sol\":12078:12085  _FQ2Mul */\n      tag_92\n        /* \"verifier.sol\":12078:12113  _FQ2Mul(pt1yx, pt1yy, pt1zx, pt1zy) */\n      jump\t// in\n    tag_273:\n        /* \"verifier.sol\":12061:12113  (pt1zx, pt1zy) = _FQ2Mul(pt1yx, pt1yy, pt1zx, pt1zy) */\n      dup1\n      swap9\n      pop\n      dup2\n      swap10\n      pop\n      pop\n      pop\n        /* \"verifier.sol\":12153:12188  _FQ2Mul(pt1xx, pt1xy, pt1yx, pt1yy) */\n      tag_274\n        /* \"verifier.sol\":12161:12166  pt1xx */\n      dup13\n        /* \"verifier.sol\":12168:12173  pt1xy */\n      dup13\n        /* \"verifier.sol\":12175:12180  pt1yx */\n      dup13\n        /* \"verifier.sol\":12182:12187  pt1yy */\n      dup13\n        /* \"verifier.sol\":12153:12160  _FQ2Mul */\n      tag_92\n        /* \"verifier.sol\":12153:12188  _FQ2Mul(pt1xx, pt1xy, pt1yx, pt1yy) */\n      jump\t// in\n    tag_274:\n        /* \"verifier.sol\":12136:12188  (pt2yx, pt2yy) = _FQ2Mul(pt1xx, pt1xy, pt1yx, pt1yy) */\n      dup1\n      swap5\n      pop\n      dup2\n      swap6\n      pop\n      pop\n      pop\n        /* \"verifier.sol\":12224:12259  _FQ2Mul(pt2yx, pt2yy, pt1zx, pt1zy) */\n      tag_275\n        /* \"verifier.sol\":12232:12237  pt2yx */\n      dup5\n        /* \"verifier.sol\":12239:12244  pt2yy */\n      dup5\n        /* \"verifier.sol\":12246:12251  pt1zx */\n      dup11\n        /* \"verifier.sol\":12253:12258  pt1zy */\n      dup11\n        /* \"verifier.sol\":12224:12231  _FQ2Mul */\n      tag_92\n        /* \"verifier.sol\":12224:12259  _FQ2Mul(pt2yx, pt2yy, pt1zx, pt1zy) */\n      jump\t// in\n    tag_275:\n        /* \"verifier.sol\":12207:12259  (pt2yx, pt2yy) = _FQ2Mul(pt2yx, pt2yy, pt1zx, pt1zy) */\n      dup1\n      swap5\n      pop\n      dup2\n      swap6\n      pop\n      pop\n      pop\n        /* \"verifier.sol\":12303:12338  _FQ2Mul(pt2xx, pt2xy, pt2xx, pt2xy) */\n      tag_276\n        /* \"verifier.sol\":12311:12316  pt2xx */\n      dup7\n        /* \"verifier.sol\":12318:12323  pt2xy */\n      dup7\n        /* \"verifier.sol\":12325:12330  pt2xx */\n      dup9\n        /* \"verifier.sol\":12332:12337  pt2xy */\n      dup9\n        /* \"verifier.sol\":12303:12310  _FQ2Mul */\n      tag_92\n        /* \"verifier.sol\":12303:12338  _FQ2Mul(pt2xx, pt2xy, pt2xx, pt2xy) */\n      jump\t// in\n    tag_276:\n        /* \"verifier.sol\":12286:12338  (pt1xx, pt1xy) = _FQ2Mul(pt2xx, pt2xy, pt2xx, pt2xy) */\n      dup1\n      swap13\n      pop\n      dup2\n      swap14\n      pop\n      pop\n      pop\n        /* \"verifier.sol\":12374:12398  _FQ2Muc(pt2yx, pt2yy, 8) */\n      tag_277\n        /* \"verifier.sol\":12382:12387  pt2yx */\n      dup5\n        /* \"verifier.sol\":12389:12394  pt2yy */\n      dup5\n        /* \"verifier.sol\":12396:12397  8 */\n      0x08\n        /* \"verifier.sol\":12374:12381  _FQ2Muc */\n      tag_208\n        /* \"verifier.sol\":12374:12398  _FQ2Muc(pt2yx, pt2yy, 8) */\n      jump\t// in\n    tag_277:\n        /* \"verifier.sol\":12357:12398  (pt2zx, pt2zy) = _FQ2Muc(pt2yx, pt2yy, 8) */\n      dup1\n      swap3\n      pop\n      dup2\n      swap4\n      pop\n      pop\n      pop\n        /* \"verifier.sol\":12445:12480  _FQ2Sub(pt1xx, pt1xy, pt2zx, pt2zy) */\n      tag_278\n        /* \"verifier.sol\":12453:12458  pt1xx */\n      dup13\n        /* \"verifier.sol\":12460:12465  pt1xy */\n      dup13\n        /* \"verifier.sol\":12467:12472  pt2zx */\n      dup5\n        /* \"verifier.sol\":12474:12479  pt2zy */\n      dup5\n        /* \"verifier.sol\":12445:12452  _FQ2Sub */\n      tag_96\n        /* \"verifier.sol\":12445:12480  _FQ2Sub(pt1xx, pt1xy, pt2zx, pt2zy) */\n      jump\t// in\n    tag_278:\n        /* \"verifier.sol\":12428:12480  (pt1xx, pt1xy) = _FQ2Sub(pt1xx, pt1xy, pt2zx, pt2zy) */\n      dup1\n      swap13\n      pop\n      dup2\n      swap14\n      pop\n      pop\n      pop\n        /* \"verifier.sol\":12528:12563  _FQ2Mul(pt1zx, pt1zy, pt1zx, pt1zy) */\n      tag_279\n        /* \"verifier.sol\":12536:12541  pt1zx */\n      dup9\n        /* \"verifier.sol\":12543:12548  pt1zy */\n      dup9\n        /* \"verifier.sol\":12550:12555  pt1zx */\n      dup11\n        /* \"verifier.sol\":12557:12562  pt1zy */\n      dup11\n        /* \"verifier.sol\":12528:12535  _FQ2Mul */\n      tag_92\n        /* \"verifier.sol\":12528:12563  _FQ2Mul(pt1zx, pt1zy, pt1zx, pt1zy) */\n      jump\t// in\n    tag_279:\n        /* \"verifier.sol\":12511:12563  (pt2zx, pt2zy) = _FQ2Mul(pt1zx, pt1zy, pt1zx, pt1zy) */\n      dup1\n      swap3\n      pop\n      dup2\n      swap4\n      pop\n      pop\n      pop\n        /* \"verifier.sol\":12611:12635  _FQ2Muc(pt2yx, pt2yy, 4) */\n      tag_280\n        /* \"verifier.sol\":12619:12624  pt2yx */\n      dup5\n        /* \"verifier.sol\":12626:12631  pt2yy */\n      dup5\n        /* \"verifier.sol\":12633:12634  4 */\n      0x04\n        /* \"verifier.sol\":12611:12618  _FQ2Muc */\n      tag_208\n        /* \"verifier.sol\":12611:12635  _FQ2Muc(pt2yx, pt2yy, 4) */\n      jump\t// in\n    tag_280:\n        /* \"verifier.sol\":12594:12635  (pt2yx, pt2yy) = _FQ2Muc(pt2yx, pt2yy, 4) */\n      dup1\n      swap5\n      pop\n      dup2\n      swap6\n      pop\n      pop\n      pop\n        /* \"verifier.sol\":12682:12717  _FQ2Sub(pt2yx, pt2yy, pt1xx, pt1xy) */\n      tag_281\n        /* \"verifier.sol\":12690:12695  pt2yx */\n      dup5\n        /* \"verifier.sol\":12697:12702  pt2yy */\n      dup5\n        /* \"verifier.sol\":12704:12709  pt1xx */\n      dup15\n        /* \"verifier.sol\":12711:12716  pt1xy */\n      dup15\n        /* \"verifier.sol\":12682:12689  _FQ2Sub */\n      tag_96\n        /* \"verifier.sol\":12682:12717  _FQ2Sub(pt2yx, pt2yy, pt1xx, pt1xy) */\n      jump\t// in\n    tag_281:\n        /* \"verifier.sol\":12665:12717  (pt2yx, pt2yy) = _FQ2Sub(pt2yx, pt2yy, pt1xx, pt1xy) */\n      dup1\n      swap5\n      pop\n      dup2\n      swap6\n      pop\n      pop\n      pop\n        /* \"verifier.sol\":12757:12792  _FQ2Mul(pt2yx, pt2yy, pt2xx, pt2xy) */\n      tag_282\n        /* \"verifier.sol\":12765:12770  pt2yx */\n      dup5\n        /* \"verifier.sol\":12772:12777  pt2yy */\n      dup5\n        /* \"verifier.sol\":12779:12784  pt2xx */\n      dup9\n        /* \"verifier.sol\":12786:12791  pt2xy */\n      dup9\n        /* \"verifier.sol\":12757:12764  _FQ2Mul */\n      tag_92\n        /* \"verifier.sol\":12757:12792  _FQ2Mul(pt2yx, pt2yy, pt2xx, pt2xy) */\n      jump\t// in\n    tag_282:\n        /* \"verifier.sol\":12740:12792  (pt2yx, pt2yy) = _FQ2Mul(pt2yx, pt2yy, pt2xx, pt2xy) */\n      dup1\n      swap5\n      pop\n      dup2\n      swap6\n      pop\n      pop\n      pop\n        /* \"verifier.sol\":12838:12862  _FQ2Muc(pt1yx, pt1yy, 8) */\n      tag_283\n        /* \"verifier.sol\":12846:12851  pt1yx */\n      dup11\n        /* \"verifier.sol\":12853:12858  pt1yy */\n      dup11\n        /* \"verifier.sol\":12860:12861  8 */\n      0x08\n        /* \"verifier.sol\":12838:12845  _FQ2Muc */\n      tag_208\n        /* \"verifier.sol\":12838:12862  _FQ2Muc(pt1yx, pt1yy, 8) */\n      jump\t// in\n    tag_283:\n        /* \"verifier.sol\":12821:12862  (pt2xx, pt2xy) = _FQ2Muc(pt1yx, pt1yy, 8) */\n      dup1\n      swap7\n      pop\n      dup2\n      swap8\n      pop\n      pop\n      pop\n        /* \"verifier.sol\":12909:12944  _FQ2Mul(pt2xx, pt2xy, pt1yx, pt1yy) */\n      tag_284\n        /* \"verifier.sol\":12917:12922  pt2xx */\n      dup7\n        /* \"verifier.sol\":12924:12929  pt2xy */\n      dup7\n        /* \"verifier.sol\":12931:12936  pt1yx */\n      dup13\n        /* \"verifier.sol\":12938:12943  pt1yy */\n      dup13\n        /* \"verifier.sol\":12909:12916  _FQ2Mul */\n      tag_92\n        /* \"verifier.sol\":12909:12944  _FQ2Mul(pt2xx, pt2xy, pt1yx, pt1yy) */\n      jump\t// in\n    tag_284:\n        /* \"verifier.sol\":12892:12944  (pt2xx, pt2xy) = _FQ2Mul(pt2xx, pt2xy, pt1yx, pt1yy) */\n      dup1\n      swap7\n      pop\n      dup2\n      swap8\n      pop\n      pop\n      pop\n        /* \"verifier.sol\":12984:13019  _FQ2Mul(pt2xx, pt2xy, pt2zx, pt2zy) */\n      tag_285\n        /* \"verifier.sol\":12992:12997  pt2xx */\n      dup7\n        /* \"verifier.sol\":12999:13004  pt2xy */\n      dup7\n        /* \"verifier.sol\":13006:13011  pt2zx */\n      dup5\n        /* \"verifier.sol\":13013:13018  pt2zy */\n      dup5\n        /* \"verifier.sol\":12984:12991  _FQ2Mul */\n      tag_92\n        /* \"verifier.sol\":12984:13019  _FQ2Mul(pt2xx, pt2xy, pt2zx, pt2zy) */\n      jump\t// in\n    tag_285:\n        /* \"verifier.sol\":12967:13019  (pt2xx, pt2xy) = _FQ2Mul(pt2xx, pt2xy, pt2zx, pt2zy) */\n      dup1\n      swap7\n      pop\n      dup2\n      swap8\n      pop\n      pop\n      pop\n        /* \"verifier.sol\":13071:13106  _FQ2Sub(pt2yx, pt2yy, pt2xx, pt2xy) */\n      tag_286\n        /* \"verifier.sol\":13079:13084  pt2yx */\n      dup5\n        /* \"verifier.sol\":13086:13091  pt2yy */\n      dup5\n        /* \"verifier.sol\":13093:13098  pt2xx */\n      dup9\n        /* \"verifier.sol\":13100:13105  pt2xy */\n      dup9\n        /* \"verifier.sol\":13071:13078  _FQ2Sub */\n      tag_96\n        /* \"verifier.sol\":13071:13106  _FQ2Sub(pt2yx, pt2yy, pt2xx, pt2xy) */\n      jump\t// in\n    tag_286:\n        /* \"verifier.sol\":13054:13106  (pt2yx, pt2yy) = _FQ2Sub(pt2yx, pt2yy, pt2xx, pt2xy) */\n      dup1\n      swap5\n      pop\n      dup2\n      swap6\n      pop\n      pop\n      pop\n        /* \"verifier.sol\":13183:13207  _FQ2Muc(pt1xx, pt1xy, 2) */\n      tag_287\n        /* \"verifier.sol\":13191:13196  pt1xx */\n      dup13\n        /* \"verifier.sol\":13198:13203  pt1xy */\n      dup13\n        /* \"verifier.sol\":13205:13206  2 */\n      0x02\n        /* \"verifier.sol\":13183:13190  _FQ2Muc */\n      tag_208\n        /* \"verifier.sol\":13183:13207  _FQ2Muc(pt1xx, pt1xy, 2) */\n      jump\t// in\n    tag_287:\n        /* \"verifier.sol\":13166:13207  (pt2xx, pt2xy) = _FQ2Muc(pt1xx, pt1xy, 2) */\n      dup1\n      swap7\n      pop\n      dup2\n      swap8\n      pop\n      pop\n      pop\n        /* \"verifier.sol\":13254:13289  _FQ2Mul(pt2xx, pt2xy, pt1zx, pt1zy) */\n      tag_288\n        /* \"verifier.sol\":13262:13267  pt2xx */\n      dup7\n        /* \"verifier.sol\":13269:13274  pt2xy */\n      dup7\n        /* \"verifier.sol\":13276:13281  pt1zx */\n      dup11\n        /* \"verifier.sol\":13283:13288  pt1zy */\n      dup11\n        /* \"verifier.sol\":13254:13261  _FQ2Mul */\n      tag_92\n        /* \"verifier.sol\":13254:13289  _FQ2Mul(pt2xx, pt2xy, pt1zx, pt1zy) */\n      jump\t// in\n    tag_288:\n        /* \"verifier.sol\":13237:13289  (pt2xx, pt2xy) = _FQ2Mul(pt2xx, pt2xy, pt1zx, pt1zy) */\n      dup1\n      swap7\n      pop\n      dup2\n      swap8\n      pop\n      pop\n      pop\n        /* \"verifier.sol\":13336:13371  _FQ2Mul(pt1zx, pt1zy, pt2zx, pt2zy) */\n      tag_289\n        /* \"verifier.sol\":13344:13349  pt1zx */\n      dup9\n        /* \"verifier.sol\":13351:13356  pt1zy */\n      dup9\n        /* \"verifier.sol\":13358:13363  pt2zx */\n      dup5\n        /* \"verifier.sol\":13365:13370  pt2zy */\n      dup5\n        /* \"verifier.sol\":13336:13343  _FQ2Mul */\n      tag_92\n        /* \"verifier.sol\":13336:13371  _FQ2Mul(pt1zx, pt1zy, pt2zx, pt2zy) */\n      jump\t// in\n    tag_289:\n        /* \"verifier.sol\":13319:13371  (pt2zx, pt2zy) = _FQ2Mul(pt1zx, pt1zy, pt2zx, pt2zy) */\n      dup1\n      swap3\n      pop\n      dup2\n      swap4\n      pop\n      pop\n      pop\n        /* \"verifier.sol\":13415:13439  _FQ2Muc(pt2zx, pt2zy, 8) */\n      tag_290\n        /* \"verifier.sol\":13423:13428  pt2zx */\n      dup3\n        /* \"verifier.sol\":13430:13435  pt2zy */\n      dup3\n        /* \"verifier.sol\":13437:13438  8 */\n      0x08\n        /* \"verifier.sol\":13415:13422  _FQ2Muc */\n      tag_208\n        /* \"verifier.sol\":13415:13439  _FQ2Muc(pt2zx, pt2zy, 8) */\n      jump\t// in\n    tag_290:\n        /* \"verifier.sol\":13398:13439  (pt2zx, pt2zy) = _FQ2Muc(pt2zx, pt2zy, 8) */\n      dup1\n      swap3\n      pop\n      dup2\n      swap4\n      pop\n      pop\n      pop\n        /* \"verifier.sol\":11606:13485  function _ECTwistDoubleJacobian(... */\n      swap7\n      pop\n      swap7\n      pop\n      swap7\n      pop\n      swap7\n      pop\n      swap7\n      pop\n      swap7\n      swap1\n      pop\n      jump\t// out\n        /* \"verifier.sol\":4759:4992  function _FQ2Muc(... */\n    tag_208:\n        /* \"verifier.sol\":4856:4863  uint256 */\n      0x00\n        /* \"verifier.sol\":4865:4872  uint256 */\n      dup1\n        /* \"verifier.sol\":348:414  0x30644e72e131a029b85045b68181585d97816a916871ca8d3c208c16d87cfd47 */\n      0x30644e72e131a029b85045b68181585d97816a916871ca8d3c208c16d87cfd47\n        /* \"verifier.sol\":4905:4933  mulmod(xx, c, FIELD_MODULUS) */\n      dup1\n      tag_292\n      jumpi\n      tag_293\n      tag_257\n      jump\t// in\n    tag_293:\n    tag_292:\n        /* \"verifier.sol\":4916:4917  c */\n      dup4\n        /* \"verifier.sol\":4912:4914  xx */\n      dup7\n        /* \"verifier.sol\":4905:4933  mulmod(xx, c, FIELD_MODULUS) */\n      mulmod\n        /* \"verifier.sol\":348:414  0x30644e72e131a029b85045b68181585d97816a916871ca8d3c208c16d87cfd47 */\n      0x30644e72e131a029b85045b68181585d97816a916871ca8d3c208c16d87cfd47\n        /* \"verifier.sol\":4947:4975  mulmod(xy, c, FIELD_MODULUS) */\n      dup1\n      tag_294\n      jumpi\n      tag_295\n      tag_257\n      jump\t// in\n    tag_295:\n    tag_294:\n        /* \"verifier.sol\":4958:4959  c */\n      dup5\n        /* \"verifier.sol\":4954:4956  xy */\n      dup7\n        /* \"verifier.sol\":4947:4975  mulmod(xy, c, FIELD_MODULUS) */\n      mulmod\n        /* \"verifier.sol\":4884:4985  return (... */\n      swap2\n      pop\n      swap2\n      pop\n        /* \"verifier.sol\":4759:4992  function _FQ2Muc(... */\n      swap4\n      pop\n      swap4\n      swap2\n      pop\n      pop\n      jump\t// out\n        /* \"verifier.sol\":5729:6072  function _FQ2Inv(uint256 x, uint256 y) internal view returns (uint256, uint256) {... */\n    tag_229:\n        /* \"verifier.sol\":5791:5798  uint256 */\n      0x00\n        /* \"verifier.sol\":5800:5807  uint256 */\n      dup1\n        /* \"verifier.sol\":5819:5830  uint256 inv */\n      0x00\n        /* \"verifier.sol\":5833:5936  _modInv(addmod(mulmod(y, y, FIELD_MODULUS), mulmod(x, x, FIELD_MODULUS), FIELD_MODULUS), FIELD_MODULUS) */\n      tag_297\n        /* \"verifier.sol\":348:414  0x30644e72e131a029b85045b68181585d97816a916871ca8d3c208c16d87cfd47 */\n      0x30644e72e131a029b85045b68181585d97816a916871ca8d3c208c16d87cfd47\n        /* \"verifier.sol\":5841:5920  addmod(mulmod(y, y, FIELD_MODULUS), mulmod(x, x, FIELD_MODULUS), FIELD_MODULUS) */\n      dup1\n      tag_298\n      jumpi\n      tag_299\n      tag_257\n      jump\t// in\n    tag_299:\n    tag_298:\n        /* \"verifier.sol\":348:414  0x30644e72e131a029b85045b68181585d97816a916871ca8d3c208c16d87cfd47 */\n      0x30644e72e131a029b85045b68181585d97816a916871ca8d3c208c16d87cfd47\n        /* \"verifier.sol\":5877:5904  mulmod(x, x, FIELD_MODULUS) */\n      dup1\n      tag_300\n      jumpi\n      tag_301\n      tag_257\n      jump\t// in\n    tag_301:\n    tag_300:\n        /* \"verifier.sol\":5887:5888  x */\n      dup8\n        /* \"verifier.sol\":5884:5885  x */\n      dup9\n        /* \"verifier.sol\":5877:5904  mulmod(x, x, FIELD_MODULUS) */\n      mulmod\n        /* \"verifier.sol\":348:414  0x30644e72e131a029b85045b68181585d97816a916871ca8d3c208c16d87cfd47 */\n      0x30644e72e131a029b85045b68181585d97816a916871ca8d3c208c16d87cfd47\n        /* \"verifier.sol\":5848:5875  mulmod(y, y, FIELD_MODULUS) */\n      dup1\n      tag_302\n      jumpi\n      tag_303\n      tag_257\n      jump\t// in\n    tag_303:\n    tag_302:\n        /* \"verifier.sol\":5858:5859  y */\n      dup8\n        /* \"verifier.sol\":5855:5856  y */\n      dup9\n        /* \"verifier.sol\":5848:5875  mulmod(y, y, FIELD_MODULUS) */\n      mulmod\n        /* \"verifier.sol\":5841:5920  addmod(mulmod(y, y, FIELD_MODULUS), mulmod(x, x, FIELD_MODULUS), FIELD_MODULUS) */\n      addmod\n        /* \"verifier.sol\":348:414  0x30644e72e131a029b85045b68181585d97816a916871ca8d3c208c16d87cfd47 */\n      0x30644e72e131a029b85045b68181585d97816a916871ca8d3c208c16d87cfd47\n        /* \"verifier.sol\":5833:5840  _modInv */\n      tag_304\n        /* \"verifier.sol\":5833:5936  _modInv(addmod(mulmod(y, y, FIELD_MODULUS), mulmod(x, x, FIELD_MODULUS), FIELD_MODULUS), FIELD_MODULUS) */\n      jump\t// in\n    tag_297:\n        /* \"verifier.sol\":5819:5936  uint256 inv = _modInv(addmod(mulmod(y, y, FIELD_MODULUS), mulmod(x, x, FIELD_MODULUS), FIELD_MODULUS), FIELD_MODULUS) */\n      swap1\n      pop\n        /* \"verifier.sol\":348:414  0x30644e72e131a029b85045b68181585d97816a916871ca8d3c208c16d87cfd47 */\n      0x30644e72e131a029b85045b68181585d97816a916871ca8d3c208c16d87cfd47\n        /* \"verifier.sol\":5967:5996  mulmod(x, inv, FIELD_MODULUS) */\n      dup1\n      tag_305\n      jumpi\n      tag_306\n      tag_257\n      jump\t// in\n    tag_306:\n    tag_305:\n        /* \"verifier.sol\":5977:5980  inv */\n      dup2\n        /* \"verifier.sol\":5974:5975  x */\n      dup7\n        /* \"verifier.sol\":5967:5996  mulmod(x, inv, FIELD_MODULUS) */\n      mulmod\n        /* \"verifier.sol\":348:414  0x30644e72e131a029b85045b68181585d97816a916871ca8d3c208c16d87cfd47 */\n      0x30644e72e131a029b85045b68181585d97816a916871ca8d3c208c16d87cfd47\n        /* \"verifier.sol\":6026:6055  mulmod(y, inv, FIELD_MODULUS) */\n      dup1\n      tag_307\n      jumpi\n      tag_308\n      tag_257\n      jump\t// in\n    tag_308:\n    tag_307:\n        /* \"verifier.sol\":6036:6039  inv */\n      dup3\n        /* \"verifier.sol\":6033:6034  y */\n      dup7\n        /* \"verifier.sol\":6026:6055  mulmod(y, inv, FIELD_MODULUS) */\n      mulmod\n        /* \"verifier.sol\":348:414  0x30644e72e131a029b85045b68181585d97816a916871ca8d3c208c16d87cfd47 */\n      0x30644e72e131a029b85045b68181585d97816a916871ca8d3c208c16d87cfd47\n        /* \"verifier.sol\":6010:6055  FIELD_MODULUS - mulmod(y, inv, FIELD_MODULUS) */\n      tag_309\n      swap2\n      swap1\n      tag_310\n      jump\t// in\n    tag_309:\n        /* \"verifier.sol\":5946:6065  return (... */\n      swap3\n      pop\n      swap3\n      pop\n      pop\n        /* \"verifier.sol\":5729:6072  function _FQ2Inv(uint256 x, uint256 y) internal view returns (uint256, uint256) {... */\n      swap3\n      pop\n      swap3\n      swap1\n      pop\n      jump\t// out\n        /* \"verifier.sol\":4267:4391  function submod(uint256 a, uint256 b, uint256 n) internal pure returns (uint256) {... */\n    tag_260:\n        /* \"verifier.sol\":4339:4346  uint256 */\n      0x00\n        /* \"verifier.sol\":4382:4383  n */\n      dup2\n        /* \"verifier.sol\":4365:4384  addmod(a, n - b, n) */\n      dup1\n      tag_312\n      jumpi\n      tag_313\n      tag_257\n      jump\t// in\n    tag_313:\n    tag_312:\n        /* \"verifier.sol\":4379:4380  b */\n      dup4\n        /* \"verifier.sol\":4375:4376  n */\n      dup4\n        /* \"verifier.sol\":4375:4380  n - b */\n      tag_314\n      swap2\n      swap1\n      tag_310\n      jump\t// in\n    tag_314:\n        /* \"verifier.sol\":4372:4373  a */\n      dup6\n        /* \"verifier.sol\":4365:4384  addmod(a, n - b, n) */\n      addmod\n        /* \"verifier.sol\":4358:4384  return addmod(a, n - b, n) */\n      swap1\n      pop\n        /* \"verifier.sol\":4267:4391  function submod(uint256 a, uint256 b, uint256 n) internal pure returns (uint256) {... */\n      swap4\n      swap3\n      pop\n      pop\n      pop\n      jump\t// out\n        /* \"verifier.sol\":6589:7165  function _modInv(uint256 a, uint256 n) internal view returns (uint256 result) {... */\n    tag_304:\n        /* \"verifier.sol\":6651:6665  uint256 result */\n      0x00\n        /* \"verifier.sol\":6677:6689  bool success */\n      dup1\n        /* \"verifier.sol\":6743:6747  0x40 */\n      0x40\n        /* \"verifier.sol\":6737:6748  mload(0x40) */\n      mload\n        /* \"verifier.sol\":6777:6781  0x20 */\n      0x20\n        /* \"verifier.sol\":6768:6775  freemem */\n      dup2\n        /* \"verifier.sol\":6761:6782  mstore(freemem, 0x20) */\n      mstore\n        /* \"verifier.sol\":6821:6825  0x20 */\n      0x20\n        /* \"verifier.sol\":6814:6818  0x20 */\n      dup1\n        /* \"verifier.sol\":6806:6813  freemem */\n      dup3\n        /* \"verifier.sol\":6802:6819  add(freemem,0x20) */\n      add\n        /* \"verifier.sol\":6795:6826  mstore(add(freemem,0x20), 0x20) */\n      mstore\n        /* \"verifier.sol\":6865:6869  0x20 */\n      0x20\n        /* \"verifier.sol\":6858:6862  0x40 */\n      0x40\n        /* \"verifier.sol\":6850:6857  freemem */\n      dup3\n        /* \"verifier.sol\":6846:6863  add(freemem,0x40) */\n      add\n        /* \"verifier.sol\":6839:6870  mstore(add(freemem,0x40), 0x20) */\n      mstore\n        /* \"verifier.sol\":6909:6910  a */\n      dup5\n        /* \"verifier.sol\":6902:6906  0x60 */\n      0x60\n        /* \"verifier.sol\":6894:6901  freemem */\n      dup3\n        /* \"verifier.sol\":6890:6907  add(freemem,0x60) */\n      add\n        /* \"verifier.sol\":6883:6911  mstore(add(freemem,0x60), a) */\n      mstore\n        /* \"verifier.sol\":6957:6958  2 */\n      0x02\n        /* \"verifier.sol\":6954:6955  n */\n      dup5\n        /* \"verifier.sol\":6950:6959  sub(n, 2) */\n      sub\n        /* \"verifier.sol\":6943:6947  0x80 */\n      0x80\n        /* \"verifier.sol\":6935:6942  freemem */\n      dup3\n        /* \"verifier.sol\":6931:6948  add(freemem,0x80) */\n      add\n        /* \"verifier.sol\":6924:6960  mstore(add(freemem,0x80), sub(n, 2)) */\n      mstore\n        /* \"verifier.sol\":6999:7000  n */\n      dup4\n        /* \"verifier.sol\":6992:6996  0xA0 */\n      0xa0\n        /* \"verifier.sol\":6984:6991  freemem */\n      dup3\n        /* \"verifier.sol\":6980:6997  add(freemem,0xA0) */\n      add\n        /* \"verifier.sol\":6973:7001  mstore(add(freemem,0xA0), n) */\n      mstore\n        /* \"verifier.sol\":7081:7085  0x20 */\n      0x20\n        /* \"verifier.sol\":7072:7079  freemem */\n      dup2\n        /* \"verifier.sol\":7066:7070  0xC0 */\n      0xc0\n        /* \"verifier.sol\":7057:7064  freemem */\n      dup4\n        /* \"verifier.sol\":7054:7055  5 */\n      0x05\n        /* \"verifier.sol\":7047:7051  2000 */\n      0x07d0\n        /* \"verifier.sol\":7040:7045  gas() */\n      gas\n        /* \"verifier.sol\":7036:7052  sub(gas(), 2000) */\n      sub\n        /* \"verifier.sol\":7025:7086  staticcall(sub(gas(), 2000), 5, freemem, 0xC0, freemem, 0x20) */\n      staticcall\n        /* \"verifier.sol\":7014:7086  success := staticcall(sub(gas(), 2000), 5, freemem, 0xC0, freemem, 0x20) */\n      swap2\n      pop\n        /* \"verifier.sol\":7115:7122  freemem */\n      dup1\n        /* \"verifier.sol\":7109:7123  mload(freemem) */\n      mload\n        /* \"verifier.sol\":7099:7123  result := mload(freemem) */\n      swap3\n      pop\n        /* \"verifier.sol\":6708:7133  {... */\n      pop\n        /* \"verifier.sol\":7150:7157  success */\n      dup1\n        /* \"verifier.sol\":7142:7158  require(success) */\n      tag_316\n      jumpi\n      0x00\n      dup1\n      revert\n    tag_316:\n        /* \"verifier.sol\":6667:7165  {... */\n      pop\n        /* \"verifier.sol\":6589:7165  function _modInv(uint256 a, uint256 n) internal view returns (uint256 result) {... */\n      swap3\n      swap2\n      pop\n      pop\n      jump\t// out\n    tag_100:\n      mload(0x40)\n      dup1\n      0xc0\n      add\n      0x40\n      mstore\n      dup1\n      0x06\n      swap1\n      0x20\n      dup3\n      mul\n      dup1\n      calldatasize\n      dup4\n      calldatacopy\n      dup1\n      dup3\n      add\n      swap2\n      pop\n      pop\n      swap1\n      pop\n      pop\n      swap1\n      jump\t// out\n        /* \"#utility.yul\":7:84   */\n    tag_317:\n        /* \"#utility.yul\":44:51   */\n      0x00\n        /* \"#utility.yul\":73:78   */\n      dup2\n        /* \"#utility.yul\":62:78   */\n      swap1\n      pop\n        /* \"#utility.yul\":7:84   */\n      swap2\n      swap1\n      pop\n      jump\t// out\n        /* \"#utility.yul\":90:216   */\n    tag_318:\n        /* \"#utility.yul\":185:209   */\n      tag_328\n        /* \"#utility.yul\":203:208   */\n      dup2\n        /* \"#utility.yul\":185:209   */\n      tag_317\n      jump\t// in\n    tag_328:\n        /* \"#utility.yul\":180:183   */\n      dup3\n        /* \"#utility.yul\":173:210   */\n      mstore\n        /* \"#utility.yul\":90:216   */\n      pop\n      pop\n      jump\t// out\n        /* \"#utility.yul\":222:460   */\n    tag_8:\n        /* \"#utility.yul\":323:327   */\n      0x00\n        /* \"#utility.yul\":361:363   */\n      0x20\n        /* \"#utility.yul\":350:359   */\n      dup3\n        /* \"#utility.yul\":346:364   */\n      add\n        /* \"#utility.yul\":338:364   */\n      swap1\n      pop\n        /* \"#utility.yul\":374:453   */\n      tag_330\n        /* \"#utility.yul\":450:451   */\n      0x00\n        /* \"#utility.yul\":439:448   */\n      dup4\n        /* \"#utility.yul\":435:452   */\n      add\n        /* \"#utility.yul\":426:432   */\n      dup5\n        /* \"#utility.yul\":374:453   */\n      tag_318\n      jump\t// in\n    tag_330:\n        /* \"#utility.yul\":222:460   */\n      swap3\n      swap2\n      pop\n      pop\n      jump\t// out\n        /* \"#utility.yul\":547:664   */\n    tag_320:\n        /* \"#utility.yul\":656:657   */\n      0x00\n        /* \"#utility.yul\":653:654   */\n      dup1\n        /* \"#utility.yul\":646:658   */\n      revert\n        /* \"#utility.yul\":793:915   */\n    tag_322:\n        /* \"#utility.yul\":866:890   */\n      tag_335\n        /* \"#utility.yul\":884:889   */\n      dup2\n        /* \"#utility.yul\":866:890   */\n      tag_317\n      jump\t// in\n    tag_335:\n        /* \"#utility.yul\":859:864   */\n      dup2\n        /* \"#utility.yul\":856:891   */\n      eq\n        /* \"#utility.yul\":846:909   */\n      tag_336\n      jumpi\n        /* \"#utility.yul\":905:906   */\n      0x00\n        /* \"#utility.yul\":902:903   */\n      dup1\n        /* \"#utility.yul\":895:907   */\n      revert\n        /* \"#utility.yul\":846:909   */\n    tag_336:\n        /* \"#utility.yul\":793:915   */\n      pop\n      jump\t// out\n        /* \"#utility.yul\":921:1060   */\n    tag_323:\n        /* \"#utility.yul\":967:972   */\n      0x00\n        /* \"#utility.yul\":1005:1011   */\n      dup2\n        /* \"#utility.yul\":992:1012   */\n      calldataload\n        /* \"#utility.yul\":983:1012   */\n      swap1\n      pop\n        /* \"#utility.yul\":1021:1054   */\n      tag_338\n        /* \"#utility.yul\":1048:1053   */\n      dup2\n        /* \"#utility.yul\":1021:1054   */\n      tag_322\n      jump\t// in\n    tag_338:\n        /* \"#utility.yul\":921:1060   */\n      swap3\n      swap2\n      pop\n      pop\n      jump\t// out\n        /* \"#utility.yul\":1066:2415   */\n    tag_11:\n        /* \"#utility.yul\":1188:1194   */\n      0x00\n        /* \"#utility.yul\":1196:1202   */\n      dup1\n        /* \"#utility.yul\":1204:1210   */\n      0x00\n        /* \"#utility.yul\":1212:1218   */\n      dup1\n        /* \"#utility.yul\":1220:1226   */\n      0x00\n        /* \"#utility.yul\":1228:1234   */\n      dup1\n        /* \"#utility.yul\":1236:1242   */\n      0x00\n        /* \"#utility.yul\":1244:1250   */\n      dup1\n        /* \"#utility.yul\":1293:1296   */\n      0x0100\n        /* \"#utility.yul\":1281:1290   */\n      dup10\n        /* \"#utility.yul\":1272:1279   */\n      dup12\n        /* \"#utility.yul\":1268:1291   */\n      sub\n        /* \"#utility.yul\":1264:1297   */\n      slt\n        /* \"#utility.yul\":1261:1381   */\n      iszero\n      tag_340\n      jumpi\n        /* \"#utility.yul\":1300:1379   */\n      tag_341\n      tag_320\n      jump\t// in\n    tag_341:\n        /* \"#utility.yul\":1261:1381   */\n    tag_340:\n        /* \"#utility.yul\":1420:1421   */\n      0x00\n        /* \"#utility.yul\":1445:1498   */\n      tag_342\n        /* \"#utility.yul\":1490:1497   */\n      dup12\n        /* \"#utility.yul\":1481:1487   */\n      dup3\n        /* \"#utility.yul\":1470:1479   */\n      dup13\n        /* \"#utility.yul\":1466:1488   */\n      add\n        /* \"#utility.yul\":1445:1498   */\n      tag_323\n      jump\t// in\n    tag_342:\n        /* \"#utility.yul\":1435:1498   */\n      swap9\n      pop\n        /* \"#utility.yul\":1391:1508   */\n      pop\n        /* \"#utility.yul\":1547:1549   */\n      0x20\n        /* \"#utility.yul\":1573:1626   */\n      tag_343\n        /* \"#utility.yul\":1618:1625   */\n      dup12\n        /* \"#utility.yul\":1609:1615   */\n      dup3\n        /* \"#utility.yul\":1598:1607   */\n      dup13\n        /* \"#utility.yul\":1594:1616   */\n      add\n        /* \"#utility.yul\":1573:1626   */\n      tag_323\n      jump\t// in\n    tag_343:\n        /* \"#utility.yul\":1563:1626   */\n      swap8\n      pop\n        /* \"#utility.yul\":1518:1636   */\n      pop\n        /* \"#utility.yul\":1675:1677   */\n      0x40\n        /* \"#utility.yul\":1701:1754   */\n      tag_344\n        /* \"#utility.yul\":1746:1753   */\n      dup12\n        /* \"#utility.yul\":1737:1743   */\n      dup3\n        /* \"#utility.yul\":1726:1735   */\n      dup13\n        /* \"#utility.yul\":1722:1744   */\n      add\n        /* \"#utility.yul\":1701:1754   */\n      tag_323\n      jump\t// in\n    tag_344:\n        /* \"#utility.yul\":1691:1754   */\n      swap7\n      pop\n        /* \"#utility.yul\":1646:1764   */\n      pop\n        /* \"#utility.yul\":1803:1805   */\n      0x60\n        /* \"#utility.yul\":1829:1882   */\n      tag_345\n        /* \"#utility.yul\":1874:1881   */\n      dup12\n        /* \"#utility.yul\":1865:1871   */\n      dup3\n        /* \"#utility.yul\":1854:1863   */\n      dup13\n        /* \"#utility.yul\":1850:1872   */\n      add\n        /* \"#utility.yul\":1829:1882   */\n      tag_323\n      jump\t// in\n    tag_345:\n        /* \"#utility.yul\":1819:1882   */\n      swap6\n      pop\n        /* \"#utility.yul\":1774:1892   */\n      pop\n        /* \"#utility.yul\":1931:1934   */\n      0x80\n        /* \"#utility.yul\":1958:2011   */\n      tag_346\n        /* \"#utility.yul\":2003:2010   */\n      dup12\n        /* \"#utility.yul\":1994:2000   */\n      dup3\n        /* \"#utility.yul\":1983:1992   */\n      dup13\n        /* \"#utility.yul\":1979:2001   */\n      add\n        /* \"#utility.yul\":1958:2011   */\n      tag_323\n      jump\t// in\n    tag_346:\n        /* \"#utility.yul\":1948:2011   */\n      swap5\n      pop\n        /* \"#utility.yul\":1902:2021   */\n      pop\n        /* \"#utility.yul\":2060:2063   */\n      0xa0\n        /* \"#utility.yul\":2087:2140   */\n      tag_347\n        /* \"#utility.yul\":2132:2139   */\n      dup12\n        /* \"#utility.yul\":2123:2129   */\n      dup3\n        /* \"#utility.yul\":2112:2121   */\n      dup13\n        /* \"#utility.yul\":2108:2130   */\n      add\n        /* \"#utility.yul\":2087:2140   */\n      tag_323\n      jump\t// in\n    tag_347:\n        /* \"#utility.yul\":2077:2140   */\n      swap4\n      pop\n        /* \"#utility.yul\":2031:2150   */\n      pop\n        /* \"#utility.yul\":2189:2192   */\n      0xc0\n        /* \"#utility.yul\":2216:2269   */\n      tag_348\n        /* \"#utility.yul\":2261:2268   */\n      dup12\n        /* \"#utility.yul\":2252:2258   */\n      dup3\n        /* \"#utility.yul\":2241:2250   */\n      dup13\n        /* \"#utility.yul\":2237:2259   */\n      add\n        /* \"#utility.yul\":2216:2269   */\n      tag_323\n      jump\t// in\n    tag_348:\n        /* \"#utility.yul\":2206:2269   */\n      swap3\n      pop\n        /* \"#utility.yul\":2160:2279   */\n      pop\n        /* \"#utility.yul\":2318:2321   */\n      0xe0\n        /* \"#utility.yul\":2345:2398   */\n      tag_349\n        /* \"#utility.yul\":2390:2397   */\n      dup12\n        /* \"#utility.yul\":2381:2387   */\n      dup3\n        /* \"#utility.yul\":2370:2379   */\n      dup13\n        /* \"#utility.yul\":2366:2388   */\n      add\n        /* \"#utility.yul\":2345:2398   */\n      tag_323\n      jump\t// in\n    tag_349:\n        /* \"#utility.yul\":2335:2398   */\n      swap2\n      pop\n        /* \"#utility.yul\":2289:2408   */\n      pop\n        /* \"#utility.yul\":1066:2415   */\n      swap3\n      swap6\n      swap9\n      pop\n      swap3\n      swap6\n      swap9\n      swap1\n      swap4\n      swap7\n      pop\n      jump\t// out\n        /* \"#utility.yul\":2421:3014   */\n    tag_14:\n        /* \"#utility.yul\":2606:2610   */\n      0x00\n        /* \"#utility.yul\":2644:2647   */\n      0x80\n        /* \"#utility.yul\":2633:2642   */\n      dup3\n        /* \"#utility.yul\":2629:2648   */\n      add\n        /* \"#utility.yul\":2621:2648   */\n      swap1\n      pop\n        /* \"#utility.yul\":2658:2737   */\n      tag_351\n        /* \"#utility.yul\":2734:2735   */\n      0x00\n        /* \"#utility.yul\":2723:2732   */\n      dup4\n        /* \"#utility.yul\":2719:2736   */\n      add\n        /* \"#utility.yul\":2710:2716   */\n      dup8\n        /* \"#utility.yul\":2658:2737   */\n      tag_318\n      jump\t// in\n    tag_351:\n        /* \"#utility.yul\":2747:2827   */\n      tag_352\n        /* \"#utility.yul\":2823:2825   */\n      0x20\n        /* \"#utility.yul\":2812:2821   */\n      dup4\n        /* \"#utility.yul\":2808:2826   */\n      add\n        /* \"#utility.yul\":2799:2805   */\n      dup7\n        /* \"#utility.yul\":2747:2827   */\n      tag_318\n      jump\t// in\n    tag_352:\n        /* \"#utility.yul\":2837:2917   */\n      tag_353\n        /* \"#utility.yul\":2913:2915   */\n      0x40\n        /* \"#utility.yul\":2902:2911   */\n      dup4\n        /* \"#utility.yul\":2898:2916   */\n      add\n        /* \"#utility.yul\":2889:2895   */\n      dup6\n        /* \"#utility.yul\":2837:2917   */\n      tag_318\n      jump\t// in\n    tag_353:\n        /* \"#utility.yul\":2927:3007   */\n      tag_354\n        /* \"#utility.yul\":3003:3005   */\n      0x60\n        /* \"#utility.yul\":2992:3001   */\n      dup4\n        /* \"#utility.yul\":2988:3006   */\n      add\n        /* \"#utility.yul\":2979:2985   */\n      dup5\n        /* \"#utility.yul\":2927:3007   */\n      tag_318\n      jump\t// in\n    tag_354:\n        /* \"#utility.yul\":2421:3014   */\n      swap6\n      swap5\n      pop\n      pop\n      pop\n      pop\n      pop\n      jump\t// out\n        /* \"#utility.yul\":3020:3931   */\n    tag_17:\n        /* \"#utility.yul\":3115:3121   */\n      0x00\n        /* \"#utility.yul\":3123:3129   */\n      dup1\n        /* \"#utility.yul\":3131:3137   */\n      0x00\n        /* \"#utility.yul\":3139:3145   */\n      dup1\n        /* \"#utility.yul\":3147:3153   */\n      0x00\n        /* \"#utility.yul\":3196:3199   */\n      0xa0\n        /* \"#utility.yul\":3184:3193   */\n      dup7\n        /* \"#utility.yul\":3175:3182   */\n      dup9\n        /* \"#utility.yul\":3171:3194   */\n      sub\n        /* \"#utility.yul\":3167:3200   */\n      slt\n        /* \"#utility.yul\":3164:3284   */\n      iszero\n      tag_356\n      jumpi\n        /* \"#utility.yul\":3203:3282   */\n      tag_357\n      tag_320\n      jump\t// in\n    tag_357:\n        /* \"#utility.yul\":3164:3284   */\n    tag_356:\n        /* \"#utility.yul\":3323:3324   */\n      0x00\n        /* \"#utility.yul\":3348:3401   */\n      tag_358\n        /* \"#utility.yul\":3393:3400   */\n      dup9\n        /* \"#utility.yul\":3384:3390   */\n      dup3\n        /* \"#utility.yul\":3373:3382   */\n      dup10\n        /* \"#utility.yul\":3369:3391   */\n      add\n        /* \"#utility.yul\":3348:3401   */\n      tag_323\n      jump\t// in\n    tag_358:\n        /* \"#utility.yul\":3338:3401   */\n      swap6\n      pop\n        /* \"#utility.yul\":3294:3411   */\n      pop\n        /* \"#utility.yul\":3450:3452   */\n      0x20\n        /* \"#utility.yul\":3476:3529   */\n      tag_359\n        /* \"#utility.yul\":3521:3528   */\n      dup9\n        /* \"#utility.yul\":3512:3518   */\n      dup3\n        /* \"#utility.yul\":3501:3510   */\n      dup10\n        /* \"#utility.yul\":3497:3519   */\n      add\n        /* \"#utility.yul\":3476:3529   */\n      tag_323\n      jump\t// in\n    tag_359:\n        /* \"#utility.yul\":3466:3529   */\n      swap5\n      pop\n        /* \"#utility.yul\":3421:3539   */\n      pop\n        /* \"#utility.yul\":3578:3580   */\n      0x40\n        /* \"#utility.yul\":3604:3657   */\n      tag_360\n        /* \"#utility.yul\":3649:3656   */\n      dup9\n        /* \"#utility.yul\":3640:3646   */\n      dup3\n        /* \"#utility.yul\":3629:3638   */\n      dup10\n        /* \"#utility.yul\":3625:3647   */\n      add\n        /* \"#utility.yul\":3604:3657   */\n      tag_323\n      jump\t// in\n    tag_360:\n        /* \"#utility.yul\":3594:3657   */\n      swap4\n      pop\n        /* \"#utility.yul\":3549:3667   */\n      pop\n        /* \"#utility.yul\":3706:3708   */\n      0x60\n        /* \"#utility.yul\":3732:3785   */\n      tag_361\n        /* \"#utility.yul\":3777:3784   */\n      dup9\n        /* \"#utility.yul\":3768:3774   */\n      dup3\n        /* \"#utility.yul\":3757:3766   */\n      dup10\n        /* \"#utility.yul\":3753:3775   */\n      add\n        /* \"#utility.yul\":3732:3785   */\n      tag_323\n      jump\t// in\n    tag_361:\n        /* \"#utility.yul\":3722:3785   */\n      swap3\n      pop\n        /* \"#utility.yul\":3677:3795   */\n      pop\n        /* \"#utility.yul\":3834:3837   */\n      0x80\n        /* \"#utility.yul\":3861:3914   */\n      tag_362\n        /* \"#utility.yul\":3906:3913   */\n      dup9\n        /* \"#utility.yul\":3897:3903   */\n      dup3\n        /* \"#utility.yul\":3886:3895   */\n      dup10\n        /* \"#utility.yul\":3882:3904   */\n      add\n        /* \"#utility.yul\":3861:3914   */\n      tag_323\n      jump\t// in\n    tag_362:\n        /* \"#utility.yul\":3851:3914   */\n      swap2\n      pop\n        /* \"#utility.yul\":3805:3924   */\n      pop\n        /* \"#utility.yul\":3020:3931   */\n      swap3\n      swap6\n      pop\n      swap3\n      swap6\n      swap1\n      swap4\n      pop\n      jump\t// out\n        /* \"#utility.yul\":3937:4117   */\n    tag_34:\n        /* \"#utility.yul\":3985:4062   */\n      0x4e487b7100000000000000000000000000000000000000000000000000000000\n        /* \"#utility.yul\":3982:3983   */\n      0x00\n        /* \"#utility.yul\":3975:4063   */\n      mstore\n        /* \"#utility.yul\":4082:4086   */\n      0x01\n        /* \"#utility.yul\":4079:4080   */\n      0x04\n        /* \"#utility.yul\":4072:4087   */\n      mstore\n        /* \"#utility.yul\":4106:4110   */\n      0x24\n        /* \"#utility.yul\":4103:4104   */\n      0x00\n        /* \"#utility.yul\":4096:4111   */\n      revert\n        /* \"#utility.yul\":4123:4303   */\n    tag_54:\n        /* \"#utility.yul\":4171:4248   */\n      0x4e487b7100000000000000000000000000000000000000000000000000000000\n        /* \"#utility.yul\":4168:4169   */\n      0x00\n        /* \"#utility.yul\":4161:4249   */\n      mstore\n        /* \"#utility.yul\":4268:4272   */\n      0x32\n        /* \"#utility.yul\":4265:4266   */\n      0x04\n        /* \"#utility.yul\":4258:4273   */\n      mstore\n        /* \"#utility.yul\":4292:4296   */\n      0x24\n        /* \"#utility.yul\":4289:4290   */\n      0x00\n        /* \"#utility.yul\":4282:4297   */\n      revert\n        /* \"#utility.yul\":4309:4489   */\n    tag_257:\n        /* \"#utility.yul\":4357:4434   */\n      0x4e487b7100000000000000000000000000000000000000000000000000000000\n        /* \"#utility.yul\":4354:4355   */\n      0x00\n        /* \"#utility.yul\":4347:4435   */\n      mstore\n        /* \"#utility.yul\":4454:4458   */\n      0x12\n        /* \"#utility.yul\":4451:4452   */\n      0x04\n        /* \"#utility.yul\":4444:4459   */\n      mstore\n        /* \"#utility.yul\":4478:4482   */\n      0x24\n        /* \"#utility.yul\":4475:4476   */\n      0x00\n        /* \"#utility.yul\":4468:4483   */\n      revert\n        /* \"#utility.yul\":4495:4675   */\n    tag_324:\n        /* \"#utility.yul\":4543:4620   */\n      0x4e487b7100000000000000000000000000000000000000000000000000000000\n        /* \"#utility.yul\":4540:4541   */\n      0x00\n        /* \"#utility.yul\":4533:4621   */\n      mstore\n        /* \"#utility.yul\":4640:4644   */\n      0x11\n        /* \"#utility.yul\":4637:4638   */\n      0x04\n        /* \"#utility.yul\":4630:4645   */\n      mstore\n        /* \"#utility.yul\":4664:4668   */\n      0x24\n        /* \"#utility.yul\":4661:4662   */\n      0x00\n        /* \"#utility.yul\":4654:4669   */\n      revert\n        /* \"#utility.yul\":4681:4866   */\n    tag_252:\n        /* \"#utility.yul\":4721:4722   */\n      0x00\n        /* \"#utility.yul\":4738:4758   */\n      tag_368\n        /* \"#utility.yul\":4756:4757   */\n      dup3\n        /* \"#utility.yul\":4738:4758   */\n      tag_317\n      jump\t// in\n    tag_368:\n        /* \"#utility.yul\":4733:4758   */\n      swap2\n      pop\n        /* \"#utility.yul\":4772:4792   */\n      tag_369\n        /* \"#utility.yul\":4790:4791   */\n      dup4\n        /* \"#utility.yul\":4772:4792   */\n      tag_317\n      jump\t// in\n    tag_369:\n        /* \"#utility.yul\":4767:4792   */\n      swap3\n      pop\n        /* \"#utility.yul\":4811:4812   */\n      dup3\n        /* \"#utility.yul\":4801:4836   */\n      tag_370\n      jumpi\n        /* \"#utility.yul\":4816:4834   */\n      tag_371\n      tag_257\n      jump\t// in\n    tag_371:\n        /* \"#utility.yul\":4801:4836   */\n    tag_370:\n        /* \"#utility.yul\":4858:4859   */\n      dup3\n        /* \"#utility.yul\":4855:4856   */\n      dup3\n        /* \"#utility.yul\":4851:4860   */\n      div\n        /* \"#utility.yul\":4846:4860   */\n      swap1\n      pop\n        /* \"#utility.yul\":4681:4866   */\n      swap3\n      swap2\n      pop\n      pop\n      jump\t// out\n        /* \"#utility.yul\":4872:5066   */\n    tag_310:\n        /* \"#utility.yul\":4912:4916   */\n      0x00\n        /* \"#utility.yul\":4932:4952   */\n      tag_373\n        /* \"#utility.yul\":4950:4951   */\n      dup3\n        /* \"#utility.yul\":4932:4952   */\n      tag_317\n      jump\t// in\n    tag_373:\n        /* \"#utility.yul\":4927:4952   */\n      swap2\n      pop\n        /* \"#utility.yul\":4966:4986   */\n      tag_374\n        /* \"#utility.yul\":4984:4985   */\n      dup4\n        /* \"#utility.yul\":4966:4986   */\n      tag_317\n      jump\t// in\n    tag_374:\n        /* \"#utility.yul\":4961:4986   */\n      swap3\n      pop\n        /* \"#utility.yul\":5010:5011   */\n      dup3\n        /* \"#utility.yul\":5007:5008   */\n      dup3\n        /* \"#utility.yul\":5003:5012   */\n      sub\n        /* \"#utility.yul\":4995:5012   */\n      swap1\n      pop\n        /* \"#utility.yul\":5034:5035   */\n      dup2\n        /* \"#utility.yul\":5028:5032   */\n      dup2\n        /* \"#utility.yul\":5025:5036   */\n      gt\n        /* \"#utility.yul\":5022:5059   */\n      iszero\n      tag_375\n      jumpi\n        /* \"#utility.yul\":5039:5057   */\n      tag_376\n      tag_324\n      jump\t// in\n    tag_376:\n        /* \"#utility.yul\":5022:5059   */\n    tag_375:\n        /* \"#utility.yul\":4872:5066   */\n      swap3\n      swap2\n      pop\n      pop\n      jump\t// out\n\n    auxdata: 0xa26469706673582212206c665d59827246c45678bd845c1682a1c82d019cfe5c930bbfc88584b04c213164736f6c63430008120033\n}\n",
				"bytecode": {
					"linkReferences": {},
					"object": "611628610053600b82828239805160001a607314610046577f4e487b7100000000000000000000000000000000000000000000000000000000600052600060045260246000fd5b30600052607381538281f3fe730000000000000000000000000000000000000000301460806040526004361061004b5760003560e01c806355a3e90f1461005057806361a931ec1461006e578063b73ab75d146100a1575b600080fd5b6100586100d4565b604051610065919061130f565b60405180910390f35b6100886004803603810190610083919061135b565b6100fc565b6040516100989493929190611411565b60405180910390f35b6100bb60048036038101906100b69190611456565b6102e2565b6040516100cb9493929190611411565b60405180910390f35b60007f30644e72e131a029b85045b68181585d97816a916871ca8d3c208c16d87cfd47905090565b60008060008060008c148015610112575060008b145b801561011e575060008a145b801561012a5750600089145b156101865760008814801561013f5750600087145b801561014b5750600086145b80156101575750600085145b610175576101678888888861040e565b610174576101736114d1565b5b5b8787878793509350935093506102d3565b6000881480156101965750600087145b80156101a25750600086145b80156101ae5750600085145b156101dd576101bf8c8c8c8c61040e565b6101cc576101cb6114d1565b5b8b8b8b8b93509350935093506102d3565b6101e98c8c8c8c61040e565b6101f6576101f56114d1565b5b6102028888888861040e565b61020f5761020e6114d1565b5b60006102298d8d8d8d600160008f8f8f8f600160006104d7565b90506102c98160006006811061024257610241611500565b5b60200201518260016006811061025b5761025a611500565b5b60200201518360026006811061027457610273611500565b5b60200201518460036006811061028d5761028c611500565b5b6020020151856004600681106102a6576102a5611500565b5b6020020151866005600681106102bf576102be611500565b5b6020020151610bef565b9450945094509450505b98509850985098945050505050565b6000806000806000600190506000891480156102fe5750600088145b801561030a5750600087145b80156103165750600086145b1561032c57600198506001965060009050610346565b6103388989898961040e565b610345576103446114d1565b5b5b60006103588b8b8b8b8b876000610c41565b90506103f88160006006811061037157610370611500565b5b60200201518260016006811061038a57610389611500565b5b6020020151836002600681106103a3576103a2611500565b5b6020020151846003600681106103bc576103bb611500565b5b6020020151856004600681106103d5576103d4611500565b5b6020020151866005600681106103ee576103ed611500565b5b6020020151610bef565b9550955095509550505095509550955095915050565b600080600080600061042287878989610d49565b809450819550505061043689898b8b610d49565b809250819350505061044a82828b8b610d49565b809250819350505061045e84848484610e7a565b80945081955050506104b184847f2b149d40ceb8aaae81be18991be06ac3b5b4c5e559dbefa33267e6dc24a138e57e9713b03af0fed4cd2cafadeed8fdf4a74fa084e52d1852e4a2bd0685c315d2610e7a565b80945081955050506000841480156104c95750600083145b945050505050949350505050565b6104df6112d4565b6000891480156104ef5750600088145b156105ad578686868686868660006006811061050e5761050d611500565b5b602002018760016006811061052657610525611500565b5b602002018860026006811061053e5761053d611500565b5b602002018960036006811061055657610555611500565b5b602002018a60046006811061056e5761056d611500565b5b602002018b60056006811061058657610585611500565b5b60200201868152508681525086815250868152508681525086815250505050505050610bdf565b6000831480156105bd5750600082145b1561067b578c8c8c8c8c8c866000600681106105dc576105db611500565b5b60200201876001600681106105f4576105f3611500565b5b602002018860026006811061060c5761060b611500565b5b602002018960036006811061062457610623611500565b5b602002018a60046006811061063c5761063b611500565b5b602002018b60056006811061065457610653611500565b5b60200201868152508681525086815250868152508681525086815250505050505050610bdf565b61068785858b8b610d49565b809550819650505061069b8b8b8585610d49565b826002600681106106af576106ae611500565b5b60200201836003600681106106c7576106c6611500565b5b60200201828152508281525050506106e187878b8b610d49565b80975081985050506106f58d8d8585610d49565b8260046006811061070957610708611500565b5b602002018360056006811061072157610720611500565b5b60200201828152508281525050508060046006811061074357610742611500565b5b60200201518714801561076d57508060056006811061076557610764611500565b5b602002015186145b15610934578060026006811061078657610785611500565b5b6020020151851480156107b05750806003600681106107a8576107a7611500565b5b602002015184145b15610876576107c38d8d8d8d8d8d610ee0565b866000600681106107d7576107d6611500565b5b60200201876001600681106107ef576107ee611500565b5b602002018860026006811061080757610806611500565b5b602002018960036006811061081f5761081e611500565b5b602002018a60046006811061083757610836611500565b5b602002018b60056006811061084f5761084e611500565b5b60200201868152508681525086815250868152508681525086815250505050505050610bdf565b60016000600160008060008660006006811061089557610894611500565b5b60200201876001600681106108ad576108ac611500565b5b60200201886002600681106108c5576108c4611500565b5b60200201896003600681106108dd576108dc611500565b5b602002018a6004600681106108f5576108f4611500565b5b602002018b60056006811061090d5761090c611500565b5b60200201868152508681525086815250868152508681525086815250505050505050610bdf565b61094089898585610d49565b809350819450505061098485858360026006811061096157610960611500565b5b60200201518460036006811061097a57610979611500565b5b6020020151610e7a565b809d50819e5050506109c88787836004600681106109a5576109a4611500565b5b6020020151846005600681106109be576109bd611500565b5b6020020151610e7a565b809b50819c5050506109dc8b8b8d8d610d49565b809950819a505050610a208989836004600681106109fd576109fc611500565b5b602002015184600560068110610a1657610a15611500565b5b6020020151610d49565b8095508196505050610a3489898d8d610d49565b809950819a505050610a4889898585610d49565b82600460068110610a5c57610a5b611500565b5b6020020183600560068110610a7457610a73611500565b5b6020020182815250828152505050610a8e8d8d8f8f610d49565b8097508198505050610aa287878585610d49565b8097508198505050610ab687878b8b610e7a565b8097508198505050610aca85856002611088565b8093508194505050610ade87878585610e7a565b8097508198505050610af28b8b8989610d49565b82600060068110610b0657610b05611500565b5b6020020183600160068110610b1e57610b1d611500565b5b6020020182815250828152505050610b3885858989610e7a565b809b50819c505050610b4c8d8d8d8d610d49565b809b50819c505050610b90898983600260068110610b6d57610b6c611500565b5b602002015184600360068110610b8657610b85611500565b5b6020020151610d49565b809d50819e505050610ba48b8b8f8f610e7a565b82600260068110610bb857610bb7611500565b5b6020020183600360068110610bd057610bcf611500565b5b60200201828152508281525050505b9c9b505050505050505050505050565b600080600080600080610c0288886110fb565b8092508193505050610c168c8c8484610d49565b8096508197505050610c2a8a8a8484610d49565b809450819550505050509650965096509692505050565b610c496112d4565b5b60008814610d3e5760006001891614610d0457610d0181600060068110610c7457610c73611500565b5b602002015182600160068110610c8d57610c8c611500565b5b602002015183600260068110610ca657610ca5611500565b5b602002015184600360068110610cbf57610cbe611500565b5b602002015185600460068110610cd857610cd7611500565b5b602002015186600560068110610cf157610cf0611500565b5b60200201518d8d8d8d8d8d6104d7565b90505b610d12878787878787610ee0565b809750819850829950839a50849b50859c50505050505050600288610d37919061158d565b9750610c4a565b979650505050505050565b600080610dd97f30644e72e131a029b85045b68181585d97816a916871ca8d3c208c16d87cfd4780610d7e57610d7d61152f565b5b8588097f30644e72e131a029b85045b68181585d97816a916871ca8d3c208c16d87cfd4780610db057610daf61152f565b5b8588097f30644e72e131a029b85045b68181585d97816a916871ca8d3c208c16d87cfd4761125a565b7f30644e72e131a029b85045b68181585d97816a916871ca8d3c208c16d87cfd4780610e0857610e0761152f565b5b7f30644e72e131a029b85045b68181585d97816a916871ca8d3c208c16d87cfd4780610e3757610e3661152f565b5b8688097f30644e72e131a029b85045b68181585d97816a916871ca8d3c208c16d87cfd4780610e6957610e6861152f565b5b868a09089150915094509492505050565b600080610ea886857f30644e72e131a029b85045b68181585d97816a916871ca8d3c208c16d87cfd4761125a565b610ed386857f30644e72e131a029b85045b68181585d97816a916871ca8d3c208c16d87cfd4761125a565b9150915094509492505050565b600080600080600080610ef58c8c6003611088565b8096508197505050610f0986868e8e610d49565b8096508197505050610f1d8a8a8a8a610d49565b8098508199505050610f318c8c8c8c610d49565b8094508195505050610f4584848a8a610d49565b8094508195505050610f5986868888610d49565b809c50819d505050610f6d84846008611088565b8092508193505050610f818c8c8484610e7a565b809c50819d505050610f9588888a8a610d49565b8092508193505050610fa984846004611088565b8094508195505050610fbd84848e8e610e7a565b8094508195505050610fd184848888610d49565b8094508195505050610fe58a8a6008611088565b8096508197505050610ff986868c8c610d49565b809650819750505061100d86868484610d49565b809650819750505061102184848888610e7a565b80945081955050506110358c8c6002611088565b809650819750505061104986868a8a610d49565b809650819750505061105d88888484610d49565b809250819350505061107182826008611088565b809250819350505096509650965096509650969050565b6000807f30644e72e131a029b85045b68181585d97816a916871ca8d3c208c16d87cfd47806110ba576110b961152f565b5b8386097f30644e72e131a029b85045b68181585d97816a916871ca8d3c208c16d87cfd47806110ec576110eb61152f565b5b84860991509150935093915050565b60008060006111bd7f30644e72e131a029b85045b68181585d97816a916871ca8d3c208c16d87cfd47806111325761113161152f565b5b7f30644e72e131a029b85045b68181585d97816a916871ca8d3c208c16d87cfd47806111615761116061152f565b5b8788097f30644e72e131a029b85045b68181585d97816a916871ca8d3c208c16d87cfd47806111935761119261152f565b5b878809087f30644e72e131a029b85045b68181585d97816a916871ca8d3c208c16d87cfd47611282565b90507f30644e72e131a029b85045b68181585d97816a916871ca8d3c208c16d87cfd47806111ee576111ed61152f565b5b8186097f30644e72e131a029b85045b68181585d97816a916871ca8d3c208c16d87cfd47806112205761121f61152f565b5b8286097f30644e72e131a029b85045b68181585d97816a916871ca8d3c208c16d87cfd4761124e91906115be565b92509250509250929050565b6000818061126b5761126a61152f565b5b838361127791906115be565b850890509392505050565b60008060405160208152602080820152602060408201528460608201526002840360808201528360a082015260208160c08360056107d05a03fa91508051925050806112cd57600080fd5b5092915050565b6040518060c00160405280600690602082028036833780820191505090505090565b6000819050919050565b611309816112f6565b82525050565b60006020820190506113246000830184611300565b92915050565b600080fd5b611338816112f6565b811461134357600080fd5b50565b6000813590506113558161132f565b92915050565b600080600080600080600080610100898b03121561137c5761137b61132a565b5b600061138a8b828c01611346565b985050602061139b8b828c01611346565b97505060406113ac8b828c01611346565b96505060606113bd8b828c01611346565b95505060806113ce8b828c01611346565b94505060a06113df8b828c01611346565b93505060c06113f08b828c01611346565b92505060e06114018b828c01611346565b9150509295985092959890939650565b60006080820190506114266000830187611300565b6114336020830186611300565b6114406040830185611300565b61144d6060830184611300565b95945050505050565b600080600080600060a086880312156114725761147161132a565b5b600061148088828901611346565b955050602061149188828901611346565b94505060406114a288828901611346565b93505060606114b388828901611346565b92505060806114c488828901611346565b9150509295509295909350565b7f4e487b7100000000000000000000000000000000000000000000000000000000600052600160045260246000fd5b7f4e487b7100000000000000000000000000000000000000000000000000000000600052603260045260246000fd5b7f4e487b7100000000000000000000000000000000000000000000000000000000600052601260045260246000fd5b7f4e487b7100000000000000000000000000000000000000000000000000000000600052601160045260246000fd5b6000611598826112f6565b91506115a3836112f6565b9250826115b3576115b261152f565b5b828204905092915050565b60006115c9826112f6565b91506115d4836112f6565b92508282039050818111156115ec576115eb61155e565b5b9291505056fea26469706673582212206c665d59827246c45678bd845c1682a1c82d019cfe5c930bbfc88584b04c213164736f6c63430008120033",
					"opcodes": "PUSH2 0x1628 PUSH2 0x53 PUSH1 0xB DUP3 DUP3 DUP3 CODECOPY DUP1 MLOAD PUSH1 0x0 BYTE PUSH1 0x73 EQ PUSH2 0x46 JUMPI PUSH32 0x4E487B7100000000000000000000000000000000000000000000000000000000 PUSH1 0x0 MSTORE PUSH1 0x0 PUSH1 0x4 MSTORE PUSH1 0x24 PUSH1 0x0 REVERT JUMPDEST ADDRESS PUSH1 0x0 MSTORE PUSH1 0x73 DUP2 MSTORE8 DUP3 DUP2 RETURN INVALID PUSH20 0x0 ADDRESS EQ PUSH1 0x80 PUSH1 0x40 MSTORE PUSH1 0x4 CALLDATASIZE LT PUSH2 0x4B JUMPI PUSH1 0x0 CALLDATALOAD PUSH1 0xE0 SHR DUP1 PUSH4 0x55A3E90F EQ PUSH2 0x50 JUMPI DUP1 PUSH4 0x61A931EC EQ PUSH2 0x6E JUMPI DUP1 PUSH4 0xB73AB75D EQ PUSH2 0xA1 JUMPI JUMPDEST PUSH1 0x0 DUP1 REVERT JUMPDEST PUSH2 0x58 PUSH2 0xD4 JUMP JUMPDEST PUSH1 0x40 MLOAD PUSH2 0x65 SWAP2 SWAP1 PUSH2 0x130F JUMP JUMPDEST PUSH1 0x40 MLOAD DUP1 SWAP2 SUB SWAP1 RETURN JUMPDEST PUSH2 0x88 PUSH1 0x4 DUP1 CALLDATASIZE SUB DUP2 ADD SWAP1 PUSH2 0x83 SWAP2 SWAP1 PUSH2 0x135B JUMP JUMPDEST PUSH2 0xFC JUMP JUMPDEST PUSH1 0x40 MLOAD PUSH2 0x98 SWAP5 SWAP4 SWAP3 SWAP2 SWAP1 PUSH2 0x1411 JUMP JUMPDEST PUSH1 0x40 MLOAD DUP1 SWAP2 SUB SWAP1 RETURN JUMPDEST PUSH2 0xBB PUSH1 0x4 DUP1 CALLDATASIZE SUB DUP2 ADD SWAP1 PUSH2 0xB6 SWAP2 SWAP1 PUSH2 0x1456 JUMP JUMPDEST PUSH2 0x2E2 JUMP JUMPDEST PUSH1 0x40 MLOAD PUSH2 0xCB SWAP5 SWAP4 SWAP3 SWAP2 SWAP1 PUSH2 0x1411 JUMP JUMPDEST PUSH1 0x40 MLOAD DUP1 SWAP2 SUB SWAP1 RETURN JUMPDEST PUSH1 0x0 PUSH32 0x30644E72E131A029B85045B68181585D97816A916871CA8D3C208C16D87CFD47 SWAP1 POP SWAP1 JUMP JUMPDEST PUSH1 0x0 DUP1 PUSH1 0x0 DUP1 PUSH1 0x0 DUP13 EQ DUP1 ISZERO PUSH2 0x112 JUMPI POP PUSH1 0x0 DUP12 EQ JUMPDEST DUP1 ISZERO PUSH2 0x11E JUMPI POP PUSH1 0x0 DUP11 EQ JUMPDEST DUP1 ISZERO PUSH2 0x12A JUMPI POP PUSH1 0x0 DUP10 EQ JUMPDEST ISZERO PUSH2 0x186 JUMPI PUSH1 0x0 DUP9 EQ DUP1 ISZERO PUSH2 0x13F JUMPI POP PUSH1 0x0 DUP8 EQ JUMPDEST DUP1 ISZERO PUSH2 0x14B JUMPI POP PUSH1 0x0 DUP7 EQ JUMPDEST DUP1 ISZERO PUSH2 0x157 JUMPI POP PUSH1 0x0 DUP6 EQ JUMPDEST PUSH2 0x175 JUMPI PUSH2 0x167 DUP9 DUP9 DUP9 DUP9 PUSH2 0x40E JUMP JUMPDEST PUSH2 0x174 JUMPI PUSH2 0x173 PUSH2 0x14D1 JUMP JUMPDEST JUMPDEST JUMPDEST DUP8 DUP8 DUP8 DUP8 SWAP4 POP SWAP4 POP SWAP4 POP SWAP4 POP PUSH2 0x2D3 JUMP JUMPDEST PUSH1 0x0 DUP9 EQ DUP1 ISZERO PUSH2 0x196 JUMPI POP PUSH1 0x0 DUP8 EQ JUMPDEST DUP1 ISZERO PUSH2 0x1A2 JUMPI POP PUSH1 0x0 DUP7 EQ JUMPDEST DUP1 ISZERO PUSH2 0x1AE JUMPI POP PUSH1 0x0 DUP6 EQ JUMPDEST ISZERO PUSH2 0x1DD JUMPI PUSH2 0x1BF DUP13 DUP13 DUP13 DUP13 PUSH2 0x40E JUMP JUMPDEST PUSH2 0x1CC JUMPI PUSH2 0x1CB PUSH2 0x14D1 JUMP JUMPDEST JUMPDEST DUP12 DUP12 DUP12 DUP12 SWAP4 POP SWAP4 POP SWAP4 POP SWAP4 POP PUSH2 0x2D3 JUMP JUMPDEST PUSH2 0x1E9 DUP13 DUP13 DUP13 DUP13 PUSH2 0x40E JUMP JUMPDEST PUSH2 0x1F6 JUMPI PUSH2 0x1F5 PUSH2 0x14D1 JUMP JUMPDEST JUMPDEST PUSH2 0x202 DUP9 DUP9 DUP9 DUP9 PUSH2 0x40E JUMP JUMPDEST PUSH2 0x20F JUMPI PUSH2 0x20E PUSH2 0x14D1 JUMP JUMPDEST JUMPDEST PUSH1 0x0 PUSH2 0x229 DUP14 DUP14 DUP14 DUP14 PUSH1 0x1 PUSH1 0x0 DUP16 DUP16 DUP16 DUP16 PUSH1 0x1 PUSH1 0x0 PUSH2 0x4D7 JUMP JUMPDEST SWAP1 POP PUSH2 0x2C9 DUP2 PUSH1 0x0 PUSH1 0x6 DUP2 LT PUSH2 0x242 JUMPI PUSH2 0x241 PUSH2 0x1500 JUMP JUMPDEST JUMPDEST PUSH1 0x20 MUL ADD MLOAD DUP3 PUSH1 0x1 PUSH1 0x6 DUP2 LT PUSH2 0x25B JUMPI PUSH2 0x25A PUSH2 0x1500 JUMP JUMPDEST JUMPDEST PUSH1 0x20 MUL ADD MLOAD DUP4 PUSH1 0x2 PUSH1 0x6 DUP2 LT PUSH2 0x274 JUMPI PUSH2 0x273 PUSH2 0x1500 JUMP JUMPDEST JUMPDEST PUSH1 0x20 MUL ADD MLOAD DUP5 PUSH1 0x3 PUSH1 0x6 DUP2 LT PUSH2 0x28D JUMPI PUSH2 0x28C PUSH2 0x1500 JUMP JUMPDEST JUMPDEST PUSH1 0x20 MUL ADD MLOAD DUP6 PUSH1 0x4 PUSH1 0x6 DUP2 LT PUSH2 0x2A6 JUMPI PUSH2 0x2A5 PUSH2 0x1500 JUMP JUMPDEST JUMPDEST PUSH1 0x20 MUL ADD MLOAD DUP7 PUSH1 0x5 PUSH1 0x6 DUP2 LT PUSH2 0x2BF JUMPI PUSH2 0x2BE PUSH2 0x1500 JUMP JUMPDEST JUMPDEST PUSH1 0x20 MUL ADD MLOAD PUSH2 0xBEF JUMP JUMPDEST SWAP5 POP SWAP5 POP SWAP5 POP SWAP5 POP POP JUMPDEST SWAP9 POP SWAP9 POP SWAP9 POP SWAP9 SWAP5 POP POP POP POP POP JUMP JUMPDEST PUSH1 0x0 DUP1 PUSH1 0x0 DUP1 PUSH1 0x0 PUSH1 0x1 SWAP1 POP PUSH1 0x0 DUP10 EQ DUP1 ISZERO PUSH2 0x2FE JUMPI POP PUSH1 0x0 DUP9 EQ JUMPDEST DUP1 ISZERO PUSH2 0x30A JUMPI POP PUSH1 0x0 DUP8 EQ JUMPDEST DUP1 ISZERO PUSH2 0x316 JUMPI POP PUSH1 0x0 DUP7 EQ JUMPDEST ISZERO PUSH2 0x32C JUMPI PUSH1 0x1 SWAP9 POP PUSH1 0x1 SWAP7 POP PUSH1 0x0 SWAP1 POP PUSH2 0x346 JUMP JUMPDEST PUSH2 0x338 DUP10 DUP10 DUP10 DUP10 PUSH2 0x40E JUMP JUMPDEST PUSH2 0x345 JUMPI PUSH2 0x344 PUSH2 0x14D1 JUMP JUMPDEST JUMPDEST JUMPDEST PUSH1 0x0 PUSH2 0x358 DUP12 DUP12 DUP12 DUP12 DUP12 DUP8 PUSH1 0x0 PUSH2 0xC41 JUMP JUMPDEST SWAP1 POP PUSH2 0x3F8 DUP2 PUSH1 0x0 PUSH1 0x6 DUP2 LT PUSH2 0x371 JUMPI PUSH2 0x370 PUSH2 0x1500 JUMP JUMPDEST JUMPDEST PUSH1 0x20 MUL ADD MLOAD DUP3 PUSH1 0x1 PUSH1 0x6 DUP2 LT PUSH2 0x38A JUMPI PUSH2 0x389 PUSH2 0x1500 JUMP JUMPDEST JUMPDEST PUSH1 0x20 MUL ADD MLOAD DUP4 PUSH1 0x2 PUSH1 0x6 DUP2 LT PUSH2 0x3A3 JUMPI PUSH2 0x3A2 PUSH2 0x1500 JUMP JUMPDEST JUMPDEST PUSH1 0x20 MUL ADD MLOAD DUP5 PUSH1 0x3 PUSH1 0x6 DUP2 LT PUSH2 0x3BC JUMPI PUSH2 0x3BB PUSH2 0x1500 JUMP JUMPDEST JUMPDEST PUSH1 0x20 MUL ADD MLOAD DUP6 PUSH1 0x4 PUSH1 0x6 DUP2 LT PUSH2 0x3D5 JUMPI PUSH2 0x3D4 PUSH2 0x1500 JUMP JUMPDEST JUMPDEST PUSH1 0x20 MUL ADD MLOAD DUP7 PUSH1 0x5 PUSH1 0x6 DUP2 LT PUSH2 0x3EE JUMPI PUSH2 0x3ED PUSH2 0x1500 JUMP JUMPDEST JUMPDEST PUSH1 0x20 MUL ADD MLOAD PUSH2 0xBEF JUMP JUMPDEST SWAP6 POP SWAP6 POP SWAP6 POP SWAP6 POP POP POP SWAP6 POP SWAP6 POP SWAP6 POP SWAP6 SWAP2 POP POP JUMP JUMPDEST PUSH1 0x0 DUP1 PUSH1 0x0 DUP1 PUSH1 0x0 PUSH2 0x422 DUP8 DUP8 DUP10 DUP10 PUSH2 0xD49 JUMP JUMPDEST DUP1 SWAP5 POP DUP2 SWAP6 POP POP POP PUSH2 0x436 DUP10 DUP10 DUP12 DUP12 PUSH2 0xD49 JUMP JUMPDEST DUP1 SWAP3 POP DUP2 SWAP4 POP POP POP PUSH2 0x44A DUP3 DUP3 DUP12 DUP12 PUSH2 0xD49 JUMP JUMPDEST DUP1 SWAP3 POP DUP2 SWAP4 POP POP POP PUSH2 0x45E DUP5 DUP5 DUP5 DUP5 PUSH2 0xE7A JUMP JUMPDEST DUP1 SWAP5 POP DUP2 SWAP6 POP POP POP PUSH2 0x4B1 DUP5 DUP5 PUSH32 0x2B149D40CEB8AAAE81BE18991BE06AC3B5B4C5E559DBEFA33267E6DC24A138E5 PUSH31 0x9713B03AF0FED4CD2CAFADEED8FDF4A74FA084E52D1852E4A2BD0685C315D2 PUSH2 0xE7A JUMP JUMPDEST DUP1 SWAP5 POP DUP2 SWAP6 POP POP POP PUSH1 0x0 DUP5 EQ DUP1 ISZERO PUSH2 0x4C9 JUMPI POP PUSH1 0x0 DUP4 EQ JUMPDEST SWAP5 POP POP POP POP POP SWAP5 SWAP4 POP POP POP POP JUMP JUMPDEST PUSH2 0x4DF PUSH2 0x12D4 JUMP JUMPDEST PUSH1 0x0 DUP10 EQ DUP1 ISZERO PUSH2 0x4EF JUMPI POP PUSH1 0x0 DUP9 EQ JUMPDEST ISZERO PUSH2 0x5AD JUMPI DUP7 DUP7 DUP7 DUP7 DUP7 DUP7 DUP7 PUSH1 0x0 PUSH1 0x6 DUP2 LT PUSH2 0x50E JUMPI PUSH2 0x50D PUSH2 0x1500 JUMP JUMPDEST JUMPDEST PUSH1 0x20 MUL ADD DUP8 PUSH1 0x1 PUSH1 0x6 DUP2 LT PUSH2 0x526 JUMPI PUSH2 0x525 PUSH2 0x1500 JUMP JUMPDEST JUMPDEST PUSH1 0x20 MUL ADD DUP9 PUSH1 0x2 PUSH1 0x6 DUP2 LT PUSH2 0x53E JUMPI PUSH2 0x53D PUSH2 0x1500 JUMP JUMPDEST JUMPDEST PUSH1 0x20 MUL ADD DUP10 PUSH1 0x3 PUSH1 0x6 DUP2 LT PUSH2 0x556 JUMPI PUSH2 0x555 PUSH2 0x1500 JUMP JUMPDEST JUMPDEST PUSH1 0x20 MUL ADD DUP11 PUSH1 0x4 PUSH1 0x6 DUP2 LT PUSH2 0x56E JUMPI PUSH2 0x56D PUSH2 0x1500 JUMP JUMPDEST JUMPDEST PUSH1 0x20 MUL ADD DUP12 PUSH1 0x5 PUSH1 0x6 DUP2 LT PUSH2 0x586 JUMPI PUSH2 0x585 PUSH2 0x1500 JUMP JUMPDEST JUMPDEST PUSH1 0x20 MUL ADD DUP7 DUP2 MSTORE POP DUP7 DUP2 MSTORE POP DUP7 DUP2 MSTORE POP DUP7 DUP2 MSTORE POP DUP7 DUP2 MSTORE POP DUP7 DUP2 MSTORE POP POP POP POP POP POP POP PUSH2 0xBDF JUMP JUMPDEST PUSH1 0x0 DUP4 EQ DUP1 ISZERO PUSH2 0x5BD JUMPI POP PUSH1 0x0 DUP3 EQ JUMPDEST ISZERO PUSH2 0x67B JUMPI DUP13 DUP13 DUP13 DUP13 DUP13 DUP13 DUP7 PUSH1 0x0 PUSH1 0x6 DUP2 LT PUSH2 0x5DC JUMPI PUSH2 0x5DB PUSH2 0x1500 JUMP JUMPDEST JUMPDEST PUSH1 0x20 MUL ADD DUP8 PUSH1 0x1 PUSH1 0x6 DUP2 LT PUSH2 0x5F4 JUMPI PUSH2 0x5F3 PUSH2 0x1500 JUMP JUMPDEST JUMPDEST PUSH1 0x20 MUL ADD DUP9 PUSH1 0x2 PUSH1 0x6 DUP2 LT PUSH2 0x60C JUMPI PUSH2 0x60B PUSH2 0x1500 JUMP JUMPDEST JUMPDEST PUSH1 0x20 MUL ADD DUP10 PUSH1 0x3 PUSH1 0x6 DUP2 LT PUSH2 0x624 JUMPI PUSH2 0x623 PUSH2 0x1500 JUMP JUMPDEST JUMPDEST PUSH1 0x20 MUL ADD DUP11 PUSH1 0x4 PUSH1 0x6 DUP2 LT PUSH2 0x63C JUMPI PUSH2 0x63B PUSH2 0x1500 JUMP JUMPDEST JUMPDEST PUSH1 0x20 MUL ADD DUP12 PUSH1 0x5 PUSH1 0x6 DUP2 LT PUSH2 0x654 JUMPI PUSH2 0x653 PUSH2 0x1500 JUMP JUMPDEST JUMPDEST PUSH1 0x20 MUL ADD DUP7 DUP2 MSTORE POP DUP7 DUP2 MSTORE POP DUP7 DUP2 MSTORE POP DUP7 DUP2 MSTORE POP DUP7 DUP2 MSTORE POP DUP7 DUP2 MSTORE POP POP POP POP POP POP POP PUSH2 0xBDF JUMP JUMPDEST PUSH2 0x687 DUP6 DUP6 DUP12 DUP12 PUSH2 0xD49 JUMP JUMPDEST DUP1 SWAP6 POP DUP2 SWAP7 POP POP POP PUSH2 0x69B DUP12 DUP12 DUP6 DUP6 PUSH2 0xD49 JUMP JUMPDEST DUP3 PUSH1 0x2 PUSH1 0x6 DUP2 LT PUSH2 0x6AF JUMPI PUSH2 0x6AE PUSH2 0x1500 JUMP JUMPDEST JUMPDEST PUSH1 0x20 MUL ADD DUP4 PUSH1 0x3 PUSH1 0x6 DUP2 LT PUSH2 0x6C7 JUMPI PUSH2 0x6C6 PUSH2 0x1500 JUMP JUMPDEST JUMPDEST PUSH1 0x20 MUL ADD DUP3 DUP2 MSTORE POP DUP3 DUP2 MSTORE POP POP POP PUSH2 0x6E1 DUP8 DUP8 DUP12 DUP12 PUSH2 0xD49 JUMP JUMPDEST DUP1 SWAP8 POP DUP2 SWAP9 POP POP POP PUSH2 0x6F5 DUP14 DUP14 DUP6 DUP6 PUSH2 0xD49 JUMP JUMPDEST DUP3 PUSH1 0x4 PUSH1 0x6 DUP2 LT PUSH2 0x709 JUMPI PUSH2 0x708 PUSH2 0x1500 JUMP JUMPDEST JUMPDEST PUSH1 0x20 MUL ADD DUP4 PUSH1 0x5 PUSH1 0x6 DUP2 LT PUSH2 0x721 JUMPI PUSH2 0x720 PUSH2 0x1500 JUMP JUMPDEST JUMPDEST PUSH1 0x20 MUL ADD DUP3 DUP2 MSTORE POP DUP3 DUP2 MSTORE POP POP POP DUP1 PUSH1 0x4 PUSH1 0x6 DUP2 LT PUSH2 0x743 JUMPI PUSH2 0x742 PUSH2 0x1500 JUMP JUMPDEST JUMPDEST PUSH1 0x20 MUL ADD MLOAD DUP8 EQ DUP1 ISZERO PUSH2 0x76D JUMPI POP DUP1 PUSH1 0x5 PUSH1 0x6 DUP2 LT PUSH2 0x765 JUMPI PUSH2 0x764 PUSH2 0x1500 JUMP JUMPDEST JUMPDEST PUSH1 0x20 MUL ADD MLOAD DUP7 EQ JUMPDEST ISZERO PUSH2 0x934 JUMPI DUP1 PUSH1 0x2 PUSH1 0x6 DUP2 LT PUSH2 0x786 JUMPI PUSH2 0x785 PUSH2 0x1500 JUMP JUMPDEST JUMPDEST PUSH1 0x20 MUL ADD MLOAD DUP6 EQ DUP1 ISZERO PUSH2 0x7B0 JUMPI POP DUP1 PUSH1 0x3 PUSH1 0x6 DUP2 LT PUSH2 0x7A8 JUMPI PUSH2 0x7A7 PUSH2 0x1500 JUMP JUMPDEST JUMPDEST PUSH1 0x20 MUL ADD MLOAD DUP5 EQ JUMPDEST ISZERO PUSH2 0x876 JUMPI PUSH2 0x7C3 DUP14 DUP14 DUP14 DUP14 DUP14 DUP14 PUSH2 0xEE0 JUMP JUMPDEST DUP7 PUSH1 0x0 PUSH1 0x6 DUP2 LT PUSH2 0x7D7 JUMPI PUSH2 0x7D6 PUSH2 0x1500 JUMP JUMPDEST JUMPDEST PUSH1 0x20 MUL ADD DUP8 PUSH1 0x1 PUSH1 0x6 DUP2 LT PUSH2 0x7EF JUMPI PUSH2 0x7EE PUSH2 0x1500 JUMP JUMPDEST JUMPDEST PUSH1 0x20 MUL ADD DUP9 PUSH1 0x2 PUSH1 0x6 DUP2 LT PUSH2 0x807 JUMPI PUSH2 0x806 PUSH2 0x1500 JUMP JUMPDEST JUMPDEST PUSH1 0x20 MUL ADD DUP10 PUSH1 0x3 PUSH1 0x6 DUP2 LT PUSH2 0x81F JUMPI PUSH2 0x81E PUSH2 0x1500 JUMP JUMPDEST JUMPDEST PUSH1 0x20 MUL ADD DUP11 PUSH1 0x4 PUSH1 0x6 DUP2 LT PUSH2 0x837 JUMPI PUSH2 0x836 PUSH2 0x1500 JUMP JUMPDEST JUMPDEST PUSH1 0x20 MUL ADD DUP12 PUSH1 0x5 PUSH1 0x6 DUP2 LT PUSH2 0x84F JUMPI PUSH2 0x84E PUSH2 0x1500 JUMP JUMPDEST JUMPDEST PUSH1 0x20 MUL ADD DUP7 DUP2 MSTORE POP DUP7 DUP2 MSTORE POP DUP7 DUP2 MSTORE POP DUP7 DUP2 MSTORE POP DUP7 DUP2 MSTORE POP DUP7 DUP2 MSTORE POP POP POP POP POP POP POP PUSH2 0xBDF JUMP JUMPDEST PUSH1 0x1 PUSH1 0x0 PUSH1 0x1 PUSH1 0x0 DUP1 PUSH1 0x0 DUP7 PUSH1 0x0 PUSH1 0x6 DUP2 LT PUSH2 0x895 JUMPI PUSH2 0x894 PUSH2 0x1500 JUMP JUMPDEST JUMPDEST PUSH1 0x20 MUL ADD DUP8 PUSH1 0x1 PUSH1 0x6 DUP2 LT PUSH2 0x8AD JUMPI PUSH2 0x8AC PUSH2 0x1500 JUMP JUMPDEST JUMPDEST PUSH1 0x20 MUL ADD DUP9 PUSH1 0x2 PUSH1 0x6 DUP2 LT PUSH2 0x8C5 JUMPI PUSH2 0x8C4 PUSH2 0x1500 JUMP JUMPDEST JUMPDEST PUSH1 0x20 MUL ADD DUP10 PUSH1 0x3 PUSH1 0x6 DUP2 LT PUSH2 0x8DD JUMPI PUSH2 0x8DC PUSH2 0x1500 JUMP JUMPDEST JUMPDEST PUSH1 0x20 MUL ADD DUP11 PUSH1 0x4 PUSH1 0x6 DUP2 LT PUSH2 0x8F5 JUMPI PUSH2 0x8F4 PUSH2 0x1500 JUMP JUMPDEST JUMPDEST PUSH1 0x20 MUL ADD DUP12 PUSH1 0x5 PUSH1 0x6 DUP2 LT PUSH2 0x90D JUMPI PUSH2 0x90C PUSH2 0x1500 JUMP JUMPDEST JUMPDEST PUSH1 0x20 MUL ADD DUP7 DUP2 MSTORE POP DUP7 DUP2 MSTORE POP DUP7 DUP2 MSTORE POP DUP7 DUP2 MSTORE POP DUP7 DUP2 MSTORE POP DUP7 DUP2 MSTORE POP POP POP POP POP POP POP PUSH2 0xBDF JUMP JUMPDEST PUSH2 0x940 DUP10 DUP10 DUP6 DUP6 PUSH2 0xD49 JUMP JUMPDEST DUP1 SWAP4 POP DUP2 SWAP5 POP POP POP PUSH2 0x984 DUP6 DUP6 DUP4 PUSH1 0x2 PUSH1 0x6 DUP2 LT PUSH2 0x961 JUMPI PUSH2 0x960 PUSH2 0x1500 JUMP JUMPDEST JUMPDEST PUSH1 0x20 MUL ADD MLOAD DUP5 PUSH1 0x3 PUSH1 0x6 DUP2 LT PUSH2 0x97A JUMPI PUSH2 0x979 PUSH2 0x1500 JUMP JUMPDEST JUMPDEST PUSH1 0x20 MUL ADD MLOAD PUSH2 0xE7A JUMP JUMPDEST DUP1 SWAP14 POP DUP2 SWAP15 POP POP POP PUSH2 0x9C8 DUP8 DUP8 DUP4 PUSH1 0x4 PUSH1 0x6 DUP2 LT PUSH2 0x9A5 JUMPI PUSH2 0x9A4 PUSH2 0x1500 JUMP JUMPDEST JUMPDEST PUSH1 0x20 MUL ADD MLOAD DUP5 PUSH1 0x5 PUSH1 0x6 DUP2 LT PUSH2 0x9BE JUMPI PUSH2 0x9BD PUSH2 0x1500 JUMP JUMPDEST JUMPDEST PUSH1 0x20 MUL ADD MLOAD PUSH2 0xE7A JUMP JUMPDEST DUP1 SWAP12 POP DUP2 SWAP13 POP POP POP PUSH2 0x9DC DUP12 DUP12 DUP14 DUP14 PUSH2 0xD49 JUMP JUMPDEST DUP1 SWAP10 POP DUP2 SWAP11 POP POP POP PUSH2 0xA20 DUP10 DUP10 DUP4 PUSH1 0x4 PUSH1 0x6 DUP2 LT PUSH2 0x9FD JUMPI PUSH2 0x9FC PUSH2 0x1500 JUMP JUMPDEST JUMPDEST PUSH1 0x20 MUL ADD MLOAD DUP5 PUSH1 0x5 PUSH1 0x6 DUP2 LT PUSH2 0xA16 JUMPI PUSH2 0xA15 PUSH2 0x1500 JUMP JUMPDEST JUMPDEST PUSH1 0x20 MUL ADD MLOAD PUSH2 0xD49 JUMP JUMPDEST DUP1 SWAP6 POP DUP2 SWAP7 POP POP POP PUSH2 0xA34 DUP10 DUP10 DUP14 DUP14 PUSH2 0xD49 JUMP JUMPDEST DUP1 SWAP10 POP DUP2 SWAP11 POP POP POP PUSH2 0xA48 DUP10 DUP10 DUP6 DUP6 PUSH2 0xD49 JUMP JUMPDEST DUP3 PUSH1 0x4 PUSH1 0x6 DUP2 LT PUSH2 0xA5C JUMPI PUSH2 0xA5B PUSH2 0x1500 JUMP JUMPDEST JUMPDEST PUSH1 0x20 MUL ADD DUP4 PUSH1 0x5 PUSH1 0x6 DUP2 LT PUSH2 0xA74 JUMPI PUSH2 0xA73 PUSH2 0x1500 JUMP JUMPDEST JUMPDEST PUSH1 0x20 MUL ADD DUP3 DUP2 MSTORE POP DUP3 DUP2 MSTORE POP POP POP PUSH2 0xA8E DUP14 DUP14 DUP16 DUP16 PUSH2 0xD49 JUMP JUMPDEST DUP1 SWAP8 POP DUP2 SWAP9 POP POP POP PUSH2 0xAA2 DUP8 DUP8 DUP6 DUP6 PUSH2 0xD49 JUMP JUMPDEST DUP1 SWAP8 POP DUP2 SWAP9 POP POP POP PUSH2 0xAB6 DUP8 DUP8 DUP12 DUP12 PUSH2 0xE7A JUMP JUMPDEST DUP1 SWAP8 POP DUP2 SWAP9 POP POP POP PUSH2 0xACA DUP6 DUP6 PUSH1 0x2 PUSH2 0x1088 JUMP JUMPDEST DUP1 SWAP4 POP DUP2 SWAP5 POP POP POP PUSH2 0xADE DUP8 DUP8 DUP6 DUP6 PUSH2 0xE7A JUMP JUMPDEST DUP1 SWAP8 POP DUP2 SWAP9 POP POP POP PUSH2 0xAF2 DUP12 DUP12 DUP10 DUP10 PUSH2 0xD49 JUMP JUMPDEST DUP3 PUSH1 0x0 PUSH1 0x6 DUP2 LT PUSH2 0xB06 JUMPI PUSH2 0xB05 PUSH2 0x1500 JUMP JUMPDEST JUMPDEST PUSH1 0x20 MUL ADD DUP4 PUSH1 0x1 PUSH1 0x6 DUP2 LT PUSH2 0xB1E JUMPI PUSH2 0xB1D PUSH2 0x1500 JUMP JUMPDEST JUMPDEST PUSH1 0x20 MUL ADD DUP3 DUP2 MSTORE POP DUP3 DUP2 MSTORE POP POP POP PUSH2 0xB38 DUP6 DUP6 DUP10 DUP10 PUSH2 0xE7A JUMP JUMPDEST DUP1 SWAP12 POP DUP2 SWAP13 POP POP POP PUSH2 0xB4C DUP14 DUP14 DUP14 DUP14 PUSH2 0xD49 JUMP JUMPDEST DUP1 SWAP12 POP DUP2 SWAP13 POP POP POP PUSH2 0xB90 DUP10 DUP10 DUP4 PUSH1 0x2 PUSH1 0x6 DUP2 LT PUSH2 0xB6D JUMPI PUSH2 0xB6C PUSH2 0x1500 JUMP JUMPDEST JUMPDEST PUSH1 0x20 MUL ADD MLOAD DUP5 PUSH1 0x3 PUSH1 0x6 DUP2 LT PUSH2 0xB86 JUMPI PUSH2 0xB85 PUSH2 0x1500 JUMP JUMPDEST JUMPDEST PUSH1 0x20 MUL ADD MLOAD PUSH2 0xD49 JUMP JUMPDEST DUP1 SWAP14 POP DUP2 SWAP15 POP POP POP PUSH2 0xBA4 DUP12 DUP12 DUP16 DUP16 PUSH2 0xE7A JUMP JUMPDEST DUP3 PUSH1 0x2 PUSH1 0x6 DUP2 LT PUSH2 0xBB8 JUMPI PUSH2 0xBB7 PUSH2 0x1500 JUMP JUMPDEST JUMPDEST PUSH1 0x20 MUL ADD DUP4 PUSH1 0x3 PUSH1 0x6 DUP2 LT PUSH2 0xBD0 JUMPI PUSH2 0xBCF PUSH2 0x1500 JUMP JUMPDEST JUMPDEST PUSH1 0x20 MUL ADD DUP3 DUP2 MSTORE POP DUP3 DUP2 MSTORE POP POP POP JUMPDEST SWAP13 SWAP12 POP POP POP POP POP POP POP POP POP POP POP POP JUMP JUMPDEST PUSH1 0x0 DUP1 PUSH1 0x0 DUP1 PUSH1 0x0 DUP1 PUSH2 0xC02 DUP9 DUP9 PUSH2 0x10FB JUMP JUMPDEST DUP1 SWAP3 POP DUP2 SWAP4 POP POP POP PUSH2 0xC16 DUP13 DUP13 DUP5 DUP5 PUSH2 0xD49 JUMP JUMPDEST DUP1 SWAP7 POP DUP2 SWAP8 POP POP POP PUSH2 0xC2A DUP11 DUP11 DUP5 DUP5 PUSH2 0xD49 JUMP JUMPDEST DUP1 SWAP5 POP DUP2 SWAP6 POP POP POP POP POP SWAP7 POP SWAP7 POP SWAP7 POP SWAP7 SWAP3 POP POP POP JUMP JUMPDEST PUSH2 0xC49 PUSH2 0x12D4 JUMP JUMPDEST JUMPDEST PUSH1 0x0 DUP9 EQ PUSH2 0xD3E JUMPI PUSH1 0x0 PUSH1 0x1 DUP10 AND EQ PUSH2 0xD04 JUMPI PUSH2 0xD01 DUP2 PUSH1 0x0 PUSH1 0x6 DUP2 LT PUSH2 0xC74 JUMPI PUSH2 0xC73 PUSH2 0x1500 JUMP JUMPDEST JUMPDEST PUSH1 0x20 MUL ADD MLOAD DUP3 PUSH1 0x1 PUSH1 0x6 DUP2 LT PUSH2 0xC8D JUMPI PUSH2 0xC8C PUSH2 0x1500 JUMP JUMPDEST JUMPDEST PUSH1 0x20 MUL ADD MLOAD DUP4 PUSH1 0x2 PUSH1 0x6 DUP2 LT PUSH2 0xCA6 JUMPI PUSH2 0xCA5 PUSH2 0x1500 JUMP JUMPDEST JUMPDEST PUSH1 0x20 MUL ADD MLOAD DUP5 PUSH1 0x3 PUSH1 0x6 DUP2 LT PUSH2 0xCBF JUMPI PUSH2 0xCBE PUSH2 0x1500 JUMP JUMPDEST JUMPDEST PUSH1 0x20 MUL ADD MLOAD DUP6 PUSH1 0x4 PUSH1 0x6 DUP2 LT PUSH2 0xCD8 JUMPI PUSH2 0xCD7 PUSH2 0x1500 JUMP JUMPDEST JUMPDEST PUSH1 0x20 MUL ADD MLOAD DUP7 PUSH1 0x5 PUSH1 0x6 DUP2 LT PUSH2 0xCF1 JUMPI PUSH2 0xCF0 PUSH2 0x1500 JUMP JUMPDEST JUMPDEST PUSH1 0x20 MUL ADD MLOAD DUP14 DUP14 DUP14 DUP14 DUP14 DUP14 PUSH2 0x4D7 JUMP JUMPDEST SWAP1 POP JUMPDEST PUSH2 0xD12 DUP8 DUP8 DUP8 DUP8 DUP8 DUP8 PUSH2 0xEE0 JUMP JUMPDEST DUP1 SWAP8 POP DUP2 SWAP9 POP DUP3 SWAP10 POP DUP4 SWAP11 POP DUP5 SWAP12 POP DUP6 SWAP13 POP POP POP POP POP POP POP PUSH1 0x2 DUP9 PUSH2 0xD37 SWAP2 SWAP1 PUSH2 0x158D JUMP JUMPDEST SWAP8 POP PUSH2 0xC4A JUMP JUMPDEST SWAP8 SWAP7 POP POP POP POP POP POP POP JUMP JUMPDEST PUSH1 0x0 DUP1 PUSH2 0xDD9 PUSH32 0x30644E72E131A029B85045B68181585D97816A916871CA8D3C208C16D87CFD47 DUP1 PUSH2 0xD7E JUMPI PUSH2 0xD7D PUSH2 0x152F JUMP JUMPDEST JUMPDEST DUP6 DUP9 MULMOD PUSH32 0x30644E72E131A029B85045B68181585D97816A916871CA8D3C208C16D87CFD47 DUP1 PUSH2 0xDB0 JUMPI PUSH2 0xDAF PUSH2 0x152F JUMP JUMPDEST JUMPDEST DUP6 DUP9 MULMOD PUSH32 0x30644E72E131A029B85045B68181585D97816A916871CA8D3C208C16D87CFD47 PUSH2 0x125A JUMP JUMPDEST PUSH32 0x30644E72E131A029B85045B68181585D97816A916871CA8D3C208C16D87CFD47 DUP1 PUSH2 0xE08 JUMPI PUSH2 0xE07 PUSH2 0x152F JUMP JUMPDEST JUMPDEST PUSH32 0x30644E72E131A029B85045B68181585D97816A916871CA8D3C208C16D87CFD47 DUP1 PUSH2 0xE37 JUMPI PUSH2 0xE36 PUSH2 0x152F JUMP JUMPDEST JUMPDEST DUP7 DUP9 MULMOD PUSH32 0x30644E72E131A029B85045B68181585D97816A916871CA8D3C208C16D87CFD47 DUP1 PUSH2 0xE69 JUMPI PUSH2 0xE68 PUSH2 0x152F JUMP JUMPDEST JUMPDEST DUP7 DUP11 MULMOD ADDMOD SWAP2 POP SWAP2 POP SWAP5 POP SWAP5 SWAP3 POP POP POP JUMP JUMPDEST PUSH1 0x0 DUP1 PUSH2 0xEA8 DUP7 DUP6 PUSH32 0x30644E72E131A029B85045B68181585D97816A916871CA8D3C208C16D87CFD47 PUSH2 0x125A JUMP JUMPDEST PUSH2 0xED3 DUP7 DUP6 PUSH32 0x30644E72E131A029B85045B68181585D97816A916871CA8D3C208C16D87CFD47 PUSH2 0x125A JUMP JUMPDEST SWAP2 POP SWAP2 POP SWAP5 POP SWAP5 SWAP3 POP POP POP JUMP JUMPDEST PUSH1 0x0 DUP1 PUSH1 0x0 DUP1 PUSH1 0x0 DUP1 PUSH2 0xEF5 DUP13 DUP13 PUSH1 0x3 PUSH2 0x1088 JUMP JUMPDEST DUP1 SWAP7 POP DUP2 SWAP8 POP POP POP PUSH2 0xF09 DUP7 DUP7 DUP15 DUP15 PUSH2 0xD49 JUMP JUMPDEST DUP1 SWAP7 POP DUP2 SWAP8 POP POP POP PUSH2 0xF1D DUP11 DUP11 DUP11 DUP11 PUSH2 0xD49 JUMP JUMPDEST DUP1 SWAP9 POP DUP2 SWAP10 POP POP POP PUSH2 0xF31 DUP13 DUP13 DUP13 DUP13 PUSH2 0xD49 JUMP JUMPDEST DUP1 SWAP5 POP DUP2 SWAP6 POP POP POP PUSH2 0xF45 DUP5 DUP5 DUP11 DUP11 PUSH2 0xD49 JUMP JUMPDEST DUP1 SWAP5 POP DUP2 SWAP6 POP POP POP PUSH2 0xF59 DUP7 DUP7 DUP9 DUP9 PUSH2 0xD49 JUMP JUMPDEST DUP1 SWAP13 POP DUP2 SWAP14 POP POP POP PUSH2 0xF6D DUP5 DUP5 PUSH1 0x8 PUSH2 0x1088 JUMP JUMPDEST DUP1 SWAP3 POP DUP2 SWAP4 POP POP POP PUSH2 0xF81 DUP13 DUP13 DUP5 DUP5 PUSH2 0xE7A JUMP JUMPDEST DUP1 SWAP13 POP DUP2 SWAP14 POP POP POP PUSH2 0xF95 DUP9 DUP9 DUP11 DUP11 PUSH2 0xD49 JUMP JUMPDEST DUP1 SWAP3 POP DUP2 SWAP4 POP POP POP PUSH2 0xFA9 DUP5 DUP5 PUSH1 0x4 PUSH2 0x1088 JUMP JUMPDEST DUP1 SWAP5 POP DUP2 SWAP6 POP POP POP PUSH2 0xFBD DUP5 DUP5 DUP15 DUP15 PUSH2 0xE7A JUMP JUMPDEST DUP1 SWAP5 POP DUP2 SWAP6 POP POP POP PUSH2 0xFD1 DUP5 DUP5 DUP9 DUP9 PUSH2 0xD49 JUMP JUMPDEST DUP1 SWAP5 POP DUP2 SWAP6 POP POP POP PUSH2 0xFE5 DUP11 DUP11 PUSH1 0x8 PUSH2 0x1088 JUMP JUMPDEST DUP1 SWAP7 POP DUP2 SWAP8 POP POP POP PUSH2 0xFF9 DUP7 DUP7 DUP13 DUP13 PUSH2 0xD49 JUMP JUMPDEST DUP1 SWAP7 POP DUP2 SWAP8 POP POP POP PUSH2 0x100D DUP7 DUP7 DUP5 DUP5 PUSH2 0xD49 JUMP JUMPDEST DUP1 SWAP7 POP DUP2 SWAP8 POP POP POP PUSH2 0x1021 DUP5 DUP5 DUP9 DUP9 PUSH2 0xE7A JUMP JUMPDEST DUP1 SWAP5 POP DUP2 SWAP6 POP POP POP PUSH2 0x1035 DUP13 DUP13 PUSH1 0x2 PUSH2 0x1088 JUMP JUMPDEST DUP1 SWAP7 POP DUP2 SWAP8 POP POP POP PUSH2 0x1049 DUP7 DUP7 DUP11 DUP11 PUSH2 0xD49 JUMP JUMPDEST DUP1 SWAP7 POP DUP2 SWAP8 POP POP POP PUSH2 0x105D DUP9 DUP9 DUP5 DUP5 PUSH2 0xD49 JUMP JUMPDEST DUP1 SWAP3 POP DUP2 SWAP4 POP POP POP PUSH2 0x1071 DUP3 DUP3 PUSH1 0x8 PUSH2 0x1088 JUMP JUMPDEST DUP1 SWAP3 POP DUP2 SWAP4 POP POP POP SWAP7 POP SWAP7 POP SWAP7 POP SWAP7 POP SWAP7 POP SWAP7 SWAP1 POP JUMP JUMPDEST PUSH1 0x0 DUP1 PUSH32 0x30644E72E131A029B85045B68181585D97816A916871CA8D3C208C16D87CFD47 DUP1 PUSH2 0x10BA JUMPI PUSH2 0x10B9 PUSH2 0x152F JUMP JUMPDEST JUMPDEST DUP4 DUP7 MULMOD PUSH32 0x30644E72E131A029B85045B68181585D97816A916871CA8D3C208C16D87CFD47 DUP1 PUSH2 0x10EC JUMPI PUSH2 0x10EB PUSH2 0x152F JUMP JUMPDEST JUMPDEST DUP5 DUP7 MULMOD SWAP2 POP SWAP2 POP SWAP4 POP SWAP4 SWAP2 POP POP JUMP JUMPDEST PUSH1 0x0 DUP1 PUSH1 0x0 PUSH2 0x11BD PUSH32 0x30644E72E131A029B85045B68181585D97816A916871CA8D3C208C16D87CFD47 DUP1 PUSH2 0x1132 JUMPI PUSH2 0x1131 PUSH2 0x152F JUMP JUMPDEST JUMPDEST PUSH32 0x30644E72E131A029B85045B68181585D97816A916871CA8D3C208C16D87CFD47 DUP1 PUSH2 0x1161 JUMPI PUSH2 0x1160 PUSH2 0x152F JUMP JUMPDEST JUMPDEST DUP8 DUP9 MULMOD PUSH32 0x30644E72E131A029B85045B68181585D97816A916871CA8D3C208C16D87CFD47 DUP1 PUSH2 0x1193 JUMPI PUSH2 0x1192 PUSH2 0x152F JUMP JUMPDEST JUMPDEST DUP8 DUP9 MULMOD ADDMOD PUSH32 0x30644E72E131A029B85045B68181585D97816A916871CA8D3C208C16D87CFD47 PUSH2 0x1282 JUMP JUMPDEST SWAP1 POP PUSH32 0x30644E72E131A029B85045B68181585D97816A916871CA8D3C208C16D87CFD47 DUP1 PUSH2 0x11EE JUMPI PUSH2 0x11ED PUSH2 0x152F JUMP JUMPDEST JUMPDEST DUP2 DUP7 MULMOD PUSH32 0x30644E72E131A029B85045B68181585D97816A916871CA8D3C208C16D87CFD47 DUP1 PUSH2 0x1220 JUMPI PUSH2 0x121F PUSH2 0x152F JUMP JUMPDEST JUMPDEST DUP3 DUP7 MULMOD PUSH32 0x30644E72E131A029B85045B68181585D97816A916871CA8D3C208C16D87CFD47 PUSH2 0x124E SWAP2 SWAP1 PUSH2 0x15BE JUMP JUMPDEST SWAP3 POP SWAP3 POP POP SWAP3 POP SWAP3 SWAP1 POP JUMP JUMPDEST PUSH1 0x0 DUP2 DUP1 PUSH2 0x126B JUMPI PUSH2 0x126A PUSH2 0x152F JUMP JUMPDEST JUMPDEST DUP4 DUP4 PUSH2 0x1277 SWAP2 SWAP1 PUSH2 0x15BE JUMP JUMPDEST DUP6 ADDMOD SWAP1 POP SWAP4 SWAP3 POP POP POP JUMP JUMPDEST PUSH1 0x0 DUP1 PUSH1 0x40 MLOAD PUSH1 0x20 DUP2 MSTORE PUSH1 0x20 DUP1 DUP3 ADD MSTORE PUSH1 0x20 PUSH1 0x40 DUP3 ADD MSTORE DUP5 PUSH1 0x60 DUP3 ADD MSTORE PUSH1 0x2 DUP5 SUB PUSH1 0x80 DUP3 ADD MSTORE DUP4 PUSH1 0xA0 DUP3 ADD MSTORE PUSH1 0x20 DUP2 PUSH1 0xC0 DUP4 PUSH1 0x5 PUSH2 0x7D0 GAS SUB STATICCALL SWAP2 POP DUP1 MLOAD SWAP3 POP POP DUP1 PUSH2 0x12CD JUMPI PUSH1 0x0 DUP1 REVERT JUMPDEST POP SWAP3 SWAP2 POP POP JUMP JUMPDEST PUSH1 0x40 MLOAD DUP1 PUSH1 0xC0 ADD PUSH1 0x40 MSTORE DUP1 PUSH1 0x6 SWAP1 PUSH1 0x20 DUP3 MUL DUP1 CALLDATASIZE DUP4 CALLDATACOPY DUP1 DUP3 ADD SWAP2 POP POP SWAP1 POP POP SWAP1 JUMP JUMPDEST PUSH1 0x0 DUP2 SWAP1 POP SWAP2 SWAP1 POP JUMP JUMPDEST PUSH2 0x1309 DUP2 PUSH2 0x12F6 JUMP JUMPDEST DUP3 MSTORE POP POP JUMP JUMPDEST PUSH1 0x0 PUSH1 0x20 DUP3 ADD SWAP1 POP PUSH2 0x1324 PUSH1 0x0 DUP4 ADD DUP5 PUSH2 0x1300 JUMP JUMPDEST SWAP3 SWAP2 POP POP JUMP JUMPDEST PUSH1 0x0 DUP1 REVERT JUMPDEST PUSH2 0x1338 DUP2 PUSH2 0x12F6 JUMP JUMPDEST DUP2 EQ PUSH2 0x1343 JUMPI PUSH1 0x0 DUP1 REVERT JUMPDEST POP JUMP JUMPDEST PUSH1 0x0 DUP2 CALLDATALOAD SWAP1 POP PUSH2 0x1355 DUP2 PUSH2 0x132F JUMP JUMPDEST SWAP3 SWAP2 POP POP JUMP JUMPDEST PUSH1 0x0 DUP1 PUSH1 0x0 DUP1 PUSH1 0x0 DUP1 PUSH1 0x0 DUP1 PUSH2 0x100 DUP10 DUP12 SUB SLT ISZERO PUSH2 0x137C JUMPI PUSH2 0x137B PUSH2 0x132A JUMP JUMPDEST JUMPDEST PUSH1 0x0 PUSH2 0x138A DUP12 DUP3 DUP13 ADD PUSH2 0x1346 JUMP JUMPDEST SWAP9 POP POP PUSH1 0x20 PUSH2 0x139B DUP12 DUP3 DUP13 ADD PUSH2 0x1346 JUMP JUMPDEST SWAP8 POP POP PUSH1 0x40 PUSH2 0x13AC DUP12 DUP3 DUP13 ADD PUSH2 0x1346 JUMP JUMPDEST SWAP7 POP POP PUSH1 0x60 PUSH2 0x13BD DUP12 DUP3 DUP13 ADD PUSH2 0x1346 JUMP JUMPDEST SWAP6 POP POP PUSH1 0x80 PUSH2 0x13CE DUP12 DUP3 DUP13 ADD PUSH2 0x1346 JUMP JUMPDEST SWAP5 POP POP PUSH1 0xA0 PUSH2 0x13DF DUP12 DUP3 DUP13 ADD PUSH2 0x1346 JUMP JUMPDEST SWAP4 POP POP PUSH1 0xC0 PUSH2 0x13F0 DUP12 DUP3 DUP13 ADD PUSH2 0x1346 JUMP JUMPDEST SWAP3 POP POP PUSH1 0xE0 PUSH2 0x1401 DUP12 DUP3 DUP13 ADD PUSH2 0x1346 JUMP JUMPDEST SWAP2 POP POP SWAP3 SWAP6 SWAP9 POP SWAP3 SWAP6 SWAP9 SWAP1 SWAP4 SWAP7 POP JUMP JUMPDEST PUSH1 0x0 PUSH1 0x80 DUP3 ADD SWAP1 POP PUSH2 0x1426 PUSH1 0x0 DUP4 ADD DUP8 PUSH2 0x1300 JUMP JUMPDEST PUSH2 0x1433 PUSH1 0x20 DUP4 ADD DUP7 PUSH2 0x1300 JUMP JUMPDEST PUSH2 0x1440 PUSH1 0x40 DUP4 ADD DUP6 PUSH2 0x1300 JUMP JUMPDEST PUSH2 0x144D PUSH1 0x60 DUP4 ADD DUP5 PUSH2 0x1300 JUMP JUMPDEST SWAP6 SWAP5 POP POP POP POP POP JUMP JUMPDEST PUSH1 0x0 DUP1 PUSH1 0x0 DUP1 PUSH1 0x0 PUSH1 0xA0 DUP7 DUP9 SUB SLT ISZERO PUSH2 0x1472 JUMPI PUSH2 0x1471 PUSH2 0x132A JUMP JUMPDEST JUMPDEST PUSH1 0x0 PUSH2 0x1480 DUP9 DUP3 DUP10 ADD PUSH2 0x1346 JUMP JUMPDEST SWAP6 POP POP PUSH1 0x20 PUSH2 0x1491 DUP9 DUP3 DUP10 ADD PUSH2 0x1346 JUMP JUMPDEST SWAP5 POP POP PUSH1 0x40 PUSH2 0x14A2 DUP9 DUP3 DUP10 ADD PUSH2 0x1346 JUMP JUMPDEST SWAP4 POP POP PUSH1 0x60 PUSH2 0x14B3 DUP9 DUP3 DUP10 ADD PUSH2 0x1346 JUMP JUMPDEST SWAP3 POP POP PUSH1 0x80 PUSH2 0x14C4 DUP9 DUP3 DUP10 ADD PUSH2 0x1346 JUMP JUMPDEST SWAP2 POP POP SWAP3 SWAP6 POP SWAP3 SWAP6 SWAP1 SWAP4 POP JUMP JUMPDEST PUSH32 0x4E487B7100000000000000000000000000000000000000000000000000000000 PUSH1 0x0 MSTORE PUSH1 0x1 PUSH1 0x4 MSTORE PUSH1 0x24 PUSH1 0x0 REVERT JUMPDEST PUSH32 0x4E487B7100000000000000000000000000000000000000000000000000000000 PUSH1 0x0 MSTORE PUSH1 0x32 PUSH1 0x4 MSTORE PUSH1 0x24 PUSH1 0x0 REVERT JUMPDEST PUSH32 0x4E487B7100000000000000000000000000000000000000000000000000000000 PUSH1 0x0 MSTORE PUSH1 0x12 PUSH1 0x4 MSTORE PUSH1 0x24 PUSH1 0x0 REVERT JUMPDEST PUSH32 0x4E487B7100000000000000000000000000000000000000000000000000000000 PUSH1 0x0 MSTORE PUSH1 0x11 PUSH1 0x4 MSTORE PUSH1 0x24 PUSH1 0x0 REVERT JUMPDEST PUSH1 0x0 PUSH2 0x1598 DUP3 PUSH2 0x12F6 JUMP JUMPDEST SWAP2 POP PUSH2 0x15A3 DUP4 PUSH2 0x12F6 JUMP JUMPDEST SWAP3 POP DUP3 PUSH2 0x15B3 JUMPI PUSH2 0x15B2 PUSH2 0x152F JUMP JUMPDEST JUMPDEST DUP3 DUP3 DIV SWAP1 POP SWAP3 SWAP2 POP POP JUMP JUMPDEST PUSH1 0x0 PUSH2 0x15C9 DUP3 PUSH2 0x12F6 JUMP JUMPDEST SWAP2 POP PUSH2 0x15D4 DUP4 PUSH2 0x12F6 JUMP JUMPDEST SWAP3 POP DUP3 DUP3 SUB SWAP1 POP DUP2 DUP2 GT ISZERO PUSH2 0x15EC JUMPI PUSH2 0x15EB PUSH2 0x155E JUMP JUMPDEST JUMPDEST SWAP3 SWAP2 POP POP JUMP INVALID LOG2 PUSH5 0x6970667358 0x22 SLT KECCAK256 PUSH13 0x665D59827246C45678BD845C16 DUP3 LOG1 0xC8 0x2D ADD SWAP13 INVALID 0x5C SWAP4 SIGNEXTEND 0xBF 0xC8 DUP6 DUP5 0xB0 0x4C 0x21 BALANCE PUSH5 0x736F6C6343 STOP ADDMOD SLT STOP CALLER "
				},
				"gasEstimates": {
					"creation": {
						"codeDepositCost": "1134400",
						"executionCost": "1205",
						"totalCost": "1135605"
					},
					"external": {
						"ECTwistAdd(uint256,uint256,uint256,uint256,uint256,uint256,uint256,uint256)": "infinite",
						"ECTwistMul(uint256,uint256,uint256,uint256,uint256)": "infinite",
						"GetFieldModulus()": "299"
					},
					"internal": {
						"_ECTwistAddJacobian(uint256,uint256,uint256,uint256,uint256,uint256,uint256,uint256,uint256,uint256,uint256,uint256)": "infinite",
						"_ECTwistDoubleJacobian(uint256,uint256,uint256,uint256,uint256,uint256)": "infinite",
						"_ECTwistMulJacobian(uint256,uint256,uint256,uint256,uint256,uint256,uint256)": "infinite",
						"_FQ2Add(uint256,uint256,uint256,uint256)": "infinite",
						"_FQ2Div(uint256,uint256,uint256,uint256)": "infinite",
						"_FQ2Inv(uint256,uint256)": "infinite",
						"_FQ2Muc(uint256,uint256,uint256)": "108",
						"_FQ2Mul(uint256,uint256,uint256,uint256)": "infinite",
						"_FQ2Sub(uint256,uint256,uint256,uint256)": "infinite",
						"_fromJacobian(uint256,uint256,uint256,uint256,uint256,uint256)": "infinite",
						"_isOnCurve(uint256,uint256,uint256,uint256)": "infinite",
						"_modInv(uint256,uint256)": "infinite",
						"submod(uint256,uint256,uint256)": "infinite"
					}
				},
				"methodIdentifiers": {
					"ECTwistAdd(uint256,uint256,uint256,uint256,uint256,uint256,uint256,uint256)": "61a931ec",
					"ECTwistMul(uint256,uint256,uint256,uint256,uint256)": "b73ab75d",
					"GetFieldModulus()": "55a3e90f"
				}
			},
			"storageLayout": {
				"storage": [],
				"types": null
			},
			"userdoc": {
				"kind": "user",
				"methods": {
					"ECTwistAdd(uint256,uint256,uint256,uint256,uint256,uint256,uint256,uint256)": {
						"notice": "Add two twist points"
					},
					"ECTwistMul(uint256,uint256,uint256,uint256,uint256)": {
						"notice": "Multiply a twist point by a scalar"
					},
					"GetFieldModulus()": {
						"notice": "Get the field modulus"
					}
				},
				"version": 1
			}
		}
	}
}