{
	"verifier.sol": {
		"Verifier": {
			"abi": [
				{
					"inputs": [
						{
							"components": [
								{
									"components": [
										{
											"internalType": "uint256",
											"name": "X",
											"type": "uint256"
										},
										{
											"internalType": "uint256",
											"name": "Y",
											"type": "uint256"
										}
									],
									"internalType": "struct Pairing.G1Point",
									"name": "a",
									"type": "tuple"
								},
								{
									"components": [
										{
											"internalType": "uint256[2]",
											"name": "X",
											"type": "uint256[2]"
										},
										{
											"internalType": "uint256[2]",
											"name": "Y",
											"type": "uint256[2]"
										}
									],
									"internalType": "struct Pairing.G2Point",
									"name": "b",
									"type": "tuple"
								},
								{
									"components": [
										{
											"internalType": "uint256",
											"name": "X",
											"type": "uint256"
										},
										{
											"internalType": "uint256",
											"name": "Y",
											"type": "uint256"
										}
									],
									"internalType": "struct Pairing.G1Point",
									"name": "c",
									"type": "tuple"
								}
							],
							"internalType": "struct Verifier.Proof",
							"name": "proof",
							"type": "tuple"
						},
						{
							"internalType": "uint256[1]",
							"name": "input",
							"type": "uint256[1]"
						}
					],
					"name": "verifyTx",
					"outputs": [
						{
							"internalType": "bool",
							"name": "r",
							"type": "bool"
						}
					],
					"stateMutability": "view",
					"type": "function"
				}
			],
			"devdoc": {
				"kind": "dev",
				"methods": {},
				"version": 1
			},
			"evm": {
				"assembly": "    /* \"verifier.sol\":20858:24859  contract Verifier {... */\n  mstore(0x40, 0x80)\n  callvalue\n  dup1\n  iszero\n  tag_1\n  jumpi\n  0x00\n  dup1\n  revert\ntag_1:\n  pop\n  dataSize(sub_0)\n  dup1\n  dataOffset(sub_0)\n  0x00\n  codecopy\n  0x00\n  return\nstop\n\nsub_0: assembly {\n        /* \"verifier.sol\":20858:24859  contract Verifier {... */\n      mstore(0x40, 0x80)\n      callvalue\n      dup1\n      iszero\n      tag_1\n      jumpi\n      0x00\n      dup1\n      revert\n    tag_1:\n      pop\n      jumpi(tag_2, lt(calldatasize, 0x04))\n      shr(0xe0, calldataload(0x00))\n      dup1\n      0xf48d7729\n      eq\n      tag_3\n      jumpi\n    tag_2:\n      0x00\n      dup1\n      revert\n        /* \"verifier.sol\":24457:24857  function verifyTx(... */\n    tag_3:\n      tag_4\n      0x04\n      dup1\n      calldatasize\n      sub\n      dup2\n      add\n      swap1\n      tag_5\n      swap2\n      swap1\n      tag_6\n      jump\t// in\n    tag_5:\n      tag_7\n      jump\t// in\n    tag_4:\n      mload(0x40)\n      tag_8\n      swap2\n      swap1\n      tag_9\n      jump\t// in\n    tag_8:\n      mload(0x40)\n      dup1\n      swap2\n      sub\n      swap1\n      return\n    tag_7:\n        /* \"verifier.sol\":24560:24566  bool r */\n      0x00\n        /* \"verifier.sol\":24578:24603  uint[] memory inputValues */\n      dup1\n        /* \"verifier.sol\":24617:24618  1 */\n      0x01\n        /* \"verifier.sol\":24606:24619  new uint[](1) */\n      0xffffffffffffffff\n      dup2\n      gt\n      iszero\n      tag_11\n      jumpi\n      tag_12\n      tag_13\n      jump\t// in\n    tag_12:\n    tag_11:\n      mload(0x40)\n      swap1\n      dup1\n      dup3\n      mstore\n      dup1\n      0x20\n      mul\n      0x20\n      add\n      dup3\n      add\n      0x40\n      mstore\n      dup1\n      iszero\n      tag_14\n      jumpi\n      dup2\n      0x20\n      add\n      0x20\n      dup3\n      mul\n      dup1\n      calldatasize\n      dup4\n      calldatacopy\n      dup1\n      dup3\n      add\n      swap2\n      pop\n      pop\n      swap1\n      pop\n    tag_14:\n      pop\n        /* \"verifier.sol\":24578:24619  uint[] memory inputValues = new uint[](1) */\n      swap1\n      pop\n        /* \"verifier.sol\":24642:24648  uint i */\n      0x00\n        /* \"verifier.sol\":24638:24726  for(uint i = 0; i < input.length; i++){... */\n    tag_15:\n        /* \"verifier.sol\":24658:24670  input.length */\n      0x01\n        /* \"verifier.sol\":24654:24655  i */\n      dup2\n        /* \"verifier.sol\":24654:24670  i < input.length */\n      lt\n        /* \"verifier.sol\":24638:24726  for(uint i = 0; i < input.length; i++){... */\n      iszero\n      tag_16\n      jumpi\n        /* \"verifier.sol\":24707:24712  input */\n      dup4\n        /* \"verifier.sol\":24713:24714  i */\n      dup2\n        /* \"verifier.sol\":24707:24715  input[i] */\n      0x01\n      dup2\n      lt\n      tag_18\n      jumpi\n      tag_19\n      tag_20\n      jump\t// in\n    tag_19:\n    tag_18:\n      0x20\n      mul\n      add\n      mload\n        /* \"verifier.sol\":24690:24701  inputValues */\n      dup3\n        /* \"verifier.sol\":24702:24703  i */\n      dup3\n        /* \"verifier.sol\":24690:24704  inputValues[i] */\n      dup2\n      mload\n      dup2\n      lt\n      tag_21\n      jumpi\n      tag_22\n      tag_20\n      jump\t// in\n    tag_22:\n    tag_21:\n      0x20\n      mul\n      0x20\n      add\n      add\n        /* \"verifier.sol\":24690:24715  inputValues[i] = input[i] */\n      dup2\n      dup2\n      mstore\n      pop\n      pop\n        /* \"verifier.sol\":24672:24675  i++ */\n      dup1\n      dup1\n      tag_23\n      swap1\n      tag_24\n      jump\t// in\n    tag_23:\n      swap2\n      pop\n      pop\n        /* \"verifier.sol\":24638:24726  for(uint i = 0; i < input.length; i++){... */\n      jump(tag_15)\n    tag_16:\n      pop\n        /* \"verifier.sol\":24769:24770  0 */\n      0x00\n        /* \"verifier.sol\":24739:24765  verify(inputValues, proof) */\n      tag_25\n        /* \"verifier.sol\":24746:24757  inputValues */\n      dup3\n        /* \"verifier.sol\":24759:24764  proof */\n      dup7\n        /* \"verifier.sol\":24739:24745  verify */\n      tag_26\n        /* \"verifier.sol\":24739:24765  verify(inputValues, proof) */\n      jump\t// in\n    tag_25:\n        /* \"verifier.sol\":24739:24770  verify(inputValues, proof) == 0 */\n      sub\n        /* \"verifier.sol\":24735:24851  if (verify(inputValues, proof) == 0) {... */\n      tag_27\n      jumpi\n        /* \"verifier.sol\":24793:24797  true */\n      0x01\n        /* \"verifier.sol\":24786:24797  return true */\n      swap2\n      pop\n      pop\n      jump(tag_10)\n        /* \"verifier.sol\":24735:24851  if (verify(inputValues, proof) == 0) {... */\n    tag_27:\n        /* \"verifier.sol\":24835:24840  false */\n      0x00\n        /* \"verifier.sol\":24828:24840  return false */\n      swap2\n      pop\n      pop\n        /* \"verifier.sol\":24457:24857  function verifyTx(... */\n    tag_10:\n      swap3\n      swap2\n      pop\n      pop\n      jump\t// out\n        /* \"verifier.sol\":23176:24452  function verify(uint[] memory input, Proof memory proof) internal view returns (uint) {... */\n    tag_26:\n        /* \"verifier.sol\":23256:23260  uint */\n      0x00\n        /* \"verifier.sol\":23272:23298  uint256 snark_scalar_field */\n      dup1\n        /* \"verifier.sol\":23301:23378  21888242871839275222246405745257275088548364400416034343698204186575808495617 */\n      0x30644e72e131a029b85045b68181585d2833e84879b9709143e1f593f0000001\n        /* \"verifier.sol\":23272:23378  uint256 snark_scalar_field = 21888242871839275222246405745257275088548364400416034343698204186575808495617 */\n      swap1\n      pop\n        /* \"verifier.sol\":23388:23410  VerifyingKey memory vk */\n      0x00\n        /* \"verifier.sol\":23413:23427  verifyingKey() */\n      tag_30\n        /* \"verifier.sol\":23413:23425  verifyingKey */\n      tag_31\n        /* \"verifier.sol\":23413:23427  verifyingKey() */\n      jump\t// in\n    tag_30:\n        /* \"verifier.sol\":23388:23427  VerifyingKey memory vk = verifyingKey() */\n      swap1\n      pop\n        /* \"verifier.sol\":23465:23467  vk */\n      dup1\n        /* \"verifier.sol\":23465:23473  vk.query */\n      0xa0\n      add\n      mload\n        /* \"verifier.sol\":23465:23480  vk.query.length */\n      mload\n        /* \"verifier.sol\":23460:23461  1 */\n      0x01\n        /* \"verifier.sol\":23445:23450  input */\n      dup7\n        /* \"verifier.sol\":23445:23457  input.length */\n      mload\n        /* \"verifier.sol\":23445:23461  input.length + 1 */\n      tag_32\n      swap2\n      swap1\n      tag_33\n      jump\t// in\n    tag_32:\n        /* \"verifier.sol\":23445:23480  input.length + 1 == vk.query.length */\n      eq\n        /* \"verifier.sol\":23437:23481  require(input.length + 1 == vk.query.length) */\n      tag_34\n      jumpi\n      0x00\n      dup1\n      revert\n    tag_34:\n        /* \"verifier.sol\":23538:23565  Pairing.G1Point memory vk_x */\n      0x00\n        /* \"verifier.sol\":23568:23589  Pairing.G1Point(0, 0) */\n      mload(0x40)\n      dup1\n      0x40\n      add\n      0x40\n      mstore\n      dup1\n        /* \"verifier.sol\":23584:23585  0 */\n      0x00\n        /* \"verifier.sol\":23568:23589  Pairing.G1Point(0, 0) */\n      dup2\n      mstore\n      0x20\n      add\n        /* \"verifier.sol\":23587:23588  0 */\n      0x00\n        /* \"verifier.sol\":23568:23589  Pairing.G1Point(0, 0) */\n      dup2\n      mstore\n      pop\n        /* \"verifier.sol\":23538:23589  Pairing.G1Point memory vk_x = Pairing.G1Point(0, 0) */\n      swap1\n      pop\n        /* \"verifier.sol\":23604:23610  uint i */\n      0x00\n        /* \"verifier.sol\":23599:23792  for (uint i = 0; i < input.length; i++) {... */\n    tag_35:\n        /* \"verifier.sol\":23620:23625  input */\n      dup7\n        /* \"verifier.sol\":23620:23632  input.length */\n      mload\n        /* \"verifier.sol\":23616:23617  i */\n      dup2\n        /* \"verifier.sol\":23616:23632  i < input.length */\n      lt\n        /* \"verifier.sol\":23599:23792  for (uint i = 0; i < input.length; i++) {... */\n      iszero\n      tag_36\n      jumpi\n        /* \"verifier.sol\":23672:23690  snark_scalar_field */\n      dup4\n        /* \"verifier.sol\":23661:23666  input */\n      dup8\n        /* \"verifier.sol\":23667:23668  i */\n      dup3\n        /* \"verifier.sol\":23661:23669  input[i] */\n      dup2\n      mload\n      dup2\n      lt\n      tag_38\n      jumpi\n      tag_39\n      tag_20\n      jump\t// in\n    tag_39:\n    tag_38:\n      0x20\n      mul\n      0x20\n      add\n      add\n      mload\n        /* \"verifier.sol\":23661:23690  input[i] < snark_scalar_field */\n      lt\n        /* \"verifier.sol\":23653:23691  require(input[i] < snark_scalar_field) */\n      tag_40\n      jumpi\n      0x00\n      dup1\n      revert\n    tag_40:\n        /* \"verifier.sol\":23712:23781  Pairing.addition(vk_x, Pairing.scalar_mul(vk.query[i + 1], input[i])) */\n      tag_41\n        /* \"verifier.sol\":23729:23733  vk_x */\n      dup3\n        /* \"verifier.sol\":23735:23780  Pairing.scalar_mul(vk.query[i + 1], input[i]) */\n      tag_42\n        /* \"verifier.sol\":23754:23756  vk */\n      dup6\n        /* \"verifier.sol\":23754:23762  vk.query */\n      0xa0\n      add\n      mload\n        /* \"verifier.sol\":23767:23768  1 */\n      0x01\n        /* \"verifier.sol\":23763:23764  i */\n      dup6\n        /* \"verifier.sol\":23763:23768  i + 1 */\n      tag_43\n      swap2\n      swap1\n      tag_33\n      jump\t// in\n    tag_43:\n        /* \"verifier.sol\":23754:23769  vk.query[i + 1] */\n      dup2\n      mload\n      dup2\n      lt\n      tag_44\n      jumpi\n      tag_45\n      tag_20\n      jump\t// in\n    tag_45:\n    tag_44:\n      0x20\n      mul\n      0x20\n      add\n      add\n      mload\n        /* \"verifier.sol\":23771:23776  input */\n      dup11\n        /* \"verifier.sol\":23777:23778  i */\n      dup6\n        /* \"verifier.sol\":23771:23779  input[i] */\n      dup2\n      mload\n      dup2\n      lt\n      tag_46\n      jumpi\n      tag_47\n      tag_20\n      jump\t// in\n    tag_47:\n    tag_46:\n      0x20\n      mul\n      0x20\n      add\n      add\n      mload\n        /* \"verifier.sol\":23735:23753  Pairing.scalar_mul */\n      tag_48\n        /* \"verifier.sol\":23735:23780  Pairing.scalar_mul(vk.query[i + 1], input[i]) */\n      jump\t// in\n    tag_42:\n        /* \"verifier.sol\":23712:23728  Pairing.addition */\n      tag_49\n        /* \"verifier.sol\":23712:23781  Pairing.addition(vk_x, Pairing.scalar_mul(vk.query[i + 1], input[i])) */\n      jump\t// in\n    tag_41:\n        /* \"verifier.sol\":23705:23781  vk_x = Pairing.addition(vk_x, Pairing.scalar_mul(vk.query[i + 1], input[i])) */\n      swap2\n      pop\n        /* \"verifier.sol\":23634:23637  i++ */\n      dup1\n      dup1\n      tag_50\n      swap1\n      tag_24\n      jump\t// in\n    tag_50:\n      swap2\n      pop\n      pop\n        /* \"verifier.sol\":23599:23792  for (uint i = 0; i < input.length; i++) {... */\n      jump(tag_35)\n    tag_36:\n      pop\n        /* \"verifier.sol\":23808:23843  Pairing.addition(vk_x, vk.query[0]) */\n      tag_51\n        /* \"verifier.sol\":23825:23829  vk_x */\n      dup2\n        /* \"verifier.sol\":23831:23833  vk */\n      dup4\n        /* \"verifier.sol\":23831:23839  vk.query */\n      0xa0\n      add\n      mload\n        /* \"verifier.sol\":23840:23841  0 */\n      0x00\n        /* \"verifier.sol\":23831:23842  vk.query[0] */\n      dup2\n      mload\n      dup2\n      lt\n      tag_52\n      jumpi\n      tag_53\n      tag_20\n      jump\t// in\n    tag_53:\n    tag_52:\n      0x20\n      mul\n      0x20\n      add\n      add\n      mload\n        /* \"verifier.sol\":23808:23824  Pairing.addition */\n      tag_49\n        /* \"verifier.sol\":23808:23843  Pairing.addition(vk_x, vk.query[0]) */\n      jump\t// in\n    tag_51:\n        /* \"verifier.sol\":23801:23843  vk_x = Pairing.addition(vk_x, vk.query[0]) */\n      swap1\n      pop\n        /* \"verifier.sol\":24076:24245  Pairing.pairingProd4(vk.g_alpha, vk.h_beta, vk_x, vk.h_gamma, proof.c, vk.h, Pairing.negate(Pairing.addition(proof.a, vk.g_alpha)), Pairing.addition(proof.b, vk.h_beta)) */\n      tag_54\n        /* \"verifier.sol\":24097:24099  vk */\n      dup3\n        /* \"verifier.sol\":24097:24107  vk.g_alpha */\n      0x20\n      add\n      mload\n        /* \"verifier.sol\":24109:24111  vk */\n      dup4\n        /* \"verifier.sol\":24109:24118  vk.h_beta */\n      0x40\n      add\n      mload\n        /* \"verifier.sol\":24120:24124  vk_x */\n      dup4\n        /* \"verifier.sol\":24126:24128  vk */\n      dup6\n        /* \"verifier.sol\":24126:24136  vk.h_gamma */\n      0x80\n      add\n      mload\n        /* \"verifier.sol\":24138:24143  proof */\n      dup10\n        /* \"verifier.sol\":24138:24145  proof.c */\n      0x40\n      add\n      mload\n        /* \"verifier.sol\":24147:24149  vk */\n      dup8\n        /* \"verifier.sol\":24147:24151  vk.h */\n      0x00\n      add\n      mload\n        /* \"verifier.sol\":24153:24206  Pairing.negate(Pairing.addition(proof.a, vk.g_alpha)) */\n      tag_55\n        /* \"verifier.sol\":24168:24205  Pairing.addition(proof.a, vk.g_alpha) */\n      tag_56\n        /* \"verifier.sol\":24185:24190  proof */\n      dup14\n        /* \"verifier.sol\":24185:24192  proof.a */\n      0x00\n      add\n      mload\n        /* \"verifier.sol\":24194:24196  vk */\n      dup12\n        /* \"verifier.sol\":24194:24204  vk.g_alpha */\n      0x20\n      add\n      mload\n        /* \"verifier.sol\":24168:24184  Pairing.addition */\n      tag_49\n        /* \"verifier.sol\":24168:24205  Pairing.addition(proof.a, vk.g_alpha) */\n      jump\t// in\n    tag_56:\n        /* \"verifier.sol\":24153:24167  Pairing.negate */\n      tag_57\n        /* \"verifier.sol\":24153:24206  Pairing.negate(Pairing.addition(proof.a, vk.g_alpha)) */\n      jump\t// in\n    tag_55:\n        /* \"verifier.sol\":24208:24244  Pairing.addition(proof.b, vk.h_beta) */\n      tag_58\n        /* \"verifier.sol\":24225:24230  proof */\n      dup14\n        /* \"verifier.sol\":24225:24232  proof.b */\n      0x20\n      add\n      mload\n        /* \"verifier.sol\":24234:24236  vk */\n      dup12\n        /* \"verifier.sol\":24234:24243  vk.h_beta */\n      0x40\n      add\n      mload\n        /* \"verifier.sol\":24208:24224  Pairing.addition */\n      tag_59\n        /* \"verifier.sol\":24208:24244  Pairing.addition(proof.b, vk.h_beta) */\n      jump\t// in\n    tag_58:\n        /* \"verifier.sol\":24076:24096  Pairing.pairingProd4 */\n      tag_60\n        /* \"verifier.sol\":24076:24245  Pairing.pairingProd4(vk.g_alpha, vk.h_beta, vk_x, vk.h_gamma, proof.c, vk.h, Pairing.negate(Pairing.addition(proof.a, vk.g_alpha)), Pairing.addition(proof.b, vk.h_beta)) */\n      jump\t// in\n    tag_54:\n        /* \"verifier.sol\":24071:24255  if (!Pairing.pairingProd4(vk.g_alpha, vk.h_beta, vk_x, vk.h_gamma, proof.c, vk.h, Pairing.negate(Pairing.addition(proof.a, vk.g_alpha)), Pairing.addition(proof.b, vk.h_beta))) return 1 */\n      tag_61\n      jumpi\n        /* \"verifier.sol\":24254:24255  1 */\n      0x01\n        /* \"verifier.sol\":24247:24255  return 1 */\n      swap4\n      pop\n      pop\n      pop\n      pop\n      jump(tag_29)\n        /* \"verifier.sol\":24071:24255  if (!Pairing.pairingProd4(vk.g_alpha, vk.h_beta, vk_x, vk.h_gamma, proof.c, vk.h, Pairing.negate(Pairing.addition(proof.a, vk.g_alpha)), Pairing.addition(proof.b, vk.h_beta))) return 1 */\n    tag_61:\n        /* \"verifier.sol\":24339:24417  Pairing.pairingProd2(proof.a, vk.h_gamma, Pairing.negate(vk.g_gamma), proof.b) */\n      tag_62\n        /* \"verifier.sol\":24360:24365  proof */\n      dup6\n        /* \"verifier.sol\":24360:24367  proof.a */\n      0x00\n      add\n      mload\n        /* \"verifier.sol\":24369:24371  vk */\n      dup4\n        /* \"verifier.sol\":24369:24379  vk.h_gamma */\n      0x80\n      add\n      mload\n        /* \"verifier.sol\":24381:24407  Pairing.negate(vk.g_gamma) */\n      tag_63\n        /* \"verifier.sol\":24396:24398  vk */\n      dup6\n        /* \"verifier.sol\":24396:24406  vk.g_gamma */\n      0x60\n      add\n      mload\n        /* \"verifier.sol\":24381:24395  Pairing.negate */\n      tag_57\n        /* \"verifier.sol\":24381:24407  Pairing.negate(vk.g_gamma) */\n      jump\t// in\n    tag_63:\n        /* \"verifier.sol\":24409:24414  proof */\n      dup9\n        /* \"verifier.sol\":24409:24416  proof.b */\n      0x20\n      add\n      mload\n        /* \"verifier.sol\":24339:24359  Pairing.pairingProd2 */\n      tag_64\n        /* \"verifier.sol\":24339:24417  Pairing.pairingProd2(proof.a, vk.h_gamma, Pairing.negate(vk.g_gamma), proof.b) */\n      jump\t// in\n    tag_62:\n        /* \"verifier.sol\":24334:24427  if (!Pairing.pairingProd2(proof.a, vk.h_gamma, Pairing.negate(vk.g_gamma), proof.b)) return 2 */\n      tag_65\n      jumpi\n        /* \"verifier.sol\":24426:24427  2 */\n      0x02\n        /* \"verifier.sol\":24419:24427  return 2 */\n      swap4\n      pop\n      pop\n      pop\n      pop\n      jump(tag_29)\n        /* \"verifier.sol\":24334:24427  if (!Pairing.pairingProd2(proof.a, vk.h_gamma, Pairing.negate(vk.g_gamma), proof.b)) return 2 */\n    tag_65:\n        /* \"verifier.sol\":24444:24445  0 */\n      0x00\n        /* \"verifier.sol\":24437:24445  return 0 */\n      swap4\n      pop\n      pop\n      pop\n      pop\n        /* \"verifier.sol\":23176:24452  function verify(uint[] memory input, Proof memory proof) internal view returns (uint) {... */\n    tag_29:\n      swap3\n      swap2\n      pop\n      pop\n      jump\t// out\n        /* \"verifier.sol\":21236:23171  function verifyingKey() pure internal returns (VerifyingKey memory vk) {... */\n    tag_31:\n        /* \"verifier.sol\":21283:21305  VerifyingKey memory vk */\n      tag_66\n      tag_67\n      jump\t// in\n    tag_66:\n        /* \"verifier.sol\":21323:21650  Pairing.G2Point([uint256(0x1892c8973d10c9f349213655f13d49b0e7488edec661fa48bd0a9490992ee5ab), uint256(0x2aea204a4e2119be3186acf84b636acc7dc1ea39b250d92f38e79fccd9cd6637)], [uint256(0x1c9e246bfed28dd09cf294f8671adfcccfec4db18c13aaf14936235e662da86d), uint256(0x0787f663abe8a6e7babb6f70fd47801989c4d2d90140a7a53452aafd3f2299a1)]) */\n      mload(0x40)\n      dup1\n      0x40\n      add\n      0x40\n      mstore\n      dup1\n      mload(0x40)\n      dup1\n      0x40\n      add\n      0x40\n      mstore\n      dup1\n        /* \"verifier.sol\":21348:21414  0x1892c8973d10c9f349213655f13d49b0e7488edec661fa48bd0a9490992ee5ab */\n      0x1892c8973d10c9f349213655f13d49b0e7488edec661fa48bd0a9490992ee5ab\n        /* \"verifier.sol\":21323:21650  Pairing.G2Point([uint256(0x1892c8973d10c9f349213655f13d49b0e7488edec661fa48bd0a9490992ee5ab), uint256(0x2aea204a4e2119be3186acf84b636acc7dc1ea39b250d92f38e79fccd9cd6637)], [uint256(0x1c9e246bfed28dd09cf294f8671adfcccfec4db18c13aaf14936235e662da86d), uint256(0x0787f663abe8a6e7babb6f70fd47801989c4d2d90140a7a53452aafd3f2299a1)]) */\n      dup2\n      mstore\n      0x20\n      add\n        /* \"verifier.sol\":21425:21491  0x2aea204a4e2119be3186acf84b636acc7dc1ea39b250d92f38e79fccd9cd6637 */\n      0x2aea204a4e2119be3186acf84b636acc7dc1ea39b250d92f38e79fccd9cd6637\n        /* \"verifier.sol\":21323:21650  Pairing.G2Point([uint256(0x1892c8973d10c9f349213655f13d49b0e7488edec661fa48bd0a9490992ee5ab), uint256(0x2aea204a4e2119be3186acf84b636acc7dc1ea39b250d92f38e79fccd9cd6637)], [uint256(0x1c9e246bfed28dd09cf294f8671adfcccfec4db18c13aaf14936235e662da86d), uint256(0x0787f663abe8a6e7babb6f70fd47801989c4d2d90140a7a53452aafd3f2299a1)]) */\n      dup2\n      mstore\n      pop\n      dup2\n      mstore\n      0x20\n      add\n      mload(0x40)\n      dup1\n      0x40\n      add\n      0x40\n      mstore\n      dup1\n        /* \"verifier.sol\":21504:21570  0x1c9e246bfed28dd09cf294f8671adfcccfec4db18c13aaf14936235e662da86d */\n      0x1c9e246bfed28dd09cf294f8671adfcccfec4db18c13aaf14936235e662da86d\n        /* \"verifier.sol\":21323:21650  Pairing.G2Point([uint256(0x1892c8973d10c9f349213655f13d49b0e7488edec661fa48bd0a9490992ee5ab), uint256(0x2aea204a4e2119be3186acf84b636acc7dc1ea39b250d92f38e79fccd9cd6637)], [uint256(0x1c9e246bfed28dd09cf294f8671adfcccfec4db18c13aaf14936235e662da86d), uint256(0x0787f663abe8a6e7babb6f70fd47801989c4d2d90140a7a53452aafd3f2299a1)]) */\n      dup2\n      mstore\n      0x20\n      add\n        /* \"verifier.sol\":21581:21647  0x0787f663abe8a6e7babb6f70fd47801989c4d2d90140a7a53452aafd3f2299a1 */\n      0x0787f663abe8a6e7babb6f70fd47801989c4d2d90140a7a53452aafd3f2299a1\n        /* \"verifier.sol\":21323:21650  Pairing.G2Point([uint256(0x1892c8973d10c9f349213655f13d49b0e7488edec661fa48bd0a9490992ee5ab), uint256(0x2aea204a4e2119be3186acf84b636acc7dc1ea39b250d92f38e79fccd9cd6637)], [uint256(0x1c9e246bfed28dd09cf294f8671adfcccfec4db18c13aaf14936235e662da86d), uint256(0x0787f663abe8a6e7babb6f70fd47801989c4d2d90140a7a53452aafd3f2299a1)]) */\n      dup2\n      mstore\n      pop\n      dup2\n      mstore\n      pop\n        /* \"verifier.sol\":21317:21319  vk */\n      dup2\n        /* \"verifier.sol\":21317:21321  vk.h */\n      0x00\n      add\n        /* \"verifier.sol\":21317:21650  vk.h= Pairing.G2Point([uint256(0x1892c8973d10c9f349213655f13d49b0e7488edec661fa48bd0a9490992ee5ab), uint256(0x2aea204a4e2119be3186acf84b636acc7dc1ea39b250d92f38e79fccd9cd6637)], [uint256(0x1c9e246bfed28dd09cf294f8671adfcccfec4db18c13aaf14936235e662da86d), uint256(0x0787f663abe8a6e7babb6f70fd47801989c4d2d90140a7a53452aafd3f2299a1)]) */\n      dup2\n      swap1\n      mstore\n      pop\n        /* \"verifier.sol\":21673:21842  Pairing.G1Point(uint256(0x2fa8fb2ef8714c119d621493418fcf550ef6bcc8823a3426ea6264a3ffbe45e6), uint256(0x04d3f4142e5eed55f21202ce1b987f62fe61dbf083410b183f1f6aa80cdc15c7)) */\n      mload(0x40)\n      dup1\n      0x40\n      add\n      0x40\n      mstore\n      dup1\n        /* \"verifier.sol\":21697:21763  0x2fa8fb2ef8714c119d621493418fcf550ef6bcc8823a3426ea6264a3ffbe45e6 */\n      0x2fa8fb2ef8714c119d621493418fcf550ef6bcc8823a3426ea6264a3ffbe45e6\n        /* \"verifier.sol\":21673:21842  Pairing.G1Point(uint256(0x2fa8fb2ef8714c119d621493418fcf550ef6bcc8823a3426ea6264a3ffbe45e6), uint256(0x04d3f4142e5eed55f21202ce1b987f62fe61dbf083410b183f1f6aa80cdc15c7)) */\n      dup2\n      mstore\n      0x20\n      add\n        /* \"verifier.sol\":21774:21840  0x04d3f4142e5eed55f21202ce1b987f62fe61dbf083410b183f1f6aa80cdc15c7 */\n      0x04d3f4142e5eed55f21202ce1b987f62fe61dbf083410b183f1f6aa80cdc15c7\n        /* \"verifier.sol\":21673:21842  Pairing.G1Point(uint256(0x2fa8fb2ef8714c119d621493418fcf550ef6bcc8823a3426ea6264a3ffbe45e6), uint256(0x04d3f4142e5eed55f21202ce1b987f62fe61dbf083410b183f1f6aa80cdc15c7)) */\n      dup2\n      mstore\n      pop\n        /* \"verifier.sol\":21660:21662  vk */\n      dup2\n        /* \"verifier.sol\":21660:21670  vk.g_alpha */\n      0x20\n      add\n        /* \"verifier.sol\":21660:21842  vk.g_alpha = Pairing.G1Point(uint256(0x2fa8fb2ef8714c119d621493418fcf550ef6bcc8823a3426ea6264a3ffbe45e6), uint256(0x04d3f4142e5eed55f21202ce1b987f62fe61dbf083410b183f1f6aa80cdc15c7)) */\n      dup2\n      swap1\n      mstore\n      pop\n        /* \"verifier.sol\":21864:22191  Pairing.G2Point([uint256(0x12ed38b467f166cd862d7364e82d63aa1014b115fe543ae754e3d0b6d32d3a33), uint256(0x2362ea1f32d486bf8768966653f3875c6cc272302b5f2b30c4937edd80a380a1)], [uint256(0x12ab9ef2a011871c6958426871724f7958fc6da80d938ed1bb4a6f04ea31847a), uint256(0x14a51acf244833dbceeda93190fd1969a33dc1af4189abee9e6f3ae61e4ef0ed)]) */\n      mload(0x40)\n      dup1\n      0x40\n      add\n      0x40\n      mstore\n      dup1\n      mload(0x40)\n      dup1\n      0x40\n      add\n      0x40\n      mstore\n      dup1\n        /* \"verifier.sol\":21889:21955  0x12ed38b467f166cd862d7364e82d63aa1014b115fe543ae754e3d0b6d32d3a33 */\n      0x12ed38b467f166cd862d7364e82d63aa1014b115fe543ae754e3d0b6d32d3a33\n        /* \"verifier.sol\":21864:22191  Pairing.G2Point([uint256(0x12ed38b467f166cd862d7364e82d63aa1014b115fe543ae754e3d0b6d32d3a33), uint256(0x2362ea1f32d486bf8768966653f3875c6cc272302b5f2b30c4937edd80a380a1)], [uint256(0x12ab9ef2a011871c6958426871724f7958fc6da80d938ed1bb4a6f04ea31847a), uint256(0x14a51acf244833dbceeda93190fd1969a33dc1af4189abee9e6f3ae61e4ef0ed)]) */\n      dup2\n      mstore\n      0x20\n      add\n        /* \"verifier.sol\":21966:22032  0x2362ea1f32d486bf8768966653f3875c6cc272302b5f2b30c4937edd80a380a1 */\n      0x2362ea1f32d486bf8768966653f3875c6cc272302b5f2b30c4937edd80a380a1\n        /* \"verifier.sol\":21864:22191  Pairing.G2Point([uint256(0x12ed38b467f166cd862d7364e82d63aa1014b115fe543ae754e3d0b6d32d3a33), uint256(0x2362ea1f32d486bf8768966653f3875c6cc272302b5f2b30c4937edd80a380a1)], [uint256(0x12ab9ef2a011871c6958426871724f7958fc6da80d938ed1bb4a6f04ea31847a), uint256(0x14a51acf244833dbceeda93190fd1969a33dc1af4189abee9e6f3ae61e4ef0ed)]) */\n      dup2\n      mstore\n      pop\n      dup2\n      mstore\n      0x20\n      add\n      mload(0x40)\n      dup1\n      0x40\n      add\n      0x40\n      mstore\n      dup1\n        /* \"verifier.sol\":22045:22111  0x12ab9ef2a011871c6958426871724f7958fc6da80d938ed1bb4a6f04ea31847a */\n      0x12ab9ef2a011871c6958426871724f7958fc6da80d938ed1bb4a6f04ea31847a\n        /* \"verifier.sol\":21864:22191  Pairing.G2Point([uint256(0x12ed38b467f166cd862d7364e82d63aa1014b115fe543ae754e3d0b6d32d3a33), uint256(0x2362ea1f32d486bf8768966653f3875c6cc272302b5f2b30c4937edd80a380a1)], [uint256(0x12ab9ef2a011871c6958426871724f7958fc6da80d938ed1bb4a6f04ea31847a), uint256(0x14a51acf244833dbceeda93190fd1969a33dc1af4189abee9e6f3ae61e4ef0ed)]) */\n      dup2\n      mstore\n      0x20\n      add\n        /* \"verifier.sol\":22122:22188  0x14a51acf244833dbceeda93190fd1969a33dc1af4189abee9e6f3ae61e4ef0ed */\n      0x14a51acf244833dbceeda93190fd1969a33dc1af4189abee9e6f3ae61e4ef0ed\n        /* \"verifier.sol\":21864:22191  Pairing.G2Point([uint256(0x12ed38b467f166cd862d7364e82d63aa1014b115fe543ae754e3d0b6d32d3a33), uint256(0x2362ea1f32d486bf8768966653f3875c6cc272302b5f2b30c4937edd80a380a1)], [uint256(0x12ab9ef2a011871c6958426871724f7958fc6da80d938ed1bb4a6f04ea31847a), uint256(0x14a51acf244833dbceeda93190fd1969a33dc1af4189abee9e6f3ae61e4ef0ed)]) */\n      dup2\n      mstore\n      pop\n      dup2\n      mstore\n      pop\n        /* \"verifier.sol\":21852:21854  vk */\n      dup2\n        /* \"verifier.sol\":21852:21861  vk.h_beta */\n      0x40\n      add\n        /* \"verifier.sol\":21852:22191  vk.h_beta = Pairing.G2Point([uint256(0x12ed38b467f166cd862d7364e82d63aa1014b115fe543ae754e3d0b6d32d3a33), uint256(0x2362ea1f32d486bf8768966653f3875c6cc272302b5f2b30c4937edd80a380a1)], [uint256(0x12ab9ef2a011871c6958426871724f7958fc6da80d938ed1bb4a6f04ea31847a), uint256(0x14a51acf244833dbceeda93190fd1969a33dc1af4189abee9e6f3ae61e4ef0ed)]) */\n      dup2\n      swap1\n      mstore\n      pop\n        /* \"verifier.sol\":22214:22383  Pairing.G1Point(uint256(0x1ed9d7bbac4ee73fe3d12daac465034049c0d6dfb6021d725697d0bc81e89c46), uint256(0x1b495ba82918d54a692264c1f8bb93825e0c931e95bad397e692141b859f7614)) */\n      mload(0x40)\n      dup1\n      0x40\n      add\n      0x40\n      mstore\n      dup1\n        /* \"verifier.sol\":22238:22304  0x1ed9d7bbac4ee73fe3d12daac465034049c0d6dfb6021d725697d0bc81e89c46 */\n      0x1ed9d7bbac4ee73fe3d12daac465034049c0d6dfb6021d725697d0bc81e89c46\n        /* \"verifier.sol\":22214:22383  Pairing.G1Point(uint256(0x1ed9d7bbac4ee73fe3d12daac465034049c0d6dfb6021d725697d0bc81e89c46), uint256(0x1b495ba82918d54a692264c1f8bb93825e0c931e95bad397e692141b859f7614)) */\n      dup2\n      mstore\n      0x20\n      add\n        /* \"verifier.sol\":22315:22381  0x1b495ba82918d54a692264c1f8bb93825e0c931e95bad397e692141b859f7614 */\n      0x1b495ba82918d54a692264c1f8bb93825e0c931e95bad397e692141b859f7614\n        /* \"verifier.sol\":22214:22383  Pairing.G1Point(uint256(0x1ed9d7bbac4ee73fe3d12daac465034049c0d6dfb6021d725697d0bc81e89c46), uint256(0x1b495ba82918d54a692264c1f8bb93825e0c931e95bad397e692141b859f7614)) */\n      dup2\n      mstore\n      pop\n        /* \"verifier.sol\":22201:22203  vk */\n      dup2\n        /* \"verifier.sol\":22201:22211  vk.g_gamma */\n      0x60\n      add\n        /* \"verifier.sol\":22201:22383  vk.g_gamma = Pairing.G1Point(uint256(0x1ed9d7bbac4ee73fe3d12daac465034049c0d6dfb6021d725697d0bc81e89c46), uint256(0x1b495ba82918d54a692264c1f8bb93825e0c931e95bad397e692141b859f7614)) */\n      dup2\n      swap1\n      mstore\n      pop\n        /* \"verifier.sol\":22406:22733  Pairing.G2Point([uint256(0x1892c8973d10c9f349213655f13d49b0e7488edec661fa48bd0a9490992ee5ab), uint256(0x2aea204a4e2119be3186acf84b636acc7dc1ea39b250d92f38e79fccd9cd6637)], [uint256(0x1c9e246bfed28dd09cf294f8671adfcccfec4db18c13aaf14936235e662da86d), uint256(0x0787f663abe8a6e7babb6f70fd47801989c4d2d90140a7a53452aafd3f2299a1)]) */\n      mload(0x40)\n      dup1\n      0x40\n      add\n      0x40\n      mstore\n      dup1\n      mload(0x40)\n      dup1\n      0x40\n      add\n      0x40\n      mstore\n      dup1\n        /* \"verifier.sol\":22431:22497  0x1892c8973d10c9f349213655f13d49b0e7488edec661fa48bd0a9490992ee5ab */\n      0x1892c8973d10c9f349213655f13d49b0e7488edec661fa48bd0a9490992ee5ab\n        /* \"verifier.sol\":22406:22733  Pairing.G2Point([uint256(0x1892c8973d10c9f349213655f13d49b0e7488edec661fa48bd0a9490992ee5ab), uint256(0x2aea204a4e2119be3186acf84b636acc7dc1ea39b250d92f38e79fccd9cd6637)], [uint256(0x1c9e246bfed28dd09cf294f8671adfcccfec4db18c13aaf14936235e662da86d), uint256(0x0787f663abe8a6e7babb6f70fd47801989c4d2d90140a7a53452aafd3f2299a1)]) */\n      dup2\n      mstore\n      0x20\n      add\n        /* \"verifier.sol\":22508:22574  0x2aea204a4e2119be3186acf84b636acc7dc1ea39b250d92f38e79fccd9cd6637 */\n      0x2aea204a4e2119be3186acf84b636acc7dc1ea39b250d92f38e79fccd9cd6637\n        /* \"verifier.sol\":22406:22733  Pairing.G2Point([uint256(0x1892c8973d10c9f349213655f13d49b0e7488edec661fa48bd0a9490992ee5ab), uint256(0x2aea204a4e2119be3186acf84b636acc7dc1ea39b250d92f38e79fccd9cd6637)], [uint256(0x1c9e246bfed28dd09cf294f8671adfcccfec4db18c13aaf14936235e662da86d), uint256(0x0787f663abe8a6e7babb6f70fd47801989c4d2d90140a7a53452aafd3f2299a1)]) */\n      dup2\n      mstore\n      pop\n      dup2\n      mstore\n      0x20\n      add\n      mload(0x40)\n      dup1\n      0x40\n      add\n      0x40\n      mstore\n      dup1\n        /* \"verifier.sol\":22587:22653  0x1c9e246bfed28dd09cf294f8671adfcccfec4db18c13aaf14936235e662da86d */\n      0x1c9e246bfed28dd09cf294f8671adfcccfec4db18c13aaf14936235e662da86d\n        /* \"verifier.sol\":22406:22733  Pairing.G2Point([uint256(0x1892c8973d10c9f349213655f13d49b0e7488edec661fa48bd0a9490992ee5ab), uint256(0x2aea204a4e2119be3186acf84b636acc7dc1ea39b250d92f38e79fccd9cd6637)], [uint256(0x1c9e246bfed28dd09cf294f8671adfcccfec4db18c13aaf14936235e662da86d), uint256(0x0787f663abe8a6e7babb6f70fd47801989c4d2d90140a7a53452aafd3f2299a1)]) */\n      dup2\n      mstore\n      0x20\n      add\n        /* \"verifier.sol\":22664:22730  0x0787f663abe8a6e7babb6f70fd47801989c4d2d90140a7a53452aafd3f2299a1 */\n      0x0787f663abe8a6e7babb6f70fd47801989c4d2d90140a7a53452aafd3f2299a1\n        /* \"verifier.sol\":22406:22733  Pairing.G2Point([uint256(0x1892c8973d10c9f349213655f13d49b0e7488edec661fa48bd0a9490992ee5ab), uint256(0x2aea204a4e2119be3186acf84b636acc7dc1ea39b250d92f38e79fccd9cd6637)], [uint256(0x1c9e246bfed28dd09cf294f8671adfcccfec4db18c13aaf14936235e662da86d), uint256(0x0787f663abe8a6e7babb6f70fd47801989c4d2d90140a7a53452aafd3f2299a1)]) */\n      dup2\n      mstore\n      pop\n      dup2\n      mstore\n      pop\n        /* \"verifier.sol\":22393:22395  vk */\n      dup2\n        /* \"verifier.sol\":22393:22403  vk.h_gamma */\n      0x80\n      add\n        /* \"verifier.sol\":22393:22733  vk.h_gamma = Pairing.G2Point([uint256(0x1892c8973d10c9f349213655f13d49b0e7488edec661fa48bd0a9490992ee5ab), uint256(0x2aea204a4e2119be3186acf84b636acc7dc1ea39b250d92f38e79fccd9cd6637)], [uint256(0x1c9e246bfed28dd09cf294f8671adfcccfec4db18c13aaf14936235e662da86d), uint256(0x0787f663abe8a6e7babb6f70fd47801989c4d2d90140a7a53452aafd3f2299a1)]) */\n      dup2\n      swap1\n      mstore\n      pop\n        /* \"verifier.sol\":22776:22777  2 */\n      0x02\n        /* \"verifier.sol\":22754:22778  new Pairing.G1Point[](2) */\n      0xffffffffffffffff\n      dup2\n      gt\n      iszero\n      tag_69\n      jumpi\n      tag_70\n      tag_13\n      jump\t// in\n    tag_70:\n    tag_69:\n      mload(0x40)\n      swap1\n      dup1\n      dup3\n      mstore\n      dup1\n      0x20\n      mul\n      0x20\n      add\n      dup3\n      add\n      0x40\n      mstore\n      dup1\n      iszero\n      tag_71\n      jumpi\n      dup2\n      0x20\n      add\n    tag_72:\n      tag_73\n      tag_74\n      jump\t// in\n    tag_73:\n      dup2\n      mstore\n      0x20\n      add\n      swap1\n      0x01\n      swap1\n      sub\n      swap1\n      dup2\n      tag_72\n      jumpi\n      swap1\n      pop\n    tag_71:\n      pop\n        /* \"verifier.sol\":22743:22745  vk */\n      dup2\n        /* \"verifier.sol\":22743:22751  vk.query */\n      0xa0\n      add\n        /* \"verifier.sol\":22743:22778  vk.query = new Pairing.G1Point[](2) */\n      dup2\n      swap1\n      mstore\n      pop\n        /* \"verifier.sol\":22802:22971  Pairing.G1Point(uint256(0x1f5416e16e56eed524894a6e0630107f8cfec22c2c38fa4a892a8960acfc91cc), uint256(0x23a6a3df88eeb6d572b7a7bce4a55ed92cb8c64c2de88a3eaae42dade26cd8ae)) */\n      mload(0x40)\n      dup1\n      0x40\n      add\n      0x40\n      mstore\n      dup1\n        /* \"verifier.sol\":22826:22892  0x1f5416e16e56eed524894a6e0630107f8cfec22c2c38fa4a892a8960acfc91cc */\n      0x1f5416e16e56eed524894a6e0630107f8cfec22c2c38fa4a892a8960acfc91cc\n        /* \"verifier.sol\":22802:22971  Pairing.G1Point(uint256(0x1f5416e16e56eed524894a6e0630107f8cfec22c2c38fa4a892a8960acfc91cc), uint256(0x23a6a3df88eeb6d572b7a7bce4a55ed92cb8c64c2de88a3eaae42dade26cd8ae)) */\n      dup2\n      mstore\n      0x20\n      add\n        /* \"verifier.sol\":22903:22969  0x23a6a3df88eeb6d572b7a7bce4a55ed92cb8c64c2de88a3eaae42dade26cd8ae */\n      0x23a6a3df88eeb6d572b7a7bce4a55ed92cb8c64c2de88a3eaae42dade26cd8ae\n        /* \"verifier.sol\":22802:22971  Pairing.G1Point(uint256(0x1f5416e16e56eed524894a6e0630107f8cfec22c2c38fa4a892a8960acfc91cc), uint256(0x23a6a3df88eeb6d572b7a7bce4a55ed92cb8c64c2de88a3eaae42dade26cd8ae)) */\n      dup2\n      mstore\n      pop\n        /* \"verifier.sol\":22788:22790  vk */\n      dup2\n        /* \"verifier.sol\":22788:22796  vk.query */\n      0xa0\n      add\n      mload\n        /* \"verifier.sol\":22797:22798  0 */\n      0x00\n        /* \"verifier.sol\":22788:22799  vk.query[0] */\n      dup2\n      mload\n      dup2\n      lt\n      tag_75\n      jumpi\n      tag_76\n      tag_20\n      jump\t// in\n    tag_76:\n    tag_75:\n      0x20\n      mul\n      0x20\n      add\n      add\n        /* \"verifier.sol\":22788:22971  vk.query[0] = Pairing.G1Point(uint256(0x1f5416e16e56eed524894a6e0630107f8cfec22c2c38fa4a892a8960acfc91cc), uint256(0x23a6a3df88eeb6d572b7a7bce4a55ed92cb8c64c2de88a3eaae42dade26cd8ae)) */\n      dup2\n      swap1\n      mstore\n      pop\n        /* \"verifier.sol\":22995:23164  Pairing.G1Point(uint256(0x27adc6b6a5c16d10f27dbd0488bde262b71f13cda17e2d7db146ff8f9d5887f1), uint256(0x295ec6b4245944a7b91516387ffe870cb2c4817fd3fed95d7fff0c34f02d0f11)) */\n      mload(0x40)\n      dup1\n      0x40\n      add\n      0x40\n      mstore\n      dup1\n        /* \"verifier.sol\":23019:23085  0x27adc6b6a5c16d10f27dbd0488bde262b71f13cda17e2d7db146ff8f9d5887f1 */\n      0x27adc6b6a5c16d10f27dbd0488bde262b71f13cda17e2d7db146ff8f9d5887f1\n        /* \"verifier.sol\":22995:23164  Pairing.G1Point(uint256(0x27adc6b6a5c16d10f27dbd0488bde262b71f13cda17e2d7db146ff8f9d5887f1), uint256(0x295ec6b4245944a7b91516387ffe870cb2c4817fd3fed95d7fff0c34f02d0f11)) */\n      dup2\n      mstore\n      0x20\n      add\n        /* \"verifier.sol\":23096:23162  0x295ec6b4245944a7b91516387ffe870cb2c4817fd3fed95d7fff0c34f02d0f11 */\n      0x295ec6b4245944a7b91516387ffe870cb2c4817fd3fed95d7fff0c34f02d0f11\n        /* \"verifier.sol\":22995:23164  Pairing.G1Point(uint256(0x27adc6b6a5c16d10f27dbd0488bde262b71f13cda17e2d7db146ff8f9d5887f1), uint256(0x295ec6b4245944a7b91516387ffe870cb2c4817fd3fed95d7fff0c34f02d0f11)) */\n      dup2\n      mstore\n      pop\n        /* \"verifier.sol\":22981:22983  vk */\n      dup2\n        /* \"verifier.sol\":22981:22989  vk.query */\n      0xa0\n      add\n      mload\n        /* \"verifier.sol\":22990:22991  1 */\n      0x01\n        /* \"verifier.sol\":22981:22992  vk.query[1] */\n      dup2\n      mload\n      dup2\n      lt\n      tag_77\n      jumpi\n      tag_78\n      tag_20\n      jump\t// in\n    tag_78:\n    tag_77:\n      0x20\n      mul\n      0x20\n      add\n      add\n        /* \"verifier.sol\":22981:23164  vk.query[1] = Pairing.G1Point(uint256(0x27adc6b6a5c16d10f27dbd0488bde262b71f13cda17e2d7db146ff8f9d5887f1), uint256(0x295ec6b4245944a7b91516387ffe870cb2c4817fd3fed95d7fff0c34f02d0f11)) */\n      dup2\n      swap1\n      mstore\n      pop\n        /* \"verifier.sol\":21236:23171  function verifyingKey() pure internal returns (VerifyingKey memory vk) {... */\n      swap1\n      jump\t// out\n        /* \"verifier.sol\":17706:18160  function scalar_mul(G1Point memory p, uint s) internal view returns (G1Point memory r) {... */\n    tag_48:\n        /* \"verifier.sol\":17775:17791  G1Point memory r */\n      tag_79\n      tag_74\n      jump\t// in\n    tag_79:\n        /* \"verifier.sol\":17803:17823  uint[3] memory input */\n      tag_81\n      tag_82\n      jump\t// in\n    tag_81:\n        /* \"verifier.sol\":17844:17845  p */\n      dup4\n        /* \"verifier.sol\":17844:17847  p.X */\n      0x00\n      add\n      mload\n        /* \"verifier.sol\":17833:17838  input */\n      dup2\n        /* \"verifier.sol\":17839:17840  0 */\n      0x00\n        /* \"verifier.sol\":17833:17841  input[0] */\n      0x03\n      dup2\n      lt\n      tag_83\n      jumpi\n      tag_84\n      tag_20\n      jump\t// in\n    tag_84:\n    tag_83:\n      0x20\n      mul\n      add\n        /* \"verifier.sol\":17833:17847  input[0] = p.X */\n      dup2\n      dup2\n      mstore\n      pop\n      pop\n        /* \"verifier.sol\":17868:17869  p */\n      dup4\n        /* \"verifier.sol\":17868:17871  p.Y */\n      0x20\n      add\n      mload\n        /* \"verifier.sol\":17857:17862  input */\n      dup2\n        /* \"verifier.sol\":17863:17864  1 */\n      0x01\n        /* \"verifier.sol\":17857:17865  input[1] */\n      0x03\n      dup2\n      lt\n      tag_85\n      jumpi\n      tag_86\n      tag_20\n      jump\t// in\n    tag_86:\n    tag_85:\n      0x20\n      mul\n      add\n        /* \"verifier.sol\":17857:17871  input[1] = p.Y */\n      dup2\n      dup2\n      mstore\n      pop\n      pop\n        /* \"verifier.sol\":17892:17893  s */\n      dup3\n        /* \"verifier.sol\":17881:17886  input */\n      dup2\n        /* \"verifier.sol\":17887:17888  2 */\n      0x02\n        /* \"verifier.sol\":17881:17889  input[2] */\n      0x03\n      dup2\n      lt\n      tag_87\n      jumpi\n      tag_88\n      tag_20\n      jump\t// in\n    tag_88:\n    tag_87:\n      0x20\n      mul\n      add\n        /* \"verifier.sol\":17881:17893  input[2] = s */\n      dup2\n      dup2\n      mstore\n      pop\n      pop\n        /* \"verifier.sol\":17903:17915  bool success */\n      0x00\n        /* \"verifier.sol\":18007:18011  0x60 */\n      0x60\n        /* \"verifier.sol\":18004:18005  r */\n      dup4\n        /* \"verifier.sol\":17998:18002  0x80 */\n      0x80\n        /* \"verifier.sol\":17991:17996  input */\n      dup5\n        /* \"verifier.sol\":17988:17989  7 */\n      0x07\n        /* \"verifier.sol\":17981:17985  2000 */\n      0x07d0\n        /* \"verifier.sol\":17974:17979  gas() */\n      gas\n        /* \"verifier.sol\":17970:17986  sub(gas(), 2000) */\n      sub\n        /* \"verifier.sol\":17959:18012  staticcall(sub(gas(), 2000), 7, input, 0x80, r, 0x60) */\n      staticcall\n        /* \"verifier.sol\":17948:18012  success := staticcall(sub(gas(), 2000), 7, input, 0x80, r, 0x60) */\n      swap1\n      pop\n        /* \"verifier.sol\":18089:18096  success */\n      dup1\n        /* \"verifier.sol\":18102:18103  0 */\n      0x00\n        /* \"verifier.sol\":18097:18117  case 0 { invalid() } */\n      dup2\n      sub\n        /* \"verifier.sol\":18082:18117  switch success case 0 { invalid() } */\n      tag_89\n        /* \"verifier.sol\":18097:18117  case 0 { invalid() } */\n      jumpi\n        /* \"verifier.sol\":18106:18115  invalid() */\n      invalid\n        /* \"verifier.sol\":18082:18117  switch success case 0 { invalid() } */\n    tag_89:\n      pop\n        /* \"verifier.sol\":18145:18152  success */\n      dup1\n        /* \"verifier.sol\":18136:18153  require (success) */\n      tag_91\n      jumpi\n      0x00\n      dup1\n      revert\n    tag_91:\n        /* \"verifier.sol\":17793:18160  {... */\n      pop\n      pop\n        /* \"verifier.sol\":17706:18160  function scalar_mul(G1Point memory p, uint s) internal view returns (G1Point memory r) {... */\n      swap3\n      swap2\n      pop\n      pop\n      jump\t// out\n        /* \"verifier.sol\":16771:17264  function addition(G1Point memory p1, G1Point memory p2) internal view returns (G1Point memory r) {... */\n    tag_49:\n        /* \"verifier.sol\":16850:16866  G1Point memory r */\n      tag_92\n      tag_74\n      jump\t// in\n    tag_92:\n        /* \"verifier.sol\":16878:16898  uint[4] memory input */\n      tag_94\n      tag_95\n      jump\t// in\n    tag_94:\n        /* \"verifier.sol\":16919:16921  p1 */\n      dup4\n        /* \"verifier.sol\":16919:16923  p1.X */\n      0x00\n      add\n      mload\n        /* \"verifier.sol\":16908:16913  input */\n      dup2\n        /* \"verifier.sol\":16914:16915  0 */\n      0x00\n        /* \"verifier.sol\":16908:16916  input[0] */\n      0x04\n      dup2\n      lt\n      tag_96\n      jumpi\n      tag_97\n      tag_20\n      jump\t// in\n    tag_97:\n    tag_96:\n      0x20\n      mul\n      add\n        /* \"verifier.sol\":16908:16923  input[0] = p1.X */\n      dup2\n      dup2\n      mstore\n      pop\n      pop\n        /* \"verifier.sol\":16944:16946  p1 */\n      dup4\n        /* \"verifier.sol\":16944:16948  p1.Y */\n      0x20\n      add\n      mload\n        /* \"verifier.sol\":16933:16938  input */\n      dup2\n        /* \"verifier.sol\":16939:16940  1 */\n      0x01\n        /* \"verifier.sol\":16933:16941  input[1] */\n      0x04\n      dup2\n      lt\n      tag_98\n      jumpi\n      tag_99\n      tag_20\n      jump\t// in\n    tag_99:\n    tag_98:\n      0x20\n      mul\n      add\n        /* \"verifier.sol\":16933:16948  input[1] = p1.Y */\n      dup2\n      dup2\n      mstore\n      pop\n      pop\n        /* \"verifier.sol\":16969:16971  p2 */\n      dup3\n        /* \"verifier.sol\":16969:16973  p2.X */\n      0x00\n      add\n      mload\n        /* \"verifier.sol\":16958:16963  input */\n      dup2\n        /* \"verifier.sol\":16964:16965  2 */\n      0x02\n        /* \"verifier.sol\":16958:16966  input[2] */\n      0x04\n      dup2\n      lt\n      tag_100\n      jumpi\n      tag_101\n      tag_20\n      jump\t// in\n    tag_101:\n    tag_100:\n      0x20\n      mul\n      add\n        /* \"verifier.sol\":16958:16973  input[2] = p2.X */\n      dup2\n      dup2\n      mstore\n      pop\n      pop\n        /* \"verifier.sol\":16994:16996  p2 */\n      dup3\n        /* \"verifier.sol\":16994:16998  p2.Y */\n      0x20\n      add\n      mload\n        /* \"verifier.sol\":16983:16988  input */\n      dup2\n        /* \"verifier.sol\":16989:16990  3 */\n      0x03\n        /* \"verifier.sol\":16983:16991  input[3] */\n      0x04\n      dup2\n      lt\n      tag_102\n      jumpi\n      tag_103\n      tag_20\n      jump\t// in\n    tag_103:\n    tag_102:\n      0x20\n      mul\n      add\n        /* \"verifier.sol\":16983:16998  input[3] = p2.Y */\n      dup2\n      dup2\n      mstore\n      pop\n      pop\n        /* \"verifier.sol\":17008:17020  bool success */\n      0x00\n        /* \"verifier.sol\":17112:17116  0x60 */\n      0x60\n        /* \"verifier.sol\":17109:17110  r */\n      dup4\n        /* \"verifier.sol\":17103:17107  0xc0 */\n      0xc0\n        /* \"verifier.sol\":17096:17101  input */\n      dup5\n        /* \"verifier.sol\":17093:17094  6 */\n      0x06\n        /* \"verifier.sol\":17086:17090  2000 */\n      0x07d0\n        /* \"verifier.sol\":17079:17084  gas() */\n      gas\n        /* \"verifier.sol\":17075:17091  sub(gas(), 2000) */\n      sub\n        /* \"verifier.sol\":17064:17117  staticcall(sub(gas(), 2000), 6, input, 0xc0, r, 0x60) */\n      staticcall\n        /* \"verifier.sol\":17053:17117  success := staticcall(sub(gas(), 2000), 6, input, 0xc0, r, 0x60) */\n      swap1\n      pop\n        /* \"verifier.sol\":17194:17201  success */\n      dup1\n        /* \"verifier.sol\":17207:17208  0 */\n      0x00\n        /* \"verifier.sol\":17202:17222  case 0 { invalid() } */\n      dup2\n      sub\n        /* \"verifier.sol\":17187:17222  switch success case 0 { invalid() } */\n      tag_104\n        /* \"verifier.sol\":17202:17222  case 0 { invalid() } */\n      jumpi\n        /* \"verifier.sol\":17211:17220  invalid() */\n      invalid\n        /* \"verifier.sol\":17187:17222  switch success case 0 { invalid() } */\n    tag_104:\n      pop\n        /* \"verifier.sol\":17249:17256  success */\n      dup1\n        /* \"verifier.sol\":17241:17257  require(success) */\n      tag_106\n      jumpi\n      0x00\n      dup1\n      revert\n    tag_106:\n        /* \"verifier.sol\":16868:17264  {... */\n      pop\n      pop\n        /* \"verifier.sol\":16771:17264  function addition(G1Point memory p1, G1Point memory p2) internal view returns (G1Point memory r) {... */\n      swap3\n      swap2\n      pop\n      pop\n      jump\t// out\n        /* \"verifier.sol\":16380:16720  function negate(G1Point memory p) pure internal returns (G1Point memory) {... */\n    tag_57:\n        /* \"verifier.sol\":16437:16451  G1Point memory */\n      tag_107\n      tag_74\n      jump\t// in\n    tag_107:\n        /* \"verifier.sol\":16515:16521  uint q */\n      0x00\n        /* \"verifier.sol\":16524:16601  21888242871839275222246405745257275088696311157297823662689037894645226208583 */\n      0x30644e72e131a029b85045b68181585d97816a916871ca8d3c208c16d87cfd47\n        /* \"verifier.sol\":16515:16601  uint q = 21888242871839275222246405745257275088696311157297823662689037894645226208583 */\n      swap1\n      pop\n        /* \"verifier.sol\":16622:16623  0 */\n      0x00\n        /* \"verifier.sol\":16615:16616  p */\n      dup4\n        /* \"verifier.sol\":16615:16618  p.X */\n      0x00\n      add\n      mload\n        /* \"verifier.sol\":16615:16623  p.X == 0 */\n      eq\n        /* \"verifier.sol\":16615:16635  p.X == 0 && p.Y == 0 */\n      dup1\n      iszero\n      tag_109\n      jumpi\n      pop\n        /* \"verifier.sol\":16634:16635  0 */\n      0x00\n        /* \"verifier.sol\":16627:16628  p */\n      dup4\n        /* \"verifier.sol\":16627:16630  p.Y */\n      0x20\n      add\n      mload\n        /* \"verifier.sol\":16627:16635  p.Y == 0 */\n      eq\n        /* \"verifier.sol\":16615:16635  p.X == 0 && p.Y == 0 */\n    tag_109:\n        /* \"verifier.sol\":16611:16669  if (p.X == 0 && p.Y == 0)... */\n      iszero\n      tag_110\n      jumpi\n        /* \"verifier.sol\":16656:16669  G1Point(0, 0) */\n      mload(0x40)\n      dup1\n      0x40\n      add\n      0x40\n      mstore\n      dup1\n        /* \"verifier.sol\":16664:16665  0 */\n      0x00\n        /* \"verifier.sol\":16656:16669  G1Point(0, 0) */\n      dup2\n      mstore\n      0x20\n      add\n        /* \"verifier.sol\":16667:16668  0 */\n      0x00\n        /* \"verifier.sol\":16656:16669  G1Point(0, 0) */\n      dup2\n      mstore\n      pop\n        /* \"verifier.sol\":16649:16669  return G1Point(0, 0) */\n      swap2\n      pop\n      pop\n      jump(tag_108)\n        /* \"verifier.sol\":16611:16669  if (p.X == 0 && p.Y == 0)... */\n    tag_110:\n        /* \"verifier.sol\":16686:16713  G1Point(p.X, q - (p.Y % q)) */\n      mload(0x40)\n      dup1\n      0x40\n      add\n      0x40\n      mstore\n      dup1\n        /* \"verifier.sol\":16694:16695  p */\n      dup5\n        /* \"verifier.sol\":16694:16697  p.X */\n      0x00\n      add\n      mload\n        /* \"verifier.sol\":16686:16713  G1Point(p.X, q - (p.Y % q)) */\n      dup2\n      mstore\n      0x20\n      add\n        /* \"verifier.sol\":16710:16711  q */\n      dup3\n        /* \"verifier.sol\":16704:16705  p */\n      dup6\n        /* \"verifier.sol\":16704:16707  p.Y */\n      0x20\n      add\n      mload\n        /* \"verifier.sol\":16704:16711  p.Y % q */\n      tag_111\n      swap2\n      swap1\n      tag_112\n      jump\t// in\n    tag_111:\n        /* \"verifier.sol\":16699:16700  q */\n      dup4\n        /* \"verifier.sol\":16699:16712  q - (p.Y % q) */\n      tag_113\n      swap2\n      swap1\n      tag_114\n      jump\t// in\n    tag_113:\n        /* \"verifier.sol\":16686:16713  G1Point(p.X, q - (p.Y % q)) */\n      dup2\n      mstore\n      pop\n        /* \"verifier.sol\":16679:16713  return G1Point(p.X, q - (p.Y % q)) */\n      swap2\n      pop\n      pop\n        /* \"verifier.sol\":16380:16720  function negate(G1Point memory p) pure internal returns (G1Point memory) {... */\n    tag_108:\n      swap2\n      swap1\n      pop\n      jump\t// out\n        /* \"verifier.sol\":17317:17549  function addition(G2Point memory p1, G2Point memory p2) internal view returns (G2Point memory r) {... */\n    tag_59:\n        /* \"verifier.sol\":17396:17412  G2Point memory r */\n      tag_115\n      tag_116\n      jump\t// in\n    tag_115:\n        /* \"verifier.sol\":17459:17466  BN256G2 */\n      linkerSymbol(\"07f4b812d12dc90aa85ee049d68ea6545e2e6f11ec1942f2d1f2ebad86ee5337\")\n        /* \"verifier.sol\":17459:17477  BN256G2.ECTwistAdd */\n      0x61a931ec\n        /* \"verifier.sol\":17478:17480  p1 */\n      dup5\n        /* \"verifier.sol\":17478:17482  p1.X */\n      0x00\n      add\n      mload\n        /* \"verifier.sol\":17483:17484  0 */\n      0x00\n        /* \"verifier.sol\":17478:17485  p1.X[0] */\n      0x02\n      dup2\n      lt\n      tag_118\n      jumpi\n      tag_119\n      tag_20\n      jump\t// in\n    tag_119:\n    tag_118:\n      0x20\n      mul\n      add\n      mload\n        /* \"verifier.sol\":17486:17488  p1 */\n      dup6\n        /* \"verifier.sol\":17486:17490  p1.X */\n      0x00\n      add\n      mload\n        /* \"verifier.sol\":17491:17492  1 */\n      0x01\n        /* \"verifier.sol\":17486:17493  p1.X[1] */\n      0x02\n      dup2\n      lt\n      tag_120\n      jumpi\n      tag_121\n      tag_20\n      jump\t// in\n    tag_121:\n    tag_120:\n      0x20\n      mul\n      add\n      mload\n        /* \"verifier.sol\":17494:17496  p1 */\n      dup7\n        /* \"verifier.sol\":17494:17498  p1.Y */\n      0x20\n      add\n      mload\n        /* \"verifier.sol\":17499:17500  0 */\n      0x00\n        /* \"verifier.sol\":17494:17501  p1.Y[0] */\n      0x02\n      dup2\n      lt\n      tag_122\n      jumpi\n      tag_123\n      tag_20\n      jump\t// in\n    tag_123:\n    tag_122:\n      0x20\n      mul\n      add\n      mload\n        /* \"verifier.sol\":17502:17504  p1 */\n      dup8\n        /* \"verifier.sol\":17502:17506  p1.Y */\n      0x20\n      add\n      mload\n        /* \"verifier.sol\":17507:17508  1 */\n      0x01\n        /* \"verifier.sol\":17502:17509  p1.Y[1] */\n      0x02\n      dup2\n      lt\n      tag_124\n      jumpi\n      tag_125\n      tag_20\n      jump\t// in\n    tag_125:\n    tag_124:\n      0x20\n      mul\n      add\n      mload\n        /* \"verifier.sol\":17510:17512  p2 */\n      dup8\n        /* \"verifier.sol\":17510:17514  p2.X */\n      0x00\n      add\n      mload\n        /* \"verifier.sol\":17515:17516  0 */\n      0x00\n        /* \"verifier.sol\":17510:17517  p2.X[0] */\n      0x02\n      dup2\n      lt\n      tag_126\n      jumpi\n      tag_127\n      tag_20\n      jump\t// in\n    tag_127:\n    tag_126:\n      0x20\n      mul\n      add\n      mload\n        /* \"verifier.sol\":17518:17520  p2 */\n      dup9\n        /* \"verifier.sol\":17518:17522  p2.X */\n      0x00\n      add\n      mload\n        /* \"verifier.sol\":17523:17524  1 */\n      0x01\n        /* \"verifier.sol\":17518:17525  p2.X[1] */\n      0x02\n      dup2\n      lt\n      tag_128\n      jumpi\n      tag_129\n      tag_20\n      jump\t// in\n    tag_129:\n    tag_128:\n      0x20\n      mul\n      add\n      mload\n        /* \"verifier.sol\":17526:17528  p2 */\n      dup10\n        /* \"verifier.sol\":17526:17530  p2.Y */\n      0x20\n      add\n      mload\n        /* \"verifier.sol\":17531:17532  0 */\n      0x00\n        /* \"verifier.sol\":17526:17533  p2.Y[0] */\n      0x02\n      dup2\n      lt\n      tag_130\n      jumpi\n      tag_131\n      tag_20\n      jump\t// in\n    tag_131:\n    tag_130:\n      0x20\n      mul\n      add\n      mload\n        /* \"verifier.sol\":17534:17536  p2 */\n      dup11\n        /* \"verifier.sol\":17534:17538  p2.Y */\n      0x20\n      add\n      mload\n        /* \"verifier.sol\":17539:17540  1 */\n      0x01\n        /* \"verifier.sol\":17534:17541  p2.Y[1] */\n      0x02\n      dup2\n      lt\n      tag_132\n      jumpi\n      tag_133\n      tag_20\n      jump\t// in\n    tag_133:\n    tag_132:\n      0x20\n      mul\n      add\n      mload\n        /* \"verifier.sol\":17459:17542  BN256G2.ECTwistAdd(p1.X[0],p1.X[1],p1.Y[0],p1.Y[1],p2.X[0],p2.X[1],p2.Y[0],p2.Y[1]) */\n      mload(0x40)\n      dup10\n      0xffffffff\n      and\n      0xe0\n      shl\n      dup2\n      mstore\n      0x04\n      add\n      tag_134\n      swap9\n      swap8\n      swap7\n      swap6\n      swap5\n      swap4\n      swap3\n      swap2\n      swap1\n      tag_135\n      jump\t// in\n    tag_134:\n      0x80\n      mload(0x40)\n      dup1\n      dup4\n      sub\n      dup2\n      dup7\n      gas\n      delegatecall\n      iszero\n      dup1\n      iszero\n      tag_137\n      jumpi\n      returndatasize\n      0x00\n      dup1\n      returndatacopy\n      revert(0x00, returndatasize)\n    tag_137:\n      pop\n      pop\n      pop\n      pop\n      mload(0x40)\n      returndatasize\n      not(0x1f)\n      0x1f\n      dup3\n      add\n      and\n      dup3\n      add\n      dup1\n      0x40\n      mstore\n      pop\n      dup2\n      add\n      swap1\n      tag_138\n      swap2\n      swap1\n      tag_139\n      jump\t// in\n    tag_138:\n        /* \"verifier.sol\":17425:17426  r */\n      dup5\n        /* \"verifier.sol\":17425:17428  r.X */\n      0x00\n      add\n      mload\n        /* \"verifier.sol\":17429:17430  0 */\n      0x00\n        /* \"verifier.sol\":17425:17431  r.X[0] */\n      0x02\n      dup2\n      lt\n      tag_140\n      jumpi\n      tag_141\n      tag_20\n      jump\t// in\n    tag_141:\n    tag_140:\n      0x20\n      mul\n      add\n        /* \"verifier.sol\":17433:17434  r */\n      dup6\n        /* \"verifier.sol\":17433:17436  r.X */\n      0x00\n      add\n      mload\n        /* \"verifier.sol\":17437:17438  1 */\n      0x01\n        /* \"verifier.sol\":17433:17439  r.X[1] */\n      0x02\n      dup2\n      lt\n      tag_142\n      jumpi\n      tag_143\n      tag_20\n      jump\t// in\n    tag_143:\n    tag_142:\n      0x20\n      mul\n      add\n        /* \"verifier.sol\":17441:17442  r */\n      dup7\n        /* \"verifier.sol\":17441:17444  r.Y */\n      0x20\n      add\n      mload\n        /* \"verifier.sol\":17445:17446  0 */\n      0x00\n        /* \"verifier.sol\":17441:17447  r.Y[0] */\n      0x02\n      dup2\n      lt\n      tag_144\n      jumpi\n      tag_145\n      tag_20\n      jump\t// in\n    tag_145:\n    tag_144:\n      0x20\n      mul\n      add\n        /* \"verifier.sol\":17449:17450  r */\n      dup8\n        /* \"verifier.sol\":17449:17452  r.Y */\n      0x20\n      add\n      mload\n        /* \"verifier.sol\":17453:17454  1 */\n      0x01\n        /* \"verifier.sol\":17449:17455  r.Y[1] */\n      0x02\n      dup2\n      lt\n      tag_146\n      jumpi\n      tag_147\n      tag_20\n      jump\t// in\n    tag_147:\n    tag_146:\n      0x20\n      mul\n      add\n        /* \"verifier.sol\":17424:17542  (r.X[0], r.X[1], r.Y[0], r.Y[1]) = BN256G2.ECTwistAdd(p1.X[0],p1.X[1],p1.Y[0],p1.Y[1],p2.X[0],p2.X[1],p2.Y[0],p2.Y[1]) */\n      dup5\n      dup2\n      mstore\n      pop\n      dup5\n      dup2\n      mstore\n      pop\n      dup5\n      dup2\n      mstore\n      pop\n      dup5\n      dup2\n      mstore\n      pop\n      pop\n      pop\n      pop\n      pop\n        /* \"verifier.sol\":17317:17549  function addition(G2Point memory p1, G2Point memory p2) internal view returns (G2Point memory r) {... */\n      swap3\n      swap2\n      pop\n      pop\n      jump\t// out\n        /* \"verifier.sol\":20302:20854  function pairingProd4(... */\n    tag_60:\n        /* \"verifier.sol\":20553:20557  bool */\n      0x00\n        /* \"verifier.sol\":20569:20588  G1Point[] memory p1 */\n      dup1\n        /* \"verifier.sol\":20605:20606  4 */\n      0x04\n        /* \"verifier.sol\":20591:20607  new G1Point[](4) */\n      0xffffffffffffffff\n      dup2\n      gt\n      iszero\n      tag_149\n      jumpi\n      tag_150\n      tag_13\n      jump\t// in\n    tag_150:\n    tag_149:\n      mload(0x40)\n      swap1\n      dup1\n      dup3\n      mstore\n      dup1\n      0x20\n      mul\n      0x20\n      add\n      dup3\n      add\n      0x40\n      mstore\n      dup1\n      iszero\n      tag_151\n      jumpi\n      dup2\n      0x20\n      add\n    tag_152:\n      tag_153\n      tag_74\n      jump\t// in\n    tag_153:\n      dup2\n      mstore\n      0x20\n      add\n      swap1\n      0x01\n      swap1\n      sub\n      swap1\n      dup2\n      tag_152\n      jumpi\n      swap1\n      pop\n    tag_151:\n      pop\n        /* \"verifier.sol\":20569:20607  G1Point[] memory p1 = new G1Point[](4) */\n      swap1\n      pop\n        /* \"verifier.sol\":20617:20636  G2Point[] memory p2 */\n      0x00\n        /* \"verifier.sol\":20653:20654  4 */\n      0x04\n        /* \"verifier.sol\":20639:20655  new G2Point[](4) */\n      0xffffffffffffffff\n      dup2\n      gt\n      iszero\n      tag_154\n      jumpi\n      tag_155\n      tag_13\n      jump\t// in\n    tag_155:\n    tag_154:\n      mload(0x40)\n      swap1\n      dup1\n      dup3\n      mstore\n      dup1\n      0x20\n      mul\n      0x20\n      add\n      dup3\n      add\n      0x40\n      mstore\n      dup1\n      iszero\n      tag_156\n      jumpi\n      dup2\n      0x20\n      add\n    tag_157:\n      tag_158\n      tag_116\n      jump\t// in\n    tag_158:\n      dup2\n      mstore\n      0x20\n      add\n      swap1\n      0x01\n      swap1\n      sub\n      swap1\n      dup2\n      tag_157\n      jumpi\n      swap1\n      pop\n    tag_156:\n      pop\n        /* \"verifier.sol\":20617:20655  G2Point[] memory p2 = new G2Point[](4) */\n      swap1\n      pop\n        /* \"verifier.sol\":20673:20675  a1 */\n      dup11\n        /* \"verifier.sol\":20665:20667  p1 */\n      dup3\n        /* \"verifier.sol\":20668:20669  0 */\n      0x00\n        /* \"verifier.sol\":20665:20670  p1[0] */\n      dup2\n      mload\n      dup2\n      lt\n      tag_159\n      jumpi\n      tag_160\n      tag_20\n      jump\t// in\n    tag_160:\n    tag_159:\n      0x20\n      mul\n      0x20\n      add\n      add\n        /* \"verifier.sol\":20665:20675  p1[0] = a1 */\n      dup2\n      swap1\n      mstore\n      pop\n        /* \"verifier.sol\":20693:20695  b1 */\n      dup9\n        /* \"verifier.sol\":20685:20687  p1 */\n      dup3\n        /* \"verifier.sol\":20688:20689  1 */\n      0x01\n        /* \"verifier.sol\":20685:20690  p1[1] */\n      dup2\n      mload\n      dup2\n      lt\n      tag_161\n      jumpi\n      tag_162\n      tag_20\n      jump\t// in\n    tag_162:\n    tag_161:\n      0x20\n      mul\n      0x20\n      add\n      add\n        /* \"verifier.sol\":20685:20695  p1[1] = b1 */\n      dup2\n      swap1\n      mstore\n      pop\n        /* \"verifier.sol\":20713:20715  c1 */\n      dup7\n        /* \"verifier.sol\":20705:20707  p1 */\n      dup3\n        /* \"verifier.sol\":20708:20709  2 */\n      0x02\n        /* \"verifier.sol\":20705:20710  p1[2] */\n      dup2\n      mload\n      dup2\n      lt\n      tag_163\n      jumpi\n      tag_164\n      tag_20\n      jump\t// in\n    tag_164:\n    tag_163:\n      0x20\n      mul\n      0x20\n      add\n      add\n        /* \"verifier.sol\":20705:20715  p1[2] = c1 */\n      dup2\n      swap1\n      mstore\n      pop\n        /* \"verifier.sol\":20733:20735  d1 */\n      dup5\n        /* \"verifier.sol\":20725:20727  p1 */\n      dup3\n        /* \"verifier.sol\":20728:20729  3 */\n      0x03\n        /* \"verifier.sol\":20725:20730  p1[3] */\n      dup2\n      mload\n      dup2\n      lt\n      tag_165\n      jumpi\n      tag_166\n      tag_20\n      jump\t// in\n    tag_166:\n    tag_165:\n      0x20\n      mul\n      0x20\n      add\n      add\n        /* \"verifier.sol\":20725:20735  p1[3] = d1 */\n      dup2\n      swap1\n      mstore\n      pop\n        /* \"verifier.sol\":20753:20755  a2 */\n      dup10\n        /* \"verifier.sol\":20745:20747  p2 */\n      dup2\n        /* \"verifier.sol\":20748:20749  0 */\n      0x00\n        /* \"verifier.sol\":20745:20750  p2[0] */\n      dup2\n      mload\n      dup2\n      lt\n      tag_167\n      jumpi\n      tag_168\n      tag_20\n      jump\t// in\n    tag_168:\n    tag_167:\n      0x20\n      mul\n      0x20\n      add\n      add\n        /* \"verifier.sol\":20745:20755  p2[0] = a2 */\n      dup2\n      swap1\n      mstore\n      pop\n        /* \"verifier.sol\":20773:20775  b2 */\n      dup8\n        /* \"verifier.sol\":20765:20767  p2 */\n      dup2\n        /* \"verifier.sol\":20768:20769  1 */\n      0x01\n        /* \"verifier.sol\":20765:20770  p2[1] */\n      dup2\n      mload\n      dup2\n      lt\n      tag_169\n      jumpi\n      tag_170\n      tag_20\n      jump\t// in\n    tag_170:\n    tag_169:\n      0x20\n      mul\n      0x20\n      add\n      add\n        /* \"verifier.sol\":20765:20775  p2[1] = b2 */\n      dup2\n      swap1\n      mstore\n      pop\n        /* \"verifier.sol\":20793:20795  c2 */\n      dup6\n        /* \"verifier.sol\":20785:20787  p2 */\n      dup2\n        /* \"verifier.sol\":20788:20789  2 */\n      0x02\n        /* \"verifier.sol\":20785:20790  p2[2] */\n      dup2\n      mload\n      dup2\n      lt\n      tag_171\n      jumpi\n      tag_172\n      tag_20\n      jump\t// in\n    tag_172:\n    tag_171:\n      0x20\n      mul\n      0x20\n      add\n      add\n        /* \"verifier.sol\":20785:20795  p2[2] = c2 */\n      dup2\n      swap1\n      mstore\n      pop\n        /* \"verifier.sol\":20813:20815  d2 */\n      dup4\n        /* \"verifier.sol\":20805:20807  p2 */\n      dup2\n        /* \"verifier.sol\":20808:20809  3 */\n      0x03\n        /* \"verifier.sol\":20805:20810  p2[3] */\n      dup2\n      mload\n      dup2\n      lt\n      tag_173\n      jumpi\n      tag_174\n      tag_20\n      jump\t// in\n    tag_174:\n    tag_173:\n      0x20\n      mul\n      0x20\n      add\n      add\n        /* \"verifier.sol\":20805:20815  p2[3] = d2 */\n      dup2\n      swap1\n      mstore\n      pop\n        /* \"verifier.sol\":20832:20847  pairing(p1, p2) */\n      tag_175\n        /* \"verifier.sol\":20840:20842  p1 */\n      dup3\n        /* \"verifier.sol\":20844:20846  p2 */\n      dup3\n        /* \"verifier.sol\":20832:20839  pairing */\n      tag_176\n        /* \"verifier.sol\":20832:20847  pairing(p1, p2) */\n      jump\t// in\n    tag_175:\n        /* \"verifier.sol\":20825:20847  return pairing(p1, p2) */\n      swap3\n      pop\n      pop\n      pop\n        /* \"verifier.sol\":20302:20854  function pairingProd4(... */\n      swap9\n      swap8\n      pop\n      pop\n      pop\n      pop\n      pop\n      pop\n      pop\n      pop\n      jump\t// out\n        /* \"verifier.sol\":19361:19703  function pairingProd2(G1Point memory a1, G2Point memory a2, G1Point memory b1, G2Point memory b2) internal view returns (bool) {... */\n    tag_64:\n        /* \"verifier.sol\":19482:19486  bool */\n      0x00\n        /* \"verifier.sol\":19498:19517  G1Point[] memory p1 */\n      dup1\n        /* \"verifier.sol\":19534:19535  2 */\n      0x02\n        /* \"verifier.sol\":19520:19536  new G1Point[](2) */\n      0xffffffffffffffff\n      dup2\n      gt\n      iszero\n      tag_178\n      jumpi\n      tag_179\n      tag_13\n      jump\t// in\n    tag_179:\n    tag_178:\n      mload(0x40)\n      swap1\n      dup1\n      dup3\n      mstore\n      dup1\n      0x20\n      mul\n      0x20\n      add\n      dup3\n      add\n      0x40\n      mstore\n      dup1\n      iszero\n      tag_180\n      jumpi\n      dup2\n      0x20\n      add\n    tag_181:\n      tag_182\n      tag_74\n      jump\t// in\n    tag_182:\n      dup2\n      mstore\n      0x20\n      add\n      swap1\n      0x01\n      swap1\n      sub\n      swap1\n      dup2\n      tag_181\n      jumpi\n      swap1\n      pop\n    tag_180:\n      pop\n        /* \"verifier.sol\":19498:19536  G1Point[] memory p1 = new G1Point[](2) */\n      swap1\n      pop\n        /* \"verifier.sol\":19546:19565  G2Point[] memory p2 */\n      0x00\n        /* \"verifier.sol\":19582:19583  2 */\n      0x02\n        /* \"verifier.sol\":19568:19584  new G2Point[](2) */\n      0xffffffffffffffff\n      dup2\n      gt\n      iszero\n      tag_183\n      jumpi\n      tag_184\n      tag_13\n      jump\t// in\n    tag_184:\n    tag_183:\n      mload(0x40)\n      swap1\n      dup1\n      dup3\n      mstore\n      dup1\n      0x20\n      mul\n      0x20\n      add\n      dup3\n      add\n      0x40\n      mstore\n      dup1\n      iszero\n      tag_185\n      jumpi\n      dup2\n      0x20\n      add\n    tag_186:\n      tag_187\n      tag_116\n      jump\t// in\n    tag_187:\n      dup2\n      mstore\n      0x20\n      add\n      swap1\n      0x01\n      swap1\n      sub\n      swap1\n      dup2\n      tag_186\n      jumpi\n      swap1\n      pop\n    tag_185:\n      pop\n        /* \"verifier.sol\":19546:19584  G2Point[] memory p2 = new G2Point[](2) */\n      swap1\n      pop\n        /* \"verifier.sol\":19602:19604  a1 */\n      dup7\n        /* \"verifier.sol\":19594:19596  p1 */\n      dup3\n        /* \"verifier.sol\":19597:19598  0 */\n      0x00\n        /* \"verifier.sol\":19594:19599  p1[0] */\n      dup2\n      mload\n      dup2\n      lt\n      tag_188\n      jumpi\n      tag_189\n      tag_20\n      jump\t// in\n    tag_189:\n    tag_188:\n      0x20\n      mul\n      0x20\n      add\n      add\n        /* \"verifier.sol\":19594:19604  p1[0] = a1 */\n      dup2\n      swap1\n      mstore\n      pop\n        /* \"verifier.sol\":19622:19624  b1 */\n      dup5\n        /* \"verifier.sol\":19614:19616  p1 */\n      dup3\n        /* \"verifier.sol\":19617:19618  1 */\n      0x01\n        /* \"verifier.sol\":19614:19619  p1[1] */\n      dup2\n      mload\n      dup2\n      lt\n      tag_190\n      jumpi\n      tag_191\n      tag_20\n      jump\t// in\n    tag_191:\n    tag_190:\n      0x20\n      mul\n      0x20\n      add\n      add\n        /* \"verifier.sol\":19614:19624  p1[1] = b1 */\n      dup2\n      swap1\n      mstore\n      pop\n        /* \"verifier.sol\":19642:19644  a2 */\n      dup6\n        /* \"verifier.sol\":19634:19636  p2 */\n      dup2\n        /* \"verifier.sol\":19637:19638  0 */\n      0x00\n        /* \"verifier.sol\":19634:19639  p2[0] */\n      dup2\n      mload\n      dup2\n      lt\n      tag_192\n      jumpi\n      tag_193\n      tag_20\n      jump\t// in\n    tag_193:\n    tag_192:\n      0x20\n      mul\n      0x20\n      add\n      add\n        /* \"verifier.sol\":19634:19644  p2[0] = a2 */\n      dup2\n      swap1\n      mstore\n      pop\n        /* \"verifier.sol\":19662:19664  b2 */\n      dup4\n        /* \"verifier.sol\":19654:19656  p2 */\n      dup2\n        /* \"verifier.sol\":19657:19658  1 */\n      0x01\n        /* \"verifier.sol\":19654:19659  p2[1] */\n      dup2\n      mload\n      dup2\n      lt\n      tag_194\n      jumpi\n      tag_195\n      tag_20\n      jump\t// in\n    tag_195:\n    tag_194:\n      0x20\n      mul\n      0x20\n      add\n      add\n        /* \"verifier.sol\":19654:19664  p2[1] = b2 */\n      dup2\n      swap1\n      mstore\n      pop\n        /* \"verifier.sol\":19681:19696  pairing(p1, p2) */\n      tag_196\n        /* \"verifier.sol\":19689:19691  p1 */\n      dup3\n        /* \"verifier.sol\":19693:19695  p2 */\n      dup3\n        /* \"verifier.sol\":19681:19688  pairing */\n      tag_176\n        /* \"verifier.sol\":19681:19696  pairing(p1, p2) */\n      jump\t// in\n    tag_196:\n        /* \"verifier.sol\":19674:19696  return pairing(p1, p2) */\n      swap3\n      pop\n      pop\n      pop\n        /* \"verifier.sol\":19361:19703  function pairingProd2(G1Point memory a1, G2Point memory a2, G1Point memory b1, G2Point memory b2) internal view returns (bool) {... */\n      swap5\n      swap4\n      pop\n      pop\n      pop\n      pop\n      jump\t// out\n        /* \"verifier.sol\":18371:19294  function pairing(G1Point[] memory p1, G2Point[] memory p2) internal view returns (bool) {... */\n    tag_176:\n        /* \"verifier.sol\":18453:18457  bool */\n      0x00\n        /* \"verifier.sol\":18490:18492  p2 */\n      dup2\n        /* \"verifier.sol\":18490:18499  p2.length */\n      mload\n        /* \"verifier.sol\":18477:18479  p1 */\n      dup4\n        /* \"verifier.sol\":18477:18486  p1.length */\n      mload\n        /* \"verifier.sol\":18477:18499  p1.length == p2.length */\n      eq\n        /* \"verifier.sol\":18469:18500  require(p1.length == p2.length) */\n      tag_198\n      jumpi\n      0x00\n      dup1\n      revert\n    tag_198:\n        /* \"verifier.sol\":18510:18523  uint elements */\n      0x00\n        /* \"verifier.sol\":18526:18528  p1 */\n      dup4\n        /* \"verifier.sol\":18526:18535  p1.length */\n      mload\n        /* \"verifier.sol\":18510:18535  uint elements = p1.length */\n      swap1\n      pop\n        /* \"verifier.sol\":18545:18559  uint inputSize */\n      0x00\n        /* \"verifier.sol\":18573:18574  6 */\n      0x06\n        /* \"verifier.sol\":18562:18570  elements */\n      dup3\n        /* \"verifier.sol\":18562:18574  elements * 6 */\n      tag_199\n      swap2\n      swap1\n      tag_200\n      jump\t// in\n    tag_199:\n        /* \"verifier.sol\":18545:18574  uint inputSize = elements * 6 */\n      swap1\n      pop\n        /* \"verifier.sol\":18584:18603  uint[] memory input */\n      0x00\n        /* \"verifier.sol\":18617:18626  inputSize */\n      dup2\n        /* \"verifier.sol\":18606:18627  new uint[](inputSize) */\n      0xffffffffffffffff\n      dup2\n      gt\n      iszero\n      tag_201\n      jumpi\n      tag_202\n      tag_13\n      jump\t// in\n    tag_202:\n    tag_201:\n      mload(0x40)\n      swap1\n      dup1\n      dup3\n      mstore\n      dup1\n      0x20\n      mul\n      0x20\n      add\n      dup3\n      add\n      0x40\n      mstore\n      dup1\n      iszero\n      tag_203\n      jumpi\n      dup2\n      0x20\n      add\n      0x20\n      dup3\n      mul\n      dup1\n      calldatasize\n      dup4\n      calldatacopy\n      dup1\n      dup3\n      add\n      swap2\n      pop\n      pop\n      swap1\n      pop\n    tag_203:\n      pop\n        /* \"verifier.sol\":18584:18627  uint[] memory input = new uint[](inputSize) */\n      swap1\n      pop\n        /* \"verifier.sol\":18642:18648  uint i */\n      0x00\n        /* \"verifier.sol\":18637:18944  for (uint i = 0; i < elements; i++)... */\n    tag_204:\n        /* \"verifier.sol\":18658:18666  elements */\n      dup4\n        /* \"verifier.sol\":18654:18655  i */\n      dup2\n        /* \"verifier.sol\":18654:18666  i < elements */\n      lt\n        /* \"verifier.sol\":18637:18944  for (uint i = 0; i < elements; i++)... */\n      iszero\n      tag_205\n      jumpi\n        /* \"verifier.sol\":18714:18716  p1 */\n      dup7\n        /* \"verifier.sol\":18717:18718  i */\n      dup2\n        /* \"verifier.sol\":18714:18719  p1[i] */\n      dup2\n      mload\n      dup2\n      lt\n      tag_207\n      jumpi\n      tag_208\n      tag_20\n      jump\t// in\n    tag_208:\n    tag_207:\n      0x20\n      mul\n      0x20\n      add\n      add\n      mload\n        /* \"verifier.sol\":18714:18721  p1[i].X */\n      0x00\n      add\n      mload\n        /* \"verifier.sol\":18695:18700  input */\n      dup3\n        /* \"verifier.sol\":18709:18710  0 */\n      0x00\n        /* \"verifier.sol\":18705:18706  6 */\n      0x06\n        /* \"verifier.sol\":18701:18702  i */\n      dup5\n        /* \"verifier.sol\":18701:18706  i * 6 */\n      tag_209\n      swap2\n      swap1\n      tag_200\n      jump\t// in\n    tag_209:\n        /* \"verifier.sol\":18701:18710  i * 6 + 0 */\n      tag_210\n      swap2\n      swap1\n      tag_33\n      jump\t// in\n    tag_210:\n        /* \"verifier.sol\":18695:18711  input[i * 6 + 0] */\n      dup2\n      mload\n      dup2\n      lt\n      tag_211\n      jumpi\n      tag_212\n      tag_20\n      jump\t// in\n    tag_212:\n    tag_211:\n      0x20\n      mul\n      0x20\n      add\n      add\n        /* \"verifier.sol\":18695:18721  input[i * 6 + 0] = p1[i].X */\n      dup2\n      dup2\n      mstore\n      pop\n      pop\n        /* \"verifier.sol\":18754:18756  p1 */\n      dup7\n        /* \"verifier.sol\":18757:18758  i */\n      dup2\n        /* \"verifier.sol\":18754:18759  p1[i] */\n      dup2\n      mload\n      dup2\n      lt\n      tag_213\n      jumpi\n      tag_214\n      tag_20\n      jump\t// in\n    tag_214:\n    tag_213:\n      0x20\n      mul\n      0x20\n      add\n      add\n      mload\n        /* \"verifier.sol\":18754:18761  p1[i].Y */\n      0x20\n      add\n      mload\n        /* \"verifier.sol\":18735:18740  input */\n      dup3\n        /* \"verifier.sol\":18749:18750  1 */\n      0x01\n        /* \"verifier.sol\":18745:18746  6 */\n      0x06\n        /* \"verifier.sol\":18741:18742  i */\n      dup5\n        /* \"verifier.sol\":18741:18746  i * 6 */\n      tag_215\n      swap2\n      swap1\n      tag_200\n      jump\t// in\n    tag_215:\n        /* \"verifier.sol\":18741:18750  i * 6 + 1 */\n      tag_216\n      swap2\n      swap1\n      tag_33\n      jump\t// in\n    tag_216:\n        /* \"verifier.sol\":18735:18751  input[i * 6 + 1] */\n      dup2\n      mload\n      dup2\n      lt\n      tag_217\n      jumpi\n      tag_218\n      tag_20\n      jump\t// in\n    tag_218:\n    tag_217:\n      0x20\n      mul\n      0x20\n      add\n      add\n        /* \"verifier.sol\":18735:18761  input[i * 6 + 1] = p1[i].Y */\n      dup2\n      dup2\n      mstore\n      pop\n      pop\n        /* \"verifier.sol\":18794:18796  p2 */\n      dup6\n        /* \"verifier.sol\":18797:18798  i */\n      dup2\n        /* \"verifier.sol\":18794:18799  p2[i] */\n      dup2\n      mload\n      dup2\n      lt\n      tag_219\n      jumpi\n      tag_220\n      tag_20\n      jump\t// in\n    tag_220:\n    tag_219:\n      0x20\n      mul\n      0x20\n      add\n      add\n      mload\n        /* \"verifier.sol\":18794:18801  p2[i].X */\n      0x00\n      add\n      mload\n        /* \"verifier.sol\":18802:18803  1 */\n      0x01\n        /* \"verifier.sol\":18794:18804  p2[i].X[1] */\n      0x02\n      dup2\n      lt\n      tag_221\n      jumpi\n      tag_222\n      tag_20\n      jump\t// in\n    tag_222:\n    tag_221:\n      0x20\n      mul\n      add\n      mload\n        /* \"verifier.sol\":18775:18780  input */\n      dup3\n        /* \"verifier.sol\":18789:18790  2 */\n      0x02\n        /* \"verifier.sol\":18785:18786  6 */\n      0x06\n        /* \"verifier.sol\":18781:18782  i */\n      dup5\n        /* \"verifier.sol\":18781:18786  i * 6 */\n      tag_223\n      swap2\n      swap1\n      tag_200\n      jump\t// in\n    tag_223:\n        /* \"verifier.sol\":18781:18790  i * 6 + 2 */\n      tag_224\n      swap2\n      swap1\n      tag_33\n      jump\t// in\n    tag_224:\n        /* \"verifier.sol\":18775:18791  input[i * 6 + 2] */\n      dup2\n      mload\n      dup2\n      lt\n      tag_225\n      jumpi\n      tag_226\n      tag_20\n      jump\t// in\n    tag_226:\n    tag_225:\n      0x20\n      mul\n      0x20\n      add\n      add\n        /* \"verifier.sol\":18775:18804  input[i * 6 + 2] = p2[i].X[1] */\n      dup2\n      dup2\n      mstore\n      pop\n      pop\n        /* \"verifier.sol\":18837:18839  p2 */\n      dup6\n        /* \"verifier.sol\":18840:18841  i */\n      dup2\n        /* \"verifier.sol\":18837:18842  p2[i] */\n      dup2\n      mload\n      dup2\n      lt\n      tag_227\n      jumpi\n      tag_228\n      tag_20\n      jump\t// in\n    tag_228:\n    tag_227:\n      0x20\n      mul\n      0x20\n      add\n      add\n      mload\n        /* \"verifier.sol\":18837:18844  p2[i].X */\n      0x00\n      add\n      mload\n        /* \"verifier.sol\":18845:18846  0 */\n      0x00\n        /* \"verifier.sol\":18837:18847  p2[i].X[0] */\n      0x02\n      dup2\n      lt\n      tag_229\n      jumpi\n      tag_230\n      tag_20\n      jump\t// in\n    tag_230:\n    tag_229:\n      0x20\n      mul\n      add\n      mload\n        /* \"verifier.sol\":18818:18823  input */\n      dup3\n        /* \"verifier.sol\":18832:18833  3 */\n      0x03\n        /* \"verifier.sol\":18828:18829  6 */\n      0x06\n        /* \"verifier.sol\":18824:18825  i */\n      dup5\n        /* \"verifier.sol\":18824:18829  i * 6 */\n      tag_231\n      swap2\n      swap1\n      tag_200\n      jump\t// in\n    tag_231:\n        /* \"verifier.sol\":18824:18833  i * 6 + 3 */\n      tag_232\n      swap2\n      swap1\n      tag_33\n      jump\t// in\n    tag_232:\n        /* \"verifier.sol\":18818:18834  input[i * 6 + 3] */\n      dup2\n      mload\n      dup2\n      lt\n      tag_233\n      jumpi\n      tag_234\n      tag_20\n      jump\t// in\n    tag_234:\n    tag_233:\n      0x20\n      mul\n      0x20\n      add\n      add\n        /* \"verifier.sol\":18818:18847  input[i * 6 + 3] = p2[i].X[0] */\n      dup2\n      dup2\n      mstore\n      pop\n      pop\n        /* \"verifier.sol\":18880:18882  p2 */\n      dup6\n        /* \"verifier.sol\":18883:18884  i */\n      dup2\n        /* \"verifier.sol\":18880:18885  p2[i] */\n      dup2\n      mload\n      dup2\n      lt\n      tag_235\n      jumpi\n      tag_236\n      tag_20\n      jump\t// in\n    tag_236:\n    tag_235:\n      0x20\n      mul\n      0x20\n      add\n      add\n      mload\n        /* \"verifier.sol\":18880:18887  p2[i].Y */\n      0x20\n      add\n      mload\n        /* \"verifier.sol\":18888:18889  1 */\n      0x01\n        /* \"verifier.sol\":18880:18890  p2[i].Y[1] */\n      0x02\n      dup2\n      lt\n      tag_237\n      jumpi\n      tag_238\n      tag_20\n      jump\t// in\n    tag_238:\n    tag_237:\n      0x20\n      mul\n      add\n      mload\n        /* \"verifier.sol\":18861:18866  input */\n      dup3\n        /* \"verifier.sol\":18875:18876  4 */\n      0x04\n        /* \"verifier.sol\":18871:18872  6 */\n      0x06\n        /* \"verifier.sol\":18867:18868  i */\n      dup5\n        /* \"verifier.sol\":18867:18872  i * 6 */\n      tag_239\n      swap2\n      swap1\n      tag_200\n      jump\t// in\n    tag_239:\n        /* \"verifier.sol\":18867:18876  i * 6 + 4 */\n      tag_240\n      swap2\n      swap1\n      tag_33\n      jump\t// in\n    tag_240:\n        /* \"verifier.sol\":18861:18877  input[i * 6 + 4] */\n      dup2\n      mload\n      dup2\n      lt\n      tag_241\n      jumpi\n      tag_242\n      tag_20\n      jump\t// in\n    tag_242:\n    tag_241:\n      0x20\n      mul\n      0x20\n      add\n      add\n        /* \"verifier.sol\":18861:18890  input[i * 6 + 4] = p2[i].Y[1] */\n      dup2\n      dup2\n      mstore\n      pop\n      pop\n        /* \"verifier.sol\":18923:18925  p2 */\n      dup6\n        /* \"verifier.sol\":18926:18927  i */\n      dup2\n        /* \"verifier.sol\":18923:18928  p2[i] */\n      dup2\n      mload\n      dup2\n      lt\n      tag_243\n      jumpi\n      tag_244\n      tag_20\n      jump\t// in\n    tag_244:\n    tag_243:\n      0x20\n      mul\n      0x20\n      add\n      add\n      mload\n        /* \"verifier.sol\":18923:18930  p2[i].Y */\n      0x20\n      add\n      mload\n        /* \"verifier.sol\":18931:18932  0 */\n      0x00\n        /* \"verifier.sol\":18923:18933  p2[i].Y[0] */\n      0x02\n      dup2\n      lt\n      tag_245\n      jumpi\n      tag_246\n      tag_20\n      jump\t// in\n    tag_246:\n    tag_245:\n      0x20\n      mul\n      add\n      mload\n        /* \"verifier.sol\":18904:18909  input */\n      dup3\n        /* \"verifier.sol\":18918:18919  5 */\n      0x05\n        /* \"verifier.sol\":18914:18915  6 */\n      0x06\n        /* \"verifier.sol\":18910:18911  i */\n      dup5\n        /* \"verifier.sol\":18910:18915  i * 6 */\n      tag_247\n      swap2\n      swap1\n      tag_200\n      jump\t// in\n    tag_247:\n        /* \"verifier.sol\":18910:18919  i * 6 + 5 */\n      tag_248\n      swap2\n      swap1\n      tag_33\n      jump\t// in\n    tag_248:\n        /* \"verifier.sol\":18904:18920  input[i * 6 + 5] */\n      dup2\n      mload\n      dup2\n      lt\n      tag_249\n      jumpi\n      tag_250\n      tag_20\n      jump\t// in\n    tag_250:\n    tag_249:\n      0x20\n      mul\n      0x20\n      add\n      add\n        /* \"verifier.sol\":18904:18933  input[i * 6 + 5] = p2[i].Y[0] */\n      dup2\n      dup2\n      mstore\n      pop\n      pop\n        /* \"verifier.sol\":18668:18671  i++ */\n      dup1\n      dup1\n      tag_251\n      swap1\n      tag_24\n      jump\t// in\n    tag_251:\n      swap2\n      pop\n      pop\n        /* \"verifier.sol\":18637:18944  for (uint i = 0; i < elements; i++)... */\n      jump(tag_204)\n    tag_205:\n      pop\n        /* \"verifier.sol\":18953:18971  uint[1] memory out */\n      tag_252\n      tag_253\n      jump\t// in\n    tag_252:\n        /* \"verifier.sol\":18981:18993  bool success */\n      0x00\n        /* \"verifier.sol\":19114:19118  0x20 */\n      0x20\n        /* \"verifier.sol\":19109:19112  out */\n      dup3\n        /* \"verifier.sol\":19102:19106  0x20 */\n      0x20\n        /* \"verifier.sol\":19091:19100  inputSize */\n      dup7\n        /* \"verifier.sol\":19087:19107  mul(inputSize, 0x20) */\n      mul\n        /* \"verifier.sol\":19080:19084  0x20 */\n      0x20\n        /* \"verifier.sol\":19073:19078  input */\n      dup7\n        /* \"verifier.sol\":19069:19085  add(input, 0x20) */\n      add\n        /* \"verifier.sol\":19066:19067  8 */\n      0x08\n        /* \"verifier.sol\":19059:19063  2000 */\n      0x07d0\n        /* \"verifier.sol\":19052:19057  gas() */\n      gas\n        /* \"verifier.sol\":19048:19064  sub(gas(), 2000) */\n      sub\n        /* \"verifier.sol\":19037:19119  staticcall(sub(gas(), 2000), 8, add(input, 0x20), mul(inputSize, 0x20), out, 0x20) */\n      staticcall\n        /* \"verifier.sol\":19026:19119  success := staticcall(sub(gas(), 2000), 8, add(input, 0x20), mul(inputSize, 0x20), out, 0x20) */\n      swap1\n      pop\n        /* \"verifier.sol\":19196:19203  success */\n      dup1\n        /* \"verifier.sol\":19209:19210  0 */\n      0x00\n        /* \"verifier.sol\":19204:19224  case 0 { invalid() } */\n      dup2\n      sub\n        /* \"verifier.sol\":19189:19224  switch success case 0 { invalid() } */\n      tag_254\n        /* \"verifier.sol\":19204:19224  case 0 { invalid() } */\n      jumpi\n        /* \"verifier.sol\":19213:19222  invalid() */\n      invalid\n        /* \"verifier.sol\":19189:19224  switch success case 0 { invalid() } */\n    tag_254:\n      pop\n        /* \"verifier.sol\":19251:19258  success */\n      dup1\n        /* \"verifier.sol\":19243:19259  require(success) */\n      tag_256\n      jumpi\n      0x00\n      dup1\n      revert\n    tag_256:\n        /* \"verifier.sol\":19286:19287  0 */\n      0x00\n        /* \"verifier.sol\":19276:19279  out */\n      dup3\n        /* \"verifier.sol\":19280:19281  0 */\n      0x00\n        /* \"verifier.sol\":19276:19282  out[0] */\n      0x01\n      dup2\n      lt\n      tag_257\n      jumpi\n      tag_258\n      tag_20\n      jump\t// in\n    tag_258:\n    tag_257:\n      0x20\n      mul\n      add\n      mload\n        /* \"verifier.sol\":19276:19287  out[0] != 0 */\n      eq\n      iszero\n        /* \"verifier.sol\":19269:19287  return out[0] != 0 */\n      swap6\n      pop\n      pop\n      pop\n      pop\n      pop\n      pop\n        /* \"verifier.sol\":18371:19294  function pairing(G1Point[] memory p1, G2Point[] memory p2) internal view returns (bool) {... */\n      swap3\n      swap2\n      pop\n      pop\n      jump\t// out\n    tag_67:\n      mload(0x40)\n      dup1\n      0xc0\n      add\n      0x40\n      mstore\n      dup1\n      tag_259\n      tag_116\n      jump\t// in\n    tag_259:\n      dup2\n      mstore\n      0x20\n      add\n      tag_260\n      tag_74\n      jump\t// in\n    tag_260:\n      dup2\n      mstore\n      0x20\n      add\n      tag_261\n      tag_116\n      jump\t// in\n    tag_261:\n      dup2\n      mstore\n      0x20\n      add\n      tag_262\n      tag_74\n      jump\t// in\n    tag_262:\n      dup2\n      mstore\n      0x20\n      add\n      tag_263\n      tag_116\n      jump\t// in\n    tag_263:\n      dup2\n      mstore\n      0x20\n      add\n      0x60\n      dup2\n      mstore\n      pop\n      swap1\n      jump\t// out\n    tag_74:\n      mload(0x40)\n      dup1\n      0x40\n      add\n      0x40\n      mstore\n      dup1\n      0x00\n      dup2\n      mstore\n      0x20\n      add\n      0x00\n      dup2\n      mstore\n      pop\n      swap1\n      jump\t// out\n    tag_82:\n      mload(0x40)\n      dup1\n      0x60\n      add\n      0x40\n      mstore\n      dup1\n      0x03\n      swap1\n      0x20\n      dup3\n      mul\n      dup1\n      calldatasize\n      dup4\n      calldatacopy\n      dup1\n      dup3\n      add\n      swap2\n      pop\n      pop\n      swap1\n      pop\n      pop\n      swap1\n      jump\t// out\n    tag_95:\n      mload(0x40)\n      dup1\n      0x80\n      add\n      0x40\n      mstore\n      dup1\n      0x04\n      swap1\n      0x20\n      dup3\n      mul\n      dup1\n      calldatasize\n      dup4\n      calldatacopy\n      dup1\n      dup3\n      add\n      swap2\n      pop\n      pop\n      swap1\n      pop\n      pop\n      swap1\n      jump\t// out\n    tag_116:\n      mload(0x40)\n      dup1\n      0x40\n      add\n      0x40\n      mstore\n      dup1\n      tag_264\n      tag_265\n      jump\t// in\n    tag_264:\n      dup2\n      mstore\n      0x20\n      add\n      tag_266\n      tag_265\n      jump\t// in\n    tag_266:\n      dup2\n      mstore\n      pop\n      swap1\n      jump\t// out\n    tag_253:\n      mload(0x40)\n      dup1\n      0x20\n      add\n      0x40\n      mstore\n      dup1\n      0x01\n      swap1\n      0x20\n      dup3\n      mul\n      dup1\n      calldatasize\n      dup4\n      calldatacopy\n      dup1\n      dup3\n      add\n      swap2\n      pop\n      pop\n      swap1\n      pop\n      pop\n      swap1\n      jump\t// out\n    tag_265:\n      mload(0x40)\n      dup1\n      0x40\n      add\n      0x40\n      mstore\n      dup1\n      0x02\n      swap1\n      0x20\n      dup3\n      mul\n      dup1\n      calldatasize\n      dup4\n      calldatacopy\n      dup1\n      dup3\n      add\n      swap2\n      pop\n      pop\n      swap1\n      pop\n      pop\n      swap1\n      jump\t// out\n        /* \"#utility.yul\":7:82   */\n    tag_267:\n        /* \"#utility.yul\":40:46   */\n      0x00\n        /* \"#utility.yul\":73:75   */\n      0x40\n        /* \"#utility.yul\":67:76   */\n      mload\n        /* \"#utility.yul\":57:76   */\n      swap1\n      pop\n        /* \"#utility.yul\":7:82   */\n      swap1\n      jump\t// out\n        /* \"#utility.yul\":88:205   */\n    tag_268:\n        /* \"#utility.yul\":197:198   */\n      0x00\n        /* \"#utility.yul\":194:195   */\n      dup1\n        /* \"#utility.yul\":187:199   */\n      revert\n        /* \"#utility.yul\":334:451   */\n    tag_270:\n        /* \"#utility.yul\":443:444   */\n      0x00\n        /* \"#utility.yul\":440:441   */\n      dup1\n        /* \"#utility.yul\":433:445   */\n      revert\n        /* \"#utility.yul\":457:559   */\n    tag_271:\n        /* \"#utility.yul\":498:504   */\n      0x00\n        /* \"#utility.yul\":549:551   */\n      0x1f\n        /* \"#utility.yul\":545:552   */\n      not\n        /* \"#utility.yul\":540:542   */\n      0x1f\n        /* \"#utility.yul\":533:538   */\n      dup4\n        /* \"#utility.yul\":529:543   */\n      add\n        /* \"#utility.yul\":525:553   */\n      and\n        /* \"#utility.yul\":515:553   */\n      swap1\n      pop\n        /* \"#utility.yul\":457:559   */\n      swap2\n      swap1\n      pop\n      jump\t// out\n        /* \"#utility.yul\":565:745   */\n    tag_13:\n        /* \"#utility.yul\":613:690   */\n      0x4e487b7100000000000000000000000000000000000000000000000000000000\n        /* \"#utility.yul\":610:611   */\n      0x00\n        /* \"#utility.yul\":603:691   */\n      mstore\n        /* \"#utility.yul\":710:714   */\n      0x41\n        /* \"#utility.yul\":707:708   */\n      0x04\n        /* \"#utility.yul\":700:715   */\n      mstore\n        /* \"#utility.yul\":734:738   */\n      0x24\n        /* \"#utility.yul\":731:732   */\n      0x00\n        /* \"#utility.yul\":724:739   */\n      revert\n        /* \"#utility.yul\":751:1032   */\n    tag_272:\n        /* \"#utility.yul\":834:861   */\n      tag_303\n        /* \"#utility.yul\":856:860   */\n      dup3\n        /* \"#utility.yul\":834:861   */\n      tag_271\n      jump\t// in\n    tag_303:\n        /* \"#utility.yul\":826:832   */\n      dup2\n        /* \"#utility.yul\":822:862   */\n      add\n        /* \"#utility.yul\":964:970   */\n      dup2\n        /* \"#utility.yul\":952:962   */\n      dup2\n        /* \"#utility.yul\":949:971   */\n      lt\n        /* \"#utility.yul\":928:946   */\n      0xffffffffffffffff\n        /* \"#utility.yul\":916:926   */\n      dup3\n        /* \"#utility.yul\":913:947   */\n      gt\n        /* \"#utility.yul\":910:972   */\n      or\n        /* \"#utility.yul\":907:995   */\n      iszero\n      tag_304\n      jumpi\n        /* \"#utility.yul\":975:993   */\n      tag_305\n      tag_13\n      jump\t// in\n    tag_305:\n        /* \"#utility.yul\":907:995   */\n    tag_304:\n        /* \"#utility.yul\":1015:1025   */\n      dup1\n        /* \"#utility.yul\":1011:1013   */\n      0x40\n        /* \"#utility.yul\":1004:1026   */\n      mstore\n        /* \"#utility.yul\":794:1032   */\n      pop\n        /* \"#utility.yul\":751:1032   */\n      pop\n      pop\n      jump\t// out\n        /* \"#utility.yul\":1038:1167   */\n    tag_273:\n        /* \"#utility.yul\":1072:1078   */\n      0x00\n        /* \"#utility.yul\":1099:1119   */\n      tag_307\n      tag_267\n      jump\t// in\n    tag_307:\n        /* \"#utility.yul\":1089:1119   */\n      swap1\n      pop\n        /* \"#utility.yul\":1128:1161   */\n      tag_308\n        /* \"#utility.yul\":1156:1160   */\n      dup3\n        /* \"#utility.yul\":1148:1154   */\n      dup3\n        /* \"#utility.yul\":1128:1161   */\n      tag_272\n      jump\t// in\n    tag_308:\n        /* \"#utility.yul\":1038:1167   */\n      swap2\n      swap1\n      pop\n      jump\t// out\n        /* \"#utility.yul\":1296:1373   */\n    tag_275:\n        /* \"#utility.yul\":1333:1340   */\n      0x00\n        /* \"#utility.yul\":1362:1367   */\n      dup2\n        /* \"#utility.yul\":1351:1367   */\n      swap1\n      pop\n        /* \"#utility.yul\":1296:1373   */\n      swap2\n      swap1\n      pop\n      jump\t// out\n        /* \"#utility.yul\":1379:1501   */\n    tag_276:\n        /* \"#utility.yul\":1452:1476   */\n      tag_312\n        /* \"#utility.yul\":1470:1475   */\n      dup2\n        /* \"#utility.yul\":1452:1476   */\n      tag_275\n      jump\t// in\n    tag_312:\n        /* \"#utility.yul\":1445:1450   */\n      dup2\n        /* \"#utility.yul\":1442:1477   */\n      eq\n        /* \"#utility.yul\":1432:1495   */\n      tag_313\n      jumpi\n        /* \"#utility.yul\":1491:1492   */\n      0x00\n        /* \"#utility.yul\":1488:1489   */\n      dup1\n        /* \"#utility.yul\":1481:1493   */\n      revert\n        /* \"#utility.yul\":1432:1495   */\n    tag_313:\n        /* \"#utility.yul\":1379:1501   */\n      pop\n      jump\t// out\n        /* \"#utility.yul\":1507:1646   */\n    tag_277:\n        /* \"#utility.yul\":1553:1558   */\n      0x00\n        /* \"#utility.yul\":1591:1597   */\n      dup2\n        /* \"#utility.yul\":1578:1598   */\n      calldataload\n        /* \"#utility.yul\":1569:1598   */\n      swap1\n      pop\n        /* \"#utility.yul\":1607:1640   */\n      tag_315\n        /* \"#utility.yul\":1634:1639   */\n      dup2\n        /* \"#utility.yul\":1607:1640   */\n      tag_276\n      jump\t// in\n    tag_315:\n        /* \"#utility.yul\":1507:1646   */\n      swap3\n      swap2\n      pop\n      pop\n      jump\t// out\n        /* \"#utility.yul\":1682:2250   */\n    tag_278:\n        /* \"#utility.yul\":1756:1761   */\n      0x00\n        /* \"#utility.yul\":1800:1804   */\n      0x40\n        /* \"#utility.yul\":1788:1797   */\n      dup3\n        /* \"#utility.yul\":1783:1786   */\n      dup5\n        /* \"#utility.yul\":1779:1798   */\n      sub\n        /* \"#utility.yul\":1775:1805   */\n      slt\n        /* \"#utility.yul\":1772:1889   */\n      iszero\n      tag_317\n      jumpi\n        /* \"#utility.yul\":1808:1887   */\n      tag_318\n      tag_270\n      jump\t// in\n    tag_318:\n        /* \"#utility.yul\":1772:1889   */\n    tag_317:\n        /* \"#utility.yul\":1907:1928   */\n      tag_319\n        /* \"#utility.yul\":1923:1927   */\n      0x40\n        /* \"#utility.yul\":1907:1928   */\n      tag_273\n      jump\t// in\n    tag_319:\n        /* \"#utility.yul\":1898:1928   */\n      swap1\n      pop\n        /* \"#utility.yul\":1984:1985   */\n      0x00\n        /* \"#utility.yul\":2024:2073   */\n      tag_320\n        /* \"#utility.yul\":2069:2072   */\n      dup5\n        /* \"#utility.yul\":2060:2066   */\n      dup3\n        /* \"#utility.yul\":2049:2058   */\n      dup6\n        /* \"#utility.yul\":2045:2067   */\n      add\n        /* \"#utility.yul\":2024:2073   */\n      tag_277\n      jump\t// in\n    tag_320:\n        /* \"#utility.yul\":2017:2021   */\n      0x00\n        /* \"#utility.yul\":2010:2015   */\n      dup4\n        /* \"#utility.yul\":2006:2022   */\n      add\n        /* \"#utility.yul\":1999:2074   */\n      mstore\n        /* \"#utility.yul\":1938:2085   */\n      pop\n        /* \"#utility.yul\":2141:2143   */\n      0x20\n        /* \"#utility.yul\":2182:2231   */\n      tag_321\n        /* \"#utility.yul\":2227:2230   */\n      dup5\n        /* \"#utility.yul\":2218:2224   */\n      dup3\n        /* \"#utility.yul\":2207:2216   */\n      dup6\n        /* \"#utility.yul\":2203:2225   */\n      add\n        /* \"#utility.yul\":2182:2231   */\n      tag_277\n      jump\t// in\n    tag_321:\n        /* \"#utility.yul\":2175:2179   */\n      0x20\n        /* \"#utility.yul\":2168:2173   */\n      dup4\n        /* \"#utility.yul\":2164:2180   */\n      add\n        /* \"#utility.yul\":2157:2232   */\n      mstore\n        /* \"#utility.yul\":2095:2243   */\n      pop\n        /* \"#utility.yul\":1682:2250   */\n      swap3\n      swap2\n      pop\n      pop\n      jump\t// out\n        /* \"#utility.yul\":2256:2373   */\n    tag_279:\n        /* \"#utility.yul\":2365:2366   */\n      0x00\n        /* \"#utility.yul\":2362:2363   */\n      dup1\n        /* \"#utility.yul\":2355:2367   */\n      revert\n        /* \"#utility.yul\":2379:2628   */\n    tag_280:\n        /* \"#utility.yul\":2454:2458   */\n      0x00\n        /* \"#utility.yul\":2544:2562   */\n      0xffffffffffffffff\n        /* \"#utility.yul\":2536:2542   */\n      dup3\n        /* \"#utility.yul\":2533:2563   */\n      gt\n        /* \"#utility.yul\":2530:2586   */\n      iszero\n      tag_324\n      jumpi\n        /* \"#utility.yul\":2566:2584   */\n      tag_325\n      tag_13\n      jump\t// in\n    tag_325:\n        /* \"#utility.yul\":2530:2586   */\n    tag_324:\n        /* \"#utility.yul\":2616:2620   */\n      0x20\n        /* \"#utility.yul\":2608:2614   */\n      dup3\n        /* \"#utility.yul\":2604:2621   */\n      mul\n        /* \"#utility.yul\":2596:2621   */\n      swap1\n      pop\n        /* \"#utility.yul\":2379:2628   */\n      swap2\n      swap1\n      pop\n      jump\t// out\n        /* \"#utility.yul\":2634:2751   */\n    tag_281:\n        /* \"#utility.yul\":2743:2744   */\n      0x00\n        /* \"#utility.yul\":2740:2741   */\n      dup1\n        /* \"#utility.yul\":2733:2745   */\n      revert\n        /* \"#utility.yul\":2775:3418   */\n    tag_282:\n        /* \"#utility.yul\":2869:2874   */\n      0x00\n        /* \"#utility.yul\":2894:2973   */\n      tag_328\n        /* \"#utility.yul\":2910:2972   */\n      tag_329\n        /* \"#utility.yul\":2965:2971   */\n      dup5\n        /* \"#utility.yul\":2910:2972   */\n      tag_280\n      jump\t// in\n    tag_329:\n        /* \"#utility.yul\":2894:2973   */\n      tag_273\n      jump\t// in\n    tag_328:\n        /* \"#utility.yul\":2885:2973   */\n      swap1\n      pop\n        /* \"#utility.yul\":2993:2998   */\n      dup1\n        /* \"#utility.yul\":3046:3050   */\n      0x20\n        /* \"#utility.yul\":3038:3044   */\n      dup5\n        /* \"#utility.yul\":3034:3051   */\n      mul\n        /* \"#utility.yul\":3026:3032   */\n      dup4\n        /* \"#utility.yul\":3022:3052   */\n      add\n        /* \"#utility.yul\":3075:3078   */\n      dup6\n        /* \"#utility.yul\":3067:3073   */\n      dup2\n        /* \"#utility.yul\":3064:3079   */\n      gt\n        /* \"#utility.yul\":3061:3183   */\n      iszero\n      tag_330\n      jumpi\n        /* \"#utility.yul\":3094:3173   */\n      tag_331\n      tag_281\n      jump\t// in\n    tag_331:\n        /* \"#utility.yul\":3061:3183   */\n    tag_330:\n        /* \"#utility.yul\":3209:3215   */\n      dup4\n        /* \"#utility.yul\":3192:3412   */\n    tag_332:\n        /* \"#utility.yul\":3226:3232   */\n      dup2\n        /* \"#utility.yul\":3221:3224   */\n      dup2\n        /* \"#utility.yul\":3218:3233   */\n      lt\n        /* \"#utility.yul\":3192:3412   */\n      iszero\n      tag_334\n      jumpi\n        /* \"#utility.yul\":3301:3304   */\n      dup1\n        /* \"#utility.yul\":3330:3367   */\n      tag_335\n        /* \"#utility.yul\":3363:3366   */\n      dup9\n        /* \"#utility.yul\":3351:3361   */\n      dup3\n        /* \"#utility.yul\":3330:3367   */\n      tag_277\n      jump\t// in\n    tag_335:\n        /* \"#utility.yul\":3325:3328   */\n      dup5\n        /* \"#utility.yul\":3318:3368   */\n      mstore\n        /* \"#utility.yul\":3397:3401   */\n      0x20\n        /* \"#utility.yul\":3392:3395   */\n      dup5\n        /* \"#utility.yul\":3388:3402   */\n      add\n        /* \"#utility.yul\":3381:3402   */\n      swap4\n      pop\n        /* \"#utility.yul\":3268:3412   */\n      pop\n        /* \"#utility.yul\":3252:3256   */\n      0x20\n        /* \"#utility.yul\":3247:3250   */\n      dup2\n        /* \"#utility.yul\":3243:3257   */\n      add\n        /* \"#utility.yul\":3236:3257   */\n      swap1\n      pop\n        /* \"#utility.yul\":3192:3412   */\n      jump(tag_332)\n    tag_334:\n        /* \"#utility.yul\":3196:3217   */\n      pop\n        /* \"#utility.yul\":2875:3418   */\n      pop\n      pop\n        /* \"#utility.yul\":2775:3418   */\n      swap4\n      swap3\n      pop\n      pop\n      pop\n      jump\t// out\n        /* \"#utility.yul\":3442:3781   */\n    tag_283:\n        /* \"#utility.yul\":3511:3516   */\n      0x00\n        /* \"#utility.yul\":3560:3563   */\n      dup3\n        /* \"#utility.yul\":3553:3557   */\n      0x1f\n        /* \"#utility.yul\":3545:3551   */\n      dup4\n        /* \"#utility.yul\":3541:3558   */\n      add\n        /* \"#utility.yul\":3537:3564   */\n      slt\n        /* \"#utility.yul\":3527:3649   */\n      tag_337\n      jumpi\n        /* \"#utility.yul\":3568:3647   */\n      tag_338\n      tag_279\n      jump\t// in\n    tag_338:\n        /* \"#utility.yul\":3527:3649   */\n    tag_337:\n        /* \"#utility.yul\":3672:3676   */\n      0x02\n        /* \"#utility.yul\":3694:3775   */\n      tag_339\n        /* \"#utility.yul\":3771:3774   */\n      dup5\n        /* \"#utility.yul\":3763:3769   */\n      dup3\n        /* \"#utility.yul\":3755:3761   */\n      dup6\n        /* \"#utility.yul\":3694:3775   */\n      tag_282\n      jump\t// in\n    tag_339:\n        /* \"#utility.yul\":3685:3775   */\n      swap2\n      pop\n        /* \"#utility.yul\":3517:3781   */\n      pop\n        /* \"#utility.yul\":3442:3781   */\n      swap3\n      swap2\n      pop\n      pop\n      jump\t// out\n        /* \"#utility.yul\":3817:4431   */\n    tag_284:\n        /* \"#utility.yul\":3891:3896   */\n      0x00\n        /* \"#utility.yul\":3935:3939   */\n      0x80\n        /* \"#utility.yul\":3923:3932   */\n      dup3\n        /* \"#utility.yul\":3918:3921   */\n      dup5\n        /* \"#utility.yul\":3914:3933   */\n      sub\n        /* \"#utility.yul\":3910:3940   */\n      slt\n        /* \"#utility.yul\":3907:4024   */\n      iszero\n      tag_341\n      jumpi\n        /* \"#utility.yul\":3943:4022   */\n      tag_342\n      tag_270\n      jump\t// in\n    tag_342:\n        /* \"#utility.yul\":3907:4024   */\n    tag_341:\n        /* \"#utility.yul\":4042:4063   */\n      tag_343\n        /* \"#utility.yul\":4058:4062   */\n      0x40\n        /* \"#utility.yul\":4042:4063   */\n      tag_273\n      jump\t// in\n    tag_343:\n        /* \"#utility.yul\":4033:4063   */\n      swap1\n      pop\n        /* \"#utility.yul\":4119:4120   */\n      0x00\n        /* \"#utility.yul\":4159:4231   */\n      tag_344\n        /* \"#utility.yul\":4227:4230   */\n      dup5\n        /* \"#utility.yul\":4218:4224   */\n      dup3\n        /* \"#utility.yul\":4207:4216   */\n      dup6\n        /* \"#utility.yul\":4203:4225   */\n      add\n        /* \"#utility.yul\":4159:4231   */\n      tag_283\n      jump\t// in\n    tag_344:\n        /* \"#utility.yul\":4152:4156   */\n      0x00\n        /* \"#utility.yul\":4145:4150   */\n      dup4\n        /* \"#utility.yul\":4141:4157   */\n      add\n        /* \"#utility.yul\":4134:4232   */\n      mstore\n        /* \"#utility.yul\":4073:4243   */\n      pop\n        /* \"#utility.yul\":4299:4301   */\n      0x40\n        /* \"#utility.yul\":4340:4412   */\n      tag_345\n        /* \"#utility.yul\":4408:4411   */\n      dup5\n        /* \"#utility.yul\":4399:4405   */\n      dup3\n        /* \"#utility.yul\":4388:4397   */\n      dup6\n        /* \"#utility.yul\":4384:4406   */\n      add\n        /* \"#utility.yul\":4340:4412   */\n      tag_283\n      jump\t// in\n    tag_345:\n        /* \"#utility.yul\":4333:4337   */\n      0x20\n        /* \"#utility.yul\":4326:4331   */\n      dup4\n        /* \"#utility.yul\":4322:4338   */\n      add\n        /* \"#utility.yul\":4315:4413   */\n      mstore\n        /* \"#utility.yul\":4253:4424   */\n      pop\n        /* \"#utility.yul\":3817:4431   */\n      swap3\n      swap2\n      pop\n      pop\n      jump\t// out\n        /* \"#utility.yul\":4466:5268   */\n    tag_285:\n        /* \"#utility.yul\":4538:4543   */\n      0x00\n        /* \"#utility.yul\":4582:4588   */\n      0x0100\n        /* \"#utility.yul\":4570:4579   */\n      dup3\n        /* \"#utility.yul\":4565:4568   */\n      dup5\n        /* \"#utility.yul\":4561:4580   */\n      sub\n        /* \"#utility.yul\":4557:4589   */\n      slt\n        /* \"#utility.yul\":4554:4673   */\n      iszero\n      tag_347\n      jumpi\n        /* \"#utility.yul\":4592:4671   */\n      tag_348\n      tag_270\n      jump\t// in\n    tag_348:\n        /* \"#utility.yul\":4554:4673   */\n    tag_347:\n        /* \"#utility.yul\":4691:4712   */\n      tag_349\n        /* \"#utility.yul\":4707:4711   */\n      0x60\n        /* \"#utility.yul\":4691:4712   */\n      tag_273\n      jump\t// in\n    tag_349:\n        /* \"#utility.yul\":4682:4712   */\n      swap1\n      pop\n        /* \"#utility.yul\":4768:4769   */\n      0x00\n        /* \"#utility.yul\":4808:4882   */\n      tag_350\n        /* \"#utility.yul\":4878:4881   */\n      dup5\n        /* \"#utility.yul\":4869:4875   */\n      dup3\n        /* \"#utility.yul\":4858:4867   */\n      dup6\n        /* \"#utility.yul\":4854:4876   */\n      add\n        /* \"#utility.yul\":4808:4882   */\n      tag_278\n      jump\t// in\n    tag_350:\n        /* \"#utility.yul\":4801:4805   */\n      0x00\n        /* \"#utility.yul\":4794:4799   */\n      dup4\n        /* \"#utility.yul\":4790:4806   */\n      add\n        /* \"#utility.yul\":4783:4883   */\n      mstore\n        /* \"#utility.yul\":4722:4894   */\n      pop\n        /* \"#utility.yul\":4950:4952   */\n      0x40\n        /* \"#utility.yul\":4991:5065   */\n      tag_351\n        /* \"#utility.yul\":5061:5064   */\n      dup5\n        /* \"#utility.yul\":5052:5058   */\n      dup3\n        /* \"#utility.yul\":5041:5050   */\n      dup6\n        /* \"#utility.yul\":5037:5059   */\n      add\n        /* \"#utility.yul\":4991:5065   */\n      tag_284\n      jump\t// in\n    tag_351:\n        /* \"#utility.yul\":4984:4988   */\n      0x20\n        /* \"#utility.yul\":4977:4982   */\n      dup4\n        /* \"#utility.yul\":4973:4989   */\n      add\n        /* \"#utility.yul\":4966:5066   */\n      mstore\n        /* \"#utility.yul\":4904:5077   */\n      pop\n        /* \"#utility.yul\":5133:5136   */\n      0xc0\n        /* \"#utility.yul\":5175:5249   */\n      tag_352\n        /* \"#utility.yul\":5245:5248   */\n      dup5\n        /* \"#utility.yul\":5236:5242   */\n      dup3\n        /* \"#utility.yul\":5225:5234   */\n      dup6\n        /* \"#utility.yul\":5221:5243   */\n      add\n        /* \"#utility.yul\":5175:5249   */\n      tag_278\n      jump\t// in\n    tag_352:\n        /* \"#utility.yul\":5168:5172   */\n      0x40\n        /* \"#utility.yul\":5161:5166   */\n      dup4\n        /* \"#utility.yul\":5157:5173   */\n      add\n        /* \"#utility.yul\":5150:5250   */\n      mstore\n        /* \"#utility.yul\":5087:5261   */\n      pop\n        /* \"#utility.yul\":4466:5268   */\n      swap3\n      swap2\n      pop\n      pop\n      jump\t// out\n        /* \"#utility.yul\":5274:5523   */\n    tag_286:\n        /* \"#utility.yul\":5349:5353   */\n      0x00\n        /* \"#utility.yul\":5439:5457   */\n      0xffffffffffffffff\n        /* \"#utility.yul\":5431:5437   */\n      dup3\n        /* \"#utility.yul\":5428:5458   */\n      gt\n        /* \"#utility.yul\":5425:5481   */\n      iszero\n      tag_354\n      jumpi\n        /* \"#utility.yul\":5461:5479   */\n      tag_355\n      tag_13\n      jump\t// in\n    tag_355:\n        /* \"#utility.yul\":5425:5481   */\n    tag_354:\n        /* \"#utility.yul\":5511:5515   */\n      0x20\n        /* \"#utility.yul\":5503:5509   */\n      dup3\n        /* \"#utility.yul\":5499:5516   */\n      mul\n        /* \"#utility.yul\":5491:5516   */\n      swap1\n      pop\n        /* \"#utility.yul\":5274:5523   */\n      swap2\n      swap1\n      pop\n      jump\t// out\n        /* \"#utility.yul\":5547:6190   */\n    tag_287:\n        /* \"#utility.yul\":5641:5646   */\n      0x00\n        /* \"#utility.yul\":5666:5745   */\n      tag_357\n        /* \"#utility.yul\":5682:5744   */\n      tag_358\n        /* \"#utility.yul\":5737:5743   */\n      dup5\n        /* \"#utility.yul\":5682:5744   */\n      tag_286\n      jump\t// in\n    tag_358:\n        /* \"#utility.yul\":5666:5745   */\n      tag_273\n      jump\t// in\n    tag_357:\n        /* \"#utility.yul\":5657:5745   */\n      swap1\n      pop\n        /* \"#utility.yul\":5765:5770   */\n      dup1\n        /* \"#utility.yul\":5818:5822   */\n      0x20\n        /* \"#utility.yul\":5810:5816   */\n      dup5\n        /* \"#utility.yul\":5806:5823   */\n      mul\n        /* \"#utility.yul\":5798:5804   */\n      dup4\n        /* \"#utility.yul\":5794:5824   */\n      add\n        /* \"#utility.yul\":5847:5850   */\n      dup6\n        /* \"#utility.yul\":5839:5845   */\n      dup2\n        /* \"#utility.yul\":5836:5851   */\n      gt\n        /* \"#utility.yul\":5833:5955   */\n      iszero\n      tag_359\n      jumpi\n        /* \"#utility.yul\":5866:5945   */\n      tag_360\n      tag_281\n      jump\t// in\n    tag_360:\n        /* \"#utility.yul\":5833:5955   */\n    tag_359:\n        /* \"#utility.yul\":5981:5987   */\n      dup4\n        /* \"#utility.yul\":5964:6184   */\n    tag_361:\n        /* \"#utility.yul\":5998:6004   */\n      dup2\n        /* \"#utility.yul\":5993:5996   */\n      dup2\n        /* \"#utility.yul\":5990:6005   */\n      lt\n        /* \"#utility.yul\":5964:6184   */\n      iszero\n      tag_363\n      jumpi\n        /* \"#utility.yul\":6073:6076   */\n      dup1\n        /* \"#utility.yul\":6102:6139   */\n      tag_364\n        /* \"#utility.yul\":6135:6138   */\n      dup9\n        /* \"#utility.yul\":6123:6133   */\n      dup3\n        /* \"#utility.yul\":6102:6139   */\n      tag_277\n      jump\t// in\n    tag_364:\n        /* \"#utility.yul\":6097:6100   */\n      dup5\n        /* \"#utility.yul\":6090:6140   */\n      mstore\n        /* \"#utility.yul\":6169:6173   */\n      0x20\n        /* \"#utility.yul\":6164:6167   */\n      dup5\n        /* \"#utility.yul\":6160:6174   */\n      add\n        /* \"#utility.yul\":6153:6174   */\n      swap4\n      pop\n        /* \"#utility.yul\":6040:6184   */\n      pop\n        /* \"#utility.yul\":6024:6028   */\n      0x20\n        /* \"#utility.yul\":6019:6022   */\n      dup2\n        /* \"#utility.yul\":6015:6029   */\n      add\n        /* \"#utility.yul\":6008:6029   */\n      swap1\n      pop\n        /* \"#utility.yul\":5964:6184   */\n      jump(tag_361)\n    tag_363:\n        /* \"#utility.yul\":5968:5989   */\n      pop\n        /* \"#utility.yul\":5647:6190   */\n      pop\n      pop\n        /* \"#utility.yul\":5547:6190   */\n      swap4\n      swap3\n      pop\n      pop\n      pop\n      jump\t// out\n        /* \"#utility.yul\":6214:6553   */\n    tag_288:\n        /* \"#utility.yul\":6283:6288   */\n      0x00\n        /* \"#utility.yul\":6332:6335   */\n      dup3\n        /* \"#utility.yul\":6325:6329   */\n      0x1f\n        /* \"#utility.yul\":6317:6323   */\n      dup4\n        /* \"#utility.yul\":6313:6330   */\n      add\n        /* \"#utility.yul\":6309:6336   */\n      slt\n        /* \"#utility.yul\":6299:6421   */\n      tag_366\n      jumpi\n        /* \"#utility.yul\":6340:6419   */\n      tag_367\n      tag_279\n      jump\t// in\n    tag_367:\n        /* \"#utility.yul\":6299:6421   */\n    tag_366:\n        /* \"#utility.yul\":6444:6448   */\n      0x01\n        /* \"#utility.yul\":6466:6547   */\n      tag_368\n        /* \"#utility.yul\":6543:6546   */\n      dup5\n        /* \"#utility.yul\":6535:6541   */\n      dup3\n        /* \"#utility.yul\":6527:6533   */\n      dup6\n        /* \"#utility.yul\":6466:6547   */\n      tag_287\n      jump\t// in\n    tag_368:\n        /* \"#utility.yul\":6457:6547   */\n      swap2\n      pop\n        /* \"#utility.yul\":6289:6553   */\n      pop\n        /* \"#utility.yul\":6214:6553   */\n      swap3\n      swap2\n      pop\n      pop\n      jump\t// out\n        /* \"#utility.yul\":6559:7127   */\n    tag_6:\n        /* \"#utility.yul\":6673:6679   */\n      0x00\n        /* \"#utility.yul\":6681:6687   */\n      dup1\n        /* \"#utility.yul\":6730:6733   */\n      0x0120\n        /* \"#utility.yul\":6718:6727   */\n      dup4\n        /* \"#utility.yul\":6709:6716   */\n      dup6\n        /* \"#utility.yul\":6705:6728   */\n      sub\n        /* \"#utility.yul\":6701:6734   */\n      slt\n        /* \"#utility.yul\":6698:6818   */\n      iszero\n      tag_370\n      jumpi\n        /* \"#utility.yul\":6737:6816   */\n      tag_371\n      tag_268\n      jump\t// in\n    tag_371:\n        /* \"#utility.yul\":6698:6818   */\n    tag_370:\n        /* \"#utility.yul\":6857:6858   */\n      0x00\n        /* \"#utility.yul\":6882:6958   */\n      tag_372\n        /* \"#utility.yul\":6950:6957   */\n      dup6\n        /* \"#utility.yul\":6941:6947   */\n      dup3\n        /* \"#utility.yul\":6930:6939   */\n      dup7\n        /* \"#utility.yul\":6926:6948   */\n      add\n        /* \"#utility.yul\":6882:6958   */\n      tag_285\n      jump\t// in\n    tag_372:\n        /* \"#utility.yul\":6872:6958   */\n      swap3\n      pop\n        /* \"#utility.yul\":6828:6968   */\n      pop\n        /* \"#utility.yul\":7007:7010   */\n      0x0100\n        /* \"#utility.yul\":7034:7110   */\n      tag_373\n        /* \"#utility.yul\":7102:7109   */\n      dup6\n        /* \"#utility.yul\":7093:7099   */\n      dup3\n        /* \"#utility.yul\":7082:7091   */\n      dup7\n        /* \"#utility.yul\":7078:7100   */\n      add\n        /* \"#utility.yul\":7034:7110   */\n      tag_288\n      jump\t// in\n    tag_373:\n        /* \"#utility.yul\":7024:7110   */\n      swap2\n      pop\n        /* \"#utility.yul\":6978:7120   */\n      pop\n        /* \"#utility.yul\":6559:7127   */\n      swap3\n      pop\n      swap3\n      swap1\n      pop\n      jump\t// out\n        /* \"#utility.yul\":7133:7223   */\n    tag_289:\n        /* \"#utility.yul\":7167:7174   */\n      0x00\n        /* \"#utility.yul\":7210:7215   */\n      dup2\n        /* \"#utility.yul\":7203:7216   */\n      iszero\n        /* \"#utility.yul\":7196:7217   */\n      iszero\n        /* \"#utility.yul\":7185:7217   */\n      swap1\n      pop\n        /* \"#utility.yul\":7133:7223   */\n      swap2\n      swap1\n      pop\n      jump\t// out\n        /* \"#utility.yul\":7229:7338   */\n    tag_290:\n        /* \"#utility.yul\":7310:7331   */\n      tag_376\n        /* \"#utility.yul\":7325:7330   */\n      dup2\n        /* \"#utility.yul\":7310:7331   */\n      tag_289\n      jump\t// in\n    tag_376:\n        /* \"#utility.yul\":7305:7308   */\n      dup3\n        /* \"#utility.yul\":7298:7332   */\n      mstore\n        /* \"#utility.yul\":7229:7338   */\n      pop\n      pop\n      jump\t// out\n        /* \"#utility.yul\":7344:7554   */\n    tag_9:\n        /* \"#utility.yul\":7431:7435   */\n      0x00\n        /* \"#utility.yul\":7469:7471   */\n      0x20\n        /* \"#utility.yul\":7458:7467   */\n      dup3\n        /* \"#utility.yul\":7454:7472   */\n      add\n        /* \"#utility.yul\":7446:7472   */\n      swap1\n      pop\n        /* \"#utility.yul\":7482:7547   */\n      tag_378\n        /* \"#utility.yul\":7544:7545   */\n      0x00\n        /* \"#utility.yul\":7533:7542   */\n      dup4\n        /* \"#utility.yul\":7529:7546   */\n      add\n        /* \"#utility.yul\":7520:7526   */\n      dup5\n        /* \"#utility.yul\":7482:7547   */\n      tag_290\n      jump\t// in\n    tag_378:\n        /* \"#utility.yul\":7344:7554   */\n      swap3\n      swap2\n      pop\n      pop\n      jump\t// out\n        /* \"#utility.yul\":7560:7740   */\n    tag_20:\n        /* \"#utility.yul\":7608:7685   */\n      0x4e487b7100000000000000000000000000000000000000000000000000000000\n        /* \"#utility.yul\":7605:7606   */\n      0x00\n        /* \"#utility.yul\":7598:7686   */\n      mstore\n        /* \"#utility.yul\":7705:7709   */\n      0x32\n        /* \"#utility.yul\":7702:7703   */\n      0x04\n        /* \"#utility.yul\":7695:7710   */\n      mstore\n        /* \"#utility.yul\":7729:7733   */\n      0x24\n        /* \"#utility.yul\":7726:7727   */\n      0x00\n        /* \"#utility.yul\":7719:7734   */\n      revert\n        /* \"#utility.yul\":7746:7926   */\n    tag_291:\n        /* \"#utility.yul\":7794:7871   */\n      0x4e487b7100000000000000000000000000000000000000000000000000000000\n        /* \"#utility.yul\":7791:7792   */\n      0x00\n        /* \"#utility.yul\":7784:7872   */\n      mstore\n        /* \"#utility.yul\":7891:7895   */\n      0x11\n        /* \"#utility.yul\":7888:7889   */\n      0x04\n        /* \"#utility.yul\":7881:7896   */\n      mstore\n        /* \"#utility.yul\":7915:7919   */\n      0x24\n        /* \"#utility.yul\":7912:7913   */\n      0x00\n        /* \"#utility.yul\":7905:7920   */\n      revert\n        /* \"#utility.yul\":7932:8165   */\n    tag_24:\n        /* \"#utility.yul\":7971:7974   */\n      0x00\n        /* \"#utility.yul\":7994:8018   */\n      tag_382\n        /* \"#utility.yul\":8012:8017   */\n      dup3\n        /* \"#utility.yul\":7994:8018   */\n      tag_275\n      jump\t// in\n    tag_382:\n        /* \"#utility.yul\":7985:8018   */\n      swap2\n      pop\n        /* \"#utility.yul\":8040:8106   */\n      0xffffffffffffffffffffffffffffffffffffffffffffffffffffffffffffffff\n        /* \"#utility.yul\":8033:8038   */\n      dup3\n        /* \"#utility.yul\":8030:8107   */\n      sub\n        /* \"#utility.yul\":8027:8130   */\n      tag_383\n      jumpi\n        /* \"#utility.yul\":8110:8128   */\n      tag_384\n      tag_291\n      jump\t// in\n    tag_384:\n        /* \"#utility.yul\":8027:8130   */\n    tag_383:\n        /* \"#utility.yul\":8157:8158   */\n      0x01\n        /* \"#utility.yul\":8150:8155   */\n      dup3\n        /* \"#utility.yul\":8146:8159   */\n      add\n        /* \"#utility.yul\":8139:8159   */\n      swap1\n      pop\n        /* \"#utility.yul\":7932:8165   */\n      swap2\n      swap1\n      pop\n      jump\t// out\n        /* \"#utility.yul\":8171:8362   */\n    tag_33:\n        /* \"#utility.yul\":8211:8214   */\n      0x00\n        /* \"#utility.yul\":8230:8250   */\n      tag_386\n        /* \"#utility.yul\":8248:8249   */\n      dup3\n        /* \"#utility.yul\":8230:8250   */\n      tag_275\n      jump\t// in\n    tag_386:\n        /* \"#utility.yul\":8225:8250   */\n      swap2\n      pop\n        /* \"#utility.yul\":8264:8284   */\n      tag_387\n        /* \"#utility.yul\":8282:8283   */\n      dup4\n        /* \"#utility.yul\":8264:8284   */\n      tag_275\n      jump\t// in\n    tag_387:\n        /* \"#utility.yul\":8259:8284   */\n      swap3\n      pop\n        /* \"#utility.yul\":8307:8308   */\n      dup3\n        /* \"#utility.yul\":8304:8305   */\n      dup3\n        /* \"#utility.yul\":8300:8309   */\n      add\n        /* \"#utility.yul\":8293:8309   */\n      swap1\n      pop\n        /* \"#utility.yul\":8328:8331   */\n      dup1\n        /* \"#utility.yul\":8325:8326   */\n      dup3\n        /* \"#utility.yul\":8322:8332   */\n      gt\n        /* \"#utility.yul\":8319:8355   */\n      iszero\n      tag_388\n      jumpi\n        /* \"#utility.yul\":8335:8353   */\n      tag_389\n      tag_291\n      jump\t// in\n    tag_389:\n        /* \"#utility.yul\":8319:8355   */\n    tag_388:\n        /* \"#utility.yul\":8171:8362   */\n      swap3\n      swap2\n      pop\n      pop\n      jump\t// out\n        /* \"#utility.yul\":8368:8548   */\n    tag_292:\n        /* \"#utility.yul\":8416:8493   */\n      0x4e487b7100000000000000000000000000000000000000000000000000000000\n        /* \"#utility.yul\":8413:8414   */\n      0x00\n        /* \"#utility.yul\":8406:8494   */\n      mstore\n        /* \"#utility.yul\":8513:8517   */\n      0x12\n        /* \"#utility.yul\":8510:8511   */\n      0x04\n        /* \"#utility.yul\":8503:8518   */\n      mstore\n        /* \"#utility.yul\":8537:8541   */\n      0x24\n        /* \"#utility.yul\":8534:8535   */\n      0x00\n        /* \"#utility.yul\":8527:8542   */\n      revert\n        /* \"#utility.yul\":8554:8730   */\n    tag_112:\n        /* \"#utility.yul\":8586:8587   */\n      0x00\n        /* \"#utility.yul\":8603:8623   */\n      tag_392\n        /* \"#utility.yul\":8621:8622   */\n      dup3\n        /* \"#utility.yul\":8603:8623   */\n      tag_275\n      jump\t// in\n    tag_392:\n        /* \"#utility.yul\":8598:8623   */\n      swap2\n      pop\n        /* \"#utility.yul\":8637:8657   */\n      tag_393\n        /* \"#utility.yul\":8655:8656   */\n      dup4\n        /* \"#utility.yul\":8637:8657   */\n      tag_275\n      jump\t// in\n    tag_393:\n        /* \"#utility.yul\":8632:8657   */\n      swap3\n      pop\n        /* \"#utility.yul\":8676:8677   */\n      dup3\n        /* \"#utility.yul\":8666:8701   */\n      tag_394\n      jumpi\n        /* \"#utility.yul\":8681:8699   */\n      tag_395\n      tag_292\n      jump\t// in\n    tag_395:\n        /* \"#utility.yul\":8666:8701   */\n    tag_394:\n        /* \"#utility.yul\":8722:8723   */\n      dup3\n        /* \"#utility.yul\":8719:8720   */\n      dup3\n        /* \"#utility.yul\":8715:8724   */\n      mod\n        /* \"#utility.yul\":8710:8724   */\n      swap1\n      pop\n        /* \"#utility.yul\":8554:8730   */\n      swap3\n      swap2\n      pop\n      pop\n      jump\t// out\n        /* \"#utility.yul\":8736:8930   */\n    tag_114:\n        /* \"#utility.yul\":8776:8780   */\n      0x00\n        /* \"#utility.yul\":8796:8816   */\n      tag_397\n        /* \"#utility.yul\":8814:8815   */\n      dup3\n        /* \"#utility.yul\":8796:8816   */\n      tag_275\n      jump\t// in\n    tag_397:\n        /* \"#utility.yul\":8791:8816   */\n      swap2\n      pop\n        /* \"#utility.yul\":8830:8850   */\n      tag_398\n        /* \"#utility.yul\":8848:8849   */\n      dup4\n        /* \"#utility.yul\":8830:8850   */\n      tag_275\n      jump\t// in\n    tag_398:\n        /* \"#utility.yul\":8825:8850   */\n      swap3\n      pop\n        /* \"#utility.yul\":8874:8875   */\n      dup3\n        /* \"#utility.yul\":8871:8872   */\n      dup3\n        /* \"#utility.yul\":8867:8876   */\n      sub\n        /* \"#utility.yul\":8859:8876   */\n      swap1\n      pop\n        /* \"#utility.yul\":8898:8899   */\n      dup2\n        /* \"#utility.yul\":8892:8896   */\n      dup2\n        /* \"#utility.yul\":8889:8900   */\n      gt\n        /* \"#utility.yul\":8886:8923   */\n      iszero\n      tag_399\n      jumpi\n        /* \"#utility.yul\":8903:8921   */\n      tag_400\n      tag_291\n      jump\t// in\n    tag_400:\n        /* \"#utility.yul\":8886:8923   */\n    tag_399:\n        /* \"#utility.yul\":8736:8930   */\n      swap3\n      swap2\n      pop\n      pop\n      jump\t// out\n        /* \"#utility.yul\":8936:9062   */\n    tag_293:\n        /* \"#utility.yul\":9031:9055   */\n      tag_402\n        /* \"#utility.yul\":9049:9054   */\n      dup2\n        /* \"#utility.yul\":9031:9055   */\n      tag_275\n      jump\t// in\n    tag_402:\n        /* \"#utility.yul\":9026:9029   */\n      dup3\n        /* \"#utility.yul\":9019:9056   */\n      mstore\n        /* \"#utility.yul\":8936:9062   */\n      pop\n      pop\n      jump\t// out\n        /* \"#utility.yul\":9068:10137   */\n    tag_135:\n        /* \"#utility.yul\":9365:9369   */\n      0x00\n        /* \"#utility.yul\":9403:9406   */\n      0x0100\n        /* \"#utility.yul\":9392:9401   */\n      dup3\n        /* \"#utility.yul\":9388:9407   */\n      add\n        /* \"#utility.yul\":9380:9407   */\n      swap1\n      pop\n        /* \"#utility.yul\":9417:9496   */\n      tag_404\n        /* \"#utility.yul\":9493:9494   */\n      0x00\n        /* \"#utility.yul\":9482:9491   */\n      dup4\n        /* \"#utility.yul\":9478:9495   */\n      add\n        /* \"#utility.yul\":9469:9475   */\n      dup12\n        /* \"#utility.yul\":9417:9496   */\n      tag_293\n      jump\t// in\n    tag_404:\n        /* \"#utility.yul\":9506:9586   */\n      tag_405\n        /* \"#utility.yul\":9582:9584   */\n      0x20\n        /* \"#utility.yul\":9571:9580   */\n      dup4\n        /* \"#utility.yul\":9567:9585   */\n      add\n        /* \"#utility.yul\":9558:9564   */\n      dup11\n        /* \"#utility.yul\":9506:9586   */\n      tag_293\n      jump\t// in\n    tag_405:\n        /* \"#utility.yul\":9596:9676   */\n      tag_406\n        /* \"#utility.yul\":9672:9674   */\n      0x40\n        /* \"#utility.yul\":9661:9670   */\n      dup4\n        /* \"#utility.yul\":9657:9675   */\n      add\n        /* \"#utility.yul\":9648:9654   */\n      dup10\n        /* \"#utility.yul\":9596:9676   */\n      tag_293\n      jump\t// in\n    tag_406:\n        /* \"#utility.yul\":9686:9766   */\n      tag_407\n        /* \"#utility.yul\":9762:9764   */\n      0x60\n        /* \"#utility.yul\":9751:9760   */\n      dup4\n        /* \"#utility.yul\":9747:9765   */\n      add\n        /* \"#utility.yul\":9738:9744   */\n      dup9\n        /* \"#utility.yul\":9686:9766   */\n      tag_293\n      jump\t// in\n    tag_407:\n        /* \"#utility.yul\":9776:9857   */\n      tag_408\n        /* \"#utility.yul\":9852:9855   */\n      0x80\n        /* \"#utility.yul\":9841:9850   */\n      dup4\n        /* \"#utility.yul\":9837:9856   */\n      add\n        /* \"#utility.yul\":9828:9834   */\n      dup8\n        /* \"#utility.yul\":9776:9857   */\n      tag_293\n      jump\t// in\n    tag_408:\n        /* \"#utility.yul\":9867:9948   */\n      tag_409\n        /* \"#utility.yul\":9943:9946   */\n      0xa0\n        /* \"#utility.yul\":9932:9941   */\n      dup4\n        /* \"#utility.yul\":9928:9947   */\n      add\n        /* \"#utility.yul\":9919:9925   */\n      dup7\n        /* \"#utility.yul\":9867:9948   */\n      tag_293\n      jump\t// in\n    tag_409:\n        /* \"#utility.yul\":9958:10039   */\n      tag_410\n        /* \"#utility.yul\":10034:10037   */\n      0xc0\n        /* \"#utility.yul\":10023:10032   */\n      dup4\n        /* \"#utility.yul\":10019:10038   */\n      add\n        /* \"#utility.yul\":10010:10016   */\n      dup6\n        /* \"#utility.yul\":9958:10039   */\n      tag_293\n      jump\t// in\n    tag_410:\n        /* \"#utility.yul\":10049:10130   */\n      tag_411\n        /* \"#utility.yul\":10125:10128   */\n      0xe0\n        /* \"#utility.yul\":10114:10123   */\n      dup4\n        /* \"#utility.yul\":10110:10129   */\n      add\n        /* \"#utility.yul\":10101:10107   */\n      dup5\n        /* \"#utility.yul\":10049:10130   */\n      tag_293\n      jump\t// in\n    tag_411:\n        /* \"#utility.yul\":9068:10137   */\n      swap10\n      swap9\n      pop\n      pop\n      pop\n      pop\n      pop\n      pop\n      pop\n      pop\n      pop\n      jump\t// out\n        /* \"#utility.yul\":10143:10286   */\n    tag_294:\n        /* \"#utility.yul\":10200:10205   */\n      0x00\n        /* \"#utility.yul\":10231:10237   */\n      dup2\n        /* \"#utility.yul\":10225:10238   */\n      mload\n        /* \"#utility.yul\":10216:10238   */\n      swap1\n      pop\n        /* \"#utility.yul\":10247:10280   */\n      tag_413\n        /* \"#utility.yul\":10274:10279   */\n      dup2\n        /* \"#utility.yul\":10247:10280   */\n      tag_276\n      jump\t// in\n    tag_413:\n        /* \"#utility.yul\":10143:10286   */\n      swap3\n      swap2\n      pop\n      pop\n      jump\t// out\n        /* \"#utility.yul\":10292:11112   */\n    tag_139:\n        /* \"#utility.yul\":10389:10395   */\n      0x00\n        /* \"#utility.yul\":10397:10403   */\n      dup1\n        /* \"#utility.yul\":10405:10411   */\n      0x00\n        /* \"#utility.yul\":10413:10419   */\n      dup1\n        /* \"#utility.yul\":10462:10465   */\n      0x80\n        /* \"#utility.yul\":10450:10459   */\n      dup6\n        /* \"#utility.yul\":10441:10448   */\n      dup8\n        /* \"#utility.yul\":10437:10460   */\n      sub\n        /* \"#utility.yul\":10433:10466   */\n      slt\n        /* \"#utility.yul\":10430:10550   */\n      iszero\n      tag_415\n      jumpi\n        /* \"#utility.yul\":10469:10548   */\n      tag_416\n      tag_268\n      jump\t// in\n    tag_416:\n        /* \"#utility.yul\":10430:10550   */\n    tag_415:\n        /* \"#utility.yul\":10589:10590   */\n      0x00\n        /* \"#utility.yul\":10614:10678   */\n      tag_417\n        /* \"#utility.yul\":10670:10677   */\n      dup8\n        /* \"#utility.yul\":10661:10667   */\n      dup3\n        /* \"#utility.yul\":10650:10659   */\n      dup9\n        /* \"#utility.yul\":10646:10668   */\n      add\n        /* \"#utility.yul\":10614:10678   */\n      tag_294\n      jump\t// in\n    tag_417:\n        /* \"#utility.yul\":10604:10678   */\n      swap5\n      pop\n        /* \"#utility.yul\":10560:10688   */\n      pop\n        /* \"#utility.yul\":10727:10729   */\n      0x20\n        /* \"#utility.yul\":10753:10817   */\n      tag_418\n        /* \"#utility.yul\":10809:10816   */\n      dup8\n        /* \"#utility.yul\":10800:10806   */\n      dup3\n        /* \"#utility.yul\":10789:10798   */\n      dup9\n        /* \"#utility.yul\":10785:10807   */\n      add\n        /* \"#utility.yul\":10753:10817   */\n      tag_294\n      jump\t// in\n    tag_418:\n        /* \"#utility.yul\":10743:10817   */\n      swap4\n      pop\n        /* \"#utility.yul\":10698:10827   */\n      pop\n        /* \"#utility.yul\":10866:10868   */\n      0x40\n        /* \"#utility.yul\":10892:10956   */\n      tag_419\n        /* \"#utility.yul\":10948:10955   */\n      dup8\n        /* \"#utility.yul\":10939:10945   */\n      dup3\n        /* \"#utility.yul\":10928:10937   */\n      dup9\n        /* \"#utility.yul\":10924:10946   */\n      add\n        /* \"#utility.yul\":10892:10956   */\n      tag_294\n      jump\t// in\n    tag_419:\n        /* \"#utility.yul\":10882:10956   */\n      swap3\n      pop\n        /* \"#utility.yul\":10837:10966   */\n      pop\n        /* \"#utility.yul\":11005:11007   */\n      0x60\n        /* \"#utility.yul\":11031:11095   */\n      tag_420\n        /* \"#utility.yul\":11087:11094   */\n      dup8\n        /* \"#utility.yul\":11078:11084   */\n      dup3\n        /* \"#utility.yul\":11067:11076   */\n      dup9\n        /* \"#utility.yul\":11063:11085   */\n      add\n        /* \"#utility.yul\":11031:11095   */\n      tag_294\n      jump\t// in\n    tag_420:\n        /* \"#utility.yul\":11021:11095   */\n      swap2\n      pop\n        /* \"#utility.yul\":10976:11105   */\n      pop\n        /* \"#utility.yul\":10292:11112   */\n      swap3\n      swap6\n      swap2\n      swap5\n      pop\n      swap3\n      pop\n      jump\t// out\n        /* \"#utility.yul\":11118:11528   */\n    tag_200:\n        /* \"#utility.yul\":11158:11165   */\n      0x00\n        /* \"#utility.yul\":11181:11201   */\n      tag_422\n        /* \"#utility.yul\":11199:11200   */\n      dup3\n        /* \"#utility.yul\":11181:11201   */\n      tag_275\n      jump\t// in\n    tag_422:\n        /* \"#utility.yul\":11176:11201   */\n      swap2\n      pop\n        /* \"#utility.yul\":11215:11235   */\n      tag_423\n        /* \"#utility.yul\":11233:11234   */\n      dup4\n        /* \"#utility.yul\":11215:11235   */\n      tag_275\n      jump\t// in\n    tag_423:\n        /* \"#utility.yul\":11210:11235   */\n      swap3\n      pop\n        /* \"#utility.yul\":11270:11271   */\n      dup3\n        /* \"#utility.yul\":11267:11268   */\n      dup3\n        /* \"#utility.yul\":11263:11272   */\n      mul\n        /* \"#utility.yul\":11292:11322   */\n      tag_424\n        /* \"#utility.yul\":11310:11321   */\n      dup2\n        /* \"#utility.yul\":11292:11322   */\n      tag_275\n      jump\t// in\n    tag_424:\n        /* \"#utility.yul\":11281:11322   */\n      swap2\n      pop\n        /* \"#utility.yul\":11471:11472   */\n      dup3\n        /* \"#utility.yul\":11462:11469   */\n      dup3\n        /* \"#utility.yul\":11458:11473   */\n      div\n        /* \"#utility.yul\":11455:11456   */\n      dup5\n        /* \"#utility.yul\":11452:11474   */\n      eq\n        /* \"#utility.yul\":11432:11433   */\n      dup4\n        /* \"#utility.yul\":11425:11434   */\n      iszero\n        /* \"#utility.yul\":11405:11488   */\n      or\n        /* \"#utility.yul\":11382:11521   */\n      tag_425\n      jumpi\n        /* \"#utility.yul\":11501:11519   */\n      tag_426\n      tag_291\n      jump\t// in\n    tag_426:\n        /* \"#utility.yul\":11382:11521   */\n    tag_425:\n        /* \"#utility.yul\":11166:11528   */\n      pop\n        /* \"#utility.yul\":11118:11528   */\n      swap3\n      swap2\n      pop\n      pop\n      jump\t// out\n\n    auxdata: 0xa26469706673582212209db72c7275dde2c510ded13d543fbb0aeb92273fded8dd03c1e7f6bbc7409d4464736f6c63430008120033\n}\n",
				"bytecode": {
					"linkReferences": {
						"verifier.sol": {
							"BN256G2": [
								{
									"length": 20,
									"start": 2460
								}
							]
						}
					},
					"object": "608060405234801561001057600080fd5b506119a0806100206000396000f3fe608060405234801561001057600080fd5b506004361061002b5760003560e01c8063f48d772914610030575b600080fd5b61004a60048036038101906100459190611639565b610060565b6040516100579190611696565b60405180910390f35b600080600167ffffffffffffffff81111561007e5761007d611317565b5b6040519080825280602002602001820160405280156100ac5781602001602082028036833780820191505090505b50905060005b6001811015610105578381600181106100ce576100cd6116b1565b5b60200201518282815181106100e6576100e56116b1565b5b60200260200101818152505080806100fd9061170f565b9150506100b2565b506000610112828661012d565b03610121576001915050610127565b60009150505b92915050565b6000807f30644e72e131a029b85045b68181585d2833e84879b9709143e1f593f00000019050600061015d610302565b90508060a0015151600186516101739190611757565b1461017d57600080fd5b60006040518060400160405280600081526020016000815250905060005b865181101561023657838782815181106101b8576101b76116b1565b5b6020026020010151106101ca57600080fd5b6102218261021c8560a001516001856101e39190611757565b815181106101f4576101f36116b1565b5b60200260200101518a858151811061020f5761020e6116b1565b5b6020026020010151610763565b610805565b9150808061022e9061170f565b91505061019b565b50610260818360a00151600081518110610253576102526116b1565b5b6020026020010151610805565b90506102b082602001518360400151838560800151896040015187600001516102996102948d600001518b60200151610805565b6108cd565b6102ab8d602001518b60400151610972565b610b6a565b6102c057600193505050506102fc565b6102e4856000015183608001516102da85606001516108cd565b8860200151610d37565b6102f457600293505050506102fc565b600093505050505b92915050565b61030a6111d6565b604051806040016040528060405180604001604052807f1892c8973d10c9f349213655f13d49b0e7488edec661fa48bd0a9490992ee5ab81526020017f2aea204a4e2119be3186acf84b636acc7dc1ea39b250d92f38e79fccd9cd6637815250815260200160405180604001604052807f1c9e246bfed28dd09cf294f8671adfcccfec4db18c13aaf14936235e662da86d81526020017f0787f663abe8a6e7babb6f70fd47801989c4d2d90140a7a53452aafd3f2299a1815250815250816000018190525060405180604001604052807f2fa8fb2ef8714c119d621493418fcf550ef6bcc8823a3426ea6264a3ffbe45e681526020017f04d3f4142e5eed55f21202ce1b987f62fe61dbf083410b183f1f6aa80cdc15c78152508160200181905250604051806040016040528060405180604001604052807f12ed38b467f166cd862d7364e82d63aa1014b115fe543ae754e3d0b6d32d3a3381526020017f2362ea1f32d486bf8768966653f3875c6cc272302b5f2b30c4937edd80a380a1815250815260200160405180604001604052807f12ab9ef2a011871c6958426871724f7958fc6da80d938ed1bb4a6f04ea31847a81526020017f14a51acf244833dbceeda93190fd1969a33dc1af4189abee9e6f3ae61e4ef0ed815250815250816040018190525060405180604001604052807f1ed9d7bbac4ee73fe3d12daac465034049c0d6dfb6021d725697d0bc81e89c4681526020017f1b495ba82918d54a692264c1f8bb93825e0c931e95bad397e692141b859f76148152508160600181905250604051806040016040528060405180604001604052807f1892c8973d10c9f349213655f13d49b0e7488edec661fa48bd0a9490992ee5ab81526020017f2aea204a4e2119be3186acf84b636acc7dc1ea39b250d92f38e79fccd9cd6637815250815260200160405180604001604052807f1c9e246bfed28dd09cf294f8671adfcccfec4db18c13aaf14936235e662da86d81526020017f0787f663abe8a6e7babb6f70fd47801989c4d2d90140a7a53452aafd3f2299a18152508152508160800181905250600267ffffffffffffffff81111561062e5761062d611317565b5b60405190808252806020026020018201604052801561066757816020015b61065461122a565b81526020019060019003908161064c5790505b508160a0018190525060405180604001604052807f1f5416e16e56eed524894a6e0630107f8cfec22c2c38fa4a892a8960acfc91cc81526020017f23a6a3df88eeb6d572b7a7bce4a55ed92cb8c64c2de88a3eaae42dade26cd8ae8152508160a001516000815181106106dd576106dc6116b1565b5b602002602001018190525060405180604001604052807f27adc6b6a5c16d10f27dbd0488bde262b71f13cda17e2d7db146ff8f9d5887f181526020017f295ec6b4245944a7b91516387ffe870cb2c4817fd3fed95d7fff0c34f02d0f118152508160a00151600181518110610755576107546116b1565b5b602002602001018190525090565b61076b61122a565b610773611244565b83600001518160006003811061078c5761078b6116b1565b5b6020020181815250508360200151816001600381106107ae576107ad6116b1565b5b60200201818152505082816002600381106107cc576107cb6116b1565b5b602002018181525050600060608360808460076107d05a03fa905080600081036107f257fe5b50806107fd57600080fd5b505092915050565b61080d61122a565b610815611266565b83600001518160006004811061082e5761082d6116b1565b5b6020020181815250508360200151816001600481106108505761084f6116b1565b5b602002018181525050826000015181600260048110610872576108716116b1565b5b602002018181525050826020015181600360048110610894576108936116b1565b5b602002018181525050600060608360c08460066107d05a03fa905080600081036108ba57fe5b50806108c557600080fd5b505092915050565b6108d561122a565b60007f30644e72e131a029b85045b68181585d97816a916871ca8d3c208c16d87cfd47905060008360000151148015610912575060008360200151145b1561093657604051806040016040528060008152602001600081525091505061096d565b60405180604001604052808460000151815260200182856020015161095b91906117ba565b8361096691906117eb565b8152509150505b919050565b61097a611288565b73__$07f4b812d12dc90aa85ee049d68ea6545e$__6361a931ec84600001516000600281106109ac576109ab6116b1565b5b602002015185600001516001600281106109c9576109c86116b1565b5b602002015186602001516000600281106109e6576109e56116b1565b5b60200201518760200151600160028110610a0357610a026116b1565b5b60200201518760000151600060028110610a2057610a1f6116b1565b5b60200201518860000151600160028110610a3d57610a3c6116b1565b5b60200201518960200151600060028110610a5a57610a596116b1565b5b60200201518a60200151600160028110610a7757610a766116b1565b5b60200201516040518963ffffffff1660e01b8152600401610a9f98979695949392919061182e565b608060405180830381865af4158015610abc573d6000803e3d6000fd5b505050506040513d601f19601f82011682018060405250810190610ae091906118c1565b8460000151600060028110610af857610af76116b1565b5b602002018560000151600160028110610b1457610b136116b1565b5b602002018660200151600060028110610b3057610b2f6116b1565b5b602002018760200151600160028110610b4c57610b4b6116b1565b5b60200201848152508481525084815250848152505050505092915050565b600080600467ffffffffffffffff811115610b8857610b87611317565b5b604051908082528060200260200182016040528015610bc157816020015b610bae61122a565b815260200190600190039081610ba65790505b5090506000600467ffffffffffffffff811115610be157610be0611317565b5b604051908082528060200260200182016040528015610c1a57816020015b610c07611288565b815260200190600190039081610bff5790505b5090508a82600081518110610c3257610c316116b1565b5b60200260200101819052508882600181518110610c5257610c516116b1565b5b60200260200101819052508682600281518110610c7257610c716116b1565b5b60200260200101819052508482600381518110610c9257610c916116b1565b5b60200260200101819052508981600081518110610cb257610cb16116b1565b5b60200260200101819052508781600181518110610cd257610cd16116b1565b5b60200260200101819052508581600281518110610cf257610cf16116b1565b5b60200260200101819052508381600381518110610d1257610d116116b1565b5b6020026020010181905250610d278282610e80565b9250505098975050505050505050565b600080600267ffffffffffffffff811115610d5557610d54611317565b5b604051908082528060200260200182016040528015610d8e57816020015b610d7b61122a565b815260200190600190039081610d735790505b5090506000600267ffffffffffffffff811115610dae57610dad611317565b5b604051908082528060200260200182016040528015610de757816020015b610dd4611288565b815260200190600190039081610dcc5790505b5090508682600081518110610dff57610dfe6116b1565b5b60200260200101819052508482600181518110610e1f57610e1e6116b1565b5b60200260200101819052508581600081518110610e3f57610e3e6116b1565b5b60200260200101819052508381600181518110610e5f57610e5e6116b1565b5b6020026020010181905250610e748282610e80565b92505050949350505050565b60008151835114610e9057600080fd5b6000835190506000600682610ea59190611928565b905060008167ffffffffffffffff811115610ec357610ec2611317565b5b604051908082528060200260200182016040528015610ef15781602001602082028036833780820191505090505b50905060005b8381101561117657868181518110610f1257610f116116b1565b5b602002602001015160000151826000600684610f2e9190611928565b610f389190611757565b81518110610f4957610f486116b1565b5b602002602001018181525050868181518110610f6857610f676116b1565b5b602002602001015160200151826001600684610f849190611928565b610f8e9190611757565b81518110610f9f57610f9e6116b1565b5b602002602001018181525050858181518110610fbe57610fbd6116b1565b5b602002602001015160000151600160028110610fdd57610fdc6116b1565b5b6020020151826002600684610ff29190611928565b610ffc9190611757565b8151811061100d5761100c6116b1565b5b60200260200101818152505085818151811061102c5761102b6116b1565b5b60200260200101516000015160006002811061104b5761104a6116b1565b5b60200201518260036006846110609190611928565b61106a9190611757565b8151811061107b5761107a6116b1565b5b60200260200101818152505085818151811061109a576110996116b1565b5b6020026020010151602001516001600281106110b9576110b86116b1565b5b60200201518260046006846110ce9190611928565b6110d89190611757565b815181106110e9576110e86116b1565b5b602002602001018181525050858181518110611108576111076116b1565b5b602002602001015160200151600060028110611127576111266116b1565b5b602002015182600560068461113c9190611928565b6111469190611757565b81518110611157576111566116b1565b5b602002602001018181525050808061116e9061170f565b915050610ef7565b5061117f6112ae565b6000602082602086026020860160086107d05a03fa905080600081036111a157fe5b50806111ac57600080fd5b6000826000600181106111c2576111c16116b1565b5b602002015114159550505050505092915050565b6040518060c001604052806111e9611288565b81526020016111f661122a565b8152602001611203611288565b815260200161121061122a565b815260200161121d611288565b8152602001606081525090565b604051806040016040528060008152602001600081525090565b6040518060600160405280600390602082028036833780820191505090505090565b6040518060800160405280600490602082028036833780820191505090505090565b604051806040016040528061129b6112d0565b81526020016112a86112d0565b81525090565b6040518060200160405280600190602082028036833780820191505090505090565b6040518060400160405280600290602082028036833780820191505090505090565b6000604051905090565b600080fd5b600080fd5b6000601f19601f8301169050919050565b7f4e487b7100000000000000000000000000000000000000000000000000000000600052604160045260246000fd5b61134f82611306565b810181811067ffffffffffffffff8211171561136e5761136d611317565b5b80604052505050565b60006113816112f2565b905061138d8282611346565b919050565b6000819050919050565b6113a581611392565b81146113b057600080fd5b50565b6000813590506113c28161139c565b92915050565b6000604082840312156113de576113dd611301565b5b6113e86040611377565b905060006113f8848285016113b3565b600083015250602061140c848285016113b3565b60208301525092915050565b600080fd5b600067ffffffffffffffff82111561143857611437611317565b5b602082029050919050565b600080fd5b600061145b6114568461141d565b611377565b9050806020840283018581111561147557611474611443565b5b835b8181101561149e578061148a88826113b3565b845260208401935050602081019050611477565b5050509392505050565b600082601f8301126114bd576114bc611418565b5b60026114ca848285611448565b91505092915050565b6000608082840312156114e9576114e8611301565b5b6114f36040611377565b90506000611503848285016114a8565b6000830152506040611517848285016114a8565b60208301525092915050565b6000610100828403121561153a57611539611301565b5b6115446060611377565b90506000611554848285016113c8565b6000830152506040611568848285016114d3565b60208301525060c061157c848285016113c8565b60408301525092915050565b600067ffffffffffffffff8211156115a3576115a2611317565b5b602082029050919050565b60006115c16115bc84611588565b611377565b905080602084028301858111156115db576115da611443565b5b835b8181101561160457806115f088826113b3565b8452602084019350506020810190506115dd565b5050509392505050565b600082601f83011261162357611622611418565b5b60016116308482856115ae565b91505092915050565b6000806101208385031215611651576116506112fc565b5b600061165f85828601611523565b9250506101006116718582860161160e565b9150509250929050565b60008115159050919050565b6116908161167b565b82525050565b60006020820190506116ab6000830184611687565b92915050565b7f4e487b7100000000000000000000000000000000000000000000000000000000600052603260045260246000fd5b7f4e487b7100000000000000000000000000000000000000000000000000000000600052601160045260246000fd5b600061171a82611392565b91507fffffffffffffffffffffffffffffffffffffffffffffffffffffffffffffffff820361174c5761174b6116e0565b5b600182019050919050565b600061176282611392565b915061176d83611392565b9250828201905080821115611785576117846116e0565b5b92915050565b7f4e487b7100000000000000000000000000000000000000000000000000000000600052601260045260246000fd5b60006117c582611392565b91506117d083611392565b9250826117e0576117df61178b565b5b828206905092915050565b60006117f682611392565b915061180183611392565b9250828203905081811115611819576118186116e0565b5b92915050565b61182881611392565b82525050565b600061010082019050611844600083018b61181f565b611851602083018a61181f565b61185e604083018961181f565b61186b606083018861181f565b611878608083018761181f565b61188560a083018661181f565b61189260c083018561181f565b61189f60e083018461181f565b9998505050505050505050565b6000815190506118bb8161139c565b92915050565b600080600080608085870312156118db576118da6112fc565b5b60006118e9878288016118ac565b94505060206118fa878288016118ac565b935050604061190b878288016118ac565b925050606061191c878288016118ac565b91505092959194509250565b600061193382611392565b915061193e83611392565b925082820261194c81611392565b91508282048414831517611963576119626116e0565b5b509291505056fea26469706673582212209db72c7275dde2c510ded13d543fbb0aeb92273fded8dd03c1e7f6bbc7409d4464736f6c63430008120033",
					"opcodes": "PUSH1 0x80 PUSH1 0x40 MSTORE CALLVALUE DUP1 ISZERO PUSH2 0x10 JUMPI PUSH1 0x0 DUP1 REVERT JUMPDEST POP PUSH2 0x19A0 DUP1 PUSH2 0x20 PUSH1 0x0 CODECOPY PUSH1 0x0 RETURN INVALID PUSH1 0x80 PUSH1 0x40 MSTORE CALLVALUE DUP1 ISZERO PUSH2 0x10 JUMPI PUSH1 0x0 DUP1 REVERT JUMPDEST POP PUSH1 0x4 CALLDATASIZE LT PUSH2 0x2B JUMPI PUSH1 0x0 CALLDATALOAD PUSH1 0xE0 SHR DUP1 PUSH4 0xF48D7729 EQ PUSH2 0x30 JUMPI JUMPDEST PUSH1 0x0 DUP1 REVERT JUMPDEST PUSH2 0x4A PUSH1 0x4 DUP1 CALLDATASIZE SUB DUP2 ADD SWAP1 PUSH2 0x45 SWAP2 SWAP1 PUSH2 0x1639 JUMP JUMPDEST PUSH2 0x60 JUMP JUMPDEST PUSH1 0x40 MLOAD PUSH2 0x57 SWAP2 SWAP1 PUSH2 0x1696 JUMP JUMPDEST PUSH1 0x40 MLOAD DUP1 SWAP2 SUB SWAP1 RETURN JUMPDEST PUSH1 0x0 DUP1 PUSH1 0x1 PUSH8 0xFFFFFFFFFFFFFFFF DUP2 GT ISZERO PUSH2 0x7E JUMPI PUSH2 0x7D PUSH2 0x1317 JUMP JUMPDEST JUMPDEST PUSH1 0x40 MLOAD SWAP1 DUP1 DUP3 MSTORE DUP1 PUSH1 0x20 MUL PUSH1 0x20 ADD DUP3 ADD PUSH1 0x40 MSTORE DUP1 ISZERO PUSH2 0xAC JUMPI DUP2 PUSH1 0x20 ADD PUSH1 0x20 DUP3 MUL DUP1 CALLDATASIZE DUP4 CALLDATACOPY DUP1 DUP3 ADD SWAP2 POP POP SWAP1 POP JUMPDEST POP SWAP1 POP PUSH1 0x0 JUMPDEST PUSH1 0x1 DUP2 LT ISZERO PUSH2 0x105 JUMPI DUP4 DUP2 PUSH1 0x1 DUP2 LT PUSH2 0xCE JUMPI PUSH2 0xCD PUSH2 0x16B1 JUMP JUMPDEST JUMPDEST PUSH1 0x20 MUL ADD MLOAD DUP3 DUP3 DUP2 MLOAD DUP2 LT PUSH2 0xE6 JUMPI PUSH2 0xE5 PUSH2 0x16B1 JUMP JUMPDEST JUMPDEST PUSH1 0x20 MUL PUSH1 0x20 ADD ADD DUP2 DUP2 MSTORE POP POP DUP1 DUP1 PUSH2 0xFD SWAP1 PUSH2 0x170F JUMP JUMPDEST SWAP2 POP POP PUSH2 0xB2 JUMP JUMPDEST POP PUSH1 0x0 PUSH2 0x112 DUP3 DUP7 PUSH2 0x12D JUMP JUMPDEST SUB PUSH2 0x121 JUMPI PUSH1 0x1 SWAP2 POP POP PUSH2 0x127 JUMP JUMPDEST PUSH1 0x0 SWAP2 POP POP JUMPDEST SWAP3 SWAP2 POP POP JUMP JUMPDEST PUSH1 0x0 DUP1 PUSH32 0x30644E72E131A029B85045B68181585D2833E84879B9709143E1F593F0000001 SWAP1 POP PUSH1 0x0 PUSH2 0x15D PUSH2 0x302 JUMP JUMPDEST SWAP1 POP DUP1 PUSH1 0xA0 ADD MLOAD MLOAD PUSH1 0x1 DUP7 MLOAD PUSH2 0x173 SWAP2 SWAP1 PUSH2 0x1757 JUMP JUMPDEST EQ PUSH2 0x17D JUMPI PUSH1 0x0 DUP1 REVERT JUMPDEST PUSH1 0x0 PUSH1 0x40 MLOAD DUP1 PUSH1 0x40 ADD PUSH1 0x40 MSTORE DUP1 PUSH1 0x0 DUP2 MSTORE PUSH1 0x20 ADD PUSH1 0x0 DUP2 MSTORE POP SWAP1 POP PUSH1 0x0 JUMPDEST DUP7 MLOAD DUP2 LT ISZERO PUSH2 0x236 JUMPI DUP4 DUP8 DUP3 DUP2 MLOAD DUP2 LT PUSH2 0x1B8 JUMPI PUSH2 0x1B7 PUSH2 0x16B1 JUMP JUMPDEST JUMPDEST PUSH1 0x20 MUL PUSH1 0x20 ADD ADD MLOAD LT PUSH2 0x1CA JUMPI PUSH1 0x0 DUP1 REVERT JUMPDEST PUSH2 0x221 DUP3 PUSH2 0x21C DUP6 PUSH1 0xA0 ADD MLOAD PUSH1 0x1 DUP6 PUSH2 0x1E3 SWAP2 SWAP1 PUSH2 0x1757 JUMP JUMPDEST DUP2 MLOAD DUP2 LT PUSH2 0x1F4 JUMPI PUSH2 0x1F3 PUSH2 0x16B1 JUMP JUMPDEST JUMPDEST PUSH1 0x20 MUL PUSH1 0x20 ADD ADD MLOAD DUP11 DUP6 DUP2 MLOAD DUP2 LT PUSH2 0x20F JUMPI PUSH2 0x20E PUSH2 0x16B1 JUMP JUMPDEST JUMPDEST PUSH1 0x20 MUL PUSH1 0x20 ADD ADD MLOAD PUSH2 0x763 JUMP JUMPDEST PUSH2 0x805 JUMP JUMPDEST SWAP2 POP DUP1 DUP1 PUSH2 0x22E SWAP1 PUSH2 0x170F JUMP JUMPDEST SWAP2 POP POP PUSH2 0x19B JUMP JUMPDEST POP PUSH2 0x260 DUP2 DUP4 PUSH1 0xA0 ADD MLOAD PUSH1 0x0 DUP2 MLOAD DUP2 LT PUSH2 0x253 JUMPI PUSH2 0x252 PUSH2 0x16B1 JUMP JUMPDEST JUMPDEST PUSH1 0x20 MUL PUSH1 0x20 ADD ADD MLOAD PUSH2 0x805 JUMP JUMPDEST SWAP1 POP PUSH2 0x2B0 DUP3 PUSH1 0x20 ADD MLOAD DUP4 PUSH1 0x40 ADD MLOAD DUP4 DUP6 PUSH1 0x80 ADD MLOAD DUP10 PUSH1 0x40 ADD MLOAD DUP8 PUSH1 0x0 ADD MLOAD PUSH2 0x299 PUSH2 0x294 DUP14 PUSH1 0x0 ADD MLOAD DUP12 PUSH1 0x20 ADD MLOAD PUSH2 0x805 JUMP JUMPDEST PUSH2 0x8CD JUMP JUMPDEST PUSH2 0x2AB DUP14 PUSH1 0x20 ADD MLOAD DUP12 PUSH1 0x40 ADD MLOAD PUSH2 0x972 JUMP JUMPDEST PUSH2 0xB6A JUMP JUMPDEST PUSH2 0x2C0 JUMPI PUSH1 0x1 SWAP4 POP POP POP POP PUSH2 0x2FC JUMP JUMPDEST PUSH2 0x2E4 DUP6 PUSH1 0x0 ADD MLOAD DUP4 PUSH1 0x80 ADD MLOAD PUSH2 0x2DA DUP6 PUSH1 0x60 ADD MLOAD PUSH2 0x8CD JUMP JUMPDEST DUP9 PUSH1 0x20 ADD MLOAD PUSH2 0xD37 JUMP JUMPDEST PUSH2 0x2F4 JUMPI PUSH1 0x2 SWAP4 POP POP POP POP PUSH2 0x2FC JUMP JUMPDEST PUSH1 0x0 SWAP4 POP POP POP POP JUMPDEST SWAP3 SWAP2 POP POP JUMP JUMPDEST PUSH2 0x30A PUSH2 0x11D6 JUMP JUMPDEST PUSH1 0x40 MLOAD DUP1 PUSH1 0x40 ADD PUSH1 0x40 MSTORE DUP1 PUSH1 0x40 MLOAD DUP1 PUSH1 0x40 ADD PUSH1 0x40 MSTORE DUP1 PUSH32 0x1892C8973D10C9F349213655F13D49B0E7488EDEC661FA48BD0A9490992EE5AB DUP2 MSTORE PUSH1 0x20 ADD PUSH32 0x2AEA204A4E2119BE3186ACF84B636ACC7DC1EA39B250D92F38E79FCCD9CD6637 DUP2 MSTORE POP DUP2 MSTORE PUSH1 0x20 ADD PUSH1 0x40 MLOAD DUP1 PUSH1 0x40 ADD PUSH1 0x40 MSTORE DUP1 PUSH32 0x1C9E246BFED28DD09CF294F8671ADFCCCFEC4DB18C13AAF14936235E662DA86D DUP2 MSTORE PUSH1 0x20 ADD PUSH32 0x787F663ABE8A6E7BABB6F70FD47801989C4D2D90140A7A53452AAFD3F2299A1 DUP2 MSTORE POP DUP2 MSTORE POP DUP2 PUSH1 0x0 ADD DUP2 SWAP1 MSTORE POP PUSH1 0x40 MLOAD DUP1 PUSH1 0x40 ADD PUSH1 0x40 MSTORE DUP1 PUSH32 0x2FA8FB2EF8714C119D621493418FCF550EF6BCC8823A3426EA6264A3FFBE45E6 DUP2 MSTORE PUSH1 0x20 ADD PUSH32 0x4D3F4142E5EED55F21202CE1B987F62FE61DBF083410B183F1F6AA80CDC15C7 DUP2 MSTORE POP DUP2 PUSH1 0x20 ADD DUP2 SWAP1 MSTORE POP PUSH1 0x40 MLOAD DUP1 PUSH1 0x40 ADD PUSH1 0x40 MSTORE DUP1 PUSH1 0x40 MLOAD DUP1 PUSH1 0x40 ADD PUSH1 0x40 MSTORE DUP1 PUSH32 0x12ED38B467F166CD862D7364E82D63AA1014B115FE543AE754E3D0B6D32D3A33 DUP2 MSTORE PUSH1 0x20 ADD PUSH32 0x2362EA1F32D486BF8768966653F3875C6CC272302B5F2B30C4937EDD80A380A1 DUP2 MSTORE POP DUP2 MSTORE PUSH1 0x20 ADD PUSH1 0x40 MLOAD DUP1 PUSH1 0x40 ADD PUSH1 0x40 MSTORE DUP1 PUSH32 0x12AB9EF2A011871C6958426871724F7958FC6DA80D938ED1BB4A6F04EA31847A DUP2 MSTORE PUSH1 0x20 ADD PUSH32 0x14A51ACF244833DBCEEDA93190FD1969A33DC1AF4189ABEE9E6F3AE61E4EF0ED DUP2 MSTORE POP DUP2 MSTORE POP DUP2 PUSH1 0x40 ADD DUP2 SWAP1 MSTORE POP PUSH1 0x40 MLOAD DUP1 PUSH1 0x40 ADD PUSH1 0x40 MSTORE DUP1 PUSH32 0x1ED9D7BBAC4EE73FE3D12DAAC465034049C0D6DFB6021D725697D0BC81E89C46 DUP2 MSTORE PUSH1 0x20 ADD PUSH32 0x1B495BA82918D54A692264C1F8BB93825E0C931E95BAD397E692141B859F7614 DUP2 MSTORE POP DUP2 PUSH1 0x60 ADD DUP2 SWAP1 MSTORE POP PUSH1 0x40 MLOAD DUP1 PUSH1 0x40 ADD PUSH1 0x40 MSTORE DUP1 PUSH1 0x40 MLOAD DUP1 PUSH1 0x40 ADD PUSH1 0x40 MSTORE DUP1 PUSH32 0x1892C8973D10C9F349213655F13D49B0E7488EDEC661FA48BD0A9490992EE5AB DUP2 MSTORE PUSH1 0x20 ADD PUSH32 0x2AEA204A4E2119BE3186ACF84B636ACC7DC1EA39B250D92F38E79FCCD9CD6637 DUP2 MSTORE POP DUP2 MSTORE PUSH1 0x20 ADD PUSH1 0x40 MLOAD DUP1 PUSH1 0x40 ADD PUSH1 0x40 MSTORE DUP1 PUSH32 0x1C9E246BFED28DD09CF294F8671ADFCCCFEC4DB18C13AAF14936235E662DA86D DUP2 MSTORE PUSH1 0x20 ADD PUSH32 0x787F663ABE8A6E7BABB6F70FD47801989C4D2D90140A7A53452AAFD3F2299A1 DUP2 MSTORE POP DUP2 MSTORE POP DUP2 PUSH1 0x80 ADD DUP2 SWAP1 MSTORE POP PUSH1 0x2 PUSH8 0xFFFFFFFFFFFFFFFF DUP2 GT ISZERO PUSH2 0x62E JUMPI PUSH2 0x62D PUSH2 0x1317 JUMP JUMPDEST JUMPDEST PUSH1 0x40 MLOAD SWAP1 DUP1 DUP3 MSTORE DUP1 PUSH1 0x20 MUL PUSH1 0x20 ADD DUP3 ADD PUSH1 0x40 MSTORE DUP1 ISZERO PUSH2 0x667 JUMPI DUP2 PUSH1 0x20 ADD JUMPDEST PUSH2 0x654 PUSH2 0x122A JUMP JUMPDEST DUP2 MSTORE PUSH1 0x20 ADD SWAP1 PUSH1 0x1 SWAP1 SUB SWAP1 DUP2 PUSH2 0x64C JUMPI SWAP1 POP JUMPDEST POP DUP2 PUSH1 0xA0 ADD DUP2 SWAP1 MSTORE POP PUSH1 0x40 MLOAD DUP1 PUSH1 0x40 ADD PUSH1 0x40 MSTORE DUP1 PUSH32 0x1F5416E16E56EED524894A6E0630107F8CFEC22C2C38FA4A892A8960ACFC91CC DUP2 MSTORE PUSH1 0x20 ADD PUSH32 0x23A6A3DF88EEB6D572B7A7BCE4A55ED92CB8C64C2DE88A3EAAE42DADE26CD8AE DUP2 MSTORE POP DUP2 PUSH1 0xA0 ADD MLOAD PUSH1 0x0 DUP2 MLOAD DUP2 LT PUSH2 0x6DD JUMPI PUSH2 0x6DC PUSH2 0x16B1 JUMP JUMPDEST JUMPDEST PUSH1 0x20 MUL PUSH1 0x20 ADD ADD DUP2 SWAP1 MSTORE POP PUSH1 0x40 MLOAD DUP1 PUSH1 0x40 ADD PUSH1 0x40 MSTORE DUP1 PUSH32 0x27ADC6B6A5C16D10F27DBD0488BDE262B71F13CDA17E2D7DB146FF8F9D5887F1 DUP2 MSTORE PUSH1 0x20 ADD PUSH32 0x295EC6B4245944A7B91516387FFE870CB2C4817FD3FED95D7FFF0C34F02D0F11 DUP2 MSTORE POP DUP2 PUSH1 0xA0 ADD MLOAD PUSH1 0x1 DUP2 MLOAD DUP2 LT PUSH2 0x755 JUMPI PUSH2 0x754 PUSH2 0x16B1 JUMP JUMPDEST JUMPDEST PUSH1 0x20 MUL PUSH1 0x20 ADD ADD DUP2 SWAP1 MSTORE POP SWAP1 JUMP JUMPDEST PUSH2 0x76B PUSH2 0x122A JUMP JUMPDEST PUSH2 0x773 PUSH2 0x1244 JUMP JUMPDEST DUP4 PUSH1 0x0 ADD MLOAD DUP2 PUSH1 0x0 PUSH1 0x3 DUP2 LT PUSH2 0x78C JUMPI PUSH2 0x78B PUSH2 0x16B1 JUMP JUMPDEST JUMPDEST PUSH1 0x20 MUL ADD DUP2 DUP2 MSTORE POP POP DUP4 PUSH1 0x20 ADD MLOAD DUP2 PUSH1 0x1 PUSH1 0x3 DUP2 LT PUSH2 0x7AE JUMPI PUSH2 0x7AD PUSH2 0x16B1 JUMP JUMPDEST JUMPDEST PUSH1 0x20 MUL ADD DUP2 DUP2 MSTORE POP POP DUP3 DUP2 PUSH1 0x2 PUSH1 0x3 DUP2 LT PUSH2 0x7CC JUMPI PUSH2 0x7CB PUSH2 0x16B1 JUMP JUMPDEST JUMPDEST PUSH1 0x20 MUL ADD DUP2 DUP2 MSTORE POP POP PUSH1 0x0 PUSH1 0x60 DUP4 PUSH1 0x80 DUP5 PUSH1 0x7 PUSH2 0x7D0 GAS SUB STATICCALL SWAP1 POP DUP1 PUSH1 0x0 DUP2 SUB PUSH2 0x7F2 JUMPI INVALID JUMPDEST POP DUP1 PUSH2 0x7FD JUMPI PUSH1 0x0 DUP1 REVERT JUMPDEST POP POP SWAP3 SWAP2 POP POP JUMP JUMPDEST PUSH2 0x80D PUSH2 0x122A JUMP JUMPDEST PUSH2 0x815 PUSH2 0x1266 JUMP JUMPDEST DUP4 PUSH1 0x0 ADD MLOAD DUP2 PUSH1 0x0 PUSH1 0x4 DUP2 LT PUSH2 0x82E JUMPI PUSH2 0x82D PUSH2 0x16B1 JUMP JUMPDEST JUMPDEST PUSH1 0x20 MUL ADD DUP2 DUP2 MSTORE POP POP DUP4 PUSH1 0x20 ADD MLOAD DUP2 PUSH1 0x1 PUSH1 0x4 DUP2 LT PUSH2 0x850 JUMPI PUSH2 0x84F PUSH2 0x16B1 JUMP JUMPDEST JUMPDEST PUSH1 0x20 MUL ADD DUP2 DUP2 MSTORE POP POP DUP3 PUSH1 0x0 ADD MLOAD DUP2 PUSH1 0x2 PUSH1 0x4 DUP2 LT PUSH2 0x872 JUMPI PUSH2 0x871 PUSH2 0x16B1 JUMP JUMPDEST JUMPDEST PUSH1 0x20 MUL ADD DUP2 DUP2 MSTORE POP POP DUP3 PUSH1 0x20 ADD MLOAD DUP2 PUSH1 0x3 PUSH1 0x4 DUP2 LT PUSH2 0x894 JUMPI PUSH2 0x893 PUSH2 0x16B1 JUMP JUMPDEST JUMPDEST PUSH1 0x20 MUL ADD DUP2 DUP2 MSTORE POP POP PUSH1 0x0 PUSH1 0x60 DUP4 PUSH1 0xC0 DUP5 PUSH1 0x6 PUSH2 0x7D0 GAS SUB STATICCALL SWAP1 POP DUP1 PUSH1 0x0 DUP2 SUB PUSH2 0x8BA JUMPI INVALID JUMPDEST POP DUP1 PUSH2 0x8C5 JUMPI PUSH1 0x0 DUP1 REVERT JUMPDEST POP POP SWAP3 SWAP2 POP POP JUMP JUMPDEST PUSH2 0x8D5 PUSH2 0x122A JUMP JUMPDEST PUSH1 0x0 PUSH32 0x30644E72E131A029B85045B68181585D97816A916871CA8D3C208C16D87CFD47 SWAP1 POP PUSH1 0x0 DUP4 PUSH1 0x0 ADD MLOAD EQ DUP1 ISZERO PUSH2 0x912 JUMPI POP PUSH1 0x0 DUP4 PUSH1 0x20 ADD MLOAD EQ JUMPDEST ISZERO PUSH2 0x936 JUMPI PUSH1 0x40 MLOAD DUP1 PUSH1 0x40 ADD PUSH1 0x40 MSTORE DUP1 PUSH1 0x0 DUP2 MSTORE PUSH1 0x20 ADD PUSH1 0x0 DUP2 MSTORE POP SWAP2 POP POP PUSH2 0x96D JUMP JUMPDEST PUSH1 0x40 MLOAD DUP1 PUSH1 0x40 ADD PUSH1 0x40 MSTORE DUP1 DUP5 PUSH1 0x0 ADD MLOAD DUP2 MSTORE PUSH1 0x20 ADD DUP3 DUP6 PUSH1 0x20 ADD MLOAD PUSH2 0x95B SWAP2 SWAP1 PUSH2 0x17BA JUMP JUMPDEST DUP4 PUSH2 0x966 SWAP2 SWAP1 PUSH2 0x17EB JUMP JUMPDEST DUP2 MSTORE POP SWAP2 POP POP JUMPDEST SWAP2 SWAP1 POP JUMP JUMPDEST PUSH2 0x97A PUSH2 0x1288 JUMP JUMPDEST PUSH20 0x0 PUSH4 0x61A931EC DUP5 PUSH1 0x0 ADD MLOAD PUSH1 0x0 PUSH1 0x2 DUP2 LT PUSH2 0x9AC JUMPI PUSH2 0x9AB PUSH2 0x16B1 JUMP JUMPDEST JUMPDEST PUSH1 0x20 MUL ADD MLOAD DUP6 PUSH1 0x0 ADD MLOAD PUSH1 0x1 PUSH1 0x2 DUP2 LT PUSH2 0x9C9 JUMPI PUSH2 0x9C8 PUSH2 0x16B1 JUMP JUMPDEST JUMPDEST PUSH1 0x20 MUL ADD MLOAD DUP7 PUSH1 0x20 ADD MLOAD PUSH1 0x0 PUSH1 0x2 DUP2 LT PUSH2 0x9E6 JUMPI PUSH2 0x9E5 PUSH2 0x16B1 JUMP JUMPDEST JUMPDEST PUSH1 0x20 MUL ADD MLOAD DUP8 PUSH1 0x20 ADD MLOAD PUSH1 0x1 PUSH1 0x2 DUP2 LT PUSH2 0xA03 JUMPI PUSH2 0xA02 PUSH2 0x16B1 JUMP JUMPDEST JUMPDEST PUSH1 0x20 MUL ADD MLOAD DUP8 PUSH1 0x0 ADD MLOAD PUSH1 0x0 PUSH1 0x2 DUP2 LT PUSH2 0xA20 JUMPI PUSH2 0xA1F PUSH2 0x16B1 JUMP JUMPDEST JUMPDEST PUSH1 0x20 MUL ADD MLOAD DUP9 PUSH1 0x0 ADD MLOAD PUSH1 0x1 PUSH1 0x2 DUP2 LT PUSH2 0xA3D JUMPI PUSH2 0xA3C PUSH2 0x16B1 JUMP JUMPDEST JUMPDEST PUSH1 0x20 MUL ADD MLOAD DUP10 PUSH1 0x20 ADD MLOAD PUSH1 0x0 PUSH1 0x2 DUP2 LT PUSH2 0xA5A JUMPI PUSH2 0xA59 PUSH2 0x16B1 JUMP JUMPDEST JUMPDEST PUSH1 0x20 MUL ADD MLOAD DUP11 PUSH1 0x20 ADD MLOAD PUSH1 0x1 PUSH1 0x2 DUP2 LT PUSH2 0xA77 JUMPI PUSH2 0xA76 PUSH2 0x16B1 JUMP JUMPDEST JUMPDEST PUSH1 0x20 MUL ADD MLOAD PUSH1 0x40 MLOAD DUP10 PUSH4 0xFFFFFFFF AND PUSH1 0xE0 SHL DUP2 MSTORE PUSH1 0x4 ADD PUSH2 0xA9F SWAP9 SWAP8 SWAP7 SWAP6 SWAP5 SWAP4 SWAP3 SWAP2 SWAP1 PUSH2 0x182E JUMP JUMPDEST PUSH1 0x80 PUSH1 0x40 MLOAD DUP1 DUP4 SUB DUP2 DUP7 GAS DELEGATECALL ISZERO DUP1 ISZERO PUSH2 0xABC JUMPI RETURNDATASIZE PUSH1 0x0 DUP1 RETURNDATACOPY RETURNDATASIZE PUSH1 0x0 REVERT JUMPDEST POP POP POP POP PUSH1 0x40 MLOAD RETURNDATASIZE PUSH1 0x1F NOT PUSH1 0x1F DUP3 ADD AND DUP3 ADD DUP1 PUSH1 0x40 MSTORE POP DUP2 ADD SWAP1 PUSH2 0xAE0 SWAP2 SWAP1 PUSH2 0x18C1 JUMP JUMPDEST DUP5 PUSH1 0x0 ADD MLOAD PUSH1 0x0 PUSH1 0x2 DUP2 LT PUSH2 0xAF8 JUMPI PUSH2 0xAF7 PUSH2 0x16B1 JUMP JUMPDEST JUMPDEST PUSH1 0x20 MUL ADD DUP6 PUSH1 0x0 ADD MLOAD PUSH1 0x1 PUSH1 0x2 DUP2 LT PUSH2 0xB14 JUMPI PUSH2 0xB13 PUSH2 0x16B1 JUMP JUMPDEST JUMPDEST PUSH1 0x20 MUL ADD DUP7 PUSH1 0x20 ADD MLOAD PUSH1 0x0 PUSH1 0x2 DUP2 LT PUSH2 0xB30 JUMPI PUSH2 0xB2F PUSH2 0x16B1 JUMP JUMPDEST JUMPDEST PUSH1 0x20 MUL ADD DUP8 PUSH1 0x20 ADD MLOAD PUSH1 0x1 PUSH1 0x2 DUP2 LT PUSH2 0xB4C JUMPI PUSH2 0xB4B PUSH2 0x16B1 JUMP JUMPDEST JUMPDEST PUSH1 0x20 MUL ADD DUP5 DUP2 MSTORE POP DUP5 DUP2 MSTORE POP DUP5 DUP2 MSTORE POP DUP5 DUP2 MSTORE POP POP POP POP POP SWAP3 SWAP2 POP POP JUMP JUMPDEST PUSH1 0x0 DUP1 PUSH1 0x4 PUSH8 0xFFFFFFFFFFFFFFFF DUP2 GT ISZERO PUSH2 0xB88 JUMPI PUSH2 0xB87 PUSH2 0x1317 JUMP JUMPDEST JUMPDEST PUSH1 0x40 MLOAD SWAP1 DUP1 DUP3 MSTORE DUP1 PUSH1 0x20 MUL PUSH1 0x20 ADD DUP3 ADD PUSH1 0x40 MSTORE DUP1 ISZERO PUSH2 0xBC1 JUMPI DUP2 PUSH1 0x20 ADD JUMPDEST PUSH2 0xBAE PUSH2 0x122A JUMP JUMPDEST DUP2 MSTORE PUSH1 0x20 ADD SWAP1 PUSH1 0x1 SWAP1 SUB SWAP1 DUP2 PUSH2 0xBA6 JUMPI SWAP1 POP JUMPDEST POP SWAP1 POP PUSH1 0x0 PUSH1 0x4 PUSH8 0xFFFFFFFFFFFFFFFF DUP2 GT ISZERO PUSH2 0xBE1 JUMPI PUSH2 0xBE0 PUSH2 0x1317 JUMP JUMPDEST JUMPDEST PUSH1 0x40 MLOAD SWAP1 DUP1 DUP3 MSTORE DUP1 PUSH1 0x20 MUL PUSH1 0x20 ADD DUP3 ADD PUSH1 0x40 MSTORE DUP1 ISZERO PUSH2 0xC1A JUMPI DUP2 PUSH1 0x20 ADD JUMPDEST PUSH2 0xC07 PUSH2 0x1288 JUMP JUMPDEST DUP2 MSTORE PUSH1 0x20 ADD SWAP1 PUSH1 0x1 SWAP1 SUB SWAP1 DUP2 PUSH2 0xBFF JUMPI SWAP1 POP JUMPDEST POP SWAP1 POP DUP11 DUP3 PUSH1 0x0 DUP2 MLOAD DUP2 LT PUSH2 0xC32 JUMPI PUSH2 0xC31 PUSH2 0x16B1 JUMP JUMPDEST JUMPDEST PUSH1 0x20 MUL PUSH1 0x20 ADD ADD DUP2 SWAP1 MSTORE POP DUP9 DUP3 PUSH1 0x1 DUP2 MLOAD DUP2 LT PUSH2 0xC52 JUMPI PUSH2 0xC51 PUSH2 0x16B1 JUMP JUMPDEST JUMPDEST PUSH1 0x20 MUL PUSH1 0x20 ADD ADD DUP2 SWAP1 MSTORE POP DUP7 DUP3 PUSH1 0x2 DUP2 MLOAD DUP2 LT PUSH2 0xC72 JUMPI PUSH2 0xC71 PUSH2 0x16B1 JUMP JUMPDEST JUMPDEST PUSH1 0x20 MUL PUSH1 0x20 ADD ADD DUP2 SWAP1 MSTORE POP DUP5 DUP3 PUSH1 0x3 DUP2 MLOAD DUP2 LT PUSH2 0xC92 JUMPI PUSH2 0xC91 PUSH2 0x16B1 JUMP JUMPDEST JUMPDEST PUSH1 0x20 MUL PUSH1 0x20 ADD ADD DUP2 SWAP1 MSTORE POP DUP10 DUP2 PUSH1 0x0 DUP2 MLOAD DUP2 LT PUSH2 0xCB2 JUMPI PUSH2 0xCB1 PUSH2 0x16B1 JUMP JUMPDEST JUMPDEST PUSH1 0x20 MUL PUSH1 0x20 ADD ADD DUP2 SWAP1 MSTORE POP DUP8 DUP2 PUSH1 0x1 DUP2 MLOAD DUP2 LT PUSH2 0xCD2 JUMPI PUSH2 0xCD1 PUSH2 0x16B1 JUMP JUMPDEST JUMPDEST PUSH1 0x20 MUL PUSH1 0x20 ADD ADD DUP2 SWAP1 MSTORE POP DUP6 DUP2 PUSH1 0x2 DUP2 MLOAD DUP2 LT PUSH2 0xCF2 JUMPI PUSH2 0xCF1 PUSH2 0x16B1 JUMP JUMPDEST JUMPDEST PUSH1 0x20 MUL PUSH1 0x20 ADD ADD DUP2 SWAP1 MSTORE POP DUP4 DUP2 PUSH1 0x3 DUP2 MLOAD DUP2 LT PUSH2 0xD12 JUMPI PUSH2 0xD11 PUSH2 0x16B1 JUMP JUMPDEST JUMPDEST PUSH1 0x20 MUL PUSH1 0x20 ADD ADD DUP2 SWAP1 MSTORE POP PUSH2 0xD27 DUP3 DUP3 PUSH2 0xE80 JUMP JUMPDEST SWAP3 POP POP POP SWAP9 SWAP8 POP POP POP POP POP POP POP POP JUMP JUMPDEST PUSH1 0x0 DUP1 PUSH1 0x2 PUSH8 0xFFFFFFFFFFFFFFFF DUP2 GT ISZERO PUSH2 0xD55 JUMPI PUSH2 0xD54 PUSH2 0x1317 JUMP JUMPDEST JUMPDEST PUSH1 0x40 MLOAD SWAP1 DUP1 DUP3 MSTORE DUP1 PUSH1 0x20 MUL PUSH1 0x20 ADD DUP3 ADD PUSH1 0x40 MSTORE DUP1 ISZERO PUSH2 0xD8E JUMPI DUP2 PUSH1 0x20 ADD JUMPDEST PUSH2 0xD7B PUSH2 0x122A JUMP JUMPDEST DUP2 MSTORE PUSH1 0x20 ADD SWAP1 PUSH1 0x1 SWAP1 SUB SWAP1 DUP2 PUSH2 0xD73 JUMPI SWAP1 POP JUMPDEST POP SWAP1 POP PUSH1 0x0 PUSH1 0x2 PUSH8 0xFFFFFFFFFFFFFFFF DUP2 GT ISZERO PUSH2 0xDAE JUMPI PUSH2 0xDAD PUSH2 0x1317 JUMP JUMPDEST JUMPDEST PUSH1 0x40 MLOAD SWAP1 DUP1 DUP3 MSTORE DUP1 PUSH1 0x20 MUL PUSH1 0x20 ADD DUP3 ADD PUSH1 0x40 MSTORE DUP1 ISZERO PUSH2 0xDE7 JUMPI DUP2 PUSH1 0x20 ADD JUMPDEST PUSH2 0xDD4 PUSH2 0x1288 JUMP JUMPDEST DUP2 MSTORE PUSH1 0x20 ADD SWAP1 PUSH1 0x1 SWAP1 SUB SWAP1 DUP2 PUSH2 0xDCC JUMPI SWAP1 POP JUMPDEST POP SWAP1 POP DUP7 DUP3 PUSH1 0x0 DUP2 MLOAD DUP2 LT PUSH2 0xDFF JUMPI PUSH2 0xDFE PUSH2 0x16B1 JUMP JUMPDEST JUMPDEST PUSH1 0x20 MUL PUSH1 0x20 ADD ADD DUP2 SWAP1 MSTORE POP DUP5 DUP3 PUSH1 0x1 DUP2 MLOAD DUP2 LT PUSH2 0xE1F JUMPI PUSH2 0xE1E PUSH2 0x16B1 JUMP JUMPDEST JUMPDEST PUSH1 0x20 MUL PUSH1 0x20 ADD ADD DUP2 SWAP1 MSTORE POP DUP6 DUP2 PUSH1 0x0 DUP2 MLOAD DUP2 LT PUSH2 0xE3F JUMPI PUSH2 0xE3E PUSH2 0x16B1 JUMP JUMPDEST JUMPDEST PUSH1 0x20 MUL PUSH1 0x20 ADD ADD DUP2 SWAP1 MSTORE POP DUP4 DUP2 PUSH1 0x1 DUP2 MLOAD DUP2 LT PUSH2 0xE5F JUMPI PUSH2 0xE5E PUSH2 0x16B1 JUMP JUMPDEST JUMPDEST PUSH1 0x20 MUL PUSH1 0x20 ADD ADD DUP2 SWAP1 MSTORE POP PUSH2 0xE74 DUP3 DUP3 PUSH2 0xE80 JUMP JUMPDEST SWAP3 POP POP POP SWAP5 SWAP4 POP POP POP POP JUMP JUMPDEST PUSH1 0x0 DUP2 MLOAD DUP4 MLOAD EQ PUSH2 0xE90 JUMPI PUSH1 0x0 DUP1 REVERT JUMPDEST PUSH1 0x0 DUP4 MLOAD SWAP1 POP PUSH1 0x0 PUSH1 0x6 DUP3 PUSH2 0xEA5 SWAP2 SWAP1 PUSH2 0x1928 JUMP JUMPDEST SWAP1 POP PUSH1 0x0 DUP2 PUSH8 0xFFFFFFFFFFFFFFFF DUP2 GT ISZERO PUSH2 0xEC3 JUMPI PUSH2 0xEC2 PUSH2 0x1317 JUMP JUMPDEST JUMPDEST PUSH1 0x40 MLOAD SWAP1 DUP1 DUP3 MSTORE DUP1 PUSH1 0x20 MUL PUSH1 0x20 ADD DUP3 ADD PUSH1 0x40 MSTORE DUP1 ISZERO PUSH2 0xEF1 JUMPI DUP2 PUSH1 0x20 ADD PUSH1 0x20 DUP3 MUL DUP1 CALLDATASIZE DUP4 CALLDATACOPY DUP1 DUP3 ADD SWAP2 POP POP SWAP1 POP JUMPDEST POP SWAP1 POP PUSH1 0x0 JUMPDEST DUP4 DUP2 LT ISZERO PUSH2 0x1176 JUMPI DUP7 DUP2 DUP2 MLOAD DUP2 LT PUSH2 0xF12 JUMPI PUSH2 0xF11 PUSH2 0x16B1 JUMP JUMPDEST JUMPDEST PUSH1 0x20 MUL PUSH1 0x20 ADD ADD MLOAD PUSH1 0x0 ADD MLOAD DUP3 PUSH1 0x0 PUSH1 0x6 DUP5 PUSH2 0xF2E SWAP2 SWAP1 PUSH2 0x1928 JUMP JUMPDEST PUSH2 0xF38 SWAP2 SWAP1 PUSH2 0x1757 JUMP JUMPDEST DUP2 MLOAD DUP2 LT PUSH2 0xF49 JUMPI PUSH2 0xF48 PUSH2 0x16B1 JUMP JUMPDEST JUMPDEST PUSH1 0x20 MUL PUSH1 0x20 ADD ADD DUP2 DUP2 MSTORE POP POP DUP7 DUP2 DUP2 MLOAD DUP2 LT PUSH2 0xF68 JUMPI PUSH2 0xF67 PUSH2 0x16B1 JUMP JUMPDEST JUMPDEST PUSH1 0x20 MUL PUSH1 0x20 ADD ADD MLOAD PUSH1 0x20 ADD MLOAD DUP3 PUSH1 0x1 PUSH1 0x6 DUP5 PUSH2 0xF84 SWAP2 SWAP1 PUSH2 0x1928 JUMP JUMPDEST PUSH2 0xF8E SWAP2 SWAP1 PUSH2 0x1757 JUMP JUMPDEST DUP2 MLOAD DUP2 LT PUSH2 0xF9F JUMPI PUSH2 0xF9E PUSH2 0x16B1 JUMP JUMPDEST JUMPDEST PUSH1 0x20 MUL PUSH1 0x20 ADD ADD DUP2 DUP2 MSTORE POP POP DUP6 DUP2 DUP2 MLOAD DUP2 LT PUSH2 0xFBE JUMPI PUSH2 0xFBD PUSH2 0x16B1 JUMP JUMPDEST JUMPDEST PUSH1 0x20 MUL PUSH1 0x20 ADD ADD MLOAD PUSH1 0x0 ADD MLOAD PUSH1 0x1 PUSH1 0x2 DUP2 LT PUSH2 0xFDD JUMPI PUSH2 0xFDC PUSH2 0x16B1 JUMP JUMPDEST JUMPDEST PUSH1 0x20 MUL ADD MLOAD DUP3 PUSH1 0x2 PUSH1 0x6 DUP5 PUSH2 0xFF2 SWAP2 SWAP1 PUSH2 0x1928 JUMP JUMPDEST PUSH2 0xFFC SWAP2 SWAP1 PUSH2 0x1757 JUMP JUMPDEST DUP2 MLOAD DUP2 LT PUSH2 0x100D JUMPI PUSH2 0x100C PUSH2 0x16B1 JUMP JUMPDEST JUMPDEST PUSH1 0x20 MUL PUSH1 0x20 ADD ADD DUP2 DUP2 MSTORE POP POP DUP6 DUP2 DUP2 MLOAD DUP2 LT PUSH2 0x102C JUMPI PUSH2 0x102B PUSH2 0x16B1 JUMP JUMPDEST JUMPDEST PUSH1 0x20 MUL PUSH1 0x20 ADD ADD MLOAD PUSH1 0x0 ADD MLOAD PUSH1 0x0 PUSH1 0x2 DUP2 LT PUSH2 0x104B JUMPI PUSH2 0x104A PUSH2 0x16B1 JUMP JUMPDEST JUMPDEST PUSH1 0x20 MUL ADD MLOAD DUP3 PUSH1 0x3 PUSH1 0x6 DUP5 PUSH2 0x1060 SWAP2 SWAP1 PUSH2 0x1928 JUMP JUMPDEST PUSH2 0x106A SWAP2 SWAP1 PUSH2 0x1757 JUMP JUMPDEST DUP2 MLOAD DUP2 LT PUSH2 0x107B JUMPI PUSH2 0x107A PUSH2 0x16B1 JUMP JUMPDEST JUMPDEST PUSH1 0x20 MUL PUSH1 0x20 ADD ADD DUP2 DUP2 MSTORE POP POP DUP6 DUP2 DUP2 MLOAD DUP2 LT PUSH2 0x109A JUMPI PUSH2 0x1099 PUSH2 0x16B1 JUMP JUMPDEST JUMPDEST PUSH1 0x20 MUL PUSH1 0x20 ADD ADD MLOAD PUSH1 0x20 ADD MLOAD PUSH1 0x1 PUSH1 0x2 DUP2 LT PUSH2 0x10B9 JUMPI PUSH2 0x10B8 PUSH2 0x16B1 JUMP JUMPDEST JUMPDEST PUSH1 0x20 MUL ADD MLOAD DUP3 PUSH1 0x4 PUSH1 0x6 DUP5 PUSH2 0x10CE SWAP2 SWAP1 PUSH2 0x1928 JUMP JUMPDEST PUSH2 0x10D8 SWAP2 SWAP1 PUSH2 0x1757 JUMP JUMPDEST DUP2 MLOAD DUP2 LT PUSH2 0x10E9 JUMPI PUSH2 0x10E8 PUSH2 0x16B1 JUMP JUMPDEST JUMPDEST PUSH1 0x20 MUL PUSH1 0x20 ADD ADD DUP2 DUP2 MSTORE POP POP DUP6 DUP2 DUP2 MLOAD DUP2 LT PUSH2 0x1108 JUMPI PUSH2 0x1107 PUSH2 0x16B1 JUMP JUMPDEST JUMPDEST PUSH1 0x20 MUL PUSH1 0x20 ADD ADD MLOAD PUSH1 0x20 ADD MLOAD PUSH1 0x0 PUSH1 0x2 DUP2 LT PUSH2 0x1127 JUMPI PUSH2 0x1126 PUSH2 0x16B1 JUMP JUMPDEST JUMPDEST PUSH1 0x20 MUL ADD MLOAD DUP3 PUSH1 0x5 PUSH1 0x6 DUP5 PUSH2 0x113C SWAP2 SWAP1 PUSH2 0x1928 JUMP JUMPDEST PUSH2 0x1146 SWAP2 SWAP1 PUSH2 0x1757 JUMP JUMPDEST DUP2 MLOAD DUP2 LT PUSH2 0x1157 JUMPI PUSH2 0x1156 PUSH2 0x16B1 JUMP JUMPDEST JUMPDEST PUSH1 0x20 MUL PUSH1 0x20 ADD ADD DUP2 DUP2 MSTORE POP POP DUP1 DUP1 PUSH2 0x116E SWAP1 PUSH2 0x170F JUMP JUMPDEST SWAP2 POP POP PUSH2 0xEF7 JUMP JUMPDEST POP PUSH2 0x117F PUSH2 0x12AE JUMP JUMPDEST PUSH1 0x0 PUSH1 0x20 DUP3 PUSH1 0x20 DUP7 MUL PUSH1 0x20 DUP7 ADD PUSH1 0x8 PUSH2 0x7D0 GAS SUB STATICCALL SWAP1 POP DUP1 PUSH1 0x0 DUP2 SUB PUSH2 0x11A1 JUMPI INVALID JUMPDEST POP DUP1 PUSH2 0x11AC JUMPI PUSH1 0x0 DUP1 REVERT JUMPDEST PUSH1 0x0 DUP3 PUSH1 0x0 PUSH1 0x1 DUP2 LT PUSH2 0x11C2 JUMPI PUSH2 0x11C1 PUSH2 0x16B1 JUMP JUMPDEST JUMPDEST PUSH1 0x20 MUL ADD MLOAD EQ ISZERO SWAP6 POP POP POP POP POP POP SWAP3 SWAP2 POP POP JUMP JUMPDEST PUSH1 0x40 MLOAD DUP1 PUSH1 0xC0 ADD PUSH1 0x40 MSTORE DUP1 PUSH2 0x11E9 PUSH2 0x1288 JUMP JUMPDEST DUP2 MSTORE PUSH1 0x20 ADD PUSH2 0x11F6 PUSH2 0x122A JUMP JUMPDEST DUP2 MSTORE PUSH1 0x20 ADD PUSH2 0x1203 PUSH2 0x1288 JUMP JUMPDEST DUP2 MSTORE PUSH1 0x20 ADD PUSH2 0x1210 PUSH2 0x122A JUMP JUMPDEST DUP2 MSTORE PUSH1 0x20 ADD PUSH2 0x121D PUSH2 0x1288 JUMP JUMPDEST DUP2 MSTORE PUSH1 0x20 ADD PUSH1 0x60 DUP2 MSTORE POP SWAP1 JUMP JUMPDEST PUSH1 0x40 MLOAD DUP1 PUSH1 0x40 ADD PUSH1 0x40 MSTORE DUP1 PUSH1 0x0 DUP2 MSTORE PUSH1 0x20 ADD PUSH1 0x0 DUP2 MSTORE POP SWAP1 JUMP JUMPDEST PUSH1 0x40 MLOAD DUP1 PUSH1 0x60 ADD PUSH1 0x40 MSTORE DUP1 PUSH1 0x3 SWAP1 PUSH1 0x20 DUP3 MUL DUP1 CALLDATASIZE DUP4 CALLDATACOPY DUP1 DUP3 ADD SWAP2 POP POP SWAP1 POP POP SWAP1 JUMP JUMPDEST PUSH1 0x40 MLOAD DUP1 PUSH1 0x80 ADD PUSH1 0x40 MSTORE DUP1 PUSH1 0x4 SWAP1 PUSH1 0x20 DUP3 MUL DUP1 CALLDATASIZE DUP4 CALLDATACOPY DUP1 DUP3 ADD SWAP2 POP POP SWAP1 POP POP SWAP1 JUMP JUMPDEST PUSH1 0x40 MLOAD DUP1 PUSH1 0x40 ADD PUSH1 0x40 MSTORE DUP1 PUSH2 0x129B PUSH2 0x12D0 JUMP JUMPDEST DUP2 MSTORE PUSH1 0x20 ADD PUSH2 0x12A8 PUSH2 0x12D0 JUMP JUMPDEST DUP2 MSTORE POP SWAP1 JUMP JUMPDEST PUSH1 0x40 MLOAD DUP1 PUSH1 0x20 ADD PUSH1 0x40 MSTORE DUP1 PUSH1 0x1 SWAP1 PUSH1 0x20 DUP3 MUL DUP1 CALLDATASIZE DUP4 CALLDATACOPY DUP1 DUP3 ADD SWAP2 POP POP SWAP1 POP POP SWAP1 JUMP JUMPDEST PUSH1 0x40 MLOAD DUP1 PUSH1 0x40 ADD PUSH1 0x40 MSTORE DUP1 PUSH1 0x2 SWAP1 PUSH1 0x20 DUP3 MUL DUP1 CALLDATASIZE DUP4 CALLDATACOPY DUP1 DUP3 ADD SWAP2 POP POP SWAP1 POP POP SWAP1 JUMP JUMPDEST PUSH1 0x0 PUSH1 0x40 MLOAD SWAP1 POP SWAP1 JUMP JUMPDEST PUSH1 0x0 DUP1 REVERT JUMPDEST PUSH1 0x0 DUP1 REVERT JUMPDEST PUSH1 0x0 PUSH1 0x1F NOT PUSH1 0x1F DUP4 ADD AND SWAP1 POP SWAP2 SWAP1 POP JUMP JUMPDEST PUSH32 0x4E487B7100000000000000000000000000000000000000000000000000000000 PUSH1 0x0 MSTORE PUSH1 0x41 PUSH1 0x4 MSTORE PUSH1 0x24 PUSH1 0x0 REVERT JUMPDEST PUSH2 0x134F DUP3 PUSH2 0x1306 JUMP JUMPDEST DUP2 ADD DUP2 DUP2 LT PUSH8 0xFFFFFFFFFFFFFFFF DUP3 GT OR ISZERO PUSH2 0x136E JUMPI PUSH2 0x136D PUSH2 0x1317 JUMP JUMPDEST JUMPDEST DUP1 PUSH1 0x40 MSTORE POP POP POP JUMP JUMPDEST PUSH1 0x0 PUSH2 0x1381 PUSH2 0x12F2 JUMP JUMPDEST SWAP1 POP PUSH2 0x138D DUP3 DUP3 PUSH2 0x1346 JUMP JUMPDEST SWAP2 SWAP1 POP JUMP JUMPDEST PUSH1 0x0 DUP2 SWAP1 POP SWAP2 SWAP1 POP JUMP JUMPDEST PUSH2 0x13A5 DUP2 PUSH2 0x1392 JUMP JUMPDEST DUP2 EQ PUSH2 0x13B0 JUMPI PUSH1 0x0 DUP1 REVERT JUMPDEST POP JUMP JUMPDEST PUSH1 0x0 DUP2 CALLDATALOAD SWAP1 POP PUSH2 0x13C2 DUP2 PUSH2 0x139C JUMP JUMPDEST SWAP3 SWAP2 POP POP JUMP JUMPDEST PUSH1 0x0 PUSH1 0x40 DUP3 DUP5 SUB SLT ISZERO PUSH2 0x13DE JUMPI PUSH2 0x13DD PUSH2 0x1301 JUMP JUMPDEST JUMPDEST PUSH2 0x13E8 PUSH1 0x40 PUSH2 0x1377 JUMP JUMPDEST SWAP1 POP PUSH1 0x0 PUSH2 0x13F8 DUP5 DUP3 DUP6 ADD PUSH2 0x13B3 JUMP JUMPDEST PUSH1 0x0 DUP4 ADD MSTORE POP PUSH1 0x20 PUSH2 0x140C DUP5 DUP3 DUP6 ADD PUSH2 0x13B3 JUMP JUMPDEST PUSH1 0x20 DUP4 ADD MSTORE POP SWAP3 SWAP2 POP POP JUMP JUMPDEST PUSH1 0x0 DUP1 REVERT JUMPDEST PUSH1 0x0 PUSH8 0xFFFFFFFFFFFFFFFF DUP3 GT ISZERO PUSH2 0x1438 JUMPI PUSH2 0x1437 PUSH2 0x1317 JUMP JUMPDEST JUMPDEST PUSH1 0x20 DUP3 MUL SWAP1 POP SWAP2 SWAP1 POP JUMP JUMPDEST PUSH1 0x0 DUP1 REVERT JUMPDEST PUSH1 0x0 PUSH2 0x145B PUSH2 0x1456 DUP5 PUSH2 0x141D JUMP JUMPDEST PUSH2 0x1377 JUMP JUMPDEST SWAP1 POP DUP1 PUSH1 0x20 DUP5 MUL DUP4 ADD DUP6 DUP2 GT ISZERO PUSH2 0x1475 JUMPI PUSH2 0x1474 PUSH2 0x1443 JUMP JUMPDEST JUMPDEST DUP4 JUMPDEST DUP2 DUP2 LT ISZERO PUSH2 0x149E JUMPI DUP1 PUSH2 0x148A DUP9 DUP3 PUSH2 0x13B3 JUMP JUMPDEST DUP5 MSTORE PUSH1 0x20 DUP5 ADD SWAP4 POP POP PUSH1 0x20 DUP2 ADD SWAP1 POP PUSH2 0x1477 JUMP JUMPDEST POP POP POP SWAP4 SWAP3 POP POP POP JUMP JUMPDEST PUSH1 0x0 DUP3 PUSH1 0x1F DUP4 ADD SLT PUSH2 0x14BD JUMPI PUSH2 0x14BC PUSH2 0x1418 JUMP JUMPDEST JUMPDEST PUSH1 0x2 PUSH2 0x14CA DUP5 DUP3 DUP6 PUSH2 0x1448 JUMP JUMPDEST SWAP2 POP POP SWAP3 SWAP2 POP POP JUMP JUMPDEST PUSH1 0x0 PUSH1 0x80 DUP3 DUP5 SUB SLT ISZERO PUSH2 0x14E9 JUMPI PUSH2 0x14E8 PUSH2 0x1301 JUMP JUMPDEST JUMPDEST PUSH2 0x14F3 PUSH1 0x40 PUSH2 0x1377 JUMP JUMPDEST SWAP1 POP PUSH1 0x0 PUSH2 0x1503 DUP5 DUP3 DUP6 ADD PUSH2 0x14A8 JUMP JUMPDEST PUSH1 0x0 DUP4 ADD MSTORE POP PUSH1 0x40 PUSH2 0x1517 DUP5 DUP3 DUP6 ADD PUSH2 0x14A8 JUMP JUMPDEST PUSH1 0x20 DUP4 ADD MSTORE POP SWAP3 SWAP2 POP POP JUMP JUMPDEST PUSH1 0x0 PUSH2 0x100 DUP3 DUP5 SUB SLT ISZERO PUSH2 0x153A JUMPI PUSH2 0x1539 PUSH2 0x1301 JUMP JUMPDEST JUMPDEST PUSH2 0x1544 PUSH1 0x60 PUSH2 0x1377 JUMP JUMPDEST SWAP1 POP PUSH1 0x0 PUSH2 0x1554 DUP5 DUP3 DUP6 ADD PUSH2 0x13C8 JUMP JUMPDEST PUSH1 0x0 DUP4 ADD MSTORE POP PUSH1 0x40 PUSH2 0x1568 DUP5 DUP3 DUP6 ADD PUSH2 0x14D3 JUMP JUMPDEST PUSH1 0x20 DUP4 ADD MSTORE POP PUSH1 0xC0 PUSH2 0x157C DUP5 DUP3 DUP6 ADD PUSH2 0x13C8 JUMP JUMPDEST PUSH1 0x40 DUP4 ADD MSTORE POP SWAP3 SWAP2 POP POP JUMP JUMPDEST PUSH1 0x0 PUSH8 0xFFFFFFFFFFFFFFFF DUP3 GT ISZERO PUSH2 0x15A3 JUMPI PUSH2 0x15A2 PUSH2 0x1317 JUMP JUMPDEST JUMPDEST PUSH1 0x20 DUP3 MUL SWAP1 POP SWAP2 SWAP1 POP JUMP JUMPDEST PUSH1 0x0 PUSH2 0x15C1 PUSH2 0x15BC DUP5 PUSH2 0x1588 JUMP JUMPDEST PUSH2 0x1377 JUMP JUMPDEST SWAP1 POP DUP1 PUSH1 0x20 DUP5 MUL DUP4 ADD DUP6 DUP2 GT ISZERO PUSH2 0x15DB JUMPI PUSH2 0x15DA PUSH2 0x1443 JUMP JUMPDEST JUMPDEST DUP4 JUMPDEST DUP2 DUP2 LT ISZERO PUSH2 0x1604 JUMPI DUP1 PUSH2 0x15F0 DUP9 DUP3 PUSH2 0x13B3 JUMP JUMPDEST DUP5 MSTORE PUSH1 0x20 DUP5 ADD SWAP4 POP POP PUSH1 0x20 DUP2 ADD SWAP1 POP PUSH2 0x15DD JUMP JUMPDEST POP POP POP SWAP4 SWAP3 POP POP POP JUMP JUMPDEST PUSH1 0x0 DUP3 PUSH1 0x1F DUP4 ADD SLT PUSH2 0x1623 JUMPI PUSH2 0x1622 PUSH2 0x1418 JUMP JUMPDEST JUMPDEST PUSH1 0x1 PUSH2 0x1630 DUP5 DUP3 DUP6 PUSH2 0x15AE JUMP JUMPDEST SWAP2 POP POP SWAP3 SWAP2 POP POP JUMP JUMPDEST PUSH1 0x0 DUP1 PUSH2 0x120 DUP4 DUP6 SUB SLT ISZERO PUSH2 0x1651 JUMPI PUSH2 0x1650 PUSH2 0x12FC JUMP JUMPDEST JUMPDEST PUSH1 0x0 PUSH2 0x165F DUP6 DUP3 DUP7 ADD PUSH2 0x1523 JUMP JUMPDEST SWAP3 POP POP PUSH2 0x100 PUSH2 0x1671 DUP6 DUP3 DUP7 ADD PUSH2 0x160E JUMP JUMPDEST SWAP2 POP POP SWAP3 POP SWAP3 SWAP1 POP JUMP JUMPDEST PUSH1 0x0 DUP2 ISZERO ISZERO SWAP1 POP SWAP2 SWAP1 POP JUMP JUMPDEST PUSH2 0x1690 DUP2 PUSH2 0x167B JUMP JUMPDEST DUP3 MSTORE POP POP JUMP JUMPDEST PUSH1 0x0 PUSH1 0x20 DUP3 ADD SWAP1 POP PUSH2 0x16AB PUSH1 0x0 DUP4 ADD DUP5 PUSH2 0x1687 JUMP JUMPDEST SWAP3 SWAP2 POP POP JUMP JUMPDEST PUSH32 0x4E487B7100000000000000000000000000000000000000000000000000000000 PUSH1 0x0 MSTORE PUSH1 0x32 PUSH1 0x4 MSTORE PUSH1 0x24 PUSH1 0x0 REVERT JUMPDEST PUSH32 0x4E487B7100000000000000000000000000000000000000000000000000000000 PUSH1 0x0 MSTORE PUSH1 0x11 PUSH1 0x4 MSTORE PUSH1 0x24 PUSH1 0x0 REVERT JUMPDEST PUSH1 0x0 PUSH2 0x171A DUP3 PUSH2 0x1392 JUMP JUMPDEST SWAP2 POP PUSH32 0xFFFFFFFFFFFFFFFFFFFFFFFFFFFFFFFFFFFFFFFFFFFFFFFFFFFFFFFFFFFFFFFF DUP3 SUB PUSH2 0x174C JUMPI PUSH2 0x174B PUSH2 0x16E0 JUMP JUMPDEST JUMPDEST PUSH1 0x1 DUP3 ADD SWAP1 POP SWAP2 SWAP1 POP JUMP JUMPDEST PUSH1 0x0 PUSH2 0x1762 DUP3 PUSH2 0x1392 JUMP JUMPDEST SWAP2 POP PUSH2 0x176D DUP4 PUSH2 0x1392 JUMP JUMPDEST SWAP3 POP DUP3 DUP3 ADD SWAP1 POP DUP1 DUP3 GT ISZERO PUSH2 0x1785 JUMPI PUSH2 0x1784 PUSH2 0x16E0 JUMP JUMPDEST JUMPDEST SWAP3 SWAP2 POP POP JUMP JUMPDEST PUSH32 0x4E487B7100000000000000000000000000000000000000000000000000000000 PUSH1 0x0 MSTORE PUSH1 0x12 PUSH1 0x4 MSTORE PUSH1 0x24 PUSH1 0x0 REVERT JUMPDEST PUSH1 0x0 PUSH2 0x17C5 DUP3 PUSH2 0x1392 JUMP JUMPDEST SWAP2 POP PUSH2 0x17D0 DUP4 PUSH2 0x1392 JUMP JUMPDEST SWAP3 POP DUP3 PUSH2 0x17E0 JUMPI PUSH2 0x17DF PUSH2 0x178B JUMP JUMPDEST JUMPDEST DUP3 DUP3 MOD SWAP1 POP SWAP3 SWAP2 POP POP JUMP JUMPDEST PUSH1 0x0 PUSH2 0x17F6 DUP3 PUSH2 0x1392 JUMP JUMPDEST SWAP2 POP PUSH2 0x1801 DUP4 PUSH2 0x1392 JUMP JUMPDEST SWAP3 POP DUP3 DUP3 SUB SWAP1 POP DUP2 DUP2 GT ISZERO PUSH2 0x1819 JUMPI PUSH2 0x1818 PUSH2 0x16E0 JUMP JUMPDEST JUMPDEST SWAP3 SWAP2 POP POP JUMP JUMPDEST PUSH2 0x1828 DUP2 PUSH2 0x1392 JUMP JUMPDEST DUP3 MSTORE POP POP JUMP JUMPDEST PUSH1 0x0 PUSH2 0x100 DUP3 ADD SWAP1 POP PUSH2 0x1844 PUSH1 0x0 DUP4 ADD DUP12 PUSH2 0x181F JUMP JUMPDEST PUSH2 0x1851 PUSH1 0x20 DUP4 ADD DUP11 PUSH2 0x181F JUMP JUMPDEST PUSH2 0x185E PUSH1 0x40 DUP4 ADD DUP10 PUSH2 0x181F JUMP JUMPDEST PUSH2 0x186B PUSH1 0x60 DUP4 ADD DUP9 PUSH2 0x181F JUMP JUMPDEST PUSH2 0x1878 PUSH1 0x80 DUP4 ADD DUP8 PUSH2 0x181F JUMP JUMPDEST PUSH2 0x1885 PUSH1 0xA0 DUP4 ADD DUP7 PUSH2 0x181F JUMP JUMPDEST PUSH2 0x1892 PUSH1 0xC0 DUP4 ADD DUP6 PUSH2 0x181F JUMP JUMPDEST PUSH2 0x189F PUSH1 0xE0 DUP4 ADD DUP5 PUSH2 0x181F JUMP JUMPDEST SWAP10 SWAP9 POP POP POP POP POP POP POP POP POP JUMP JUMPDEST PUSH1 0x0 DUP2 MLOAD SWAP1 POP PUSH2 0x18BB DUP2 PUSH2 0x139C JUMP JUMPDEST SWAP3 SWAP2 POP POP JUMP JUMPDEST PUSH1 0x0 DUP1 PUSH1 0x0 DUP1 PUSH1 0x80 DUP6 DUP8 SUB SLT ISZERO PUSH2 0x18DB JUMPI PUSH2 0x18DA PUSH2 0x12FC JUMP JUMPDEST JUMPDEST PUSH1 0x0 PUSH2 0x18E9 DUP8 DUP3 DUP9 ADD PUSH2 0x18AC JUMP JUMPDEST SWAP5 POP POP PUSH1 0x20 PUSH2 0x18FA DUP8 DUP3 DUP9 ADD PUSH2 0x18AC JUMP JUMPDEST SWAP4 POP POP PUSH1 0x40 PUSH2 0x190B DUP8 DUP3 DUP9 ADD PUSH2 0x18AC JUMP JUMPDEST SWAP3 POP POP PUSH1 0x60 PUSH2 0x191C DUP8 DUP3 DUP9 ADD PUSH2 0x18AC JUMP JUMPDEST SWAP2 POP POP SWAP3 SWAP6 SWAP2 SWAP5 POP SWAP3 POP JUMP JUMPDEST PUSH1 0x0 PUSH2 0x1933 DUP3 PUSH2 0x1392 JUMP JUMPDEST SWAP2 POP PUSH2 0x193E DUP4 PUSH2 0x1392 JUMP JUMPDEST SWAP3 POP DUP3 DUP3 MUL PUSH2 0x194C DUP2 PUSH2 0x1392 JUMP JUMPDEST SWAP2 POP DUP3 DUP3 DIV DUP5 EQ DUP4 ISZERO OR PUSH2 0x1963 JUMPI PUSH2 0x1962 PUSH2 0x16E0 JUMP JUMPDEST JUMPDEST POP SWAP3 SWAP2 POP POP JUMP INVALID LOG2 PUSH5 0x6970667358 0x22 SLT KECCAK256 SWAP14 0xB7 0x2C PUSH19 0x75DDE2C510DED13D543FBB0AEB92273FDED8DD SUB 0xC1 0xE7 0xF6 0xBB 0xC7 BLOCKHASH SWAP14 PREVRANDAO PUSH5 0x736F6C6343 STOP ADDMOD SLT STOP CALLER "
				},
				"gasEstimates": {
					"creation": {
						"codeDepositCost": "1312000",
						"executionCost": "1363",
						"totalCost": "1313363"
					},
					"external": {
						"verifyTx(((uint256,uint256),(uint256[2],uint256[2]),(uint256,uint256)),uint256[1])": "infinite"
					},
					"internal": {
						"verify(uint256[] memory,struct Verifier.Proof memory)": "infinite",
						"verifyingKey()": "infinite"
					}
				},
				"methodIdentifiers": {
					"verifyTx(((uint256,uint256),(uint256[2],uint256[2]),(uint256,uint256)),uint256[1])": "f48d7729"
				}
			},
			"storageLayout": {
				"storage": [],
				"types": null
			},
			"userdoc": {
				"kind": "user",
				"methods": {},
				"version": 1
			}
		}
	}
}