{
	"data": {
		"bytecode": {
			"linkReferences": {},
			"object": "611628610053600b82828239805160001a607314610046577f4e487b7100000000000000000000000000000000000000000000000000000000600052600060045260246000fd5b30600052607381538281f3fe730000000000000000000000000000000000000000301460806040526004361061004b5760003560e01c806355a3e90f1461005057806361a931ec1461006e578063b73ab75d146100a1575b600080fd5b6100586100d4565b604051610065919061130f565b60405180910390f35b6100886004803603810190610083919061135b565b6100fc565b6040516100989493929190611411565b60405180910390f35b6100bb60048036038101906100b69190611456565b6102e2565b6040516100cb9493929190611411565b60405180910390f35b60007f30644e72e131a029b85045b68181585d97816a916871ca8d3c208c16d87cfd47905090565b60008060008060008c148015610112575060008b145b801561011e575060008a145b801561012a5750600089145b156101865760008814801561013f5750600087145b801561014b5750600086145b80156101575750600085145b610175576101678888888861040e565b610174576101736114d1565b5b5b8787878793509350935093506102d3565b6000881480156101965750600087145b80156101a25750600086145b80156101ae5750600085145b156101dd576101bf8c8c8c8c61040e565b6101cc576101cb6114d1565b5b8b8b8b8b93509350935093506102d3565b6101e98c8c8c8c61040e565b6101f6576101f56114d1565b5b6102028888888861040e565b61020f5761020e6114d1565b5b60006102298d8d8d8d600160008f8f8f8f600160006104d7565b90506102c98160006006811061024257610241611500565b5b60200201518260016006811061025b5761025a611500565b5b60200201518360026006811061027457610273611500565b5b60200201518460036006811061028d5761028c611500565b5b6020020151856004600681106102a6576102a5611500565b5b6020020151866005600681106102bf576102be611500565b5b6020020151610bef565b9450945094509450505b98509850985098945050505050565b6000806000806000600190506000891480156102fe5750600088145b801561030a5750600087145b80156103165750600086145b1561032c57600198506001965060009050610346565b6103388989898961040e565b610345576103446114d1565b5b5b60006103588b8b8b8b8b876000610c41565b90506103f88160006006811061037157610370611500565b5b60200201518260016006811061038a57610389611500565b5b6020020151836002600681106103a3576103a2611500565b5b6020020151846003600681106103bc576103bb611500565b5b6020020151856004600681106103d5576103d4611500565b5b6020020151866005600681106103ee576103ed611500565b5b6020020151610bef565b9550955095509550505095509550955095915050565b600080600080600061042287878989610d49565b809450819550505061043689898b8b610d49565b809250819350505061044a82828b8b610d49565b809250819350505061045e84848484610e7a565b80945081955050506104b184847f2b149d40ceb8aaae81be18991be06ac3b5b4c5e559dbefa33267e6dc24a138e57e9713b03af0fed4cd2cafadeed8fdf4a74fa084e52d1852e4a2bd0685c315d2610e7a565b80945081955050506000841480156104c95750600083145b945050505050949350505050565b6104df6112d4565b6000891480156104ef5750600088145b156105ad578686868686868660006006811061050e5761050d611500565b5b602002018760016006811061052657610525611500565b5b602002018860026006811061053e5761053d611500565b5b602002018960036006811061055657610555611500565b5b602002018a60046006811061056e5761056d611500565b5b602002018b60056006811061058657610585611500565b5b60200201868152508681525086815250868152508681525086815250505050505050610bdf565b6000831480156105bd5750600082145b1561067b578c8c8c8c8c8c866000600681106105dc576105db611500565b5b60200201876001600681106105f4576105f3611500565b5b602002018860026006811061060c5761060b611500565b5b602002018960036006811061062457610623611500565b5b602002018a60046006811061063c5761063b611500565b5b602002018b60056006811061065457610653611500565b5b60200201868152508681525086815250868152508681525086815250505050505050610bdf565b61068785858b8b610d49565b809550819650505061069b8b8b8585610d49565b826002600681106106af576106ae611500565b5b60200201836003600681106106c7576106c6611500565b5b60200201828152508281525050506106e187878b8b610d49565b80975081985050506106f58d8d8585610d49565b8260046006811061070957610708611500565b5b602002018360056006811061072157610720611500565b5b60200201828152508281525050508060046006811061074357610742611500565b5b60200201518714801561076d57508060056006811061076557610764611500565b5b602002015186145b15610934578060026006811061078657610785611500565b5b6020020151851480156107b05750806003600681106107a8576107a7611500565b5b602002015184145b15610876576107c38d8d8d8d8d8d610ee0565b866000600681106107d7576107d6611500565b5b60200201876001600681106107ef576107ee611500565b5b602002018860026006811061080757610806611500565b5b602002018960036006811061081f5761081e611500565b5b602002018a60046006811061083757610836611500565b5b602002018b60056006811061084f5761084e611500565b5b60200201868152508681525086815250868152508681525086815250505050505050610bdf565b60016000600160008060008660006006811061089557610894611500565b5b60200201876001600681106108ad576108ac611500565b5b60200201886002600681106108c5576108c4611500565b5b60200201896003600681106108dd576108dc611500565b5b602002018a6004600681106108f5576108f4611500565b5b602002018b60056006811061090d5761090c611500565b5b60200201868152508681525086815250868152508681525086815250505050505050610bdf565b61094089898585610d49565b809350819450505061098485858360026006811061096157610960611500565b5b60200201518460036006811061097a57610979611500565b5b6020020151610e7a565b809d50819e5050506109c88787836004600681106109a5576109a4611500565b5b6020020151846005600681106109be576109bd611500565b5b6020020151610e7a565b809b50819c5050506109dc8b8b8d8d610d49565b809950819a505050610a208989836004600681106109fd576109fc611500565b5b602002015184600560068110610a1657610a15611500565b5b6020020151610d49565b8095508196505050610a3489898d8d610d49565b809950819a505050610a4889898585610d49565b82600460068110610a5c57610a5b611500565b5b6020020183600560068110610a7457610a73611500565b5b6020020182815250828152505050610a8e8d8d8f8f610d49565b8097508198505050610aa287878585610d49565b8097508198505050610ab687878b8b610e7a565b8097508198505050610aca85856002611088565b8093508194505050610ade87878585610e7a565b8097508198505050610af28b8b8989610d49565b82600060068110610b0657610b05611500565b5b6020020183600160068110610b1e57610b1d611500565b5b6020020182815250828152505050610b3885858989610e7a565b809b50819c505050610b4c8d8d8d8d610d49565b809b50819c505050610b90898983600260068110610b6d57610b6c611500565b5b602002015184600360068110610b8657610b85611500565b5b6020020151610d49565b809d50819e505050610ba48b8b8f8f610e7a565b82600260068110610bb857610bb7611500565b5b6020020183600360068110610bd057610bcf611500565b5b60200201828152508281525050505b9c9b505050505050505050505050565b600080600080600080610c0288886110fb565b8092508193505050610c168c8c8484610d49565b8096508197505050610c2a8a8a8484610d49565b809450819550505050509650965096509692505050565b610c496112d4565b5b60008814610d3e5760006001891614610d0457610d0181600060068110610c7457610c73611500565b5b602002015182600160068110610c8d57610c8c611500565b5b602002015183600260068110610ca657610ca5611500565b5b602002015184600360068110610cbf57610cbe611500565b5b602002015185600460068110610cd857610cd7611500565b5b602002015186600560068110610cf157610cf0611500565b5b60200201518d8d8d8d8d8d6104d7565b90505b610d12878787878787610ee0565b809750819850829950839a50849b50859c50505050505050600288610d37919061158d565b9750610c4a565b979650505050505050565b600080610dd97f30644e72e131a029b85045b68181585d97816a916871ca8d3c208c16d87cfd4780610d7e57610d7d61152f565b5b8588097f30644e72e131a029b85045b68181585d97816a916871ca8d3c208c16d87cfd4780610db057610daf61152f565b5b8588097f30644e72e131a029b85045b68181585d97816a916871ca8d3c208c16d87cfd4761125a565b7f30644e72e131a029b85045b68181585d97816a916871ca8d3c208c16d87cfd4780610e0857610e0761152f565b5b7f30644e72e131a029b85045b68181585d97816a916871ca8d3c208c16d87cfd4780610e3757610e3661152f565b5b8688097f30644e72e131a029b85045b68181585d97816a916871ca8d3c208c16d87cfd4780610e6957610e6861152f565b5b868a09089150915094509492505050565b600080610ea886857f30644e72e131a029b85045b68181585d97816a916871ca8d3c208c16d87cfd4761125a565b610ed386857f30644e72e131a029b85045b68181585d97816a916871ca8d3c208c16d87cfd4761125a565b9150915094509492505050565b600080600080600080610ef58c8c6003611088565b8096508197505050610f0986868e8e610d49565b8096508197505050610f1d8a8a8a8a610d49565b8098508199505050610f318c8c8c8c610d49565b8094508195505050610f4584848a8a610d49565b8094508195505050610f5986868888610d49565b809c50819d505050610f6d84846008611088565b8092508193505050610f818c8c8484610e7a565b809c50819d505050610f9588888a8a610d49565b8092508193505050610fa984846004611088565b8094508195505050610fbd84848e8e610e7a565b8094508195505050610fd184848888610d49565b8094508195505050610fe58a8a6008611088565b8096508197505050610ff986868c8c610d49565b809650819750505061100d86868484610d49565b809650819750505061102184848888610e7a565b80945081955050506110358c8c6002611088565b809650819750505061104986868a8a610d49565b809650819750505061105d88888484610d49565b809250819350505061107182826008611088565b809250819350505096509650965096509650969050565b6000807f30644e72e131a029b85045b68181585d97816a916871ca8d3c208c16d87cfd47806110ba576110b961152f565b5b8386097f30644e72e131a029b85045b68181585d97816a916871ca8d3c208c16d87cfd47806110ec576110eb61152f565b5b84860991509150935093915050565b60008060006111bd7f30644e72e131a029b85045b68181585d97816a916871ca8d3c208c16d87cfd47806111325761113161152f565b5b7f30644e72e131a029b85045b68181585d97816a916871ca8d3c208c16d87cfd47806111615761116061152f565b5b8788097f30644e72e131a029b85045b68181585d97816a916871ca8d3c208c16d87cfd47806111935761119261152f565b5b878809087f30644e72e131a029b85045b68181585d97816a916871ca8d3c208c16d87cfd47611282565b90507f30644e72e131a029b85045b68181585d97816a916871ca8d3c208c16d87cfd47806111ee576111ed61152f565b5b8186097f30644e72e131a029b85045b68181585d97816a916871ca8d3c208c16d87cfd47806112205761121f61152f565b5b8286097f30644e72e131a029b85045b68181585d97816a916871ca8d3c208c16d87cfd4761124e91906115be565b92509250509250929050565b6000818061126b5761126a61152f565b5b838361127791906115be565b850890509392505050565b60008060405160208152602080820152602060408201528460608201526002840360808201528360a082015260208160c08360056107d05a03fa91508051925050806112cd57600080fd5b5092915050565b6040518060c00160405280600690602082028036833780820191505090505090565b6000819050919050565b611309816112f6565b82525050565b60006020820190506113246000830184611300565b92915050565b600080fd5b611338816112f6565b811461134357600080fd5b50565b6000813590506113558161132f565b92915050565b600080600080600080600080610100898b03121561137c5761137b61132a565b5b600061138a8b828c01611346565b985050602061139b8b828c01611346565b97505060406113ac8b828c01611346565b96505060606113bd8b828c01611346565b95505060806113ce8b828c01611346565b94505060a06113df8b828c01611346565b93505060c06113f08b828c01611346565b92505060e06114018b828c01611346565b9150509295985092959890939650565b60006080820190506114266000830187611300565b6114336020830186611300565b6114406040830185611300565b61144d6060830184611300565b95945050505050565b600080600080600060a086880312156114725761147161132a565b5b600061148088828901611346565b955050602061149188828901611346565b94505060406114a288828901611346565b93505060606114b388828901611346565b92505060806114c488828901611346565b9150509295509295909350565b7f4e487b7100000000000000000000000000000000000000000000000000000000600052600160045260246000fd5b7f4e487b7100000000000000000000000000000000000000000000000000000000600052603260045260246000fd5b7f4e487b7100000000000000000000000000000000000000000000000000000000600052601260045260246000fd5b7f4e487b7100000000000000000000000000000000000000000000000000000000600052601160045260246000fd5b6000611598826112f6565b91506115a3836112f6565b9250826115b3576115b261152f565b5b828204905092915050565b60006115c9826112f6565b91506115d4836112f6565b92508282039050818111156115ec576115eb61155e565b5b9291505056fea26469706673582212206c665d59827246c45678bd845c1682a1c82d019cfe5c930bbfc88584b04c213164736f6c63430008120033",
			"opcodes": "PUSH2 0x1628 PUSH2 0x53 PUSH1 0xB DUP3 DUP3 DUP3 CODECOPY DUP1 MLOAD PUSH1 0x0 BYTE PUSH1 0x73 EQ PUSH2 0x46 JUMPI PUSH32 0x4E487B7100000000000000000000000000000000000000000000000000000000 PUSH1 0x0 MSTORE PUSH1 0x0 PUSH1 0x4 MSTORE PUSH1 0x24 PUSH1 0x0 REVERT JUMPDEST ADDRESS PUSH1 0x0 MSTORE PUSH1 0x73 DUP2 MSTORE8 DUP3 DUP2 RETURN INVALID PUSH20 0x0 ADDRESS EQ PUSH1 0x80 PUSH1 0x40 MSTORE PUSH1 0x4 CALLDATASIZE LT PUSH2 0x4B JUMPI PUSH1 0x0 CALLDATALOAD PUSH1 0xE0 SHR DUP1 PUSH4 0x55A3E90F EQ PUSH2 0x50 JUMPI DUP1 PUSH4 0x61A931EC EQ PUSH2 0x6E JUMPI DUP1 PUSH4 0xB73AB75D EQ PUSH2 0xA1 JUMPI JUMPDEST PUSH1 0x0 DUP1 REVERT JUMPDEST PUSH2 0x58 PUSH2 0xD4 JUMP JUMPDEST PUSH1 0x40 MLOAD PUSH2 0x65 SWAP2 SWAP1 PUSH2 0x130F JUMP JUMPDEST PUSH1 0x40 MLOAD DUP1 SWAP2 SUB SWAP1 RETURN JUMPDEST PUSH2 0x88 PUSH1 0x4 DUP1 CALLDATASIZE SUB DUP2 ADD SWAP1 PUSH2 0x83 SWAP2 SWAP1 PUSH2 0x135B JUMP JUMPDEST PUSH2 0xFC JUMP JUMPDEST PUSH1 0x40 MLOAD PUSH2 0x98 SWAP5 SWAP4 SWAP3 SWAP2 SWAP1 PUSH2 0x1411 JUMP JUMPDEST PUSH1 0x40 MLOAD DUP1 SWAP2 SUB SWAP1 RETURN JUMPDEST PUSH2 0xBB PUSH1 0x4 DUP1 CALLDATASIZE SUB DUP2 ADD SWAP1 PUSH2 0xB6 SWAP2 SWAP1 PUSH2 0x1456 JUMP JUMPDEST PUSH2 0x2E2 JUMP JUMPDEST PUSH1 0x40 MLOAD PUSH2 0xCB SWAP5 SWAP4 SWAP3 SWAP2 SWAP1 PUSH2 0x1411 JUMP JUMPDEST PUSH1 0x40 MLOAD DUP1 SWAP2 SUB SWAP1 RETURN JUMPDEST PUSH1 0x0 PUSH32 0x30644E72E131A029B85045B68181585D97816A916871CA8D3C208C16D87CFD47 SWAP1 POP SWAP1 JUMP JUMPDEST PUSH1 0x0 DUP1 PUSH1 0x0 DUP1 PUSH1 0x0 DUP13 EQ DUP1 ISZERO PUSH2 0x112 JUMPI POP PUSH1 0x0 DUP12 EQ JUMPDEST DUP1 ISZERO PUSH2 0x11E JUMPI POP PUSH1 0x0 DUP11 EQ JUMPDEST DUP1 ISZERO PUSH2 0x12A JUMPI POP PUSH1 0x0 DUP10 EQ JUMPDEST ISZERO PUSH2 0x186 JUMPI PUSH1 0x0 DUP9 EQ DUP1 ISZERO PUSH2 0x13F JUMPI POP PUSH1 0x0 DUP8 EQ JUMPDEST DUP1 ISZERO PUSH2 0x14B JUMPI POP PUSH1 0x0 DUP7 EQ JUMPDEST DUP1 ISZERO PUSH2 0x157 JUMPI POP PUSH1 0x0 DUP6 EQ JUMPDEST PUSH2 0x175 JUMPI PUSH2 0x167 DUP9 DUP9 DUP9 DUP9 PUSH2 0x40E JUMP JUMPDEST PUSH2 0x174 JUMPI PUSH2 0x173 PUSH2 0x14D1 JUMP JUMPDEST JUMPDEST JUMPDEST DUP8 DUP8 DUP8 DUP8 SWAP4 POP SWAP4 POP SWAP4 POP SWAP4 POP PUSH2 0x2D3 JUMP JUMPDEST PUSH1 0x0 DUP9 EQ DUP1 ISZERO PUSH2 0x196 JUMPI POP PUSH1 0x0 DUP8 EQ JUMPDEST DUP1 ISZERO PUSH2 0x1A2 JUMPI POP PUSH1 0x0 DUP7 EQ JUMPDEST DUP1 ISZERO PUSH2 0x1AE JUMPI POP PUSH1 0x0 DUP6 EQ JUMPDEST ISZERO PUSH2 0x1DD JUMPI PUSH2 0x1BF DUP13 DUP13 DUP13 DUP13 PUSH2 0x40E JUMP JUMPDEST PUSH2 0x1CC JUMPI PUSH2 0x1CB PUSH2 0x14D1 JUMP JUMPDEST JUMPDEST DUP12 DUP12 DUP12 DUP12 SWAP4 POP SWAP4 POP SWAP4 POP SWAP4 POP PUSH2 0x2D3 JUMP JUMPDEST PUSH2 0x1E9 DUP13 DUP13 DUP13 DUP13 PUSH2 0x40E JUMP JUMPDEST PUSH2 0x1F6 JUMPI PUSH2 0x1F5 PUSH2 0x14D1 JUMP JUMPDEST JUMPDEST PUSH2 0x202 DUP9 DUP9 DUP9 DUP9 PUSH2 0x40E JUMP JUMPDEST PUSH2 0x20F JUMPI PUSH2 0x20E PUSH2 0x14D1 JUMP JUMPDEST JUMPDEST PUSH1 0x0 PUSH2 0x229 DUP14 DUP14 DUP14 DUP14 PUSH1 0x1 PUSH1 0x0 DUP16 DUP16 DUP16 DUP16 PUSH1 0x1 PUSH1 0x0 PUSH2 0x4D7 JUMP JUMPDEST SWAP1 POP PUSH2 0x2C9 DUP2 PUSH1 0x0 PUSH1 0x6 DUP2 LT PUSH2 0x242 JUMPI PUSH2 0x241 PUSH2 0x1500 JUMP JUMPDEST JUMPDEST PUSH1 0x20 MUL ADD MLOAD DUP3 PUSH1 0x1 PUSH1 0x6 DUP2 LT PUSH2 0x25B JUMPI PUSH2 0x25A PUSH2 0x1500 JUMP JUMPDEST JUMPDEST PUSH1 0x20 MUL ADD MLOAD DUP4 PUSH1 0x2 PUSH1 0x6 DUP2 LT PUSH2 0x274 JUMPI PUSH2 0x273 PUSH2 0x1500 JUMP JUMPDEST JUMPDEST PUSH1 0x20 MUL ADD MLOAD DUP5 PUSH1 0x3 PUSH1 0x6 DUP2 LT PUSH2 0x28D JUMPI PUSH2 0x28C PUSH2 0x1500 JUMP JUMPDEST JUMPDEST PUSH1 0x20 MUL ADD MLOAD DUP6 PUSH1 0x4 PUSH1 0x6 DUP2 LT PUSH2 0x2A6 JUMPI PUSH2 0x2A5 PUSH2 0x1500 JUMP JUMPDEST JUMPDEST PUSH1 0x20 MUL ADD MLOAD DUP7 PUSH1 0x5 PUSH1 0x6 DUP2 LT PUSH2 0x2BF JUMPI PUSH2 0x2BE PUSH2 0x1500 JUMP JUMPDEST JUMPDEST PUSH1 0x20 MUL ADD MLOAD PUSH2 0xBEF JUMP JUMPDEST SWAP5 POP SWAP5 POP SWAP5 POP SWAP5 POP POP JUMPDEST SWAP9 POP SWAP9 POP SWAP9 POP SWAP9 SWAP5 POP POP POP POP POP JUMP JUMPDEST PUSH1 0x0 DUP1 PUSH1 0x0 DUP1 PUSH1 0x0 PUSH1 0x1 SWAP1 POP PUSH1 0x0 DUP10 EQ DUP1 ISZERO PUSH2 0x2FE JUMPI POP PUSH1 0x0 DUP9 EQ JUMPDEST DUP1 ISZERO PUSH2 0x30A JUMPI POP PUSH1 0x0 DUP8 EQ JUMPDEST DUP1 ISZERO PUSH2 0x316 JUMPI POP PUSH1 0x0 DUP7 EQ JUMPDEST ISZERO PUSH2 0x32C JUMPI PUSH1 0x1 SWAP9 POP PUSH1 0x1 SWAP7 POP PUSH1 0x0 SWAP1 POP PUSH2 0x346 JUMP JUMPDEST PUSH2 0x338 DUP10 DUP10 DUP10 DUP10 PUSH2 0x40E JUMP JUMPDEST PUSH2 0x345 JUMPI PUSH2 0x344 PUSH2 0x14D1 JUMP JUMPDEST JUMPDEST JUMPDEST PUSH1 0x0 PUSH2 0x358 DUP12 DUP12 DUP12 DUP12 DUP12 DUP8 PUSH1 0x0 PUSH2 0xC41 JUMP JUMPDEST SWAP1 POP PUSH2 0x3F8 DUP2 PUSH1 0x0 PUSH1 0x6 DUP2 LT PUSH2 0x371 JUMPI PUSH2 0x370 PUSH2 0x1500 JUMP JUMPDEST JUMPDEST PUSH1 0x20 MUL ADD MLOAD DUP3 PUSH1 0x1 PUSH1 0x6 DUP2 LT PUSH2 0x38A JUMPI PUSH2 0x389 PUSH2 0x1500 JUMP JUMPDEST JUMPDEST PUSH1 0x20 MUL ADD MLOAD DUP4 PUSH1 0x2 PUSH1 0x6 DUP2 LT PUSH2 0x3A3 JUMPI PUSH2 0x3A2 PUSH2 0x1500 JUMP JUMPDEST JUMPDEST PUSH1 0x20 MUL ADD MLOAD DUP5 PUSH1 0x3 PUSH1 0x6 DUP2 LT PUSH2 0x3BC JUMPI PUSH2 0x3BB PUSH2 0x1500 JUMP JUMPDEST JUMPDEST PUSH1 0x20 MUL ADD MLOAD DUP6 PUSH1 0x4 PUSH1 0x6 DUP2 LT PUSH2 0x3D5 JUMPI PUSH2 0x3D4 PUSH2 0x1500 JUMP JUMPDEST JUMPDEST PUSH1 0x20 MUL ADD MLOAD DUP7 PUSH1 0x5 PUSH1 0x6 DUP2 LT PUSH2 0x3EE JUMPI PUSH2 0x3ED PUSH2 0x1500 JUMP JUMPDEST JUMPDEST PUSH1 0x20 MUL ADD MLOAD PUSH2 0xBEF JUMP JUMPDEST SWAP6 POP SWAP6 POP SWAP6 POP SWAP6 POP POP POP SWAP6 POP SWAP6 POP SWAP6 POP SWAP6 SWAP2 POP POP JUMP JUMPDEST PUSH1 0x0 DUP1 PUSH1 0x0 DUP1 PUSH1 0x0 PUSH2 0x422 DUP8 DUP8 DUP10 DUP10 PUSH2 0xD49 JUMP JUMPDEST DUP1 SWAP5 POP DUP2 SWAP6 POP POP POP PUSH2 0x436 DUP10 DUP10 DUP12 DUP12 PUSH2 0xD49 JUMP JUMPDEST DUP1 SWAP3 POP DUP2 SWAP4 POP POP POP PUSH2 0x44A DUP3 DUP3 DUP12 DUP12 PUSH2 0xD49 JUMP JUMPDEST DUP1 SWAP3 POP DUP2 SWAP4 POP POP POP PUSH2 0x45E DUP5 DUP5 DUP5 DUP5 PUSH2 0xE7A JUMP JUMPDEST DUP1 SWAP5 POP DUP2 SWAP6 POP POP POP PUSH2 0x4B1 DUP5 DUP5 PUSH32 0x2B149D40CEB8AAAE81BE18991BE06AC3B5B4C5E559DBEFA33267E6DC24A138E5 PUSH31 0x9713B03AF0FED4CD2CAFADEED8FDF4A74FA084E52D1852E4A2BD0685C315D2 PUSH2 0xE7A JUMP JUMPDEST DUP1 SWAP5 POP DUP2 SWAP6 POP POP POP PUSH1 0x0 DUP5 EQ DUP1 ISZERO PUSH2 0x4C9 JUMPI POP PUSH1 0x0 DUP4 EQ JUMPDEST SWAP5 POP POP POP POP POP SWAP5 SWAP4 POP POP POP POP JUMP JUMPDEST PUSH2 0x4DF PUSH2 0x12D4 JUMP JUMPDEST PUSH1 0x0 DUP10 EQ DUP1 ISZERO PUSH2 0x4EF JUMPI POP PUSH1 0x0 DUP9 EQ JUMPDEST ISZERO PUSH2 0x5AD JUMPI DUP7 DUP7 DUP7 DUP7 DUP7 DUP7 DUP7 PUSH1 0x0 PUSH1 0x6 DUP2 LT PUSH2 0x50E JUMPI PUSH2 0x50D PUSH2 0x1500 JUMP JUMPDEST JUMPDEST PUSH1 0x20 MUL ADD DUP8 PUSH1 0x1 PUSH1 0x6 DUP2 LT PUSH2 0x526 JUMPI PUSH2 0x525 PUSH2 0x1500 JUMP JUMPDEST JUMPDEST PUSH1 0x20 MUL ADD DUP9 PUSH1 0x2 PUSH1 0x6 DUP2 LT PUSH2 0x53E JUMPI PUSH2 0x53D PUSH2 0x1500 JUMP JUMPDEST JUMPDEST PUSH1 0x20 MUL ADD DUP10 PUSH1 0x3 PUSH1 0x6 DUP2 LT PUSH2 0x556 JUMPI PUSH2 0x555 PUSH2 0x1500 JUMP JUMPDEST JUMPDEST PUSH1 0x20 MUL ADD DUP11 PUSH1 0x4 PUSH1 0x6 DUP2 LT PUSH2 0x56E JUMPI PUSH2 0x56D PUSH2 0x1500 JUMP JUMPDEST JUMPDEST PUSH1 0x20 MUL ADD DUP12 PUSH1 0x5 PUSH1 0x6 DUP2 LT PUSH2 0x586 JUMPI PUSH2 0x585 PUSH2 0x1500 JUMP JUMPDEST JUMPDEST PUSH1 0x20 MUL ADD DUP7 DUP2 MSTORE POP DUP7 DUP2 MSTORE POP DUP7 DUP2 MSTORE POP DUP7 DUP2 MSTORE POP DUP7 DUP2 MSTORE POP DUP7 DUP2 MSTORE POP POP POP POP POP POP POP PUSH2 0xBDF JUMP JUMPDEST PUSH1 0x0 DUP4 EQ DUP1 ISZERO PUSH2 0x5BD JUMPI POP PUSH1 0x0 DUP3 EQ JUMPDEST ISZERO PUSH2 0x67B JUMPI DUP13 DUP13 DUP13 DUP13 DUP13 DUP13 DUP7 PUSH1 0x0 PUSH1 0x6 DUP2 LT PUSH2 0x5DC JUMPI PUSH2 0x5DB PUSH2 0x1500 JUMP JUMPDEST JUMPDEST PUSH1 0x20 MUL ADD DUP8 PUSH1 0x1 PUSH1 0x6 DUP2 LT PUSH2 0x5F4 JUMPI PUSH2 0x5F3 PUSH2 0x1500 JUMP JUMPDEST JUMPDEST PUSH1 0x20 MUL ADD DUP9 PUSH1 0x2 PUSH1 0x6 DUP2 LT PUSH2 0x60C JUMPI PUSH2 0x60B PUSH2 0x1500 JUMP JUMPDEST JUMPDEST PUSH1 0x20 MUL ADD DUP10 PUSH1 0x3 PUSH1 0x6 DUP2 LT PUSH2 0x624 JUMPI PUSH2 0x623 PUSH2 0x1500 JUMP JUMPDEST JUMPDEST PUSH1 0x20 MUL ADD DUP11 PUSH1 0x4 PUSH1 0x6 DUP2 LT PUSH2 0x63C JUMPI PUSH2 0x63B PUSH2 0x1500 JUMP JUMPDEST JUMPDEST PUSH1 0x20 MUL ADD DUP12 PUSH1 0x5 PUSH1 0x6 DUP2 LT PUSH2 0x654 JUMPI PUSH2 0x653 PUSH2 0x1500 JUMP JUMPDEST JUMPDEST PUSH1 0x20 MUL ADD DUP7 DUP2 MSTORE POP DUP7 DUP2 MSTORE POP DUP7 DUP2 MSTORE POP DUP7 DUP2 MSTORE POP DUP7 DUP2 MSTORE POP DUP7 DUP2 MSTORE POP POP POP POP POP POP POP PUSH2 0xBDF JUMP JUMPDEST PUSH2 0x687 DUP6 DUP6 DUP12 DUP12 PUSH2 0xD49 JUMP JUMPDEST DUP1 SWAP6 POP DUP2 SWAP7 POP POP POP PUSH2 0x69B DUP12 DUP12 DUP6 DUP6 PUSH2 0xD49 JUMP JUMPDEST DUP3 PUSH1 0x2 PUSH1 0x6 DUP2 LT PUSH2 0x6AF JUMPI PUSH2 0x6AE PUSH2 0x1500 JUMP JUMPDEST JUMPDEST PUSH1 0x20 MUL ADD DUP4 PUSH1 0x3 PUSH1 0x6 DUP2 LT PUSH2 0x6C7 JUMPI PUSH2 0x6C6 PUSH2 0x1500 JUMP JUMPDEST JUMPDEST PUSH1 0x20 MUL ADD DUP3 DUP2 MSTORE POP DUP3 DUP2 MSTORE POP POP POP PUSH2 0x6E1 DUP8 DUP8 DUP12 DUP12 PUSH2 0xD49 JUMP JUMPDEST DUP1 SWAP8 POP DUP2 SWAP9 POP POP POP PUSH2 0x6F5 DUP14 DUP14 DUP6 DUP6 PUSH2 0xD49 JUMP JUMPDEST DUP3 PUSH1 0x4 PUSH1 0x6 DUP2 LT PUSH2 0x709 JUMPI PUSH2 0x708 PUSH2 0x1500 JUMP JUMPDEST JUMPDEST PUSH1 0x20 MUL ADD DUP4 PUSH1 0x5 PUSH1 0x6 DUP2 LT PUSH2 0x721 JUMPI PUSH2 0x720 PUSH2 0x1500 JUMP JUMPDEST JUMPDEST PUSH1 0x20 MUL ADD DUP3 DUP2 MSTORE POP DUP3 DUP2 MSTORE POP POP POP DUP1 PUSH1 0x4 PUSH1 0x6 DUP2 LT PUSH2 0x743 JUMPI PUSH2 0x742 PUSH2 0x1500 JUMP JUMPDEST JUMPDEST PUSH1 0x20 MUL ADD MLOAD DUP8 EQ DUP1 ISZERO PUSH2 0x76D JUMPI POP DUP1 PUSH1 0x5 PUSH1 0x6 DUP2 LT PUSH2 0x765 JUMPI PUSH2 0x764 PUSH2 0x1500 JUMP JUMPDEST JUMPDEST PUSH1 0x20 MUL ADD MLOAD DUP7 EQ JUMPDEST ISZERO PUSH2 0x934 JUMPI DUP1 PUSH1 0x2 PUSH1 0x6 DUP2 LT PUSH2 0x786 JUMPI PUSH2 0x785 PUSH2 0x1500 JUMP JUMPDEST JUMPDEST PUSH1 0x20 MUL ADD MLOAD DUP6 EQ DUP1 ISZERO PUSH2 0x7B0 JUMPI POP DUP1 PUSH1 0x3 PUSH1 0x6 DUP2 LT PUSH2 0x7A8 JUMPI PUSH2 0x7A7 PUSH2 0x1500 JUMP JUMPDEST JUMPDEST PUSH1 0x20 MUL ADD MLOAD DUP5 EQ JUMPDEST ISZERO PUSH2 0x876 JUMPI PUSH2 0x7C3 DUP14 DUP14 DUP14 DUP14 DUP14 DUP14 PUSH2 0xEE0 JUMP JUMPDEST DUP7 PUSH1 0x0 PUSH1 0x6 DUP2 LT PUSH2 0x7D7 JUMPI PUSH2 0x7D6 PUSH2 0x1500 JUMP JUMPDEST JUMPDEST PUSH1 0x20 MUL ADD DUP8 PUSH1 0x1 PUSH1 0x6 DUP2 LT PUSH2 0x7EF JUMPI PUSH2 0x7EE PUSH2 0x1500 JUMP JUMPDEST JUMPDEST PUSH1 0x20 MUL ADD DUP9 PUSH1 0x2 PUSH1 0x6 DUP2 LT PUSH2 0x807 JUMPI PUSH2 0x806 PUSH2 0x1500 JUMP JUMPDEST JUMPDEST PUSH1 0x20 MUL ADD DUP10 PUSH1 0x3 PUSH1 0x6 DUP2 LT PUSH2 0x81F JUMPI PUSH2 0x81E PUSH2 0x1500 JUMP JUMPDEST JUMPDEST PUSH1 0x20 MUL ADD DUP11 PUSH1 0x4 PUSH1 0x6 DUP2 LT PUSH2 0x837 JUMPI PUSH2 0x836 PUSH2 0x1500 JUMP JUMPDEST JUMPDEST PUSH1 0x20 MUL ADD DUP12 PUSH1 0x5 PUSH1 0x6 DUP2 LT PUSH2 0x84F JUMPI PUSH2 0x84E PUSH2 0x1500 JUMP JUMPDEST JUMPDEST PUSH1 0x20 MUL ADD DUP7 DUP2 MSTORE POP DUP7 DUP2 MSTORE POP DUP7 DUP2 MSTORE POP DUP7 DUP2 MSTORE POP DUP7 DUP2 MSTORE POP DUP7 DUP2 MSTORE POP POP POP POP POP POP POP PUSH2 0xBDF JUMP JUMPDEST PUSH1 0x1 PUSH1 0x0 PUSH1 0x1 PUSH1 0x0 DUP1 PUSH1 0x0 DUP7 PUSH1 0x0 PUSH1 0x6 DUP2 LT PUSH2 0x895 JUMPI PUSH2 0x894 PUSH2 0x1500 JUMP JUMPDEST JUMPDEST PUSH1 0x20 MUL ADD DUP8 PUSH1 0x1 PUSH1 0x6 DUP2 LT PUSH2 0x8AD JUMPI PUSH2 0x8AC PUSH2 0x1500 JUMP JUMPDEST JUMPDEST PUSH1 0x20 MUL ADD DUP9 PUSH1 0x2 PUSH1 0x6 DUP2 LT PUSH2 0x8C5 JUMPI PUSH2 0x8C4 PUSH2 0x1500 JUMP JUMPDEST JUMPDEST PUSH1 0x20 MUL ADD DUP10 PUSH1 0x3 PUSH1 0x6 DUP2 LT PUSH2 0x8DD JUMPI PUSH2 0x8DC PUSH2 0x1500 JUMP JUMPDEST JUMPDEST PUSH1 0x20 MUL ADD DUP11 PUSH1 0x4 PUSH1 0x6 DUP2 LT PUSH2 0x8F5 JUMPI PUSH2 0x8F4 PUSH2 0x1500 JUMP JUMPDEST JUMPDEST PUSH1 0x20 MUL ADD DUP12 PUSH1 0x5 PUSH1 0x6 DUP2 LT PUSH2 0x90D JUMPI PUSH2 0x90C PUSH2 0x1500 JUMP JUMPDEST JUMPDEST PUSH1 0x20 MUL ADD DUP7 DUP2 MSTORE POP DUP7 DUP2 MSTORE POP DUP7 DUP2 MSTORE POP DUP7 DUP2 MSTORE POP DUP7 DUP2 MSTORE POP DUP7 DUP2 MSTORE POP POP POP POP POP POP POP PUSH2 0xBDF JUMP JUMPDEST PUSH2 0x940 DUP10 DUP10 DUP6 DUP6 PUSH2 0xD49 JUMP JUMPDEST DUP1 SWAP4 POP DUP2 SWAP5 POP POP POP PUSH2 0x984 DUP6 DUP6 DUP4 PUSH1 0x2 PUSH1 0x6 DUP2 LT PUSH2 0x961 JUMPI PUSH2 0x960 PUSH2 0x1500 JUMP JUMPDEST JUMPDEST PUSH1 0x20 MUL ADD MLOAD DUP5 PUSH1 0x3 PUSH1 0x6 DUP2 LT PUSH2 0x97A JUMPI PUSH2 0x979 PUSH2 0x1500 JUMP JUMPDEST JUMPDEST PUSH1 0x20 MUL ADD MLOAD PUSH2 0xE7A JUMP JUMPDEST DUP1 SWAP14 POP DUP2 SWAP15 POP POP POP PUSH2 0x9C8 DUP8 DUP8 DUP4 PUSH1 0x4 PUSH1 0x6 DUP2 LT PUSH2 0x9A5 JUMPI PUSH2 0x9A4 PUSH2 0x1500 JUMP JUMPDEST JUMPDEST PUSH1 0x20 MUL ADD MLOAD DUP5 PUSH1 0x5 PUSH1 0x6 DUP2 LT PUSH2 0x9BE JUMPI PUSH2 0x9BD PUSH2 0x1500 JUMP JUMPDEST JUMPDEST PUSH1 0x20 MUL ADD MLOAD PUSH2 0xE7A JUMP JUMPDEST DUP1 SWAP12 POP DUP2 SWAP13 POP POP POP PUSH2 0x9DC DUP12 DUP12 DUP14 DUP14 PUSH2 0xD49 JUMP JUMPDEST DUP1 SWAP10 POP DUP2 SWAP11 POP POP POP PUSH2 0xA20 DUP10 DUP10 DUP4 PUSH1 0x4 PUSH1 0x6 DUP2 LT PUSH2 0x9FD JUMPI PUSH2 0x9FC PUSH2 0x1500 JUMP JUMPDEST JUMPDEST PUSH1 0x20 MUL ADD MLOAD DUP5 PUSH1 0x5 PUSH1 0x6 DUP2 LT PUSH2 0xA16 JUMPI PUSH2 0xA15 PUSH2 0x1500 JUMP JUMPDEST JUMPDEST PUSH1 0x20 MUL ADD MLOAD PUSH2 0xD49 JUMP JUMPDEST DUP1 SWAP6 POP DUP2 SWAP7 POP POP POP PUSH2 0xA34 DUP10 DUP10 DUP14 DUP14 PUSH2 0xD49 JUMP JUMPDEST DUP1 SWAP10 POP DUP2 SWAP11 POP POP POP PUSH2 0xA48 DUP10 DUP10 DUP6 DUP6 PUSH2 0xD49 JUMP JUMPDEST DUP3 PUSH1 0x4 PUSH1 0x6 DUP2 LT PUSH2 0xA5C JUMPI PUSH2 0xA5B PUSH2 0x1500 JUMP JUMPDEST JUMPDEST PUSH1 0x20 MUL ADD DUP4 PUSH1 0x5 PUSH1 0x6 DUP2 LT PUSH2 0xA74 JUMPI PUSH2 0xA73 PUSH2 0x1500 JUMP JUMPDEST JUMPDEST PUSH1 0x20 MUL ADD DUP3 DUP2 MSTORE POP DUP3 DUP2 MSTORE POP POP POP PUSH2 0xA8E DUP14 DUP14 DUP16 DUP16 PUSH2 0xD49 JUMP JUMPDEST DUP1 SWAP8 POP DUP2 SWAP9 POP POP POP PUSH2 0xAA2 DUP8 DUP8 DUP6 DUP6 PUSH2 0xD49 JUMP JUMPDEST DUP1 SWAP8 POP DUP2 SWAP9 POP POP POP PUSH2 0xAB6 DUP8 DUP8 DUP12 DUP12 PUSH2 0xE7A JUMP JUMPDEST DUP1 SWAP8 POP DUP2 SWAP9 POP POP POP PUSH2 0xACA DUP6 DUP6 PUSH1 0x2 PUSH2 0x1088 JUMP JUMPDEST DUP1 SWAP4 POP DUP2 SWAP5 POP POP POP PUSH2 0xADE DUP8 DUP8 DUP6 DUP6 PUSH2 0xE7A JUMP JUMPDEST DUP1 SWAP8 POP DUP2 SWAP9 POP POP POP PUSH2 0xAF2 DUP12 DUP12 DUP10 DUP10 PUSH2 0xD49 JUMP JUMPDEST DUP3 PUSH1 0x0 PUSH1 0x6 DUP2 LT PUSH2 0xB06 JUMPI PUSH2 0xB05 PUSH2 0x1500 JUMP JUMPDEST JUMPDEST PUSH1 0x20 MUL ADD DUP4 PUSH1 0x1 PUSH1 0x6 DUP2 LT PUSH2 0xB1E JUMPI PUSH2 0xB1D PUSH2 0x1500 JUMP JUMPDEST JUMPDEST PUSH1 0x20 MUL ADD DUP3 DUP2 MSTORE POP DUP3 DUP2 MSTORE POP POP POP PUSH2 0xB38 DUP6 DUP6 DUP10 DUP10 PUSH2 0xE7A JUMP JUMPDEST DUP1 SWAP12 POP DUP2 SWAP13 POP POP POP PUSH2 0xB4C DUP14 DUP14 DUP14 DUP14 PUSH2 0xD49 JUMP JUMPDEST DUP1 SWAP12 POP DUP2 SWAP13 POP POP POP PUSH2 0xB90 DUP10 DUP10 DUP4 PUSH1 0x2 PUSH1 0x6 DUP2 LT PUSH2 0xB6D JUMPI PUSH2 0xB6C PUSH2 0x1500 JUMP JUMPDEST JUMPDEST PUSH1 0x20 MUL ADD MLOAD DUP5 PUSH1 0x3 PUSH1 0x6 DUP2 LT PUSH2 0xB86 JUMPI PUSH2 0xB85 PUSH2 0x1500 JUMP JUMPDEST JUMPDEST PUSH1 0x20 MUL ADD MLOAD PUSH2 0xD49 JUMP JUMPDEST DUP1 SWAP14 POP DUP2 SWAP15 POP POP POP PUSH2 0xBA4 DUP12 DUP12 DUP16 DUP16 PUSH2 0xE7A JUMP JUMPDEST DUP3 PUSH1 0x2 PUSH1 0x6 DUP2 LT PUSH2 0xBB8 JUMPI PUSH2 0xBB7 PUSH2 0x1500 JUMP JUMPDEST JUMPDEST PUSH1 0x20 MUL ADD DUP4 PUSH1 0x3 PUSH1 0x6 DUP2 LT PUSH2 0xBD0 JUMPI PUSH2 0xBCF PUSH2 0x1500 JUMP JUMPDEST JUMPDEST PUSH1 0x20 MUL ADD DUP3 DUP2 MSTORE POP DUP3 DUP2 MSTORE POP POP POP JUMPDEST SWAP13 SWAP12 POP POP POP POP POP POP POP POP POP POP POP POP JUMP JUMPDEST PUSH1 0x0 DUP1 PUSH1 0x0 DUP1 PUSH1 0x0 DUP1 PUSH2 0xC02 DUP9 DUP9 PUSH2 0x10FB JUMP JUMPDEST DUP1 SWAP3 POP DUP2 SWAP4 POP POP POP PUSH2 0xC16 DUP13 DUP13 DUP5 DUP5 PUSH2 0xD49 JUMP JUMPDEST DUP1 SWAP7 POP DUP2 SWAP8 POP POP POP PUSH2 0xC2A DUP11 DUP11 DUP5 DUP5 PUSH2 0xD49 JUMP JUMPDEST DUP1 SWAP5 POP DUP2 SWAP6 POP POP POP POP POP SWAP7 POP SWAP7 POP SWAP7 POP SWAP7 SWAP3 POP POP POP JUMP JUMPDEST PUSH2 0xC49 PUSH2 0x12D4 JUMP JUMPDEST JUMPDEST PUSH1 0x0 DUP9 EQ PUSH2 0xD3E JUMPI PUSH1 0x0 PUSH1 0x1 DUP10 AND EQ PUSH2 0xD04 JUMPI PUSH2 0xD01 DUP2 PUSH1 0x0 PUSH1 0x6 DUP2 LT PUSH2 0xC74 JUMPI PUSH2 0xC73 PUSH2 0x1500 JUMP JUMPDEST JUMPDEST PUSH1 0x20 MUL ADD MLOAD DUP3 PUSH1 0x1 PUSH1 0x6 DUP2 LT PUSH2 0xC8D JUMPI PUSH2 0xC8C PUSH2 0x1500 JUMP JUMPDEST JUMPDEST PUSH1 0x20 MUL ADD MLOAD DUP4 PUSH1 0x2 PUSH1 0x6 DUP2 LT PUSH2 0xCA6 JUMPI PUSH2 0xCA5 PUSH2 0x1500 JUMP JUMPDEST JUMPDEST PUSH1 0x20 MUL ADD MLOAD DUP5 PUSH1 0x3 PUSH1 0x6 DUP2 LT PUSH2 0xCBF JUMPI PUSH2 0xCBE PUSH2 0x1500 JUMP JUMPDEST JUMPDEST PUSH1 0x20 MUL ADD MLOAD DUP6 PUSH1 0x4 PUSH1 0x6 DUP2 LT PUSH2 0xCD8 JUMPI PUSH2 0xCD7 PUSH2 0x1500 JUMP JUMPDEST JUMPDEST PUSH1 0x20 MUL ADD MLOAD DUP7 PUSH1 0x5 PUSH1 0x6 DUP2 LT PUSH2 0xCF1 JUMPI PUSH2 0xCF0 PUSH2 0x1500 JUMP JUMPDEST JUMPDEST PUSH1 0x20 MUL ADD MLOAD DUP14 DUP14 DUP14 DUP14 DUP14 DUP14 PUSH2 0x4D7 JUMP JUMPDEST SWAP1 POP JUMPDEST PUSH2 0xD12 DUP8 DUP8 DUP8 DUP8 DUP8 DUP8 PUSH2 0xEE0 JUMP JUMPDEST DUP1 SWAP8 POP DUP2 SWAP9 POP DUP3 SWAP10 POP DUP4 SWAP11 POP DUP5 SWAP12 POP DUP6 SWAP13 POP POP POP POP POP POP POP PUSH1 0x2 DUP9 PUSH2 0xD37 SWAP2 SWAP1 PUSH2 0x158D JUMP JUMPDEST SWAP8 POP PUSH2 0xC4A JUMP JUMPDEST SWAP8 SWAP7 POP POP POP POP POP POP POP JUMP JUMPDEST PUSH1 0x0 DUP1 PUSH2 0xDD9 PUSH32 0x30644E72E131A029B85045B68181585D97816A916871CA8D3C208C16D87CFD47 DUP1 PUSH2 0xD7E JUMPI PUSH2 0xD7D PUSH2 0x152F JUMP JUMPDEST JUMPDEST DUP6 DUP9 MULMOD PUSH32 0x30644E72E131A029B85045B68181585D97816A916871CA8D3C208C16D87CFD47 DUP1 PUSH2 0xDB0 JUMPI PUSH2 0xDAF PUSH2 0x152F JUMP JUMPDEST JUMPDEST DUP6 DUP9 MULMOD PUSH32 0x30644E72E131A029B85045B68181585D97816A916871CA8D3C208C16D87CFD47 PUSH2 0x125A JUMP JUMPDEST PUSH32 0x30644E72E131A029B85045B68181585D97816A916871CA8D3C208C16D87CFD47 DUP1 PUSH2 0xE08 JUMPI PUSH2 0xE07 PUSH2 0x152F JUMP JUMPDEST JUMPDEST PUSH32 0x30644E72E131A029B85045B68181585D97816A916871CA8D3C208C16D87CFD47 DUP1 PUSH2 0xE37 JUMPI PUSH2 0xE36 PUSH2 0x152F JUMP JUMPDEST JUMPDEST DUP7 DUP9 MULMOD PUSH32 0x30644E72E131A029B85045B68181585D97816A916871CA8D3C208C16D87CFD47 DUP1 PUSH2 0xE69 JUMPI PUSH2 0xE68 PUSH2 0x152F JUMP JUMPDEST JUMPDEST DUP7 DUP11 MULMOD ADDMOD SWAP2 POP SWAP2 POP SWAP5 POP SWAP5 SWAP3 POP POP POP JUMP JUMPDEST PUSH1 0x0 DUP1 PUSH2 0xEA8 DUP7 DUP6 PUSH32 0x30644E72E131A029B85045B68181585D97816A916871CA8D3C208C16D87CFD47 PUSH2 0x125A JUMP JUMPDEST PUSH2 0xED3 DUP7 DUP6 PUSH32 0x30644E72E131A029B85045B68181585D97816A916871CA8D3C208C16D87CFD47 PUSH2 0x125A JUMP JUMPDEST SWAP2 POP SWAP2 POP SWAP5 POP SWAP5 SWAP3 POP POP POP JUMP JUMPDEST PUSH1 0x0 DUP1 PUSH1 0x0 DUP1 PUSH1 0x0 DUP1 PUSH2 0xEF5 DUP13 DUP13 PUSH1 0x3 PUSH2 0x1088 JUMP JUMPDEST DUP1 SWAP7 POP DUP2 SWAP8 POP POP POP PUSH2 0xF09 DUP7 DUP7 DUP15 DUP15 PUSH2 0xD49 JUMP JUMPDEST DUP1 SWAP7 POP DUP2 SWAP8 POP POP POP PUSH2 0xF1D DUP11 DUP11 DUP11 DUP11 PUSH2 0xD49 JUMP JUMPDEST DUP1 SWAP9 POP DUP2 SWAP10 POP POP POP PUSH2 0xF31 DUP13 DUP13 DUP13 DUP13 PUSH2 0xD49 JUMP JUMPDEST DUP1 SWAP5 POP DUP2 SWAP6 POP POP POP PUSH2 0xF45 DUP5 DUP5 DUP11 DUP11 PUSH2 0xD49 JUMP JUMPDEST DUP1 SWAP5 POP DUP2 SWAP6 POP POP POP PUSH2 0xF59 DUP7 DUP7 DUP9 DUP9 PUSH2 0xD49 JUMP JUMPDEST DUP1 SWAP13 POP DUP2 SWAP14 POP POP POP PUSH2 0xF6D DUP5 DUP5 PUSH1 0x8 PUSH2 0x1088 JUMP JUMPDEST DUP1 SWAP3 POP DUP2 SWAP4 POP POP POP PUSH2 0xF81 DUP13 DUP13 DUP5 DUP5 PUSH2 0xE7A JUMP JUMPDEST DUP1 SWAP13 POP DUP2 SWAP14 POP POP POP PUSH2 0xF95 DUP9 DUP9 DUP11 DUP11 PUSH2 0xD49 JUMP JUMPDEST DUP1 SWAP3 POP DUP2 SWAP4 POP POP POP PUSH2 0xFA9 DUP5 DUP5 PUSH1 0x4 PUSH2 0x1088 JUMP JUMPDEST DUP1 SWAP5 POP DUP2 SWAP6 POP POP POP PUSH2 0xFBD DUP5 DUP5 DUP15 DUP15 PUSH2 0xE7A JUMP JUMPDEST DUP1 SWAP5 POP DUP2 SWAP6 POP POP POP PUSH2 0xFD1 DUP5 DUP5 DUP9 DUP9 PUSH2 0xD49 JUMP JUMPDEST DUP1 SWAP5 POP DUP2 SWAP6 POP POP POP PUSH2 0xFE5 DUP11 DUP11 PUSH1 0x8 PUSH2 0x1088 JUMP JUMPDEST DUP1 SWAP7 POP DUP2 SWAP8 POP POP POP PUSH2 0xFF9 DUP7 DUP7 DUP13 DUP13 PUSH2 0xD49 JUMP JUMPDEST DUP1 SWAP7 POP DUP2 SWAP8 POP POP POP PUSH2 0x100D DUP7 DUP7 DUP5 DUP5 PUSH2 0xD49 JUMP JUMPDEST DUP1 SWAP7 POP DUP2 SWAP8 POP POP POP PUSH2 0x1021 DUP5 DUP5 DUP9 DUP9 PUSH2 0xE7A JUMP JUMPDEST DUP1 SWAP5 POP DUP2 SWAP6 POP POP POP PUSH2 0x1035 DUP13 DUP13 PUSH1 0x2 PUSH2 0x1088 JUMP JUMPDEST DUP1 SWAP7 POP DUP2 SWAP8 POP POP POP PUSH2 0x1049 DUP7 DUP7 DUP11 DUP11 PUSH2 0xD49 JUMP JUMPDEST DUP1 SWAP7 POP DUP2 SWAP8 POP POP POP PUSH2 0x105D DUP9 DUP9 DUP5 DUP5 PUSH2 0xD49 JUMP JUMPDEST DUP1 SWAP3 POP DUP2 SWAP4 POP POP POP PUSH2 0x1071 DUP3 DUP3 PUSH1 0x8 PUSH2 0x1088 JUMP JUMPDEST DUP1 SWAP3 POP DUP2 SWAP4 POP POP POP SWAP7 POP SWAP7 POP SWAP7 POP SWAP7 POP SWAP7 POP SWAP7 SWAP1 POP JUMP JUMPDEST PUSH1 0x0 DUP1 PUSH32 0x30644E72E131A029B85045B68181585D97816A916871CA8D3C208C16D87CFD47 DUP1 PUSH2 0x10BA JUMPI PUSH2 0x10B9 PUSH2 0x152F JUMP JUMPDEST JUMPDEST DUP4 DUP7 MULMOD PUSH32 0x30644E72E131A029B85045B68181585D97816A916871CA8D3C208C16D87CFD47 DUP1 PUSH2 0x10EC JUMPI PUSH2 0x10EB PUSH2 0x152F JUMP JUMPDEST JUMPDEST DUP5 DUP7 MULMOD SWAP2 POP SWAP2 POP SWAP4 POP SWAP4 SWAP2 POP POP JUMP JUMPDEST PUSH1 0x0 DUP1 PUSH1 0x0 PUSH2 0x11BD PUSH32 0x30644E72E131A029B85045B68181585D97816A916871CA8D3C208C16D87CFD47 DUP1 PUSH2 0x1132 JUMPI PUSH2 0x1131 PUSH2 0x152F JUMP JUMPDEST JUMPDEST PUSH32 0x30644E72E131A029B85045B68181585D97816A916871CA8D3C208C16D87CFD47 DUP1 PUSH2 0x1161 JUMPI PUSH2 0x1160 PUSH2 0x152F JUMP JUMPDEST JUMPDEST DUP8 DUP9 MULMOD PUSH32 0x30644E72E131A029B85045B68181585D97816A916871CA8D3C208C16D87CFD47 DUP1 PUSH2 0x1193 JUMPI PUSH2 0x1192 PUSH2 0x152F JUMP JUMPDEST JUMPDEST DUP8 DUP9 MULMOD ADDMOD PUSH32 0x30644E72E131A029B85045B68181585D97816A916871CA8D3C208C16D87CFD47 PUSH2 0x1282 JUMP JUMPDEST SWAP1 POP PUSH32 0x30644E72E131A029B85045B68181585D97816A916871CA8D3C208C16D87CFD47 DUP1 PUSH2 0x11EE JUMPI PUSH2 0x11ED PUSH2 0x152F JUMP JUMPDEST JUMPDEST DUP2 DUP7 MULMOD PUSH32 0x30644E72E131A029B85045B68181585D97816A916871CA8D3C208C16D87CFD47 DUP1 PUSH2 0x1220 JUMPI PUSH2 0x121F PUSH2 0x152F JUMP JUMPDEST JUMPDEST DUP3 DUP7 MULMOD PUSH32 0x30644E72E131A029B85045B68181585D97816A916871CA8D3C208C16D87CFD47 PUSH2 0x124E SWAP2 SWAP1 PUSH2 0x15BE JUMP JUMPDEST SWAP3 POP SWAP3 POP POP SWAP3 POP SWAP3 SWAP1 POP JUMP JUMPDEST PUSH1 0x0 DUP2 DUP1 PUSH2 0x126B JUMPI PUSH2 0x126A PUSH2 0x152F JUMP JUMPDEST JUMPDEST DUP4 DUP4 PUSH2 0x1277 SWAP2 SWAP1 PUSH2 0x15BE JUMP JUMPDEST DUP6 ADDMOD SWAP1 POP SWAP4 SWAP3 POP POP POP JUMP JUMPDEST PUSH1 0x0 DUP1 PUSH1 0x40 MLOAD PUSH1 0x20 DUP2 MSTORE PUSH1 0x20 DUP1 DUP3 ADD MSTORE PUSH1 0x20 PUSH1 0x40 DUP3 ADD MSTORE DUP5 PUSH1 0x60 DUP3 ADD MSTORE PUSH1 0x2 DUP5 SUB PUSH1 0x80 DUP3 ADD MSTORE DUP4 PUSH1 0xA0 DUP3 ADD MSTORE PUSH1 0x20 DUP2 PUSH1 0xC0 DUP4 PUSH1 0x5 PUSH2 0x7D0 GAS SUB STATICCALL SWAP2 POP DUP1 MLOAD SWAP3 POP POP DUP1 PUSH2 0x12CD JUMPI PUSH1 0x0 DUP1 REVERT JUMPDEST POP SWAP3 SWAP2 POP POP JUMP JUMPDEST PUSH1 0x40 MLOAD DUP1 PUSH1 0xC0 ADD PUSH1 0x40 MSTORE DUP1 PUSH1 0x6 SWAP1 PUSH1 0x20 DUP3 MUL DUP1 CALLDATASIZE DUP4 CALLDATACOPY DUP1 DUP3 ADD SWAP2 POP POP SWAP1 POP POP SWAP1 JUMP JUMPDEST PUSH1 0x0 DUP2 SWAP1 POP SWAP2 SWAP1 POP JUMP JUMPDEST PUSH2 0x1309 DUP2 PUSH2 0x12F6 JUMP JUMPDEST DUP3 MSTORE POP POP JUMP JUMPDEST PUSH1 0x0 PUSH1 0x20 DUP3 ADD SWAP1 POP PUSH2 0x1324 PUSH1 0x0 DUP4 ADD DUP5 PUSH2 0x1300 JUMP JUMPDEST SWAP3 SWAP2 POP POP JUMP JUMPDEST PUSH1 0x0 DUP1 REVERT JUMPDEST PUSH2 0x1338 DUP2 PUSH2 0x12F6 JUMP JUMPDEST DUP2 EQ PUSH2 0x1343 JUMPI PUSH1 0x0 DUP1 REVERT JUMPDEST POP JUMP JUMPDEST PUSH1 0x0 DUP2 CALLDATALOAD SWAP1 POP PUSH2 0x1355 DUP2 PUSH2 0x132F JUMP JUMPDEST SWAP3 SWAP2 POP POP JUMP JUMPDEST PUSH1 0x0 DUP1 PUSH1 0x0 DUP1 PUSH1 0x0 DUP1 PUSH1 0x0 DUP1 PUSH2 0x100 DUP10 DUP12 SUB SLT ISZERO PUSH2 0x137C JUMPI PUSH2 0x137B PUSH2 0x132A JUMP JUMPDEST JUMPDEST PUSH1 0x0 PUSH2 0x138A DUP12 DUP3 DUP13 ADD PUSH2 0x1346 JUMP JUMPDEST SWAP9 POP POP PUSH1 0x20 PUSH2 0x139B DUP12 DUP3 DUP13 ADD PUSH2 0x1346 JUMP JUMPDEST SWAP8 POP POP PUSH1 0x40 PUSH2 0x13AC DUP12 DUP3 DUP13 ADD PUSH2 0x1346 JUMP JUMPDEST SWAP7 POP POP PUSH1 0x60 PUSH2 0x13BD DUP12 DUP3 DUP13 ADD PUSH2 0x1346 JUMP JUMPDEST SWAP6 POP POP PUSH1 0x80 PUSH2 0x13CE DUP12 DUP3 DUP13 ADD PUSH2 0x1346 JUMP JUMPDEST SWAP5 POP POP PUSH1 0xA0 PUSH2 0x13DF DUP12 DUP3 DUP13 ADD PUSH2 0x1346 JUMP JUMPDEST SWAP4 POP POP PUSH1 0xC0 PUSH2 0x13F0 DUP12 DUP3 DUP13 ADD PUSH2 0x1346 JUMP JUMPDEST SWAP3 POP POP PUSH1 0xE0 PUSH2 0x1401 DUP12 DUP3 DUP13 ADD PUSH2 0x1346 JUMP JUMPDEST SWAP2 POP POP SWAP3 SWAP6 SWAP9 POP SWAP3 SWAP6 SWAP9 SWAP1 SWAP4 SWAP7 POP JUMP JUMPDEST PUSH1 0x0 PUSH1 0x80 DUP3 ADD SWAP1 POP PUSH2 0x1426 PUSH1 0x0 DUP4 ADD DUP8 PUSH2 0x1300 JUMP JUMPDEST PUSH2 0x1433 PUSH1 0x20 DUP4 ADD DUP7 PUSH2 0x1300 JUMP JUMPDEST PUSH2 0x1440 PUSH1 0x40 DUP4 ADD DUP6 PUSH2 0x1300 JUMP JUMPDEST PUSH2 0x144D PUSH1 0x60 DUP4 ADD DUP5 PUSH2 0x1300 JUMP JUMPDEST SWAP6 SWAP5 POP POP POP POP POP JUMP JUMPDEST PUSH1 0x0 DUP1 PUSH1 0x0 DUP1 PUSH1 0x0 PUSH1 0xA0 DUP7 DUP9 SUB SLT ISZERO PUSH2 0x1472 JUMPI PUSH2 0x1471 PUSH2 0x132A JUMP JUMPDEST JUMPDEST PUSH1 0x0 PUSH2 0x1480 DUP9 DUP3 DUP10 ADD PUSH2 0x1346 JUMP JUMPDEST SWAP6 POP POP PUSH1 0x20 PUSH2 0x1491 DUP9 DUP3 DUP10 ADD PUSH2 0x1346 JUMP JUMPDEST SWAP5 POP POP PUSH1 0x40 PUSH2 0x14A2 DUP9 DUP3 DUP10 ADD PUSH2 0x1346 JUMP JUMPDEST SWAP4 POP POP PUSH1 0x60 PUSH2 0x14B3 DUP9 DUP3 DUP10 ADD PUSH2 0x1346 JUMP JUMPDEST SWAP3 POP POP PUSH1 0x80 PUSH2 0x14C4 DUP9 DUP3 DUP10 ADD PUSH2 0x1346 JUMP JUMPDEST SWAP2 POP POP SWAP3 SWAP6 POP SWAP3 SWAP6 SWAP1 SWAP4 POP JUMP JUMPDEST PUSH32 0x4E487B7100000000000000000000000000000000000000000000000000000000 PUSH1 0x0 MSTORE PUSH1 0x1 PUSH1 0x4 MSTORE PUSH1 0x24 PUSH1 0x0 REVERT JUMPDEST PUSH32 0x4E487B7100000000000000000000000000000000000000000000000000000000 PUSH1 0x0 MSTORE PUSH1 0x32 PUSH1 0x4 MSTORE PUSH1 0x24 PUSH1 0x0 REVERT JUMPDEST PUSH32 0x4E487B7100000000000000000000000000000000000000000000000000000000 PUSH1 0x0 MSTORE PUSH1 0x12 PUSH1 0x4 MSTORE PUSH1 0x24 PUSH1 0x0 REVERT JUMPDEST PUSH32 0x4E487B7100000000000000000000000000000000000000000000000000000000 PUSH1 0x0 MSTORE PUSH1 0x11 PUSH1 0x4 MSTORE PUSH1 0x24 PUSH1 0x0 REVERT JUMPDEST PUSH1 0x0 PUSH2 0x1598 DUP3 PUSH2 0x12F6 JUMP JUMPDEST SWAP2 POP PUSH2 0x15A3 DUP4 PUSH2 0x12F6 JUMP JUMPDEST SWAP3 POP DUP3 PUSH2 0x15B3 JUMPI PUSH2 0x15B2 PUSH2 0x152F JUMP JUMPDEST JUMPDEST DUP3 DUP3 DIV SWAP1 POP SWAP3 SWAP2 POP POP JUMP JUMPDEST PUSH1 0x0 PUSH2 0x15C9 DUP3 PUSH2 0x12F6 JUMP JUMPDEST SWAP2 POP PUSH2 0x15D4 DUP4 PUSH2 0x12F6 JUMP JUMPDEST SWAP3 POP DUP3 DUP3 SUB SWAP1 POP DUP2 DUP2 GT ISZERO PUSH2 0x15EC JUMPI PUSH2 0x15EB PUSH2 0x155E JUMP JUMPDEST JUMPDEST SWAP3 SWAP2 POP POP JUMP INVALID LOG2 PUSH5 0x6970667358 0x22 SLT KECCAK256 PUSH13 0x665D59827246C45678BD845C16 DUP3 LOG1 0xC8 0x2D ADD SWAP13 INVALID 0x5C SWAP4 SIGNEXTEND 0xBF 0xC8 DUP6 DUP5 0xB0 0x4C 0x21 BALANCE PUSH5 0x736F6C6343 STOP ADDMOD SLT STOP CALLER "
		},
		"gasEstimates": {
			"creation": {
				"codeDepositCost": "1134400",
				"executionCost": "1205",
				"totalCost": "1135605"
			},
			"external": {
				"ECTwistAdd(uint256,uint256,uint256,uint256,uint256,uint256,uint256,uint256)": "infinite",
				"ECTwistMul(uint256,uint256,uint256,uint256,uint256)": "infinite",
				"GetFieldModulus()": "299"
			},
			"internal": {
				"_ECTwistAddJacobian(uint256,uint256,uint256,uint256,uint256,uint256,uint256,uint256,uint256,uint256,uint256,uint256)": "infinite",
				"_ECTwistDoubleJacobian(uint256,uint256,uint256,uint256,uint256,uint256)": "infinite",
				"_ECTwistMulJacobian(uint256,uint256,uint256,uint256,uint256,uint256,uint256)": "infinite",
				"_FQ2Add(uint256,uint256,uint256,uint256)": "infinite",
				"_FQ2Div(uint256,uint256,uint256,uint256)": "infinite",
				"_FQ2Inv(uint256,uint256)": "infinite",
				"_FQ2Muc(uint256,uint256,uint256)": "108",
				"_FQ2Mul(uint256,uint256,uint256,uint256)": "infinite",
				"_FQ2Sub(uint256,uint256,uint256,uint256)": "infinite",
				"_fromJacobian(uint256,uint256,uint256,uint256,uint256,uint256)": "infinite",
				"_isOnCurve(uint256,uint256,uint256,uint256)": "infinite",
				"_modInv(uint256,uint256)": "infinite",
				"submod(uint256,uint256,uint256)": "infinite"
			}
		},
		"methodIdentifiers": {
			"ECTwistAdd(uint256,uint256,uint256,uint256,uint256,uint256,uint256,uint256)": "61a931ec",
			"ECTwistMul(uint256,uint256,uint256,uint256,uint256)": "b73ab75d",
			"GetFieldModulus()": "55a3e90f"
		}
	},
	"abi": [
		{
			"inputs": [
				{
					"internalType": "uint256",
					"name": "pt1xx",
					"type": "uint256"
				},
				{
					"internalType": "uint256",
					"name": "pt1xy",
					"type": "uint256"
				},
				{
					"internalType": "uint256",
					"name": "pt1yx",
					"type": "uint256"
				},
				{
					"internalType": "uint256",
					"name": "pt1yy",
					"type": "uint256"
				},
				{
					"internalType": "uint256",
					"name": "pt2xx",
					"type": "uint256"
				},
				{
					"internalType": "uint256",
					"name": "pt2xy",
					"type": "uint256"
				},
				{
					"internalType": "uint256",
					"name": "pt2yx",
					"type": "uint256"
				},
				{
					"internalType": "uint256",
					"name": "pt2yy",
					"type": "uint256"
				}
			],
			"name": "ECTwistAdd",
			"outputs": [
				{
					"internalType": "uint256",
					"name": "",
					"type": "uint256"
				},
				{
					"internalType": "uint256",
					"name": "",
					"type": "uint256"
				},
				{
					"internalType": "uint256",
					"name": "",
					"type": "uint256"
				},
				{
					"internalType": "uint256",
					"name": "",
					"type": "uint256"
				}
			],
			"stateMutability": "view",
			"type": "function"
		},
		{
			"inputs": [
				{
					"internalType": "uint256",
					"name": "s",
					"type": "uint256"
				},
				{
					"internalType": "uint256",
					"name": "pt1xx",
					"type": "uint256"
				},
				{
					"internalType": "uint256",
					"name": "pt1xy",
					"type": "uint256"
				},
				{
					"internalType": "uint256",
					"name": "pt1yx",
					"type": "uint256"
				},
				{
					"internalType": "uint256",
					"name": "pt1yy",
					"type": "uint256"
				}
			],
			"name": "ECTwistMul",
			"outputs": [
				{
					"internalType": "uint256",
					"name": "",
					"type": "uint256"
				},
				{
					"internalType": "uint256",
					"name": "",
					"type": "uint256"
				},
				{
					"internalType": "uint256",
					"name": "",
					"type": "uint256"
				},
				{
					"internalType": "uint256",
					"name": "",
					"type": "uint256"
				}
			],
			"stateMutability": "view",
			"type": "function"
		},
		{
			"inputs": [],
			"name": "GetFieldModulus",
			"outputs": [
				{
					"internalType": "uint256",
					"name": "",
					"type": "uint256"
				}
			],
			"stateMutability": "pure",
			"type": "function"
		}
	]
}