{
	"data": {
		"bytecode": {
			"linkReferences": {
				"verifier.sol": {
					"BN256G2": [
						{
							"length": 20,
							"start": 2460
						}
					]
				}
			},
			"object": "608060405234801561001057600080fd5b506119a0806100206000396000f3fe608060405234801561001057600080fd5b506004361061002b5760003560e01c8063f48d772914610030575b600080fd5b61004a60048036038101906100459190611639565b610060565b6040516100579190611696565b60405180910390f35b600080600167ffffffffffffffff81111561007e5761007d611317565b5b6040519080825280602002602001820160405280156100ac5781602001602082028036833780820191505090505b50905060005b6001811015610105578381600181106100ce576100cd6116b1565b5b60200201518282815181106100e6576100e56116b1565b5b60200260200101818152505080806100fd9061170f565b9150506100b2565b506000610112828661012d565b03610121576001915050610127565b60009150505b92915050565b6000807f30644e72e131a029b85045b68181585d2833e84879b9709143e1f593f00000019050600061015d610302565b90508060a0015151600186516101739190611757565b1461017d57600080fd5b60006040518060400160405280600081526020016000815250905060005b865181101561023657838782815181106101b8576101b76116b1565b5b6020026020010151106101ca57600080fd5b6102218261021c8560a001516001856101e39190611757565b815181106101f4576101f36116b1565b5b60200260200101518a858151811061020f5761020e6116b1565b5b6020026020010151610763565b610805565b9150808061022e9061170f565b91505061019b565b50610260818360a00151600081518110610253576102526116b1565b5b6020026020010151610805565b90506102b082602001518360400151838560800151896040015187600001516102996102948d600001518b60200151610805565b6108cd565b6102ab8d602001518b60400151610972565b610b6a565b6102c057600193505050506102fc565b6102e4856000015183608001516102da85606001516108cd565b8860200151610d37565b6102f457600293505050506102fc565b600093505050505b92915050565b61030a6111d6565b604051806040016040528060405180604001604052807f1892c8973d10c9f349213655f13d49b0e7488edec661fa48bd0a9490992ee5ab81526020017f2aea204a4e2119be3186acf84b636acc7dc1ea39b250d92f38e79fccd9cd6637815250815260200160405180604001604052807f1c9e246bfed28dd09cf294f8671adfcccfec4db18c13aaf14936235e662da86d81526020017f0787f663abe8a6e7babb6f70fd47801989c4d2d90140a7a53452aafd3f2299a1815250815250816000018190525060405180604001604052807f2fa8fb2ef8714c119d621493418fcf550ef6bcc8823a3426ea6264a3ffbe45e681526020017f04d3f4142e5eed55f21202ce1b987f62fe61dbf083410b183f1f6aa80cdc15c78152508160200181905250604051806040016040528060405180604001604052807f12ed38b467f166cd862d7364e82d63aa1014b115fe543ae754e3d0b6d32d3a3381526020017f2362ea1f32d486bf8768966653f3875c6cc272302b5f2b30c4937edd80a380a1815250815260200160405180604001604052807f12ab9ef2a011871c6958426871724f7958fc6da80d938ed1bb4a6f04ea31847a81526020017f14a51acf244833dbceeda93190fd1969a33dc1af4189abee9e6f3ae61e4ef0ed815250815250816040018190525060405180604001604052807f1ed9d7bbac4ee73fe3d12daac465034049c0d6dfb6021d725697d0bc81e89c4681526020017f1b495ba82918d54a692264c1f8bb93825e0c931e95bad397e692141b859f76148152508160600181905250604051806040016040528060405180604001604052807f1892c8973d10c9f349213655f13d49b0e7488edec661fa48bd0a9490992ee5ab81526020017f2aea204a4e2119be3186acf84b636acc7dc1ea39b250d92f38e79fccd9cd6637815250815260200160405180604001604052807f1c9e246bfed28dd09cf294f8671adfcccfec4db18c13aaf14936235e662da86d81526020017f0787f663abe8a6e7babb6f70fd47801989c4d2d90140a7a53452aafd3f2299a18152508152508160800181905250600267ffffffffffffffff81111561062e5761062d611317565b5b60405190808252806020026020018201604052801561066757816020015b61065461122a565b81526020019060019003908161064c5790505b508160a0018190525060405180604001604052807f1f5416e16e56eed524894a6e0630107f8cfec22c2c38fa4a892a8960acfc91cc81526020017f23a6a3df88eeb6d572b7a7bce4a55ed92cb8c64c2de88a3eaae42dade26cd8ae8152508160a001516000815181106106dd576106dc6116b1565b5b602002602001018190525060405180604001604052807f27adc6b6a5c16d10f27dbd0488bde262b71f13cda17e2d7db146ff8f9d5887f181526020017f295ec6b4245944a7b91516387ffe870cb2c4817fd3fed95d7fff0c34f02d0f118152508160a00151600181518110610755576107546116b1565b5b602002602001018190525090565b61076b61122a565b610773611244565b83600001518160006003811061078c5761078b6116b1565b5b6020020181815250508360200151816001600381106107ae576107ad6116b1565b5b60200201818152505082816002600381106107cc576107cb6116b1565b5b602002018181525050600060608360808460076107d05a03fa905080600081036107f257fe5b50806107fd57600080fd5b505092915050565b61080d61122a565b610815611266565b83600001518160006004811061082e5761082d6116b1565b5b6020020181815250508360200151816001600481106108505761084f6116b1565b5b602002018181525050826000015181600260048110610872576108716116b1565b5b602002018181525050826020015181600360048110610894576108936116b1565b5b602002018181525050600060608360c08460066107d05a03fa905080600081036108ba57fe5b50806108c557600080fd5b505092915050565b6108d561122a565b60007f30644e72e131a029b85045b68181585d97816a916871ca8d3c208c16d87cfd47905060008360000151148015610912575060008360200151145b1561093657604051806040016040528060008152602001600081525091505061096d565b60405180604001604052808460000151815260200182856020015161095b91906117ba565b8361096691906117eb565b8152509150505b919050565b61097a611288565b73__$07f4b812d12dc90aa85ee049d68ea6545e$__6361a931ec84600001516000600281106109ac576109ab6116b1565b5b602002015185600001516001600281106109c9576109c86116b1565b5b602002015186602001516000600281106109e6576109e56116b1565b5b60200201518760200151600160028110610a0357610a026116b1565b5b60200201518760000151600060028110610a2057610a1f6116b1565b5b60200201518860000151600160028110610a3d57610a3c6116b1565b5b60200201518960200151600060028110610a5a57610a596116b1565b5b60200201518a60200151600160028110610a7757610a766116b1565b5b60200201516040518963ffffffff1660e01b8152600401610a9f98979695949392919061182e565b608060405180830381865af4158015610abc573d6000803e3d6000fd5b505050506040513d601f19601f82011682018060405250810190610ae091906118c1565b8460000151600060028110610af857610af76116b1565b5b602002018560000151600160028110610b1457610b136116b1565b5b602002018660200151600060028110610b3057610b2f6116b1565b5b602002018760200151600160028110610b4c57610b4b6116b1565b5b60200201848152508481525084815250848152505050505092915050565b600080600467ffffffffffffffff811115610b8857610b87611317565b5b604051908082528060200260200182016040528015610bc157816020015b610bae61122a565b815260200190600190039081610ba65790505b5090506000600467ffffffffffffffff811115610be157610be0611317565b5b604051908082528060200260200182016040528015610c1a57816020015b610c07611288565b815260200190600190039081610bff5790505b5090508a82600081518110610c3257610c316116b1565b5b60200260200101819052508882600181518110610c5257610c516116b1565b5b60200260200101819052508682600281518110610c7257610c716116b1565b5b60200260200101819052508482600381518110610c9257610c916116b1565b5b60200260200101819052508981600081518110610cb257610cb16116b1565b5b60200260200101819052508781600181518110610cd257610cd16116b1565b5b60200260200101819052508581600281518110610cf257610cf16116b1565b5b60200260200101819052508381600381518110610d1257610d116116b1565b5b6020026020010181905250610d278282610e80565b9250505098975050505050505050565b600080600267ffffffffffffffff811115610d5557610d54611317565b5b604051908082528060200260200182016040528015610d8e57816020015b610d7b61122a565b815260200190600190039081610d735790505b5090506000600267ffffffffffffffff811115610dae57610dad611317565b5b604051908082528060200260200182016040528015610de757816020015b610dd4611288565b815260200190600190039081610dcc5790505b5090508682600081518110610dff57610dfe6116b1565b5b60200260200101819052508482600181518110610e1f57610e1e6116b1565b5b60200260200101819052508581600081518110610e3f57610e3e6116b1565b5b60200260200101819052508381600181518110610e5f57610e5e6116b1565b5b6020026020010181905250610e748282610e80565b92505050949350505050565b60008151835114610e9057600080fd5b6000835190506000600682610ea59190611928565b905060008167ffffffffffffffff811115610ec357610ec2611317565b5b604051908082528060200260200182016040528015610ef15781602001602082028036833780820191505090505b50905060005b8381101561117657868181518110610f1257610f116116b1565b5b602002602001015160000151826000600684610f2e9190611928565b610f389190611757565b81518110610f4957610f486116b1565b5b602002602001018181525050868181518110610f6857610f676116b1565b5b602002602001015160200151826001600684610f849190611928565b610f8e9190611757565b81518110610f9f57610f9e6116b1565b5b602002602001018181525050858181518110610fbe57610fbd6116b1565b5b602002602001015160000151600160028110610fdd57610fdc6116b1565b5b6020020151826002600684610ff29190611928565b610ffc9190611757565b8151811061100d5761100c6116b1565b5b60200260200101818152505085818151811061102c5761102b6116b1565b5b60200260200101516000015160006002811061104b5761104a6116b1565b5b60200201518260036006846110609190611928565b61106a9190611757565b8151811061107b5761107a6116b1565b5b60200260200101818152505085818151811061109a576110996116b1565b5b6020026020010151602001516001600281106110b9576110b86116b1565b5b60200201518260046006846110ce9190611928565b6110d89190611757565b815181106110e9576110e86116b1565b5b602002602001018181525050858181518110611108576111076116b1565b5b602002602001015160200151600060028110611127576111266116b1565b5b602002015182600560068461113c9190611928565b6111469190611757565b81518110611157576111566116b1565b5b602002602001018181525050808061116e9061170f565b915050610ef7565b5061117f6112ae565b6000602082602086026020860160086107d05a03fa905080600081036111a157fe5b50806111ac57600080fd5b6000826000600181106111c2576111c16116b1565b5b602002015114159550505050505092915050565b6040518060c001604052806111e9611288565b81526020016111f661122a565b8152602001611203611288565b815260200161121061122a565b815260200161121d611288565b8152602001606081525090565b604051806040016040528060008152602001600081525090565b6040518060600160405280600390602082028036833780820191505090505090565b6040518060800160405280600490602082028036833780820191505090505090565b604051806040016040528061129b6112d0565b81526020016112a86112d0565b81525090565b6040518060200160405280600190602082028036833780820191505090505090565b6040518060400160405280600290602082028036833780820191505090505090565b6000604051905090565b600080fd5b600080fd5b6000601f19601f8301169050919050565b7f4e487b7100000000000000000000000000000000000000000000000000000000600052604160045260246000fd5b61134f82611306565b810181811067ffffffffffffffff8211171561136e5761136d611317565b5b80604052505050565b60006113816112f2565b905061138d8282611346565b919050565b6000819050919050565b6113a581611392565b81146113b057600080fd5b50565b6000813590506113c28161139c565b92915050565b6000604082840312156113de576113dd611301565b5b6113e86040611377565b905060006113f8848285016113b3565b600083015250602061140c848285016113b3565b60208301525092915050565b600080fd5b600067ffffffffffffffff82111561143857611437611317565b5b602082029050919050565b600080fd5b600061145b6114568461141d565b611377565b9050806020840283018581111561147557611474611443565b5b835b8181101561149e578061148a88826113b3565b845260208401935050602081019050611477565b5050509392505050565b600082601f8301126114bd576114bc611418565b5b60026114ca848285611448565b91505092915050565b6000608082840312156114e9576114e8611301565b5b6114f36040611377565b90506000611503848285016114a8565b6000830152506040611517848285016114a8565b60208301525092915050565b6000610100828403121561153a57611539611301565b5b6115446060611377565b90506000611554848285016113c8565b6000830152506040611568848285016114d3565b60208301525060c061157c848285016113c8565b60408301525092915050565b600067ffffffffffffffff8211156115a3576115a2611317565b5b602082029050919050565b60006115c16115bc84611588565b611377565b905080602084028301858111156115db576115da611443565b5b835b8181101561160457806115f088826113b3565b8452602084019350506020810190506115dd565b5050509392505050565b600082601f83011261162357611622611418565b5b60016116308482856115ae565b91505092915050565b6000806101208385031215611651576116506112fc565b5b600061165f85828601611523565b9250506101006116718582860161160e565b9150509250929050565b60008115159050919050565b6116908161167b565b82525050565b60006020820190506116ab6000830184611687565b92915050565b7f4e487b7100000000000000000000000000000000000000000000000000000000600052603260045260246000fd5b7f4e487b7100000000000000000000000000000000000000000000000000000000600052601160045260246000fd5b600061171a82611392565b91507fffffffffffffffffffffffffffffffffffffffffffffffffffffffffffffffff820361174c5761174b6116e0565b5b600182019050919050565b600061176282611392565b915061176d83611392565b9250828201905080821115611785576117846116e0565b5b92915050565b7f4e487b7100000000000000000000000000000000000000000000000000000000600052601260045260246000fd5b60006117c582611392565b91506117d083611392565b9250826117e0576117df61178b565b5b828206905092915050565b60006117f682611392565b915061180183611392565b9250828203905081811115611819576118186116e0565b5b92915050565b61182881611392565b82525050565b600061010082019050611844600083018b61181f565b611851602083018a61181f565b61185e604083018961181f565b61186b606083018861181f565b611878608083018761181f565b61188560a083018661181f565b61189260c083018561181f565b61189f60e083018461181f565b9998505050505050505050565b6000815190506118bb8161139c565b92915050565b600080600080608085870312156118db576118da6112fc565b5b60006118e9878288016118ac565b94505060206118fa878288016118ac565b935050604061190b878288016118ac565b925050606061191c878288016118ac565b91505092959194509250565b600061193382611392565b915061193e83611392565b925082820261194c81611392565b91508282048414831517611963576119626116e0565b5b509291505056fea26469706673582212209db72c7275dde2c510ded13d543fbb0aeb92273fded8dd03c1e7f6bbc7409d4464736f6c63430008120033",
			"opcodes": "PUSH1 0x80 PUSH1 0x40 MSTORE CALLVALUE DUP1 ISZERO PUSH2 0x10 JUMPI PUSH1 0x0 DUP1 REVERT JUMPDEST POP PUSH2 0x19A0 DUP1 PUSH2 0x20 PUSH1 0x0 CODECOPY PUSH1 0x0 RETURN INVALID PUSH1 0x80 PUSH1 0x40 MSTORE CALLVALUE DUP1 ISZERO PUSH2 0x10 JUMPI PUSH1 0x0 DUP1 REVERT JUMPDEST POP PUSH1 0x4 CALLDATASIZE LT PUSH2 0x2B JUMPI PUSH1 0x0 CALLDATALOAD PUSH1 0xE0 SHR DUP1 PUSH4 0xF48D7729 EQ PUSH2 0x30 JUMPI JUMPDEST PUSH1 0x0 DUP1 REVERT JUMPDEST PUSH2 0x4A PUSH1 0x4 DUP1 CALLDATASIZE SUB DUP2 ADD SWAP1 PUSH2 0x45 SWAP2 SWAP1 PUSH2 0x1639 JUMP JUMPDEST PUSH2 0x60 JUMP JUMPDEST PUSH1 0x40 MLOAD PUSH2 0x57 SWAP2 SWAP1 PUSH2 0x1696 JUMP JUMPDEST PUSH1 0x40 MLOAD DUP1 SWAP2 SUB SWAP1 RETURN JUMPDEST PUSH1 0x0 DUP1 PUSH1 0x1 PUSH8 0xFFFFFFFFFFFFFFFF DUP2 GT ISZERO PUSH2 0x7E JUMPI PUSH2 0x7D PUSH2 0x1317 JUMP JUMPDEST JUMPDEST PUSH1 0x40 MLOAD SWAP1 DUP1 DUP3 MSTORE DUP1 PUSH1 0x20 MUL PUSH1 0x20 ADD DUP3 ADD PUSH1 0x40 MSTORE DUP1 ISZERO PUSH2 0xAC JUMPI DUP2 PUSH1 0x20 ADD PUSH1 0x20 DUP3 MUL DUP1 CALLDATASIZE DUP4 CALLDATACOPY DUP1 DUP3 ADD SWAP2 POP POP SWAP1 POP JUMPDEST POP SWAP1 POP PUSH1 0x0 JUMPDEST PUSH1 0x1 DUP2 LT ISZERO PUSH2 0x105 JUMPI DUP4 DUP2 PUSH1 0x1 DUP2 LT PUSH2 0xCE JUMPI PUSH2 0xCD PUSH2 0x16B1 JUMP JUMPDEST JUMPDEST PUSH1 0x20 MUL ADD MLOAD DUP3 DUP3 DUP2 MLOAD DUP2 LT PUSH2 0xE6 JUMPI PUSH2 0xE5 PUSH2 0x16B1 JUMP JUMPDEST JUMPDEST PUSH1 0x20 MUL PUSH1 0x20 ADD ADD DUP2 DUP2 MSTORE POP POP DUP1 DUP1 PUSH2 0xFD SWAP1 PUSH2 0x170F JUMP JUMPDEST SWAP2 POP POP PUSH2 0xB2 JUMP JUMPDEST POP PUSH1 0x0 PUSH2 0x112 DUP3 DUP7 PUSH2 0x12D JUMP JUMPDEST SUB PUSH2 0x121 JUMPI PUSH1 0x1 SWAP2 POP POP PUSH2 0x127 JUMP JUMPDEST PUSH1 0x0 SWAP2 POP POP JUMPDEST SWAP3 SWAP2 POP POP JUMP JUMPDEST PUSH1 0x0 DUP1 PUSH32 0x30644E72E131A029B85045B68181585D2833E84879B9709143E1F593F0000001 SWAP1 POP PUSH1 0x0 PUSH2 0x15D PUSH2 0x302 JUMP JUMPDEST SWAP1 POP DUP1 PUSH1 0xA0 ADD MLOAD MLOAD PUSH1 0x1 DUP7 MLOAD PUSH2 0x173 SWAP2 SWAP1 PUSH2 0x1757 JUMP JUMPDEST EQ PUSH2 0x17D JUMPI PUSH1 0x0 DUP1 REVERT JUMPDEST PUSH1 0x0 PUSH1 0x40 MLOAD DUP1 PUSH1 0x40 ADD PUSH1 0x40 MSTORE DUP1 PUSH1 0x0 DUP2 MSTORE PUSH1 0x20 ADD PUSH1 0x0 DUP2 MSTORE POP SWAP1 POP PUSH1 0x0 JUMPDEST DUP7 MLOAD DUP2 LT ISZERO PUSH2 0x236 JUMPI DUP4 DUP8 DUP3 DUP2 MLOAD DUP2 LT PUSH2 0x1B8 JUMPI PUSH2 0x1B7 PUSH2 0x16B1 JUMP JUMPDEST JUMPDEST PUSH1 0x20 MUL PUSH1 0x20 ADD ADD MLOAD LT PUSH2 0x1CA JUMPI PUSH1 0x0 DUP1 REVERT JUMPDEST PUSH2 0x221 DUP3 PUSH2 0x21C DUP6 PUSH1 0xA0 ADD MLOAD PUSH1 0x1 DUP6 PUSH2 0x1E3 SWAP2 SWAP1 PUSH2 0x1757 JUMP JUMPDEST DUP2 MLOAD DUP2 LT PUSH2 0x1F4 JUMPI PUSH2 0x1F3 PUSH2 0x16B1 JUMP JUMPDEST JUMPDEST PUSH1 0x20 MUL PUSH1 0x20 ADD ADD MLOAD DUP11 DUP6 DUP2 MLOAD DUP2 LT PUSH2 0x20F JUMPI PUSH2 0x20E PUSH2 0x16B1 JUMP JUMPDEST JUMPDEST PUSH1 0x20 MUL PUSH1 0x20 ADD ADD MLOAD PUSH2 0x763 JUMP JUMPDEST PUSH2 0x805 JUMP JUMPDEST SWAP2 POP DUP1 DUP1 PUSH2 0x22E SWAP1 PUSH2 0x170F JUMP JUMPDEST SWAP2 POP POP PUSH2 0x19B JUMP JUMPDEST POP PUSH2 0x260 DUP2 DUP4 PUSH1 0xA0 ADD MLOAD PUSH1 0x0 DUP2 MLOAD DUP2 LT PUSH2 0x253 JUMPI PUSH2 0x252 PUSH2 0x16B1 JUMP JUMPDEST JUMPDEST PUSH1 0x20 MUL PUSH1 0x20 ADD ADD MLOAD PUSH2 0x805 JUMP JUMPDEST SWAP1 POP PUSH2 0x2B0 DUP3 PUSH1 0x20 ADD MLOAD DUP4 PUSH1 0x40 ADD MLOAD DUP4 DUP6 PUSH1 0x80 ADD MLOAD DUP10 PUSH1 0x40 ADD MLOAD DUP8 PUSH1 0x0 ADD MLOAD PUSH2 0x299 PUSH2 0x294 DUP14 PUSH1 0x0 ADD MLOAD DUP12 PUSH1 0x20 ADD MLOAD PUSH2 0x805 JUMP JUMPDEST PUSH2 0x8CD JUMP JUMPDEST PUSH2 0x2AB DUP14 PUSH1 0x20 ADD MLOAD DUP12 PUSH1 0x40 ADD MLOAD PUSH2 0x972 JUMP JUMPDEST PUSH2 0xB6A JUMP JUMPDEST PUSH2 0x2C0 JUMPI PUSH1 0x1 SWAP4 POP POP POP POP PUSH2 0x2FC JUMP JUMPDEST PUSH2 0x2E4 DUP6 PUSH1 0x0 ADD MLOAD DUP4 PUSH1 0x80 ADD MLOAD PUSH2 0x2DA DUP6 PUSH1 0x60 ADD MLOAD PUSH2 0x8CD JUMP JUMPDEST DUP9 PUSH1 0x20 ADD MLOAD PUSH2 0xD37 JUMP JUMPDEST PUSH2 0x2F4 JUMPI PUSH1 0x2 SWAP4 POP POP POP POP PUSH2 0x2FC JUMP JUMPDEST PUSH1 0x0 SWAP4 POP POP POP POP JUMPDEST SWAP3 SWAP2 POP POP JUMP JUMPDEST PUSH2 0x30A PUSH2 0x11D6 JUMP JUMPDEST PUSH1 0x40 MLOAD DUP1 PUSH1 0x40 ADD PUSH1 0x40 MSTORE DUP1 PUSH1 0x40 MLOAD DUP1 PUSH1 0x40 ADD PUSH1 0x40 MSTORE DUP1 PUSH32 0x1892C8973D10C9F349213655F13D49B0E7488EDEC661FA48BD0A9490992EE5AB DUP2 MSTORE PUSH1 0x20 ADD PUSH32 0x2AEA204A4E2119BE3186ACF84B636ACC7DC1EA39B250D92F38E79FCCD9CD6637 DUP2 MSTORE POP DUP2 MSTORE PUSH1 0x20 ADD PUSH1 0x40 MLOAD DUP1 PUSH1 0x40 ADD PUSH1 0x40 MSTORE DUP1 PUSH32 0x1C9E246BFED28DD09CF294F8671ADFCCCFEC4DB18C13AAF14936235E662DA86D DUP2 MSTORE PUSH1 0x20 ADD PUSH32 0x787F663ABE8A6E7BABB6F70FD47801989C4D2D90140A7A53452AAFD3F2299A1 DUP2 MSTORE POP DUP2 MSTORE POP DUP2 PUSH1 0x0 ADD DUP2 SWAP1 MSTORE POP PUSH1 0x40 MLOAD DUP1 PUSH1 0x40 ADD PUSH1 0x40 MSTORE DUP1 PUSH32 0x2FA8FB2EF8714C119D621493418FCF550EF6BCC8823A3426EA6264A3FFBE45E6 DUP2 MSTORE PUSH1 0x20 ADD PUSH32 0x4D3F4142E5EED55F21202CE1B987F62FE61DBF083410B183F1F6AA80CDC15C7 DUP2 MSTORE POP DUP2 PUSH1 0x20 ADD DUP2 SWAP1 MSTORE POP PUSH1 0x40 MLOAD DUP1 PUSH1 0x40 ADD PUSH1 0x40 MSTORE DUP1 PUSH1 0x40 MLOAD DUP1 PUSH1 0x40 ADD PUSH1 0x40 MSTORE DUP1 PUSH32 0x12ED38B467F166CD862D7364E82D63AA1014B115FE543AE754E3D0B6D32D3A33 DUP2 MSTORE PUSH1 0x20 ADD PUSH32 0x2362EA1F32D486BF8768966653F3875C6CC272302B5F2B30C4937EDD80A380A1 DUP2 MSTORE POP DUP2 MSTORE PUSH1 0x20 ADD PUSH1 0x40 MLOAD DUP1 PUSH1 0x40 ADD PUSH1 0x40 MSTORE DUP1 PUSH32 0x12AB9EF2A011871C6958426871724F7958FC6DA80D938ED1BB4A6F04EA31847A DUP2 MSTORE PUSH1 0x20 ADD PUSH32 0x14A51ACF244833DBCEEDA93190FD1969A33DC1AF4189ABEE9E6F3AE61E4EF0ED DUP2 MSTORE POP DUP2 MSTORE POP DUP2 PUSH1 0x40 ADD DUP2 SWAP1 MSTORE POP PUSH1 0x40 MLOAD DUP1 PUSH1 0x40 ADD PUSH1 0x40 MSTORE DUP1 PUSH32 0x1ED9D7BBAC4EE73FE3D12DAAC465034049C0D6DFB6021D725697D0BC81E89C46 DUP2 MSTORE PUSH1 0x20 ADD PUSH32 0x1B495BA82918D54A692264C1F8BB93825E0C931E95BAD397E692141B859F7614 DUP2 MSTORE POP DUP2 PUSH1 0x60 ADD DUP2 SWAP1 MSTORE POP PUSH1 0x40 MLOAD DUP1 PUSH1 0x40 ADD PUSH1 0x40 MSTORE DUP1 PUSH1 0x40 MLOAD DUP1 PUSH1 0x40 ADD PUSH1 0x40 MSTORE DUP1 PUSH32 0x1892C8973D10C9F349213655F13D49B0E7488EDEC661FA48BD0A9490992EE5AB DUP2 MSTORE PUSH1 0x20 ADD PUSH32 0x2AEA204A4E2119BE3186ACF84B636ACC7DC1EA39B250D92F38E79FCCD9CD6637 DUP2 MSTORE POP DUP2 MSTORE PUSH1 0x20 ADD PUSH1 0x40 MLOAD DUP1 PUSH1 0x40 ADD PUSH1 0x40 MSTORE DUP1 PUSH32 0x1C9E246BFED28DD09CF294F8671ADFCCCFEC4DB18C13AAF14936235E662DA86D DUP2 MSTORE PUSH1 0x20 ADD PUSH32 0x787F663ABE8A6E7BABB6F70FD47801989C4D2D90140A7A53452AAFD3F2299A1 DUP2 MSTORE POP DUP2 MSTORE POP DUP2 PUSH1 0x80 ADD DUP2 SWAP1 MSTORE POP PUSH1 0x2 PUSH8 0xFFFFFFFFFFFFFFFF DUP2 GT ISZERO PUSH2 0x62E JUMPI PUSH2 0x62D PUSH2 0x1317 JUMP JUMPDEST JUMPDEST PUSH1 0x40 MLOAD SWAP1 DUP1 DUP3 MSTORE DUP1 PUSH1 0x20 MUL PUSH1 0x20 ADD DUP3 ADD PUSH1 0x40 MSTORE DUP1 ISZERO PUSH2 0x667 JUMPI DUP2 PUSH1 0x20 ADD JUMPDEST PUSH2 0x654 PUSH2 0x122A JUMP JUMPDEST DUP2 MSTORE PUSH1 0x20 ADD SWAP1 PUSH1 0x1 SWAP1 SUB SWAP1 DUP2 PUSH2 0x64C JUMPI SWAP1 POP JUMPDEST POP DUP2 PUSH1 0xA0 ADD DUP2 SWAP1 MSTORE POP PUSH1 0x40 MLOAD DUP1 PUSH1 0x40 ADD PUSH1 0x40 MSTORE DUP1 PUSH32 0x1F5416E16E56EED524894A6E0630107F8CFEC22C2C38FA4A892A8960ACFC91CC DUP2 MSTORE PUSH1 0x20 ADD PUSH32 0x23A6A3DF88EEB6D572B7A7BCE4A55ED92CB8C64C2DE88A3EAAE42DADE26CD8AE DUP2 MSTORE POP DUP2 PUSH1 0xA0 ADD MLOAD PUSH1 0x0 DUP2 MLOAD DUP2 LT PUSH2 0x6DD JUMPI PUSH2 0x6DC PUSH2 0x16B1 JUMP JUMPDEST JUMPDEST PUSH1 0x20 MUL PUSH1 0x20 ADD ADD DUP2 SWAP1 MSTORE POP PUSH1 0x40 MLOAD DUP1 PUSH1 0x40 ADD PUSH1 0x40 MSTORE DUP1 PUSH32 0x27ADC6B6A5C16D10F27DBD0488BDE262B71F13CDA17E2D7DB146FF8F9D5887F1 DUP2 MSTORE PUSH1 0x20 ADD PUSH32 0x295EC6B4245944A7B91516387FFE870CB2C4817FD3FED95D7FFF0C34F02D0F11 DUP2 MSTORE POP DUP2 PUSH1 0xA0 ADD MLOAD PUSH1 0x1 DUP2 MLOAD DUP2 LT PUSH2 0x755 JUMPI PUSH2 0x754 PUSH2 0x16B1 JUMP JUMPDEST JUMPDEST PUSH1 0x20 MUL PUSH1 0x20 ADD ADD DUP2 SWAP1 MSTORE POP SWAP1 JUMP JUMPDEST PUSH2 0x76B PUSH2 0x122A JUMP JUMPDEST PUSH2 0x773 PUSH2 0x1244 JUMP JUMPDEST DUP4 PUSH1 0x0 ADD MLOAD DUP2 PUSH1 0x0 PUSH1 0x3 DUP2 LT PUSH2 0x78C JUMPI PUSH2 0x78B PUSH2 0x16B1 JUMP JUMPDEST JUMPDEST PUSH1 0x20 MUL ADD DUP2 DUP2 MSTORE POP POP DUP4 PUSH1 0x20 ADD MLOAD DUP2 PUSH1 0x1 PUSH1 0x3 DUP2 LT PUSH2 0x7AE JUMPI PUSH2 0x7AD PUSH2 0x16B1 JUMP JUMPDEST JUMPDEST PUSH1 0x20 MUL ADD DUP2 DUP2 MSTORE POP POP DUP3 DUP2 PUSH1 0x2 PUSH1 0x3 DUP2 LT PUSH2 0x7CC JUMPI PUSH2 0x7CB PUSH2 0x16B1 JUMP JUMPDEST JUMPDEST PUSH1 0x20 MUL ADD DUP2 DUP2 MSTORE POP POP PUSH1 0x0 PUSH1 0x60 DUP4 PUSH1 0x80 DUP5 PUSH1 0x7 PUSH2 0x7D0 GAS SUB STATICCALL SWAP1 POP DUP1 PUSH1 0x0 DUP2 SUB PUSH2 0x7F2 JUMPI INVALID JUMPDEST POP DUP1 PUSH2 0x7FD JUMPI PUSH1 0x0 DUP1 REVERT JUMPDEST POP POP SWAP3 SWAP2 POP POP JUMP JUMPDEST PUSH2 0x80D PUSH2 0x122A JUMP JUMPDEST PUSH2 0x815 PUSH2 0x1266 JUMP JUMPDEST DUP4 PUSH1 0x0 ADD MLOAD DUP2 PUSH1 0x0 PUSH1 0x4 DUP2 LT PUSH2 0x82E JUMPI PUSH2 0x82D PUSH2 0x16B1 JUMP JUMPDEST JUMPDEST PUSH1 0x20 MUL ADD DUP2 DUP2 MSTORE POP POP DUP4 PUSH1 0x20 ADD MLOAD DUP2 PUSH1 0x1 PUSH1 0x4 DUP2 LT PUSH2 0x850 JUMPI PUSH2 0x84F PUSH2 0x16B1 JUMP JUMPDEST JUMPDEST PUSH1 0x20 MUL ADD DUP2 DUP2 MSTORE POP POP DUP3 PUSH1 0x0 ADD MLOAD DUP2 PUSH1 0x2 PUSH1 0x4 DUP2 LT PUSH2 0x872 JUMPI PUSH2 0x871 PUSH2 0x16B1 JUMP JUMPDEST JUMPDEST PUSH1 0x20 MUL ADD DUP2 DUP2 MSTORE POP POP DUP3 PUSH1 0x20 ADD MLOAD DUP2 PUSH1 0x3 PUSH1 0x4 DUP2 LT PUSH2 0x894 JUMPI PUSH2 0x893 PUSH2 0x16B1 JUMP JUMPDEST JUMPDEST PUSH1 0x20 MUL ADD DUP2 DUP2 MSTORE POP POP PUSH1 0x0 PUSH1 0x60 DUP4 PUSH1 0xC0 DUP5 PUSH1 0x6 PUSH2 0x7D0 GAS SUB STATICCALL SWAP1 POP DUP1 PUSH1 0x0 DUP2 SUB PUSH2 0x8BA JUMPI INVALID JUMPDEST POP DUP1 PUSH2 0x8C5 JUMPI PUSH1 0x0 DUP1 REVERT JUMPDEST POP POP SWAP3 SWAP2 POP POP JUMP JUMPDEST PUSH2 0x8D5 PUSH2 0x122A JUMP JUMPDEST PUSH1 0x0 PUSH32 0x30644E72E131A029B85045B68181585D97816A916871CA8D3C208C16D87CFD47 SWAP1 POP PUSH1 0x0 DUP4 PUSH1 0x0 ADD MLOAD EQ DUP1 ISZERO PUSH2 0x912 JUMPI POP PUSH1 0x0 DUP4 PUSH1 0x20 ADD MLOAD EQ JUMPDEST ISZERO PUSH2 0x936 JUMPI PUSH1 0x40 MLOAD DUP1 PUSH1 0x40 ADD PUSH1 0x40 MSTORE DUP1 PUSH1 0x0 DUP2 MSTORE PUSH1 0x20 ADD PUSH1 0x0 DUP2 MSTORE POP SWAP2 POP POP PUSH2 0x96D JUMP JUMPDEST PUSH1 0x40 MLOAD DUP1 PUSH1 0x40 ADD PUSH1 0x40 MSTORE DUP1 DUP5 PUSH1 0x0 ADD MLOAD DUP2 MSTORE PUSH1 0x20 ADD DUP3 DUP6 PUSH1 0x20 ADD MLOAD PUSH2 0x95B SWAP2 SWAP1 PUSH2 0x17BA JUMP JUMPDEST DUP4 PUSH2 0x966 SWAP2 SWAP1 PUSH2 0x17EB JUMP JUMPDEST DUP2 MSTORE POP SWAP2 POP POP JUMPDEST SWAP2 SWAP1 POP JUMP JUMPDEST PUSH2 0x97A PUSH2 0x1288 JUMP JUMPDEST PUSH20 0x0 PUSH4 0x61A931EC DUP5 PUSH1 0x0 ADD MLOAD PUSH1 0x0 PUSH1 0x2 DUP2 LT PUSH2 0x9AC JUMPI PUSH2 0x9AB PUSH2 0x16B1 JUMP JUMPDEST JUMPDEST PUSH1 0x20 MUL ADD MLOAD DUP6 PUSH1 0x0 ADD MLOAD PUSH1 0x1 PUSH1 0x2 DUP2 LT PUSH2 0x9C9 JUMPI PUSH2 0x9C8 PUSH2 0x16B1 JUMP JUMPDEST JUMPDEST PUSH1 0x20 MUL ADD MLOAD DUP7 PUSH1 0x20 ADD MLOAD PUSH1 0x0 PUSH1 0x2 DUP2 LT PUSH2 0x9E6 JUMPI PUSH2 0x9E5 PUSH2 0x16B1 JUMP JUMPDEST JUMPDEST PUSH1 0x20 MUL ADD MLOAD DUP8 PUSH1 0x20 ADD MLOAD PUSH1 0x1 PUSH1 0x2 DUP2 LT PUSH2 0xA03 JUMPI PUSH2 0xA02 PUSH2 0x16B1 JUMP JUMPDEST JUMPDEST PUSH1 0x20 MUL ADD MLOAD DUP8 PUSH1 0x0 ADD MLOAD PUSH1 0x0 PUSH1 0x2 DUP2 LT PUSH2 0xA20 JUMPI PUSH2 0xA1F PUSH2 0x16B1 JUMP JUMPDEST JUMPDEST PUSH1 0x20 MUL ADD MLOAD DUP9 PUSH1 0x0 ADD MLOAD PUSH1 0x1 PUSH1 0x2 DUP2 LT PUSH2 0xA3D JUMPI PUSH2 0xA3C PUSH2 0x16B1 JUMP JUMPDEST JUMPDEST PUSH1 0x20 MUL ADD MLOAD DUP10 PUSH1 0x20 ADD MLOAD PUSH1 0x0 PUSH1 0x2 DUP2 LT PUSH2 0xA5A JUMPI PUSH2 0xA59 PUSH2 0x16B1 JUMP JUMPDEST JUMPDEST PUSH1 0x20 MUL ADD MLOAD DUP11 PUSH1 0x20 ADD MLOAD PUSH1 0x1 PUSH1 0x2 DUP2 LT PUSH2 0xA77 JUMPI PUSH2 0xA76 PUSH2 0x16B1 JUMP JUMPDEST JUMPDEST PUSH1 0x20 MUL ADD MLOAD PUSH1 0x40 MLOAD DUP10 PUSH4 0xFFFFFFFF AND PUSH1 0xE0 SHL DUP2 MSTORE PUSH1 0x4 ADD PUSH2 0xA9F SWAP9 SWAP8 SWAP7 SWAP6 SWAP5 SWAP4 SWAP3 SWAP2 SWAP1 PUSH2 0x182E JUMP JUMPDEST PUSH1 0x80 PUSH1 0x40 MLOAD DUP1 DUP4 SUB DUP2 DUP7 GAS DELEGATECALL ISZERO DUP1 ISZERO PUSH2 0xABC JUMPI RETURNDATASIZE PUSH1 0x0 DUP1 RETURNDATACOPY RETURNDATASIZE PUSH1 0x0 REVERT JUMPDEST POP POP POP POP PUSH1 0x40 MLOAD RETURNDATASIZE PUSH1 0x1F NOT PUSH1 0x1F DUP3 ADD AND DUP3 ADD DUP1 PUSH1 0x40 MSTORE POP DUP2 ADD SWAP1 PUSH2 0xAE0 SWAP2 SWAP1 PUSH2 0x18C1 JUMP JUMPDEST DUP5 PUSH1 0x0 ADD MLOAD PUSH1 0x0 PUSH1 0x2 DUP2 LT PUSH2 0xAF8 JUMPI PUSH2 0xAF7 PUSH2 0x16B1 JUMP JUMPDEST JUMPDEST PUSH1 0x20 MUL ADD DUP6 PUSH1 0x0 ADD MLOAD PUSH1 0x1 PUSH1 0x2 DUP2 LT PUSH2 0xB14 JUMPI PUSH2 0xB13 PUSH2 0x16B1 JUMP JUMPDEST JUMPDEST PUSH1 0x20 MUL ADD DUP7 PUSH1 0x20 ADD MLOAD PUSH1 0x0 PUSH1 0x2 DUP2 LT PUSH2 0xB30 JUMPI PUSH2 0xB2F PUSH2 0x16B1 JUMP JUMPDEST JUMPDEST PUSH1 0x20 MUL ADD DUP8 PUSH1 0x20 ADD MLOAD PUSH1 0x1 PUSH1 0x2 DUP2 LT PUSH2 0xB4C JUMPI PUSH2 0xB4B PUSH2 0x16B1 JUMP JUMPDEST JUMPDEST PUSH1 0x20 MUL ADD DUP5 DUP2 MSTORE POP DUP5 DUP2 MSTORE POP DUP5 DUP2 MSTORE POP DUP5 DUP2 MSTORE POP POP POP POP POP SWAP3 SWAP2 POP POP JUMP JUMPDEST PUSH1 0x0 DUP1 PUSH1 0x4 PUSH8 0xFFFFFFFFFFFFFFFF DUP2 GT ISZERO PUSH2 0xB88 JUMPI PUSH2 0xB87 PUSH2 0x1317 JUMP JUMPDEST JUMPDEST PUSH1 0x40 MLOAD SWAP1 DUP1 DUP3 MSTORE DUP1 PUSH1 0x20 MUL PUSH1 0x20 ADD DUP3 ADD PUSH1 0x40 MSTORE DUP1 ISZERO PUSH2 0xBC1 JUMPI DUP2 PUSH1 0x20 ADD JUMPDEST PUSH2 0xBAE PUSH2 0x122A JUMP JUMPDEST DUP2 MSTORE PUSH1 0x20 ADD SWAP1 PUSH1 0x1 SWAP1 SUB SWAP1 DUP2 PUSH2 0xBA6 JUMPI SWAP1 POP JUMPDEST POP SWAP1 POP PUSH1 0x0 PUSH1 0x4 PUSH8 0xFFFFFFFFFFFFFFFF DUP2 GT ISZERO PUSH2 0xBE1 JUMPI PUSH2 0xBE0 PUSH2 0x1317 JUMP JUMPDEST JUMPDEST PUSH1 0x40 MLOAD SWAP1 DUP1 DUP3 MSTORE DUP1 PUSH1 0x20 MUL PUSH1 0x20 ADD DUP3 ADD PUSH1 0x40 MSTORE DUP1 ISZERO PUSH2 0xC1A JUMPI DUP2 PUSH1 0x20 ADD JUMPDEST PUSH2 0xC07 PUSH2 0x1288 JUMP JUMPDEST DUP2 MSTORE PUSH1 0x20 ADD SWAP1 PUSH1 0x1 SWAP1 SUB SWAP1 DUP2 PUSH2 0xBFF JUMPI SWAP1 POP JUMPDEST POP SWAP1 POP DUP11 DUP3 PUSH1 0x0 DUP2 MLOAD DUP2 LT PUSH2 0xC32 JUMPI PUSH2 0xC31 PUSH2 0x16B1 JUMP JUMPDEST JUMPDEST PUSH1 0x20 MUL PUSH1 0x20 ADD ADD DUP2 SWAP1 MSTORE POP DUP9 DUP3 PUSH1 0x1 DUP2 MLOAD DUP2 LT PUSH2 0xC52 JUMPI PUSH2 0xC51 PUSH2 0x16B1 JUMP JUMPDEST JUMPDEST PUSH1 0x20 MUL PUSH1 0x20 ADD ADD DUP2 SWAP1 MSTORE POP DUP7 DUP3 PUSH1 0x2 DUP2 MLOAD DUP2 LT PUSH2 0xC72 JUMPI PUSH2 0xC71 PUSH2 0x16B1 JUMP JUMPDEST JUMPDEST PUSH1 0x20 MUL PUSH1 0x20 ADD ADD DUP2 SWAP1 MSTORE POP DUP5 DUP3 PUSH1 0x3 DUP2 MLOAD DUP2 LT PUSH2 0xC92 JUMPI PUSH2 0xC91 PUSH2 0x16B1 JUMP JUMPDEST JUMPDEST PUSH1 0x20 MUL PUSH1 0x20 ADD ADD DUP2 SWAP1 MSTORE POP DUP10 DUP2 PUSH1 0x0 DUP2 MLOAD DUP2 LT PUSH2 0xCB2 JUMPI PUSH2 0xCB1 PUSH2 0x16B1 JUMP JUMPDEST JUMPDEST PUSH1 0x20 MUL PUSH1 0x20 ADD ADD DUP2 SWAP1 MSTORE POP DUP8 DUP2 PUSH1 0x1 DUP2 MLOAD DUP2 LT PUSH2 0xCD2 JUMPI PUSH2 0xCD1 PUSH2 0x16B1 JUMP JUMPDEST JUMPDEST PUSH1 0x20 MUL PUSH1 0x20 ADD ADD DUP2 SWAP1 MSTORE POP DUP6 DUP2 PUSH1 0x2 DUP2 MLOAD DUP2 LT PUSH2 0xCF2 JUMPI PUSH2 0xCF1 PUSH2 0x16B1 JUMP JUMPDEST JUMPDEST PUSH1 0x20 MUL PUSH1 0x20 ADD ADD DUP2 SWAP1 MSTORE POP DUP4 DUP2 PUSH1 0x3 DUP2 MLOAD DUP2 LT PUSH2 0xD12 JUMPI PUSH2 0xD11 PUSH2 0x16B1 JUMP JUMPDEST JUMPDEST PUSH1 0x20 MUL PUSH1 0x20 ADD ADD DUP2 SWAP1 MSTORE POP PUSH2 0xD27 DUP3 DUP3 PUSH2 0xE80 JUMP JUMPDEST SWAP3 POP POP POP SWAP9 SWAP8 POP POP POP POP POP POP POP POP JUMP JUMPDEST PUSH1 0x0 DUP1 PUSH1 0x2 PUSH8 0xFFFFFFFFFFFFFFFF DUP2 GT ISZERO PUSH2 0xD55 JUMPI PUSH2 0xD54 PUSH2 0x1317 JUMP JUMPDEST JUMPDEST PUSH1 0x40 MLOAD SWAP1 DUP1 DUP3 MSTORE DUP1 PUSH1 0x20 MUL PUSH1 0x20 ADD DUP3 ADD PUSH1 0x40 MSTORE DUP1 ISZERO PUSH2 0xD8E JUMPI DUP2 PUSH1 0x20 ADD JUMPDEST PUSH2 0xD7B PUSH2 0x122A JUMP JUMPDEST DUP2 MSTORE PUSH1 0x20 ADD SWAP1 PUSH1 0x1 SWAP1 SUB SWAP1 DUP2 PUSH2 0xD73 JUMPI SWAP1 POP JUMPDEST POP SWAP1 POP PUSH1 0x0 PUSH1 0x2 PUSH8 0xFFFFFFFFFFFFFFFF DUP2 GT ISZERO PUSH2 0xDAE JUMPI PUSH2 0xDAD PUSH2 0x1317 JUMP JUMPDEST JUMPDEST PUSH1 0x40 MLOAD SWAP1 DUP1 DUP3 MSTORE DUP1 PUSH1 0x20 MUL PUSH1 0x20 ADD DUP3 ADD PUSH1 0x40 MSTORE DUP1 ISZERO PUSH2 0xDE7 JUMPI DUP2 PUSH1 0x20 ADD JUMPDEST PUSH2 0xDD4 PUSH2 0x1288 JUMP JUMPDEST DUP2 MSTORE PUSH1 0x20 ADD SWAP1 PUSH1 0x1 SWAP1 SUB SWAP1 DUP2 PUSH2 0xDCC JUMPI SWAP1 POP JUMPDEST POP SWAP1 POP DUP7 DUP3 PUSH1 0x0 DUP2 MLOAD DUP2 LT PUSH2 0xDFF JUMPI PUSH2 0xDFE PUSH2 0x16B1 JUMP JUMPDEST JUMPDEST PUSH1 0x20 MUL PUSH1 0x20 ADD ADD DUP2 SWAP1 MSTORE POP DUP5 DUP3 PUSH1 0x1 DUP2 MLOAD DUP2 LT PUSH2 0xE1F JUMPI PUSH2 0xE1E PUSH2 0x16B1 JUMP JUMPDEST JUMPDEST PUSH1 0x20 MUL PUSH1 0x20 ADD ADD DUP2 SWAP1 MSTORE POP DUP6 DUP2 PUSH1 0x0 DUP2 MLOAD DUP2 LT PUSH2 0xE3F JUMPI PUSH2 0xE3E PUSH2 0x16B1 JUMP JUMPDEST JUMPDEST PUSH1 0x20 MUL PUSH1 0x20 ADD ADD DUP2 SWAP1 MSTORE POP DUP4 DUP2 PUSH1 0x1 DUP2 MLOAD DUP2 LT PUSH2 0xE5F JUMPI PUSH2 0xE5E PUSH2 0x16B1 JUMP JUMPDEST JUMPDEST PUSH1 0x20 MUL PUSH1 0x20 ADD ADD DUP2 SWAP1 MSTORE POP PUSH2 0xE74 DUP3 DUP3 PUSH2 0xE80 JUMP JUMPDEST SWAP3 POP POP POP SWAP5 SWAP4 POP POP POP POP JUMP JUMPDEST PUSH1 0x0 DUP2 MLOAD DUP4 MLOAD EQ PUSH2 0xE90 JUMPI PUSH1 0x0 DUP1 REVERT JUMPDEST PUSH1 0x0 DUP4 MLOAD SWAP1 POP PUSH1 0x0 PUSH1 0x6 DUP3 PUSH2 0xEA5 SWAP2 SWAP1 PUSH2 0x1928 JUMP JUMPDEST SWAP1 POP PUSH1 0x0 DUP2 PUSH8 0xFFFFFFFFFFFFFFFF DUP2 GT ISZERO PUSH2 0xEC3 JUMPI PUSH2 0xEC2 PUSH2 0x1317 JUMP JUMPDEST JUMPDEST PUSH1 0x40 MLOAD SWAP1 DUP1 DUP3 MSTORE DUP1 PUSH1 0x20 MUL PUSH1 0x20 ADD DUP3 ADD PUSH1 0x40 MSTORE DUP1 ISZERO PUSH2 0xEF1 JUMPI DUP2 PUSH1 0x20 ADD PUSH1 0x20 DUP3 MUL DUP1 CALLDATASIZE DUP4 CALLDATACOPY DUP1 DUP3 ADD SWAP2 POP POP SWAP1 POP JUMPDEST POP SWAP1 POP PUSH1 0x0 JUMPDEST DUP4 DUP2 LT ISZERO PUSH2 0x1176 JUMPI DUP7 DUP2 DUP2 MLOAD DUP2 LT PUSH2 0xF12 JUMPI PUSH2 0xF11 PUSH2 0x16B1 JUMP JUMPDEST JUMPDEST PUSH1 0x20 MUL PUSH1 0x20 ADD ADD MLOAD PUSH1 0x0 ADD MLOAD DUP3 PUSH1 0x0 PUSH1 0x6 DUP5 PUSH2 0xF2E SWAP2 SWAP1 PUSH2 0x1928 JUMP JUMPDEST PUSH2 0xF38 SWAP2 SWAP1 PUSH2 0x1757 JUMP JUMPDEST DUP2 MLOAD DUP2 LT PUSH2 0xF49 JUMPI PUSH2 0xF48 PUSH2 0x16B1 JUMP JUMPDEST JUMPDEST PUSH1 0x20 MUL PUSH1 0x20 ADD ADD DUP2 DUP2 MSTORE POP POP DUP7 DUP2 DUP2 MLOAD DUP2 LT PUSH2 0xF68 JUMPI PUSH2 0xF67 PUSH2 0x16B1 JUMP JUMPDEST JUMPDEST PUSH1 0x20 MUL PUSH1 0x20 ADD ADD MLOAD PUSH1 0x20 ADD MLOAD DUP3 PUSH1 0x1 PUSH1 0x6 DUP5 PUSH2 0xF84 SWAP2 SWAP1 PUSH2 0x1928 JUMP JUMPDEST PUSH2 0xF8E SWAP2 SWAP1 PUSH2 0x1757 JUMP JUMPDEST DUP2 MLOAD DUP2 LT PUSH2 0xF9F JUMPI PUSH2 0xF9E PUSH2 0x16B1 JUMP JUMPDEST JUMPDEST PUSH1 0x20 MUL PUSH1 0x20 ADD ADD DUP2 DUP2 MSTORE POP POP DUP6 DUP2 DUP2 MLOAD DUP2 LT PUSH2 0xFBE JUMPI PUSH2 0xFBD PUSH2 0x16B1 JUMP JUMPDEST JUMPDEST PUSH1 0x20 MUL PUSH1 0x20 ADD ADD MLOAD PUSH1 0x0 ADD MLOAD PUSH1 0x1 PUSH1 0x2 DUP2 LT PUSH2 0xFDD JUMPI PUSH2 0xFDC PUSH2 0x16B1 JUMP JUMPDEST JUMPDEST PUSH1 0x20 MUL ADD MLOAD DUP3 PUSH1 0x2 PUSH1 0x6 DUP5 PUSH2 0xFF2 SWAP2 SWAP1 PUSH2 0x1928 JUMP JUMPDEST PUSH2 0xFFC SWAP2 SWAP1 PUSH2 0x1757 JUMP JUMPDEST DUP2 MLOAD DUP2 LT PUSH2 0x100D JUMPI PUSH2 0x100C PUSH2 0x16B1 JUMP JUMPDEST JUMPDEST PUSH1 0x20 MUL PUSH1 0x20 ADD ADD DUP2 DUP2 MSTORE POP POP DUP6 DUP2 DUP2 MLOAD DUP2 LT PUSH2 0x102C JUMPI PUSH2 0x102B PUSH2 0x16B1 JUMP JUMPDEST JUMPDEST PUSH1 0x20 MUL PUSH1 0x20 ADD ADD MLOAD PUSH1 0x0 ADD MLOAD PUSH1 0x0 PUSH1 0x2 DUP2 LT PUSH2 0x104B JUMPI PUSH2 0x104A PUSH2 0x16B1 JUMP JUMPDEST JUMPDEST PUSH1 0x20 MUL ADD MLOAD DUP3 PUSH1 0x3 PUSH1 0x6 DUP5 PUSH2 0x1060 SWAP2 SWAP1 PUSH2 0x1928 JUMP JUMPDEST PUSH2 0x106A SWAP2 SWAP1 PUSH2 0x1757 JUMP JUMPDEST DUP2 MLOAD DUP2 LT PUSH2 0x107B JUMPI PUSH2 0x107A PUSH2 0x16B1 JUMP JUMPDEST JUMPDEST PUSH1 0x20 MUL PUSH1 0x20 ADD ADD DUP2 DUP2 MSTORE POP POP DUP6 DUP2 DUP2 MLOAD DUP2 LT PUSH2 0x109A JUMPI PUSH2 0x1099 PUSH2 0x16B1 JUMP JUMPDEST JUMPDEST PUSH1 0x20 MUL PUSH1 0x20 ADD ADD MLOAD PUSH1 0x20 ADD MLOAD PUSH1 0x1 PUSH1 0x2 DUP2 LT PUSH2 0x10B9 JUMPI PUSH2 0x10B8 PUSH2 0x16B1 JUMP JUMPDEST JUMPDEST PUSH1 0x20 MUL ADD MLOAD DUP3 PUSH1 0x4 PUSH1 0x6 DUP5 PUSH2 0x10CE SWAP2 SWAP1 PUSH2 0x1928 JUMP JUMPDEST PUSH2 0x10D8 SWAP2 SWAP1 PUSH2 0x1757 JUMP JUMPDEST DUP2 MLOAD DUP2 LT PUSH2 0x10E9 JUMPI PUSH2 0x10E8 PUSH2 0x16B1 JUMP JUMPDEST JUMPDEST PUSH1 0x20 MUL PUSH1 0x20 ADD ADD DUP2 DUP2 MSTORE POP POP DUP6 DUP2 DUP2 MLOAD DUP2 LT PUSH2 0x1108 JUMPI PUSH2 0x1107 PUSH2 0x16B1 JUMP JUMPDEST JUMPDEST PUSH1 0x20 MUL PUSH1 0x20 ADD ADD MLOAD PUSH1 0x20 ADD MLOAD PUSH1 0x0 PUSH1 0x2 DUP2 LT PUSH2 0x1127 JUMPI PUSH2 0x1126 PUSH2 0x16B1 JUMP JUMPDEST JUMPDEST PUSH1 0x20 MUL ADD MLOAD DUP3 PUSH1 0x5 PUSH1 0x6 DUP5 PUSH2 0x113C SWAP2 SWAP1 PUSH2 0x1928 JUMP JUMPDEST PUSH2 0x1146 SWAP2 SWAP1 PUSH2 0x1757 JUMP JUMPDEST DUP2 MLOAD DUP2 LT PUSH2 0x1157 JUMPI PUSH2 0x1156 PUSH2 0x16B1 JUMP JUMPDEST JUMPDEST PUSH1 0x20 MUL PUSH1 0x20 ADD ADD DUP2 DUP2 MSTORE POP POP DUP1 DUP1 PUSH2 0x116E SWAP1 PUSH2 0x170F JUMP JUMPDEST SWAP2 POP POP PUSH2 0xEF7 JUMP JUMPDEST POP PUSH2 0x117F PUSH2 0x12AE JUMP JUMPDEST PUSH1 0x0 PUSH1 0x20 DUP3 PUSH1 0x20 DUP7 MUL PUSH1 0x20 DUP7 ADD PUSH1 0x8 PUSH2 0x7D0 GAS SUB STATICCALL SWAP1 POP DUP1 PUSH1 0x0 DUP2 SUB PUSH2 0x11A1 JUMPI INVALID JUMPDEST POP DUP1 PUSH2 0x11AC JUMPI PUSH1 0x0 DUP1 REVERT JUMPDEST PUSH1 0x0 DUP3 PUSH1 0x0 PUSH1 0x1 DUP2 LT PUSH2 0x11C2 JUMPI PUSH2 0x11C1 PUSH2 0x16B1 JUMP JUMPDEST JUMPDEST PUSH1 0x20 MUL ADD MLOAD EQ ISZERO SWAP6 POP POP POP POP POP POP SWAP3 SWAP2 POP POP JUMP JUMPDEST PUSH1 0x40 MLOAD DUP1 PUSH1 0xC0 ADD PUSH1 0x40 MSTORE DUP1 PUSH2 0x11E9 PUSH2 0x1288 JUMP JUMPDEST DUP2 MSTORE PUSH1 0x20 ADD PUSH2 0x11F6 PUSH2 0x122A JUMP JUMPDEST DUP2 MSTORE PUSH1 0x20 ADD PUSH2 0x1203 PUSH2 0x1288 JUMP JUMPDEST DUP2 MSTORE PUSH1 0x20 ADD PUSH2 0x1210 PUSH2 0x122A JUMP JUMPDEST DUP2 MSTORE PUSH1 0x20 ADD PUSH2 0x121D PUSH2 0x1288 JUMP JUMPDEST DUP2 MSTORE PUSH1 0x20 ADD PUSH1 0x60 DUP2 MSTORE POP SWAP1 JUMP JUMPDEST PUSH1 0x40 MLOAD DUP1 PUSH1 0x40 ADD PUSH1 0x40 MSTORE DUP1 PUSH1 0x0 DUP2 MSTORE PUSH1 0x20 ADD PUSH1 0x0 DUP2 MSTORE POP SWAP1 JUMP JUMPDEST PUSH1 0x40 MLOAD DUP1 PUSH1 0x60 ADD PUSH1 0x40 MSTORE DUP1 PUSH1 0x3 SWAP1 PUSH1 0x20 DUP3 MUL DUP1 CALLDATASIZE DUP4 CALLDATACOPY DUP1 DUP3 ADD SWAP2 POP POP SWAP1 POP POP SWAP1 JUMP JUMPDEST PUSH1 0x40 MLOAD DUP1 PUSH1 0x80 ADD PUSH1 0x40 MSTORE DUP1 PUSH1 0x4 SWAP1 PUSH1 0x20 DUP3 MUL DUP1 CALLDATASIZE DUP4 CALLDATACOPY DUP1 DUP3 ADD SWAP2 POP POP SWAP1 POP POP SWAP1 JUMP JUMPDEST PUSH1 0x40 MLOAD DUP1 PUSH1 0x40 ADD PUSH1 0x40 MSTORE DUP1 PUSH2 0x129B PUSH2 0x12D0 JUMP JUMPDEST DUP2 MSTORE PUSH1 0x20 ADD PUSH2 0x12A8 PUSH2 0x12D0 JUMP JUMPDEST DUP2 MSTORE POP SWAP1 JUMP JUMPDEST PUSH1 0x40 MLOAD DUP1 PUSH1 0x20 ADD PUSH1 0x40 MSTORE DUP1 PUSH1 0x1 SWAP1 PUSH1 0x20 DUP3 MUL DUP1 CALLDATASIZE DUP4 CALLDATACOPY DUP1 DUP3 ADD SWAP2 POP POP SWAP1 POP POP SWAP1 JUMP JUMPDEST PUSH1 0x40 MLOAD DUP1 PUSH1 0x40 ADD PUSH1 0x40 MSTORE DUP1 PUSH1 0x2 SWAP1 PUSH1 0x20 DUP3 MUL DUP1 CALLDATASIZE DUP4 CALLDATACOPY DUP1 DUP3 ADD SWAP2 POP POP SWAP1 POP POP SWAP1 JUMP JUMPDEST PUSH1 0x0 PUSH1 0x40 MLOAD SWAP1 POP SWAP1 JUMP JUMPDEST PUSH1 0x0 DUP1 REVERT JUMPDEST PUSH1 0x0 DUP1 REVERT JUMPDEST PUSH1 0x0 PUSH1 0x1F NOT PUSH1 0x1F DUP4 ADD AND SWAP1 POP SWAP2 SWAP1 POP JUMP JUMPDEST PUSH32 0x4E487B7100000000000000000000000000000000000000000000000000000000 PUSH1 0x0 MSTORE PUSH1 0x41 PUSH1 0x4 MSTORE PUSH1 0x24 PUSH1 0x0 REVERT JUMPDEST PUSH2 0x134F DUP3 PUSH2 0x1306 JUMP JUMPDEST DUP2 ADD DUP2 DUP2 LT PUSH8 0xFFFFFFFFFFFFFFFF DUP3 GT OR ISZERO PUSH2 0x136E JUMPI PUSH2 0x136D PUSH2 0x1317 JUMP JUMPDEST JUMPDEST DUP1 PUSH1 0x40 MSTORE POP POP POP JUMP JUMPDEST PUSH1 0x0 PUSH2 0x1381 PUSH2 0x12F2 JUMP JUMPDEST SWAP1 POP PUSH2 0x138D DUP3 DUP3 PUSH2 0x1346 JUMP JUMPDEST SWAP2 SWAP1 POP JUMP JUMPDEST PUSH1 0x0 DUP2 SWAP1 POP SWAP2 SWAP1 POP JUMP JUMPDEST PUSH2 0x13A5 DUP2 PUSH2 0x1392 JUMP JUMPDEST DUP2 EQ PUSH2 0x13B0 JUMPI PUSH1 0x0 DUP1 REVERT JUMPDEST POP JUMP JUMPDEST PUSH1 0x0 DUP2 CALLDATALOAD SWAP1 POP PUSH2 0x13C2 DUP2 PUSH2 0x139C JUMP JUMPDEST SWAP3 SWAP2 POP POP JUMP JUMPDEST PUSH1 0x0 PUSH1 0x40 DUP3 DUP5 SUB SLT ISZERO PUSH2 0x13DE JUMPI PUSH2 0x13DD PUSH2 0x1301 JUMP JUMPDEST JUMPDEST PUSH2 0x13E8 PUSH1 0x40 PUSH2 0x1377 JUMP JUMPDEST SWAP1 POP PUSH1 0x0 PUSH2 0x13F8 DUP5 DUP3 DUP6 ADD PUSH2 0x13B3 JUMP JUMPDEST PUSH1 0x0 DUP4 ADD MSTORE POP PUSH1 0x20 PUSH2 0x140C DUP5 DUP3 DUP6 ADD PUSH2 0x13B3 JUMP JUMPDEST PUSH1 0x20 DUP4 ADD MSTORE POP SWAP3 SWAP2 POP POP JUMP JUMPDEST PUSH1 0x0 DUP1 REVERT JUMPDEST PUSH1 0x0 PUSH8 0xFFFFFFFFFFFFFFFF DUP3 GT ISZERO PUSH2 0x1438 JUMPI PUSH2 0x1437 PUSH2 0x1317 JUMP JUMPDEST JUMPDEST PUSH1 0x20 DUP3 MUL SWAP1 POP SWAP2 SWAP1 POP JUMP JUMPDEST PUSH1 0x0 DUP1 REVERT JUMPDEST PUSH1 0x0 PUSH2 0x145B PUSH2 0x1456 DUP5 PUSH2 0x141D JUMP JUMPDEST PUSH2 0x1377 JUMP JUMPDEST SWAP1 POP DUP1 PUSH1 0x20 DUP5 MUL DUP4 ADD DUP6 DUP2 GT ISZERO PUSH2 0x1475 JUMPI PUSH2 0x1474 PUSH2 0x1443 JUMP JUMPDEST JUMPDEST DUP4 JUMPDEST DUP2 DUP2 LT ISZERO PUSH2 0x149E JUMPI DUP1 PUSH2 0x148A DUP9 DUP3 PUSH2 0x13B3 JUMP JUMPDEST DUP5 MSTORE PUSH1 0x20 DUP5 ADD SWAP4 POP POP PUSH1 0x20 DUP2 ADD SWAP1 POP PUSH2 0x1477 JUMP JUMPDEST POP POP POP SWAP4 SWAP3 POP POP POP JUMP JUMPDEST PUSH1 0x0 DUP3 PUSH1 0x1F DUP4 ADD SLT PUSH2 0x14BD JUMPI PUSH2 0x14BC PUSH2 0x1418 JUMP JUMPDEST JUMPDEST PUSH1 0x2 PUSH2 0x14CA DUP5 DUP3 DUP6 PUSH2 0x1448 JUMP JUMPDEST SWAP2 POP POP SWAP3 SWAP2 POP POP JUMP JUMPDEST PUSH1 0x0 PUSH1 0x80 DUP3 DUP5 SUB SLT ISZERO PUSH2 0x14E9 JUMPI PUSH2 0x14E8 PUSH2 0x1301 JUMP JUMPDEST JUMPDEST PUSH2 0x14F3 PUSH1 0x40 PUSH2 0x1377 JUMP JUMPDEST SWAP1 POP PUSH1 0x0 PUSH2 0x1503 DUP5 DUP3 DUP6 ADD PUSH2 0x14A8 JUMP JUMPDEST PUSH1 0x0 DUP4 ADD MSTORE POP PUSH1 0x40 PUSH2 0x1517 DUP5 DUP3 DUP6 ADD PUSH2 0x14A8 JUMP JUMPDEST PUSH1 0x20 DUP4 ADD MSTORE POP SWAP3 SWAP2 POP POP JUMP JUMPDEST PUSH1 0x0 PUSH2 0x100 DUP3 DUP5 SUB SLT ISZERO PUSH2 0x153A JUMPI PUSH2 0x1539 PUSH2 0x1301 JUMP JUMPDEST JUMPDEST PUSH2 0x1544 PUSH1 0x60 PUSH2 0x1377 JUMP JUMPDEST SWAP1 POP PUSH1 0x0 PUSH2 0x1554 DUP5 DUP3 DUP6 ADD PUSH2 0x13C8 JUMP JUMPDEST PUSH1 0x0 DUP4 ADD MSTORE POP PUSH1 0x40 PUSH2 0x1568 DUP5 DUP3 DUP6 ADD PUSH2 0x14D3 JUMP JUMPDEST PUSH1 0x20 DUP4 ADD MSTORE POP PUSH1 0xC0 PUSH2 0x157C DUP5 DUP3 DUP6 ADD PUSH2 0x13C8 JUMP JUMPDEST PUSH1 0x40 DUP4 ADD MSTORE POP SWAP3 SWAP2 POP POP JUMP JUMPDEST PUSH1 0x0 PUSH8 0xFFFFFFFFFFFFFFFF DUP3 GT ISZERO PUSH2 0x15A3 JUMPI PUSH2 0x15A2 PUSH2 0x1317 JUMP JUMPDEST JUMPDEST PUSH1 0x20 DUP3 MUL SWAP1 POP SWAP2 SWAP1 POP JUMP JUMPDEST PUSH1 0x0 PUSH2 0x15C1 PUSH2 0x15BC DUP5 PUSH2 0x1588 JUMP JUMPDEST PUSH2 0x1377 JUMP JUMPDEST SWAP1 POP DUP1 PUSH1 0x20 DUP5 MUL DUP4 ADD DUP6 DUP2 GT ISZERO PUSH2 0x15DB JUMPI PUSH2 0x15DA PUSH2 0x1443 JUMP JUMPDEST JUMPDEST DUP4 JUMPDEST DUP2 DUP2 LT ISZERO PUSH2 0x1604 JUMPI DUP1 PUSH2 0x15F0 DUP9 DUP3 PUSH2 0x13B3 JUMP JUMPDEST DUP5 MSTORE PUSH1 0x20 DUP5 ADD SWAP4 POP POP PUSH1 0x20 DUP2 ADD SWAP1 POP PUSH2 0x15DD JUMP JUMPDEST POP POP POP SWAP4 SWAP3 POP POP POP JUMP JUMPDEST PUSH1 0x0 DUP3 PUSH1 0x1F DUP4 ADD SLT PUSH2 0x1623 JUMPI PUSH2 0x1622 PUSH2 0x1418 JUMP JUMPDEST JUMPDEST PUSH1 0x1 PUSH2 0x1630 DUP5 DUP3 DUP6 PUSH2 0x15AE JUMP JUMPDEST SWAP2 POP POP SWAP3 SWAP2 POP POP JUMP JUMPDEST PUSH1 0x0 DUP1 PUSH2 0x120 DUP4 DUP6 SUB SLT ISZERO PUSH2 0x1651 JUMPI PUSH2 0x1650 PUSH2 0x12FC JUMP JUMPDEST JUMPDEST PUSH1 0x0 PUSH2 0x165F DUP6 DUP3 DUP7 ADD PUSH2 0x1523 JUMP JUMPDEST SWAP3 POP POP PUSH2 0x100 PUSH2 0x1671 DUP6 DUP3 DUP7 ADD PUSH2 0x160E JUMP JUMPDEST SWAP2 POP POP SWAP3 POP SWAP3 SWAP1 POP JUMP JUMPDEST PUSH1 0x0 DUP2 ISZERO ISZERO SWAP1 POP SWAP2 SWAP1 POP JUMP JUMPDEST PUSH2 0x1690 DUP2 PUSH2 0x167B JUMP JUMPDEST DUP3 MSTORE POP POP JUMP JUMPDEST PUSH1 0x0 PUSH1 0x20 DUP3 ADD SWAP1 POP PUSH2 0x16AB PUSH1 0x0 DUP4 ADD DUP5 PUSH2 0x1687 JUMP JUMPDEST SWAP3 SWAP2 POP POP JUMP JUMPDEST PUSH32 0x4E487B7100000000000000000000000000000000000000000000000000000000 PUSH1 0x0 MSTORE PUSH1 0x32 PUSH1 0x4 MSTORE PUSH1 0x24 PUSH1 0x0 REVERT JUMPDEST PUSH32 0x4E487B7100000000000000000000000000000000000000000000000000000000 PUSH1 0x0 MSTORE PUSH1 0x11 PUSH1 0x4 MSTORE PUSH1 0x24 PUSH1 0x0 REVERT JUMPDEST PUSH1 0x0 PUSH2 0x171A DUP3 PUSH2 0x1392 JUMP JUMPDEST SWAP2 POP PUSH32 0xFFFFFFFFFFFFFFFFFFFFFFFFFFFFFFFFFFFFFFFFFFFFFFFFFFFFFFFFFFFFFFFF DUP3 SUB PUSH2 0x174C JUMPI PUSH2 0x174B PUSH2 0x16E0 JUMP JUMPDEST JUMPDEST PUSH1 0x1 DUP3 ADD SWAP1 POP SWAP2 SWAP1 POP JUMP JUMPDEST PUSH1 0x0 PUSH2 0x1762 DUP3 PUSH2 0x1392 JUMP JUMPDEST SWAP2 POP PUSH2 0x176D DUP4 PUSH2 0x1392 JUMP JUMPDEST SWAP3 POP DUP3 DUP3 ADD SWAP1 POP DUP1 DUP3 GT ISZERO PUSH2 0x1785 JUMPI PUSH2 0x1784 PUSH2 0x16E0 JUMP JUMPDEST JUMPDEST SWAP3 SWAP2 POP POP JUMP JUMPDEST PUSH32 0x4E487B7100000000000000000000000000000000000000000000000000000000 PUSH1 0x0 MSTORE PUSH1 0x12 PUSH1 0x4 MSTORE PUSH1 0x24 PUSH1 0x0 REVERT JUMPDEST PUSH1 0x0 PUSH2 0x17C5 DUP3 PUSH2 0x1392 JUMP JUMPDEST SWAP2 POP PUSH2 0x17D0 DUP4 PUSH2 0x1392 JUMP JUMPDEST SWAP3 POP DUP3 PUSH2 0x17E0 JUMPI PUSH2 0x17DF PUSH2 0x178B JUMP JUMPDEST JUMPDEST DUP3 DUP3 MOD SWAP1 POP SWAP3 SWAP2 POP POP JUMP JUMPDEST PUSH1 0x0 PUSH2 0x17F6 DUP3 PUSH2 0x1392 JUMP JUMPDEST SWAP2 POP PUSH2 0x1801 DUP4 PUSH2 0x1392 JUMP JUMPDEST SWAP3 POP DUP3 DUP3 SUB SWAP1 POP DUP2 DUP2 GT ISZERO PUSH2 0x1819 JUMPI PUSH2 0x1818 PUSH2 0x16E0 JUMP JUMPDEST JUMPDEST SWAP3 SWAP2 POP POP JUMP JUMPDEST PUSH2 0x1828 DUP2 PUSH2 0x1392 JUMP JUMPDEST DUP3 MSTORE POP POP JUMP JUMPDEST PUSH1 0x0 PUSH2 0x100 DUP3 ADD SWAP1 POP PUSH2 0x1844 PUSH1 0x0 DUP4 ADD DUP12 PUSH2 0x181F JUMP JUMPDEST PUSH2 0x1851 PUSH1 0x20 DUP4 ADD DUP11 PUSH2 0x181F JUMP JUMPDEST PUSH2 0x185E PUSH1 0x40 DUP4 ADD DUP10 PUSH2 0x181F JUMP JUMPDEST PUSH2 0x186B PUSH1 0x60 DUP4 ADD DUP9 PUSH2 0x181F JUMP JUMPDEST PUSH2 0x1878 PUSH1 0x80 DUP4 ADD DUP8 PUSH2 0x181F JUMP JUMPDEST PUSH2 0x1885 PUSH1 0xA0 DUP4 ADD DUP7 PUSH2 0x181F JUMP JUMPDEST PUSH2 0x1892 PUSH1 0xC0 DUP4 ADD DUP6 PUSH2 0x181F JUMP JUMPDEST PUSH2 0x189F PUSH1 0xE0 DUP4 ADD DUP5 PUSH2 0x181F JUMP JUMPDEST SWAP10 SWAP9 POP POP POP POP POP POP POP POP POP JUMP JUMPDEST PUSH1 0x0 DUP2 MLOAD SWAP1 POP PUSH2 0x18BB DUP2 PUSH2 0x139C JUMP JUMPDEST SWAP3 SWAP2 POP POP JUMP JUMPDEST PUSH1 0x0 DUP1 PUSH1 0x0 DUP1 PUSH1 0x80 DUP6 DUP8 SUB SLT ISZERO PUSH2 0x18DB JUMPI PUSH2 0x18DA PUSH2 0x12FC JUMP JUMPDEST JUMPDEST PUSH1 0x0 PUSH2 0x18E9 DUP8 DUP3 DUP9 ADD PUSH2 0x18AC JUMP JUMPDEST SWAP5 POP POP PUSH1 0x20 PUSH2 0x18FA DUP8 DUP3 DUP9 ADD PUSH2 0x18AC JUMP JUMPDEST SWAP4 POP POP PUSH1 0x40 PUSH2 0x190B DUP8 DUP3 DUP9 ADD PUSH2 0x18AC JUMP JUMPDEST SWAP3 POP POP PUSH1 0x60 PUSH2 0x191C DUP8 DUP3 DUP9 ADD PUSH2 0x18AC JUMP JUMPDEST SWAP2 POP POP SWAP3 SWAP6 SWAP2 SWAP5 POP SWAP3 POP JUMP JUMPDEST PUSH1 0x0 PUSH2 0x1933 DUP3 PUSH2 0x1392 JUMP JUMPDEST SWAP2 POP PUSH2 0x193E DUP4 PUSH2 0x1392 JUMP JUMPDEST SWAP3 POP DUP3 DUP3 MUL PUSH2 0x194C DUP2 PUSH2 0x1392 JUMP JUMPDEST SWAP2 POP DUP3 DUP3 DIV DUP5 EQ DUP4 ISZERO OR PUSH2 0x1963 JUMPI PUSH2 0x1962 PUSH2 0x16E0 JUMP JUMPDEST JUMPDEST POP SWAP3 SWAP2 POP POP JUMP INVALID LOG2 PUSH5 0x6970667358 0x22 SLT KECCAK256 SWAP14 0xB7 0x2C PUSH19 0x75DDE2C510DED13D543FBB0AEB92273FDED8DD SUB 0xC1 0xE7 0xF6 0xBB 0xC7 BLOCKHASH SWAP14 PREVRANDAO PUSH5 0x736F6C6343 STOP ADDMOD SLT STOP CALLER "
		},
		"gasEstimates": {
			"creation": {
				"codeDepositCost": "1312000",
				"executionCost": "1363",
				"totalCost": "1313363"
			},
			"external": {
				"verifyTx(((uint256,uint256),(uint256[2],uint256[2]),(uint256,uint256)),uint256[1])": "infinite"
			},
			"internal": {
				"verify(uint256[] memory,struct Verifier.Proof memory)": "infinite",
				"verifyingKey()": "infinite"
			}
		},
		"methodIdentifiers": {
			"verifyTx(((uint256,uint256),(uint256[2],uint256[2]),(uint256,uint256)),uint256[1])": "f48d7729"
		}
	},
	"abi": [
		{
			"inputs": [
				{
					"components": [
						{
							"components": [
								{
									"internalType": "uint256",
									"name": "X",
									"type": "uint256"
								},
								{
									"internalType": "uint256",
									"name": "Y",
									"type": "uint256"
								}
							],
							"internalType": "struct Pairing.G1Point",
							"name": "a",
							"type": "tuple"
						},
						{
							"components": [
								{
									"internalType": "uint256[2]",
									"name": "X",
									"type": "uint256[2]"
								},
								{
									"internalType": "uint256[2]",
									"name": "Y",
									"type": "uint256[2]"
								}
							],
							"internalType": "struct Pairing.G2Point",
							"name": "b",
							"type": "tuple"
						},
						{
							"components": [
								{
									"internalType": "uint256",
									"name": "X",
									"type": "uint256"
								},
								{
									"internalType": "uint256",
									"name": "Y",
									"type": "uint256"
								}
							],
							"internalType": "struct Pairing.G1Point",
							"name": "c",
							"type": "tuple"
						}
					],
					"internalType": "struct Verifier.Proof",
					"name": "proof",
					"type": "tuple"
				},
				{
					"internalType": "uint256[1]",
					"name": "input",
					"type": "uint256[1]"
				}
			],
			"name": "verifyTx",
			"outputs": [
				{
					"internalType": "bool",
					"name": "r",
					"type": "bool"
				}
			],
			"stateMutability": "view",
			"type": "function"
		}
	]
}